:020000040800F2
:100000002004002045010008DD0B0008310B00082A
:10001000D90B00088D010008F10B0008000000005A
:10002000000000000000000000000000E50B0008D8
:100030009101000800000000E10B0008E90B000836
:100040005F0100085F0100085F0100085F01000810
:100050005F0100085F0100085F0100085F01000800
:100060005F0100085F0100085F0100085F010008F0
:100070005F0100085F0100085F0100085F010008E0
:100080005F0100085F0100085F0100085F010008D0
:100090005F0100085F0100085F0100085F010008C0
:1000A0005F0100085F0100085F0100085F010008B0
:1000B0005F0100085F0100085F0100085F010008A0
:1000C0005F0100085F0100085F0100085F01000890
:1000D0005F0100085F0100085F0100085F01000880
:1000E0005F0100085F0100085F0100085F01000870
:1000F0005F0100085F0100085F0100085F01000860
:100100005F0100085F0100085F0100085F0100084F
:100110005F0100085F0100085F0100085F0100083F
:100120005F0100085F0100085F0100085F0100082F
:10013000DFF80CD000F018F800480047F50B000875
:10014000200400200648804706480047FEE7FEE7F7
:10015000FEE7FEE7FEE7FEE7FEE7FEE7FEE7FEE777
:10016000ED0B000831010008064C074D06E0E06881
:1001700040F0010394E8070098471034AC42F6D3EE
:10018000FFF7DAFFD80C0008F80C0008FEE70000C3
:1001900070470000EFF3108072B600BFFEE700006A
:1001A000B0B5044600F018F9054640F20000C2F26E
:1001B00000000078611C18BF044400BF00F00CF977
:1001C000401BA042FAD3B0BD2DE9F04F83B041F6F9
:1001D0000043C4F201030E6806229842019008BF52
:1001E0000522002E009200F0ED80019840F20C45AF
:1001F000A0F18043A3F584334FEAB32740F20040D7
:100200004FF6FF73C4F20105C4F20100009A4FF0EB
:10021000000E4FF0010CC1F210034FF0000A4FF036
:10022000000B4FF00F08052F38BF3A46009208E048
:100230000E680AF1010A36FA0AF20EF1040E00F015
:10024000C1800CFA0AF916EA090FF1D04E689E42F5
:1002500012DC122E56D8DFE806F0350B454955550D
:1002600055555555555555555555554D510000BF8A
:10027000D1F80CB046E000BF4FF6FF72C1F2210288
:1002800096420FDC0022C1F2110296421AD00022DF
:10029000C1F21202964215D00022C1F2210296420A
:1002A00010D02FE00022C1F2220296420AD0002292
:1002B000C1F23102964205D00022C1F232029642CA
:1002C00020D100BF8E684EB1012E019A14BFC2F832
:1002D0001490C2F810904FF0080B13E04FF0040B8D
:1002E00010E000BFCF6807F1080B0BE04FF0000BE8
:1002F00008E000BFCF6807F1040B03E0CF6807F107
:100300000C0B00BF7446BAF1080F28BF203C019FB8
:1003100028BF04373E6808FA04F226EA02020BFA04
:1003200004F632433A60CA79D2067FF581AF41F2D2
:100330001807C4F202073A684FF6084C42F001026F
:100340003A603A68CFF6FF7C02F001020292029A0C
:100350002AF00302024452F80C700EF00C0608FA60
:1003600006F4A743009C04FA06F6374342F80C70E3
:10037000D1F804C05FEACC32026854BF22EA090611
:1003800042EA09065FEA8C320660426854BF22EAFC
:10039000090642EA09065FEACC224660826854BF39
:1003A00022EA090642EA09065FEA8C2286604FF0DB
:1003B000010C2A6854BF22EA090642EA09062E60A7
:1003C00036E700BF03B0BDE8F08F0000002A08BF89
:1003D000090401617047000040F21C00C2F20000F5
:1003E00000687047B0B538B304460068D4E901121C
:1003F0004CF6CC43036045F2555303604160826084
:10040000FFF7EAFF2168CA6892070FD0054602E0AD
:10041000C86880070AD0FFF7DFFF401B2168282843
:10042000F6D3C8688007F3D00320B0BD4AF6AA20EF
:1004300008600020B0BD00BF0120B0BD01684AF6D1
:10044000AA2200200A60704740F2000040F21C011E
:10045000C2F20000C2F2000100780A68104408608D
:100460007047000080B542F20000C4F2020001684B
:1004700041F010010160032000F07AF8032000F041
:1004800005F800F027F8002080BD000070B540F2AC
:100490000006C2F2000640F208013278C2F2000102
:1004A0004FF47A730968B3FBF2F20446B1FBF2F140
:1004B000084600F027FB0F2C4FF0010508D838B98B
:1004C0004FF0FF3021460022002500F025F874602F
:1004D000284670BD82B041F21800C4F202000168E3
:1004E000022241F001010160016801F00101019166
:1004F0000199416841F080514160406800F08050AE
:10050000009000980420C4F20100016862F31A61AF
:10051000016002B07047000010B54EF60C5CCEF2E0
:10052000000CDCF80030C3F3022E8EF00704042C1C
:1005300028BF0424BEF103034FF0FF3E0EFA04F47B
:1005400038BF0023A14399400EFA03F39A431143A5
:1005500000F00F02043A624409010C3200F16043DA
:10056000B0F1FF3FC8BF03F56442117010BD000039
:100570004EF60C51CEF200010A684FF6FF031A4006
:1005800060F30A2242F0806040F0FD70086070471E
:100590002DE9F04381B0002800F0858042F2000888
:1005A000C4F202080446D8F800000D4600F0070027
:1005B00088420CD2D8F8000020F007002843C8F881
:1005C0000000D8F8000000F00700A8426BD12068B6
:1005D00041F204098107C4F2020917D5410705D584
:1005E000D9F8001041F4E061C9F80010010705D501
:1005F000D9F8001041F46051C9F80010D9F8001082
:10060000A26821F0F0011143C9F80010C00741D1E0
:10061000D8F8000000F00700A8420CD9D8F8000074
:1006200020F007002843C8F80000D8F8000000F0C8
:100630000700A84237D12068410707D5D9F8001034
:10064000E26821F4E0611143C9F80010000708D501
:10065000D9F80000216920F4605040EAC100C9F8CF
:100660000000D9F8002002F00C00082841F2002018
:10067000C0F27A0050D140F6C643C2F38341C0F6BF
:100680000003595CD2033BD440F60010C0F23D0099
:10069000484341E0606802280AD001282AD159F86D
:1006A000041C890308D4012001B0BDE8F08300BF19
:1006B00059F8041C8901F6D5D9F8001021F003017E
:1006C0000843C9F80000FFF787FE064641F2883765
:1006D000D9F80000616800F00C00B0EB810F97D0F2
:1006E000FFF77AFE801BB842F2D9032001B0BDE8C3
:1006F000F08300BF59F8041C8907D4D5DCE700BF9C
:10070000D9F8002040F6B443C2F34042C0F60003DB
:100710009A5C4843B0FBF2F0D9F8001040F6B642BC
:10072000C1F30311C0F60002515C40F2080220FA46
:1007300001F140F20400C2F200000068C2F20002BF
:100740001160FFF7A3FE002001B0BDE8F0830000B8
:100750002DE9F04182B0002868D00446007841F2CB
:100760000006C007C4F2020625D0706800F00C0035
:1007700004281BD0706800F00C00082802D17068B3
:10078000C00313D46068002800F06881B0F5A02F82
:1007900000F07C81B0F5803F00F07C81306820F46F
:1007A00080303060306820F4802076E1306880034B
:1007B00001D56068D0B32078800718D5706810F034
:1007C0000C0F07D0706800F00C0008286ED170681C
:1007D000C0036BD43068800702D52069012825D179
:1007E0003068616920F0F80040EAC100306020788C
:1007F00000071FD42078400732D4E56995B17068AE
:1008000000F00C00082840F08F80012D0ED0706899
:10081000216A00F480328A4208D1616A00F47010C3
:10082000884203D1002002B0BDE8F081012002B06F
:10083000BDE8F081A069002862D00020C4F2422007
:100840000121C0F88014FFF7C7FD0546706A8007D4
:1008500000F18C80FFF7C0FD401B0228F6D92AE189
:10086000F06910F0805808D1F06940F08050F061D4
:10087000F06900F080500090009847F20007C4F241
:1008800000073868C00529D4386840F480703860A3
:10089000FFF7A2FD054600BF3868C0051ED4FFF76C
:1008A0009BFD401B6428F7D905E100BF20690028A3
:1008B00040F20000C4F2422000F082800121016079
:1008C000FFF78AFD054600BF306880073FF588AF17
:1008D000FFF782FD401B0228F6D9ECE0E068002813
:1008E00000F08080052800F09780012800F09880B3
:1008F000306A20F001003062306A20F0040092E09B
:100900000020C4F242200021C0F88014FFF764FDEB
:10091000054600BF706A80077FF56CAFFFF75CFD8E
:10092000401B0228F6D9C6E00027C4F24227002067
:100930003866FFF751FD022D05460BD13068800166
:1009400040F1BE80FFF748FD401B02284FF0030036
:10095000F4D968E7306880017FF564AFFFF73CFDAC
:10096000401B02284FF00300F4D95CE740F2080076
:10097000C2F20000006844F6D351C1F26201A0FB4C
:100980000101480A019000BF00BF0198411E0028E4
:1009900001913FF42FAF00BF0198411E0028019143
:1009A0003FF428AF00BF0198411E002801913FF499
:1009B00021AF00BF0198411E00280191E4D119E741
:1009C00000210160FFF708FD054600BF3068800781
:1009D0007FF50DAFFFF700FD401B02284FF003002D
:1009E000F4D920E7306A20F001003062306A20F04C
:1009F00004003062FFF7F0FC054641F2883700BF83
:100A0000306A800720D5FFF7E7FC401BB8424FF063
:100A10000300F5D907E700BF306A40F004003062F8
:100A2000306A40F001003062FFF7D6FC054641F223
:100A3000883700BF306A800706D4FFF7CDFC401B23
:100A4000B842F7D937E000BFB8F1000F7FF4D5AE58
:100A5000F06920F08050F061CFE600BF306820F4EC
:100A600080303060306820F480203060FFF7B4FCC4
:100A7000054600BF306880037FF59DAEFFF7ACFCF4
:100A8000401B64284FF00300F4D9CCE6306840F4F2
:100A900080203060306840F480303060FFF79CFC8C
:100AA000054600BF306880033FF585AEFFF794FC34
:100AB000401B6428F6D9032002B0BDE8F08100BFD6
:100AC000206AB0F5803F05D17168A26821F4003139
:100AD000114371607168626A21F474111043084314
:100AE000706001203866FFF777FC044630688001AB
:100AF0003FF598AEFFF770FC001B02284FF0030093
:100B0000F4D990E6411E0020B0EB116F1CBF01200C
:100B100070474EF21002CEF2000251604EF62351A1
:100B2000CEF20001F0230B70072190601160704736
:100B3000FEE7000070B584B041F21800C4F2020074
:100B4000016841F2000441F0100101600168C4F243
:100B5000010401F01001009100990168002241F0A8
:100B60002001016001684FF4005501F0200100915F
:100B700000990168002641F00401016000684FF40B
:100B8000005100F00400009000982046FFF71EFC82
:100B90000120CDE901060220039069462046009518
:100BA000FFF712FB04B070BD80B540F2100043F2B5
:100BB0000001C2F20000C4F2000103224FF47A7374
:100BC00080E80E00FFF70EFC002808BF80BDBDE8DE
:100BD0008040FFF7DFBA0000FEE70000FEE70000FC
:100BE0007047000070470000FFF72EBC7047000000
:100BF000FEE7000090B0FFF735FC092000240690C6
:100C00004FF480300225CDE90704CDE90D504FF4B3
:100C1000E01001210F9006A80B94CDE909440A9138
:100C20000C91FFF795FD28B1EFF3108072B600BF6D
:100C3000FEE700BF0F20CDE901054FF48060CDE94C
:100C4000040401A802210394FFF7A2FC20B1EFF3F2
:100C5000108072B6FEE700BFFFF76CFFFFF7A4FF3E
:100C600041F20004C4F2010420464FF40051002276
:100C7000FFF7ACFB4FF4FA70FFF792FA20464FF4FF
:100C800000510122FFF7A2FB40F21000C2F2000067
:100C9000FFF7D4FBFEE702E008C8121F08C1002AD4
:100CA000FAD170477047002001E001C1121F002AED
:100CB000FBD17047010200000000000000000102AB
:100CC00003040607080902030405060708090A0BBE
:100CD0000C0D0E0F10100000F80C00080000002092
:100CE00010000000960C0008080D000810000020FD
:100CF00010040000A60C0008010000001000000015
:080D00000024F40000000000D3
:0400000508000131BD
:00000001FF
