:020000040800F2
:10000000A8040020ED010008DB1300082D130008F0
:10001000D9130008F90200082119000800000000A7
:10002000000000000000000000000000DF130008D6
:10003000FB02000800000000DD130008E1130008C7
:10004000070200080702000807020008070200086C
:10005000070200080702000807020008070200085C
:10006000070200080702000807020008070200084C
:10007000070200080702000807020008070200083C
:10008000070200080702000807020008070200082C
:10009000070200080702000807020008070200081C
:1000A000070200080702000807020008070200080C
:1000B00007020008070200080702000807020008FC
:1000C00007020008070200080702000807020008EC
:1000D00007020008070200080702000807020008DC
:1000E00007020008070200080702000807020008CC
:1000F00007020008070200080702000807020008BC
:1001000007020008070200080702000807020008AB
:10011000070200080702000807020008070200089B
:10012000070200080702000807020008070200088B
:10013000070200080702000807020008070200087B
:10014000070200080702000807020008070200086B
:10015000070200080702000807020008070200085B
:10016000070200080702000807020008070200084B
:10017000070200080702000807020008070200083B
:10018000070200080702000807020008070200082B
:10019000070200080000000007020008070200082C
:1001A000070200080702000807020008070200080B
:1001B00007020008070200080702000807020008FB
:1001C00007020008070200080702000807020008EB
:1001D0000702000807020008DFF80CD000F07AF8E8
:1001E0000048004741190008A8040020064880473D
:1001F00006480047FEE7FEE7FEE7FEE7FEE7FEE70C
:10020000FEE7FEE7FEE7FEE755140008D901000807
:100210002DE9F05F0546002092469B46884606463B
:10022000814640241BE0284641464746224600F0CE
:1002300041F853465A46C01A914110D31146184608
:10024000224600F028F82D1A67EB01084F46224697
:100250000120002100F01FF817EB00094E41201E7D
:10026000A4F10104DFDC484631462A464346BDE896
:10027000F09FD2B201E000F8012B491EFBD270477B
:100280000022F6E710B513460A4604461946FFF762
:10029000F0FF204610BD202A04DB203A00FA02F1CC
:1002A000002070479140C2F1200320FA03F3194364
:1002B00090407047202A04DB203A21FA02F0002106
:1002C000704721FA02F3D040C2F120029140084366
:1002D00019467047064C074D06E0E06840F0010300
:1002E00094E8070098471034AC42F6D3FFF778FF44
:1002F000041A0008241A0008FEE77047EFF3108084
:1003000072B6FEE7B0B5044600F0D6F8054686485A
:10031000611C406818BF044400F0CEF8401BA042A6
:10032000FAD3B0BD2DE9FC4F5D4A06274FF0000A15
:100330004FF0010C4FF003094FF0000B00269042E4
:1003400000F138424FEAB22308BF0527052B38BF1A
:100350004FEAB22700970A6832FA06F308BFBDE8F1
:10036000FC8F0CFA06F312EA030E00F092804C6840
:1003700004F00302551E012D16D8D0F8088009FAA2
:100380000BF528EA0508CD6805FA0BF545EA0805DE
:100390008560C4F3001505FA06F8456825EA0303ED
:1003A00043EA0803436001E0032A1DD0C56809FA47
:1003B0000BF3022A25EA03038D6805FA0BF543EADD
:1003C0000503C36010D1374C0AF01C020F23934081
:1003D00004EA56040444256A25EA03030D6905FA74
:1003E00002F21A4322624C68056804F0030209FA1B
:1003F0000BF314F4403F02FA0BF225EA030342EA3E
:100400000302026045D0284A0AF00C050F2707FABC
:1004100005FC136843F001031360126802F0010247
:10042000019226F00302214C019B214B224452F8F9
:100430000380009F28EA0C0C07FA05F545EA0C0535
:100440004FF0010CD550A2684B6822EA0E0213F45B
:10045000801F18BF42EA0E0213F4001FA260154A63
:10046000156825EA0E0518BF45EA0E0513F4003F8E
:100470001560626822EA0E0218BF42EA0E0213F407
:10048000803F6260226822EA0E0218BF42EA0E0232
:1004900022600AF1040A0BF1020B01365BE700BF90
:1004A00000140048FCFFFF7F601002400004014080
:1004B00008FCFFFF0C0401401B488068704700BF28
:1004C00019484168826811448160704780B50320F3
:1004D00000F072F8032000F007F808B1012080BD99
:1004E00000F024F8002080BD70B50F4E04467068FF
:1004F000B0B14FF47A71B1FBF0F060490968B1FB1B
:10050000F0F000F0AFFD01250F2C0AD848B94FF0EC
:10051000FF3021460022002500F022F8346000E080
:100520000125284670BD00BF0400002082B00B48A2
:10053000816841F001018160816801F00101019150
:100540000199016841F080510160006800F080501D
:100550000090009802B000F095B800BF581002401B
:10056000B0B5144C1A4D00F00F03B0F1FF3FA3F1EA
:1005700004032B4403F10C03C8BF03192868C0F31C
:100580000220051DC41E80F00700072D4FF0010555
:1005900038BF0024042828BF042005FA00F00138E1
:1005A000084005FA04F10F31A04011400843000152
:1005B0001870B0BD00E400E005494FF6FF030A687B
:1005C0001A4060F30A22034810430860704700BFD6
:1005D0000CED00E00000FA05D54910B30A68B0F54B
:1005E000007F43D1D1F8800040F48070C1F88000D2
:1005F00002F4C060B0F5806F3CD10868012262F35C
:100600004A20322208601D48006850431C4AB0FB53
:10061000F2F0C0434A6918B3013012F48062F9D194
:100620001EE00868D1F8802000F4C06022F48072D7
:10063000B0F5806FC1F880201CD10868012262F3F8
:100640004A20322208600D48006850430C4AB0FB33
:10065000F2F0C0434A6918B1013012F48062F9D156
:10066000486910F4806F05D0032004E0022060F395
:100670004A220A600020C0B2704700BF100000206C
:1006800040420F000248016841F480410160704718
:10069000087000402DE9FC410446A078A34E0007F5
:1006A00001D4002060E0F06CA14F10F0805F0BD10E
:1006B000F06C4FF0010840F08050F064F06C00F0F6
:1006C00080500190019801E04FF00008386840F434
:1006D00080703860FFF7F0FE0546386810F4807FC0
:1006E00006D1FFF7E9FE401B0228F6D9032034E0CB
:1006F000D6F8840010F4407026D0216D884211D0C5
:10070000D6F88400D6F8841041F4803120F440708B
:10071000C6F88410D6F8841021F48031C6F884100D
:10072000C6F88400C0070FD0FFF7C6FE054641F2A9
:100730008837D6F8840010F0020F05D1FFF7BCFE11
:10074000401BB842F5D9D1E7D6F88400216D20F4DA
:1007500040700843C6F884000020B8F1010F02BFC2
:10076000F16C21F08051F164216811F0010F05D086
:10077000F26F636822F003021A43F2678A0705D515
:10078000F26FA36822F00C021A43F2674A0705D5FC
:10079000F26FE36822F030021A43F2670A0705D5C8
:1007A000F26F236922F0C0021A43F267CA0605D528
:1007B000F26F636922F440721A43F2678A0605D524
:1007C000F26FA36922F440621A43F2674A0605D524
:1007D000F26FE36922F440521A43F2670A0605D524
:1007E000F26F236A22F440421A43F267CA0505D524
:1007F000F26F636A22F440321A43F2678A0307D524
:10080000D6F89020A36A22F003021A43C6F890207B
:100810008A0505D5F26FE36A22F440221A43F26793
:100820004A050DD5F26F236B22F44012B3F5801FF9
:1008300042EA0302F26702BF326842F48012326079
:100840000A050DD5F26F636B22F44002B3F5800FF9
:1008500042EA0302F26702BF326842F48012326059
:10086000CA040DD5F26FA36B22F04072B3F1807F02
:1008700042EA0302F26702BF326842F48012326039
:100880008A040DD5F26FE36B22F04062B3F1006F82
:1008900042EA0302F26702BF326842F48012326019
:1008A0004A040DD5F26F236C22F04062B3F1006F61
:1008B00042EA0302F26702BF326842F480123260F9
:1008C0000A040DD5F26F636C22F04052B3F1805FE1
:1008D00042EA0302F26702BF326842F480323260B9
:1008E000CA030DD5F26FA36C22F04042B3F1804FE2
:1008F00042EA0302F26702BF326842F48032326099
:1009000049030FD5D6F89010E26C21F44011B2F5EE
:10091000001F41EA0201C6F8901002BF316841F49D
:1009200080113160C0B202B0BDE8F0810C1002400D
:10093000007000402DE9F04781468A46B9F1000F6A
:1009400052D0714F4FF48050395801F00F0151458A
:100950000AD2395821F00F0141EA0A0139503858BA
:1009600000F00F0050453FD1D9F8000010F0010F02
:1009700002D14FF0000864E0D9F80410634E032957
:100980002DD1396811F0007F2ED0F968FA68FB6824
:10099000FD680224C5F3416501F0030104EB450540
:1009A000844C032904BF41F60034C0F2B704C2F3FB
:1009B0000311C3F306220131B4FBF1F15143B1FB42
:1009C000F5F1B14208D9B96811F0F00F16D08007DF
:1009D00002D5D9F8080088B14FF0000815E0386852
:1009E000022905D1800305D40120C0B2BDE8F087FB
:1009F0004005F9D500F0ACF8B042EDD9B86808214F
:100A00004FF0800861F30710B860B868D9F8041097
:100A100020F003000843B860FFF74EFD064641F2A0
:100A20008834B868D9F8041000F00C00B0EB810FDE
:100A300005D0FFF741FD801BA042F2D93AE0D9F87A
:100A40000000810706D4B8F1800F17D1B96821F0F2
:100A5000F00112E0410742BFB96841F4E061B960BA
:100A6000010741BFB968072262F30D21B960B96877
:100A7000D9F8082021F0F0011143B9604FF48054F7
:100A8000395901F00F01514518D9385920F00F009C
:100A900040EA0A003851FFF70FFD064641F288355B
:100AA000385900F00F00504506D0FFF705FD801BB8
:100AB000A842F5D9032098E7D9F80000410706D5E8
:100AC000B968D9F80C2021F4E0611143B96000073E
:100AD00007D5B868D9F8101020F4605040EAC1007A
:100AE000B86000F035F8B968094AC1F30311515CE8
:100AF00001F01F01C8401449086006480068BDE8BD
:100B0000F047FFF7F1BC00BF0010024000B4C4047E
:100B1000D4190008040000200B480C4A006824493E
:100B20000968C1F30221515C01F01F01C840704700
:100B30000548064A00681E490968C1F3C221515C94
:100B400001F01F01C840704710000020E4190008A0
:100B500017490868174A00F00C000428104608BF1F
:100B60007047086800F00C031348082B1ED00B6870
:100B700003F00C030C2B1CBF002070474B6803F0E4
:100B80000303032B08BF02464868C0F3031001307B
:100B9000B2FBF0F04A68C2F30622496850430222D1
:100BA000C1F3416102EB4101B0FBF1F0704700BFBE
:100BB000081002400024F400001BB7002DE9F843A0
:100BC0008146B9F1000F00F0D98199F80000C84EB4
:100BD000C84FC00722D199F8000080074FD499F878
:100BE0000000000740F1AB80D9F81410D7F890004E
:100BF000002900F0928040F00100C7F89000FFF754
:100C00005BFC0546D7F8900010F0020F40F097808B
:100C1000FFF752FC401B0228F4D9E0E0786800F0AE
:100C20000C01B868082954D000F003000C390338CF
:100C3000B1FA81F1B0FA80F0490940090840012871
:100C400047D0D9F80440B4F5803F07D03068B4F5F8
:100C5000A02F40F0E18040F480203060306840F404
:100C600080303060FFF728FC0546306810F4003F04
:100C7000B1D1FFF721FC401B6428F6D9AFE07868BA
:100C800000F00C01B86804292ED000F003000C39E4
:100C90000238B1FA81F1B0FA80F049094009084000
:100CA000012821D0D9F80C103068002900F0998073
:100CB00040F480703060FFF7FFFB0546306810F4A9
:100CC000806F40F0A080FFF7F7FB401B0228F5D9AA
:100CD00085E0306810F4003F3FF47DAFD9F80400A0
:100CE00000287FF478AF49E1306810F4806F04D0B9
:100CF000D9F80C00002800F041813868D9F81010AC
:100D000020F0FE4040EA01603860D1480068FFF7FB
:100D1000EBFB002840F0328161E720F00100C7F8CA
:100D20009000FFF7C9FB0546D7F8900010F0020FBE
:100D300005D0FFF7C1FB401B0228F5D94FE099F819
:100D40000000400740F1A580786D10F0805F0BD166
:100D5000786D4FF0010840F080507865786D00F0B4
:100D600080500090009801E04FF00008B9483058DA
:100D700010F4807F12D1B748315841F4807131505E
:100D8000FFF79AFB0546B348305810F4807F05D131
:100D9000FFF792FB401B0228F5D920E0D9F8084064
:100DA000012C07D0D7F88C00052C4ED140F0040060
:100DB000C7F88C00D7F88C0040F00100C7F88C0011
:100DC000FFF77AFB054641F28834D7F88C0010F023
:100DD000020F57D1FFF770FB401BA042F5D903204B
:100DE000CDE020F480703060FFF766FB0546306888
:100DF00010F4806F3FF4F3AEFFF75EFB411B03205E
:100E00000229F4D9BBE03868D9F8101020F0FE4070
:100E100040EA01603860E2E620F4803030603068FB
:100E200020F480203060FFF747FB0546002C7FF45C
:100E30001CAF306810F4003F3FF4CDAEFFF73CFB31
:100E4000411B03206429F4D999E020F00100C7F880
:100E50008C00D7F88C0020F00400C7F88C00FFF756
:100E60002BFB0546002CAED141F28834D7F88C001C
:100E700010F0020F06D0FFF71FFB411B0320A14219
:100E8000F4D97CE0B8F1010F02BF786D20F08050FA
:100E9000786599F8000080062ED5D9F81810D7F893
:100EA000940091B140F00100C7F89400FFF704FBF3
:100EB0000546D7F8940010F0020F1DD1FFF7FCFA99
:100EC000411B03200229F4D959E020F00100C7F8A2
:100ED0009400FFF7F1FA0546D7F8940010F0020FDE
:100EE0000AD0FFF7E9FA411B03200229F4D946E0B2
:100EF0000010024004100240D9F81C00002800F045
:100F0000A480796801F00C010C293CD1012835D06E
:100F1000B868D9F8201000F003028A422ED1D9F81F
:100F200024106FF00F0202EB011100F0F0028A4270
:100F300024D1D9F8281000F4FE42B2EB012F1DD1C4
:100F4000D9F82C1000F07842B2EBC16F16D1D9F865
:100F50003010434A02EA015100F4C002A1F5001129
:100F60008A420BD1D9F834104FF07E4200F0C060B5
:100F700002EA016101F17E41884266D00120C0B2DF
:100F800001B0BDE8F0833168022821F08071316042
:100F90000DD1FFF791FA0546306810F0007F1CD0A4
:100FA000FFF78AFA411B03200229F5D9E7E7B86861
:100FB00020F00300B860B86827490840B860FFF720
:100FC0007BFA0446306810F0007F3ED0FFF774FAD9
:100FD000011B03200229F5D9D1E709F12005B868E2
:100FE0006FF00F042ECD04EB02121C4C204008437E
:100FF000D9F8301010431A4A40EA032002EA01519E
:101000004FF07E42A1F500110843D9F8341040EAB0
:10101000C56002EA016101F17E410843B8603068B1
:1010200040F080703060B86840F08070B860FFF7C2
:1010300043FA0446306810F0007F06D1FFF73CFA0F
:10104000011B03200229F5D999E7002097E700BF8B
:10105000040000200060FEFFFFFFEEFE0C809F01F9
:101060000000E0FF411E0020B0EB116F1CBF01200B
:101070007047044AF023516003490B7007219060C8
:101080001160704710E000E023ED00E090F8801060
:10109000012901D1022112E02421C0F88410026844
:1010A0001368116821F0010123F000531160002141
:1010B000416613602022C0F8842080F88010C8B2F6
:1010C0007047B0B5044694F88000012801D1022091
:1010D0001BE0012084F880002420C4F884002068EC
:1010E0000568026822F001020260826822F06062F4
:1010F00011438160204600F0B5F92068056020208A
:10110000C4F88400002084F88000C0B2B0BDB0B53F
:10111000044694F88000012801D102201BE0012040
:1011200084F880002420C4F88400206805680268E0
:1011300022F001020260826822F060421143816065
:10114000204600F08FF9206805602020C4F8840054
:10115000002084F88000C0B2B0BD10B50446ACB128
:10116000D4F8840028B9002084F88000204600F0DC
:1011700027F82420C4F884002068016821F00101C8
:101180000160204600F03CFA012801D1012010BD89
:10119000A06A10B1204600F093F92068416821F45C
:1011A00090414160816821F02A018160016841F02D
:1011B000010101602046BDE8104000F0EBB90000DD
:1011C000F0B59BB0044616A81421FFF759F801A802
:1011D0005421FFF755F820687E4988423ED101200E
:1011E0000025019001A80295FFF754FA08B1FFF716
:1011F00085F85F480226072716AC416941F4804113
:101200004161416901F4804100910099016841F018
:1012100004010160016801F0040100910099016876
:1012200041F0010101602146006800F001000090DA
:10123000009810201690CDE9176519951A9708485F
:10124000FFF770F84FF480602146CDE916064FF0A5
:101250009040CDE918551A97FFF764F81BB0F0BD20
:10126000000800482DE9FC470446994616460D46FD
:10127000D4F88400202806D101202DB126B194F89D
:101280008000012804D10220C0B202B0BDE8F0877E
:1012900001204FF0000A84F880002120C4F88CA0BF
:1012A000C4F88400FFF708F9A4F85460A4F8566065
:1012B0008046A068B0F5805F06D127690026002F20
:1012C0000CBF2E462F4601E02F46002684F880A052
:1012D00018E02046802100224346CDF8009000F01F
:1012E000B3FAE0B9206817B117F8011B04E036F82B
:1012F000021B00276FF35F218162B4F856000138AA
:10130000A4F85600B4F856000028E2D12046402147
:1013100000224346CDF8009000F096FA08B1032071
:10132000B2E72020C4F884000020ADE7FEE700000B
:1013300083B00F48016841F020010160016801F0AD
:10134000200102910299016841F0040101600168E5
:1013500001F0040101910199016841F0010101606E
:10136000006800F001000090009803B0704700BFD3
:101370004C10024010B5164C16484FF4E1310022D3
:101380000C2384E8070004F118001421C4E90322A7
:101390006361FEF775FF2046FFF7DFFE08B1FEF739
:1013A000ADFF0B480021FFF7B2FE08B1FEF7A6FF24
:1013B00007480021FFF785FE08B1FEF79FFF0448AC
:1013C000FFF764FE18B1BDE81040FEF797BF10BDEF
:1013D0001800002000380140FEE7FEE77047704724
:1013E000FFF76EB870B594B006AC142104F1080094
:1013F000FEF746FF01A81421FEF742FF002000255A
:10140000FFF7EAF801200326552106904FF48030BB
:10141000079002200D90CDE90E66CDE91010CDE9C0
:1014200012002046FFF7CAFB18B1EFF3108072B626
:10143000FEE70F200421CDE9010601A8CDE90355FF
:101440000595FFF777FA18B1EFF3108072B6FEE753
:1014500014B070BD0248016841F47001016070472A
:1014600088ED00E0416ED9B180B502680FF2400C02
:101470000FF2440E9168C1F3426192681CF801308A
:101480001EF80110520FC900B1FBF3F11CF8023035
:101490001EF80220D200B2FBF3F2BDE8804001E06A
:1014A00001220121A0F86A20A0F86810704700BF4F
:1014B0000804020408010101010101030701000001
:1014C000816A11F0010F08D002685368D0F82CC06F
:1014D00023F4003343EA0C0353608A0708D50268FB
:1014E0005368D0F830C023F4803343EA0C035360D0
:1014F0004A0708D502685368D0F834C023F4802323
:1015000043EA0C0353600A0708D502685368D0F811
:1015100038C023F4004343EA0C035360CA0608D5DD
:1015200002689368D0F83CC023F4805343EA0C036C
:1015300093608A0608D502689368D0F840C023F407
:10154000005343EA0C03936080B54A0615D5D0F8E2
:1015500000E0DEF804C0436C2CF48012B3F5801F69
:1015600042EA0302CEF8042007D1DEF80420836C9F
:1015700022F4C0021A43CEF804200906BDE88040D8
:1015800058BF704701684A68C06C22F400221043BB
:1015900048607047BCB504460020C4F88C00FEF7D4
:1015A0008BFF05462068016811F0080F0AD0134828
:1015B0004FF4001100222B460090204600F044F921
:1015C00070B92068006810F0040F0BD00B484FF47E
:1015D000800100222B460090204600F035F908B12A
:1015E000032008E02020C4F88400C4F8880000200C
:1015F000E06684F88000C0B202B0B0BDFFFFFF011A
:10160000F8B504462168A068D4E9042310431843C0
:10161000E3690A687F4D18432A4010430860486810
:10162000E26820F4405010434860A0697A4E7B4D38
:101630007B4A91421CBF226A10438A68794F3A4024
:1016400010438860C86A626A20F00F001043C862C5
:101650007548764FB94213D0754FB94213D0754FC4
:10166000B94213D0744FB94213D06D4FB94213D061
:10167000724FB94240F05280366805F580650DE042
:101680003768BE080AE037683E0907E03768BE09D8
:1016900004E037683E0A01E03768BE0A86F00207B8
:1016A0006FF31F5507F0030747EA870725FA07F688
:1016B0005B4DA94212D0B3F5004F1FD106F01F03B6
:1016C0000121082B00F29B80DFE803F005566099AA
:1016D000599999995E00FFF71FFA52E006F01F032F
:1016E0000121082B00F28B80DFE803F005892289B5
:1016F0001A8989892000FFF70FFA13E006F01F030B
:101700000121082B00F27B80DFE803F005596379A3
:101710005C7979796100FFF7FFF955E01026C7E79A
:10172000FFF716FA002867D0626A01E04FF4004024
:101730004349656831F8122005EB45070121B0FBEC
:10174000F2F3BB425BD32F03BB4258D800210023E6
:10175000FEF75EFD09022A46002341EA10610002FD
:1017600010EB550041F10001FEF752FD354AA0F59E
:101770004071914221D941E0FFF7DAF901E0FFF72A
:10178000E7F9C8B3626A01E04FF400402C4931F830
:101790001210B0FBF1F061684A0802EB40004FF60E
:1017A000EF72B0FBF1F0A0F11001914226D84FF694
:1017B000F0710140C0F34200084321681BE0FFF7CD
:1017C000B7F901E0FFF7C4F9B0B1626A01E04FF484
:1017D00000401B4931F812104FF6EF72B0FBF1F0E8
:1017E000616800EB5100B0FBF1F0A0F110019142F3
:1017F00004D8216880B2C860002100E001210120E6
:10180000A4F86A00A4F868000020C4E91C00084697
:1018100001B0F0BDF369FFCF881002400201020061
:1018200000800040FFF4FF110024F4000044004059
:1018300000480040004C004000500040003801408B
:10184000EC190008FFFC0F002DE9F8430446DDF811
:101850002090984616460F46206809F10105C16997
:101860003940C91BB1FA81F14909B14217D1002DA4
:10187000F5D0FEF721FEB9F1000F15D0A0EB08005E
:10188000484511D82068016811F0040F1CBFC169D8
:1018900011F4006FE3D04FF4006101621FE00020FB
:1018A000C0B201B0BDE8F083206850E8000F2168A5
:1018B00020F4D07041E80002002AF5D1206850E8F9
:1018C000020F216820F0010041E80202002AF5D150
:1018D0002020C4F8840004F188001AE0206850E851
:1018E000000F216820F4D07041E80002002AF5D1F1
:1018F000206850E8020F216820F0010041E8020250
:10190000002AF5D12020C4F88400C4F8880004F12E
:101910008C0020210160002084F880000320BFE7B4
:10192000FEE70000E0B50190044801A901224FF450
:101930007A73FFF797FC019802B080BD1800002071
:1019400010B5FEF7C3FDFFF74DFDFFF7F1FCFFF704
:1019500011FD04A4204600F02BF84FF47A70FEF736
:10196000D1FCF7E7582050756C73652053544D3304
:1019700032473437344345553620757361727420CD
:101980007072696E746620746573742E2E2E0D004D
:1019900002E008C8121F08C1002AFAD17047704738
:1019A000002001E001C1121F002AFBD17047000096
:1019B00010B5044601E0FFF7B5FF14F8010B044928
:1019C0000028F8D1BDE810400A20FFF7ABBF0000A7
:1019D00000000020000000000000000001020304DD
:1019E00006070809000000000102030401000200CC
:1019F0000400060008000A000C001000200040004F
:101A000080000001281A00080000002018000000D3
:101A100090190008401A00081800002090040000E7
:101A2000A0190008000000000000000010000000E5
:101A300001000000000000000024F400000000008D
:04000005080001D915
:00000001FF
