:020000040800F2
:10000000C006002079020008091400088D130008BA
:1000100005140008350300082D1400080000000036
:1000200000000000000000000000000011140008A3
:1000300039030008000000000D1400081514000822
:10004000930200089302000893020008930200083C
:10005000930200089302000893020008930200082C
:10006000930200089302000893020008930200081C
:10007000930200089302000893020008930200080C
:100080009302000800000000930200089302000899
:1000900093020008930200089302000893020008EC
:1000A00093020008930200089302000893020008DC
:1000B00093020008930200089302000893020008CC
:1000C00093020008930200089302000893020008BC
:1000D00093020008930200089302000893020008AC
:1000E000930200089302000893020008930200089C
:1000F0009302000893020008930200080000000029
:1001000000000000930200080000000093020008B5
:100110009302000800000000930200089302000808
:10012000930200089302000893020008930200085B
:100130009302000800000000000000009302000885
:100140009302000893020008000000000000000075
:10015000000000000000000000000000000000009F
:1001600000000000000000000000000093020008F2
:1001700093020008000000000000000000000000E2
:1001800000000000930200080000000000000000D2
:10019000000000000000000000000000000000005F
:1001A0000000000000000000930200089302000815
:1001B0009302000893020008930200080000000068
:1001C0000000000093020008000000000000000092
:1001D000930200089302000800F002F800F03CF8D7
:1001E0000AA090E8000C82448344AAF10107DA4592
:1001F00001D100F031F8AFF2090EBAE80F0013F0A8
:10020000010F18BFFB1A43F001031847D814000070
:10021000F8140000103A24BF78C878C1FAD8520701
:1002200024BF30C830C144BF04680C607047000070
:100230000023002400250026103A28BF78C1FBD8EF
:10024000520728BF30C148BF0B6070471FB501F08F
:1002500034FA1FBD10B510BD00F031F81146FFF79C
:10026000F5FF01F0E5F800F04FF803B4FFF7F2FFF7
:1002700003BC00F057F800000948804709480047D0
:10028000FEE7FEE7FEE7FEE7FEE7FEE7FEE7FEE746
:10029000FEE7FEE704480549054A064B70470000A3
:1002A00019140008D9010008C0000020C006002071
:1002B000C0020020C002002070477047704775469A
:1002C00000F02CF8AE4605006946534620F00700C2
:1002D000854618B020B5FFF7DDFFBDE820404FF0A0
:1002E00000064FF000074FF000084FF0000BAC463F
:1002F000ACE8C009ACE8C009ACE8C009ACE8C0098A
:1003000021F007018D46704710B50446AFF3008019
:100310002046BDE81040FFF7A8BF00000048704726
:100320003000002001491820ABBEFEE72600020085
:1003300070470000FEE700007047000070B542F211
:1003400010060446C4F2020600F0EAFA054600BFB1
:100350003068C00306D500F0E3FA401BA042F7D98D
:10036000032070BD30684CF2FA3101400AD040F2EF
:100370000C00C2F2000042680A4342600120316072
:1003800070BD00BF3068C0074FF0000008BF70BDEF
:100390000121316070BD0000B0B5044600F0C0FA24
:1003A000054640F20000C2F200004068611C18BF20
:1003B000044400BF00F0B4FA401BA042FAD3B0BD21
:1003C0002DE9F04381B040F20C09C2F2000999F81E
:1003D0000020012A04D1022001B0BDE8F08300BF53
:1003E0000546012089F800004FF47A708846FFF72F
:1003F000A5FF28B1002189F8001001B0BDE8F08305
:1004000042F200070020C4F20207C9F8040038686D
:10041000396849053AD4C0F3402089F81C0028689F
:10042000012842D04FF0FF30C8F80000D5E9024063
:100430002044844221D2E600786906F4FF6120F46A
:10044000FC7008437861786940F00200786178694F
:1004500040F4803078614FF47A70FFF76FFF79696C
:10046000002821F4FD71796162D1D5E902010134DE
:100470000844844206F10806DED3002099F81C10D7
:1004800001F0FD02012A29D038E000BF396810F4DC
:1004900000704FF0030021F4806108BF0220396032
:1004A00089F81C0028680128BCD12879C00703D02E
:1004B000786940F004007861786940F480307861B0
:1004C0004FF47A70FFF73AFF796921F004017961FE
:1004D00099F81C1001F0FD02012A0FD13A6822F4AC
:1004E00000723A603A6842F400623A603A6822F474
:1004F00000623A603A6842F400723A6001F0FE012C
:1005000002290BD1396841F480513960396821F4EE
:1005100080513960396841F480613960002189F87F
:100520001C10002189F8001001B0BDE8F08300BF65
:10053000C8F8004099F81C1001F0FD02012ACDD046
:10054000DCE7000042F21400C4F20200016841F04E
:10055000004101600068C043C00F70472DE9F047BB
:1005600040F20C09C2F20009924699F80020012AD3
:1005700004BF0220BDE8F087804642F2100501204A
:100580001F460E46C4F2020589F8000000F0C8F9C3
:10059000044600BF2868C0030CD500F0C1F9001B59
:1005A000B0F57A7FF6D90320002189F80010BDE864
:1005B000F08700BF28684CF2FA3108400CD0D9F817
:1005C00004100143C9F8041028600120002189F8B3
:1005D0000010BDE8F08700BF2868C0071CBF0120DD
:1005E00028600020B8F1000FC9F8040046D0A8F137
:1005F0000100012850D86868AAF1400240F4802028
:100600006860EFF31080EFF3108172B6A6F140013D
:10061000402300BF52F8407F103B41F8407F5768AD
:100620001E064F6097688F60D768CF6017690F61AB
:1006300057694F6197698F61D769CF61176A0F62F8
:10064000576A4F62976A8F62D76ACF62176B0F63E0
:10065000576B4F63976B8F63D76BCF63DAD1B8F16A
:10066000020718BF012780F310884FF0FF36B8F15A
:10067000020F08BF6FF4802611E000BF686840F0E9
:1006800001006860C6F800A0BFF36F8F77606FF05D
:100690000106002703E000BF4FF0FF36012700F0FE
:1006A0003FF904462868C0030AD500F039F9001B59
:1006B000B0F57A7FF6D90320002F7FF475AF1AE0EA
:1006C00028684CF2FA31014006D0D9F804000843FA
:1006D000C9F8040001200AE02868C0074FF00000B4
:1006E00004D1002F7FF460AF05E000BF0121296035
:1006F000002F7FF459AF696831406960002189F8A3
:100700000010BDE8F087000042F20800C4F20200C9
:10071000C168B1F1FF3FC4BF0020704740F2231110
:10072000C4F26751016048F6AB11CCF6EF5101609D
:10073000C068C00F704700002DE9F04F84B08E46AE
:1007400041F20042C4F60002DEF800400621904269
:10075000019008BF0521002C009100F0D78001987E
:10076000002500F138424FEAB22300980127002605
:100770004FF00008052B38BF18460090CDF808E070
:100780000EE000BFDEF8004008F1010834FA07F17E
:1007900006F1020607F1010705F1040500F0B68035
:1007A000A7F1010A012000FA0AF314EA0309E9D0CB
:1007B000DEF804C00CF0030BABF10104012C17D8D8
:1007C0000198744681680322E468B2409143B440C2
:1007D0002143816041684FEA480E9943CCF30013EE
:1007E00003FA0AF30446D043194361600CE000BFEA
:1007F0000321B140019CC843BBF1030FB64603D1AE
:10080000B6464FF0030B23E0E168029A014093687B
:10081000BBF1020F03FA0EF341EA0301E16017D1C5
:100820006FF0030101EA5A01214405F01C040F2373
:10083000D1F820C003FA04FB13692CEA0B0CA34087
:1008400043EA0C03019C0B62D2F804C00CF0030BCA
:1008500021680BFA0EF2014011432160DDF808E037
:100860001CF4403F8ED041F26000C4F202000168E7
:1008700040F2004C41F0010101600168C4F2010C3A
:1008800001F00101039103992AF003014FF6084A90
:100890006144CFF6FF7A05F00C030F2051F80A20CF
:1008A00000FA03F40098A24300FA03F31A4341F854
:1008B0000A20DCF80810DEF8042041EA090340F2BF
:1008C0000C40D40258BF21EA0903CCF80830C4F226
:1008D00001000168940241EA090358BF21EA0903B3
:1008E0000360DCF80410940341EA090358BF21EACD
:1008F0000903CCF80430DCF80010D20341EA090304
:1009000058BF21EA0903CCF800303BE704B0BDE84A
:10091000F08F00001823002A08BF2823C150704719
:1009200040F2B800C2F200000068704740F20000D8
:1009300040F2B801C2F20000C2F2000140680A6849
:10094000104408607047000080B5032000F078F87C
:100950000F2000F009F800281CBF012080BD00F026
:1009600029F8002080BD000070B540F20006C2F2F8
:1009700000067168E1B1044640F20800C2F20000CE
:100980004FF47A720068B2FBF1F1B0FBF1F000F0C5
:10099000E7FC0F2C4FF0010508D838B94FF0FF30B5
:1009A00021460022002500F01FF83460284670BD63
:1009B000012070BD82B041F25800C4F2020081688B
:1009C00041F001018160816801F00101019101990B
:1009D000016841F080510160006800F08050009093
:1009E000009802B000F0D0B810B54EF60C5CCEF214
:1009F000000CDCF80030C3F3022E8EF00704042C48
:100A000028BF0424BEF103034FF0FF3E0EFA04F4A6
:100A100038BF0023A14399400EFA03F39A431143D0
:100A200000F00F02043A624409010C3200F1604305
:100A3000B0F1FF3FC8BF03F56442117010BD000064
:100A40004EF60C51CEF200010A684FF6FF031A4031
:100A500060F30A2242F0806040F0FD700860704749
:100A6000B0F5007F42D0002840F0808047F21400AB
:100A7000C4F2000050F8141CC26E01F4C06122F4EC
:100A80008072B1F5806FC2662ED150F8141C01221D
:100A900062F34A2140F8141C40F20801C2F200013E
:100AA0000968322251434DF68362C4F21B32A1FB26
:100AB0000212910C0268520511D54A1C0FD002682F
:100AC00052050CD559B10268520508D5012906D046
:100AD0000268520503D50229A1F10401EAD1006898
:100AE000400544BF032070470020704747F21400C0
:100AF000C4F2000050F8141CC26E01F4C06142F44C
:100B00008072B1F5806FC266EED150F8141C0122DC
:100B100062F34A2140F8141C40F20801C2F20001BD
:100B20000968322251434DF68362C4F21B32A1FBA5
:100B30000212910C0268520511D54A1C0FD00268AE
:100B400052050CD559B10268520508D5012906D0C5
:100B50000268520503D50229A1F10401EAD1006817
:100B6000400544BF03207047BEE700BF47F21400B2
:100B7000C4F2000050F8141C022262F34A2140F82B
:100B8000141C00207047000047F20800C4F2000067
:100B9000016841F480410160704700002DE9F04791
:100BA00000286DD042F2000AC4F2020A0446DAF8C4
:100BB00000000D4600F00F0088420CD2DAF8000069
:100BC00020F00F002843CAF80000DAF8000000F017
:100BD0000F00A84254D1216841F20808C807C4F2A6
:100BE000020803D1880740F1D880BDE06068022880
:100BF0003AD0032840D158F8082C920140D5D8F8B3
:100C00000420D8F8043042F2004702F00302C3F394
:100C10000313C0F2F4070133032A04BF41F600377F
:100C2000C0F2B707D8F80420B7FBF3F3D8F8047084
:100C3000C2F306225A43C7F34163022707EB43037B
:100C4000B2FBF3F24BF20043C0F2C4439A4261D9C3
:100C5000D8F8002012F0F00F51D089075AD5A168BA
:100C6000002957D14BE000BF58F8081C89035CBF2E
:100C70000120BDE8F08707E058F8081C490503D4B7
:100C80000120BDE8F08700BFD8F8001001F00C018A
:100C900004293FD0D8F8001001F00C01082939D000
:100CA000D8F8001001F00C010C2933D1D8F8041049
:100CB000D8F8042042F2004301F00301C2F303120A
:100CC000C0F2F4030132032904BF41F60033C0F23D
:100CD000B703D8F80410B3FBF2F2D8F80430C1F32C
:100CE00006215143C3F34162022303EB4202B1FBED
:100CF000F2F14BF20042C0F2C44291420AD9D8F854
:100D00000010082262F307114FF00109C8F8001023
:100D100002E000BF4FF00009D8F8001021F00301F5
:100D20000843C8F80000FFF7FBFD064641F288378C
:100D3000D8F80000616800F00C00B0EB810F07D01C
:100D4000FFF7EEFD801BB842F2D90320BDE8F08723
:100D50002168880708D4B9F1000F1ED0D8F8000028
:100D600020F0F00017E000BF480705D5D8F80000D4
:100D700040F4E060C8F80000080706D5D8F8000085
:100D8000072262F30D20C8F80000D8F80000A2681E
:100D900020F0F0001043C8F80000DAF8000000F07E
:100DA0000F00A8421BD9DAF8000020F00F002843FA
:100DB000CAF80000FFF7B4FD064641F2883700BFCD
:100DC000DAF8000000F00F00A84207D0FFF7A8FDF6
:100DD000801BB842F4D90320BDE8F087216848079A
:100DE00007D5D8F80000E26820F4E0601043C8F8A6
:100DF0000000080708D5D8F80000216920F46050E9
:100E000040EAC100C8F80000D8F8000042F20041F2
:100E1000C0F2F40100F00C00042808462DD0D8F8E8
:100E2000000000F00C00082841F60030C0F2B700C6
:100E300023D0D8F8002002F00C020C2A1CD1D8F8DC
:100E40000420D8F8043002F00302C3F30313013383
:100E5000032A08BF0146D8F80400B1FBF3F1D8F823
:100E60000420C0F306204843C2F34161022202EB92
:100E70004101B0FBF1F000E00020D8F8001041F291
:100E8000D462C1F30311C0F60002515C40F20802C3
:100E900001F01F0120FA01F140F20000C2F200004F
:100EA0000068C2F200021160BDE8F047FFF75CBDC8
:100EB0002DE9F04182B0002800F006810446007858
:100EC00041F20006C007C4F2020655D1207880071F
:100ED00074D42078000700F197802078400700F153
:100EE000B7802078800600F10781E069002840D0B3
:100EF000B16801F00C010C2940F05681012800F086
:100F0000E380F068216A00F003028A4240F0DC804E
:100F1000626A6FF00F0300F0F00103EB02129142DE
:100F200040F0D280A16A00F4FE42B2EB012F40F003
:100F3000CB80E16A00F07842B2EBC16F40F0C48030
:100F4000226B0023CFF6E07303EB025200F4C001E2
:100F50006FF31402914240F0B780616B4FF07E4214
:100F600002EB016100F0C06001F07E41884240F078
:100F7000AB800020F1E100BFB06800F00C01F06828
:100F800008295BD0032281F00C0122EA000008440A
:100F9000B0FA80F0400951D16068B0F5803F07D0C9
:100FA000B0F5A02F40F0D680306840F4802030604B
:100FB000306840F480303060D7E000BFB068F1683E
:100FC00000F00C00042869D001F0030180F00C004F
:100FD00081F002010844B0FA80F040095ED1E16876
:100FE0003068002900F0CE8040F480703060FFF758
:100FF00097FC05463068400500F1EC80FFF790FC57
:10100000401B0228F6D920E16169D6F89400002936
:1010100000F08C8040F00100C6F89400FFF780FCDF
:10102000054600BFD6F8940080073FF556AFFFF79E
:1010300077FC401B0228F5D907E100BF3068800328
:101040007FF544AF606800287FF440AF3CE000BF0C
:10105000B06D10F0805808D1B06D40F08050B06590
:10106000B06D00F080500190019847F20007C4F283
:1010700000073868C0052BD4386840F480703860A9
:10108000FFF74EFC054600BF3868C00520D4FFF7C7
:1010900047FC401B0228F7D9D7E000BF3068400565
:1010A00001D5E06880B17068216920F0FE4040EA17
:1010B0000160706040F20000C2F200000068FFF7BB
:1010C00053FC00283FF405AF012002B0BDE8F081D9
:1010D000A068012808D0052840F09A80D6F8900032
:1010E00040F00400C6F89000D6F8900040F00100EF
:1010F000C6F890009AE000BFA169D6F898000029D0
:1011000070D040F00100C6F89800FFF709FC0546D2
:10111000D6F8980080073FF5E8AEFFF701FC401BCA
:1011200002284FF00300F3D917E100BF20F00100BF
:10113000C6F89400FFF7F4FB054600BFD6F894000C
:1011400080077FF5CAAEFFF7EBFB401B0228F5D9FD
:101150007BE000BF3168002821F4803131603168C4
:1011600021F48021316000F08F80FFF7D9FB054624
:10117000306880033FF5AAAEFFF7D2FB401B64281E
:10118000F6D962E020F480703060FFF7C9FB0546B5
:10119000306840057FF59DAEFFF7C2FB401B02287B
:1011A0004FF00300F4D9D8E03168022821F08071B3
:1011B00031604FD1FFF7B4FB054600BF30688001B6
:1011C00040F18E80FFF7ACFB401B02284FF003007C
:1011D000F4D9C2E07068216920F0FE4040EA016065
:1011E000706076E620F00100C6F89800FFF798FBE3
:1011F000054600BFD6F8980080077FF576AEFFF76A
:101200008FFB401B02284FF00300F3D9A5E000BF7D
:10121000D6F89010002821F00101C6F89010D6F8F9
:10122000901021F00401C6F890103DD0FFF778FB34
:10123000054641F2883700BFD6F89000800745D4B4
:10124000FFF76EFB401BB842F6D9032002B0BDE8A1
:10125000F08100BFF0684FF6FF7120F00300F060EE
:10126000F068CFF6EE610840F060FFF759FB0446E6
:10127000306880017FF57DAEFFF752FB001B02282E
:101280004FF00300F4D968E0FFF74AFB054600BFC2
:10129000306880037FF51AAEFFF742FB401B6428DD
:1012A0004FF00300F4D958E0FFF73AFB054641F24E
:1012B000883700BFD6F89000800707D5FFF730FBCE
:1012C000401BB8424FF00300F4D946E0B8F1000FDC
:1012D0007FF407AEB06D20F08050B06501E600BF2E
:1012E000F06848F20C01C0F29F1104F1200700EAF7
:1012F000010C8ECF6FF00F00D4E90C5400EB0210FC
:101300000022CFF6E07241EA0C0102EB05520843DD
:101310006FF314024FF07E4540EA032005EB0465AD
:10132000104305F07E4540EAC7602843F06030680E
:1013300040F080703060F06840F08070F060FFF73F
:10134000EFFA0446306880013FF513AEFFF7E8FA84
:10135000001B02284FF00300F4D902B0BDE8F08171
:10136000411E0020B0EB116F1CBF012070474EF2F0
:101370001002CEF2000251604EF62351CEF200016F
:10138000F0230B700721906011607047FEE70000AA
:1013900070B586B0002541F24C000595C4F20200FC
:1013A000016840F6000441F0040101600168C4F6E0
:1013B000000401F00401009100990168002241F04D
:1013C0002001016001684FF4005601F020010091F6
:1013D0000099016841F00101016000684FF400517B
:1013E00000F00100009000982046FFF793FA0120DA
:1013F000CDE9020501A9204601960495FFF79CF965
:1014000006B070BDFEE70000FEE700007047000078
:1014100070470000FFF78ABA4EF68850CEF20000FF
:10142000016841F47001016070470000FEE70000B0
:1014300094B0FFF789FA00240020CDE90B44CDE9F0
:101440000944CDE90744FFF70BFB4FF48071099184
:1014500040210A91042102200F9155210690CDE9E7
:101460000D00CDE91010CDE9120006A8FFF720FD10
:1014700020B1EFF3108072B6FEE700BF0F2001909D
:101480000320CDE9020401A80421CDE90444FFF7BB
:1014900085FB28B1EFF3108072B600BFFEE700BFF6
:1014A00040F60004C4F60004FFF772FFFFF72CF9C2
:1014B00042F2100040F29006C4F202004FF40041E4
:1014C000C2F2000601600A21062200233046C6E966
:1014D000001240F8183FC6E9081206F10C01FEF7A9
:1014E0006FFF98B120464FF400510022FFF712FA27
:1014F0006420FEF751FF20464FF400510122FFF710
:1015000009FA4FF4FA60FEF747FFEBE747F6CF78AA
:1015100045F20007C0F60008C0F6000745F27869FA
:10152000C1F2342908F130053946B76000204A4637
:101530004B46FFF713F878B9B06800F10801A942EB
:10154000B160F3D345F27865C1F23425FEF7FAFFB6
:101550000020B760306118E020464FF400510022AF
:10156000FFF7D8F96420FEF717FF20464FF400512B
:101570000122FFF7CFF94FF4FA60FEF70DFFEBE71A
:10158000071D2C384045B76078D2386870617069A3
:10159000A84202D0306901303061381DB0607968EE
:1015A00071617169A94202D0316901313161011D56
:1015B000B160406870617069A84202D03069013042
:1015C0003061081DB060496871617169A94202D03B
:1015D000316901313161011DB1604068706170692C
:1015E000A84202D0306901303061081DB0604968FE
:1015F00071617169A94202D0316901313161011D06
:10160000B160406870617069A84202D030690130F1
:101610003061081DB060496871617169A94202D0EA
:10162000316901313161011DB160406870617069DB
:10163000A84202D0306901303061081DB0604968AD
:1016400071617169A94202D0316901313161011DB5
:10165000B160406870617069A84202D030690130A1
:101660003061081DB060496871617169A9423FF439
:1016700087AF31690131316182E700BF3069A8B1BC
:1016800020464FF400510022FFF744F94FF4FA705E
:10169000FEF782FE20464FF400510122FFF73AF98F
:1016A0004FF4FA70FEF778FEEAE700BF20464FF4E9
:1016B00000510022FFF72EF9FEE7F1EE100A4FF677
:1016C000FF71C0F2C03120EA010040F04070E1EE4D
:1016D000100A70470000000000000000010203042F
:1016E0000607080908170008000000203000000065
:1016F000140200083817000830000020900600008F
:10170000300200080000000010000000010000008E
:101710000024F400000000000000000000000000B1
:1017200000000000010000000000000000000000B8
:081730000000000000000000B1
:04000005080001D915
:00000001FF
