:020000040800F2
:10000000C0040020D1000008A50D0008390D00082B
:1000100000000000000000000000000000000000E0
:10002000000000000000000000000000A90D000812
:100030000000000000000000A70D0008AB0D000844
:10004000E3000008E3000008E3000008E300000804
:10005000E3000008E3000008E3000008E3000008F4
:10006000E3000008E3000008E3000008E3000008E4
:10007000E3000008E3000008E3000008E3000008D4
:10008000E3000008E3000008E3000008E3000008C4
:10009000E3000008E3000008E3000008E3000008B4
:1000A000E3000008E3000008E3000008E3000008A4
:1000B000E3000008E3000008E30000080348854669
:1000C00000F03CF80048004779120008C004002006
:1000D0000448804704480047FEE7FEE7FEE7FEE7E6
:1000E000FEE7FEE7350E0008BD00000830B50B4600
:1000F000014600202022012409E00D46D5409D4202
:1001000005D31D469540491B254695404019154687
:10011000521E002DF1DC30BDD2B201E00270401C55
:10012000491EFBD270470022F6E710B513460A4677
:1001300004461946FFF7F0FF204610BD064C012586
:10014000064E05E0E36807CC2B430C3C984710347F
:10015000B442F7D3FFF7B6FFE8120008081300080F
:10016000EFF3108072B6FEE7F8B505460020C643EF
:100170006F1C00F0E1F80446002F02D08948007897
:10018000461900F0D9F8001BB042FAD3F8BDC046BA
:10019000F0B58BB00991644A04230521904200D048
:1001A0000B461721C906019040180A21C84100904A
:1001B000042800D3009300210F460C46ABE0012336
:1001C0000493A3401E40002E00D1A1E007940597A0
:1001D00009984468032502942C40601E0027FA43C6
:1001E00001280395089106921BD828460599884056
:1001F0005040019FBD6805400998C0688840284369
:10020000B8600298000904990840079DA84011466B
:100210004B407D681D4005437D60039D059F02990D
:1002200005E0032C059F029901D1019D21E028469C
:10023000B8405040019DEB68034009988068B84081
:100240001843E860022C14D11C21089801400F20AB
:100250008840069A5040079B5B08344C1C402B1981
:100260001C6A0440099F38698840204318627968F5
:10027000059F08460A4603990840B8400B46BB4014
:10028000069C63402C681C4004432C600D462804E7
:1002900002420899079C3BD04D480168049B1943D2
:1002A0000160006818400A900C20089908400F214E
:1002B0008140069A51402346AB4315460A9A1C4A90
:1002C0009C580C40009981402143079C99507540EF
:1002D000184882682A4009994968CB02DB173340E5
:1002E000134383608A02D2173240C3682B40134302
:1002F000C3608A03D217324043682B4013434360E4
:10030000C903C917314002682A400A4308990260AC
:10031000091DBF1C641C099806683046E04000D0E7
:100320004DE70BB0F0BDC04600100048FCFFFF7F5A
:1003300008000140000401401A4880687047C04628
:1003400018480178826851188160704780B5B648B6
:10035000016810220A430260032000F005F800F053
:1003600023F8002080BDC04670B504467D20C00043
:100370000C4E3178FFF7BAFE0146B4480068FFF72B
:10038000B5FE00F0EFFB0125032C08D8002806D1AC
:100390000025E84321462A4600F01CF874602846F0
:1003A00070BDC0460000002082B0094801680122EB
:1003B00011430160016811400191019911074268E0
:1003C0000A434260406808400090009802B07047BD
:1003D0001810024080B500F02FFF80BDF0B587B047
:1003E000064601242104B078C007484B5DD0009137
:1003F00004962702210718680022454E084207D1BB
:100400001868084318601868084006900698224645
:100410000194039202910593306838420FD13068FD
:1004200038433060FFF788FF05463068384206D110
:10043000FFF782FF401B03246428F6D962E00324FF
:100440002002059B59680140324F0029049E20D0AC
:100450007268024091421CD058685968009A114352
:100460005960596891435960014639405960019972
:1004700008420ED0FFF760FF0546059B5868022131
:10048000084206D1FFF758FF401B68498842F4D95B
:1004900038E0586838407168014359600398012872
:1004A00003D1186802998843186030680121084216
:1004B00005D0596903229143B2680A435A61810702
:1004C00006D5032109045A698A43F1681143596129
:1004D000410306D5032189045A698A4331691143CE
:1004E0005961810605D559691022914372690A4301
:1004F0005A610024400505D5586940218843B169F7
:1005000001435961E0B207B0F0BDC0461C10024083
:1005100000700040FFFCFFFFFEB504460125002CE3
:100520007FD0414B1A68012002408A4208D21A68E3
:100530000125AA430A431A601A682A408A4270D1E8
:10054000019302912168574F022211420CD04B07B0
:1005500004D507231B023D681D433D603B68F02521
:10056000AB43A5681D433D60C90732D061684304B1
:10057000032907D0022908D001290ED10322D24332
:10058000BA5800E03A6B1A420BE00320C0433858D7
:1005900001256A06104206D143E00323DB43FB58E2
:1005A000134205463DD038680325A8430843386008
:1005B000FFF7C2FE064638680C21014060688000E3
:1005C000814206D0FFF7B8FE801B18498842F2D955
:1005D00027E0019A1068012528400299884207D92E
:1005E0001068A8430843106010682840884218D15A
:1005F0002078400706D50720000239688143E0686B
:100600000843386000F026F8396809090F220A40CB
:100610000749895CC8400D4908600320FFF7A4FE24
:100620000025E8B203B0F0BD0020024088130000AE
:10063000CE120008054800681A490968090A07220D
:100640000A400349895CC8407047C0460C0000203E
:10065000DE120008B0B513490C68A50803231D403D
:100660001148124A032D1BD0022D00D0B0BDDD036E
:1006700023462B40AB4200D0024601252D04AB425D
:1006800000D01046896A0F25294009A2515CFFF766
:100690002DFD0146A00C284009A2105C4843B0BDC6
:1006A0001046B0BD0410024000127A00006CDC025B
:1006B0000102030405060708090A0B0C0D0E0F10B2
:1006C00002030405060708090A0B0C0D0E0F101093
:1006D000F0B58BB00126002800D139E201263104A3
:1006E00006910324E10307917104089109900078B1
:1006F000C007FC4FFC48059021D10998007880077D
:1007000000D488E079680C2001420AD07968014061
:1007100008292CD17868079908400121C90388422B
:1007200025D1386802210842099A03D0D0680128EF
:1007300000D00DE23868F8218843116968E07968D3
:100740000C200140042909D079680140082923D1EF
:10075000786807990840069988421DD13868089939
:100760000842CAD0099840680028C6D1F0E109982B
:10077000C1683868002921D0012108433860FFF79B
:10078000DBFD05463868022108423CD1FFF7D4FD65
:10079000401B0228F6D9A3E109984268EE48002AD6
:1007A0001CD0012A06D03968052A00D085E1B004A2
:1007B0000143396039680698014383E10121884388
:1007C0003860FFF7B9FD054638680221084222D09B
:1007D000FFF7B2FD401B0228F6D981E13968059A7E
:1007E00011403960396801403960FFF7A5FD0546C1
:1007F00038680899084200D17FE7FFF79DFD401B4C
:100800006428F5D96CE13868F821884309990969A9
:10081000C9000143396009980078000724D5099878
:10082000C169786A00290FD0012108437862FFF777
:1008300083FD0546786A0221084215D1FFF77CFD49
:10084000401B0228F6D94BE1012188437862FFF76B
:1008500073FD0546786A0221084205D0FFF76CFD5A
:10086000401B0228F6D93BE1099908784007049417
:100870001CD40878C00600D48EE0099A5169012979
:100880004CD1786B042101437963786B01210143DA
:100890007963FFF751FD0546786B022108425ED16E
:1008A000FFF74AFD401B0228F6D919E10296012301
:1008B0001E021907F8690022A84C084207D1F869FE
:1008C0000843F861F86908400A900A981A460393A9
:1008D00001920091206830420ED1206830432060A0
:1008E000FFF72AFD05462068304205D1FFF724FDB9
:1008F000401B6428F7D9D2E009988168984E0029F6
:1009000017D00129039A06D0386A052900D0B4E02F
:10091000042108433862386A1043B3E0786B491DFC
:1009200026D1042188437863786BF8218843916944
:100930001AE0386A039988433862386A0421884388
:100940003862FFF7F9FC0546386A0221084200D1F7
:10095000A7E0FFF7F1FC401BB042F5D99FE0786BB0
:10096000F821884309998969C9000143796313E033
:10097000042108437863786B012188437863FFF78B
:10098000DBFC0546786B0221084205D0FFF7D4FC5A
:10099000401B0228F6D9A3E009980078800621D4EC
:1009A000099D6C6A002C00D1D1E078680C210140CF
:1009B000082925D1012C00D1CAE07868079B0340A3
:1009C000F96AAA6A934200D0C2E00F2211402B6B51
:1009D000994200D0BCE091040840E96A884200D105
:1009E000B5E0B5E079680C2001400C2927D1786B7F
:1009F00008990842D4D00998006A0128D0D0A7E00D
:100A00000120020639680892914339604606FFF7D3
:100A100093FC0546022C08D13868304277D0FFF7A6
:100A20008BFC401B0228F7D939E03868304200D1EE
:100A30008DE0FFF781FC401B0228F6D92FE0796892
:100A40000140082904D17868079908408842CED02F
:100A50000998016A786B002948D0069908437863A1
:100A6000FFF76AFC0546786B0899084298D1FFF7B2
:100A700063FC401B0228F6D932E090433862386AA2
:100A8000042188433862FFF757FC0546386A022183
:100A9000084206D1FFF750FC401BB042F6D9049E35
:100AA00056E001980128049C029E099900D0E0E6D6
:100AB000F869009A9043F861DBE6059A11403960C5
:100AC000396801403960FFF737FC054638680899F6
:100AD000084200D011E6FFF72FFC401B6428F5D92F
:100AE000264635E000100240FFFFFEFF0599084052
:100AF0007863FFF721FC0546786B0899084200D11E
:100B00004EE7FFF719FC401B0228F5D9E8E7F86A21
:100B10000F218843099A116B0143F9627B20C003BE
:100B200079688143D06A0843916A014379603868E3
:100B3000089908433860FFF7FFFB044638683042E5
:100B400005D1FFF7F9FB001B0228F7D9A7E700261C
:100B5000F0B20BB0F0BDC046FFFFFBFF00700040DD
:100B600088130000421E130E01200849002B0CD1EF
:100B7000074B5A60074802680A400321890711435E
:100B8000016000209860072119607047FFFFFF0097
:100B900010E000E020ED00E0B0B504460125002C97
:100BA0002CD0E06F002805D1782000212154204668
:100BB00000F026F82420E067206801680125A94399
:100BC0000160204600F01EFA012817D0606A002854
:100BD00002D0204600F02FF90920C00221684A689F
:100BE00082434A6088682A2290438860086801220C
:100BF00002430A60204600F073F905462846B0BD5E
:100C000010B586B0044601A81421FFF78CFA2068BD
:100C1000634988421FD101208103534A53680B4323
:100C2000536053680B4000930099410413680B43D1
:100C3000136012680A400092009903214A0201924F
:100C40000222029200220392049105900920C0061C
:100C500001A9FFF79DFA06B010BDC046F0B585B0FA
:100C6000049314460E460746F96F022020295FD1EF
:100C70000120002E5CD0002C5AD001200503B96859
:100C8000A94204D13969002901D1F10750D184204A
:100C90000021029139502120F867FFF74DFB0390A6
:100CA00050203C5252203C523C465234B868A84234
:100CB0001BD1386900210028029600D0029100283B
:100CC00013D1064611E03868002E03D03178018533
:100CD000761C07E0029B1988164A0A4002859B1C75
:100CE00002932E462088401E2080208800280FD0A6
:100CF0006846049901608021002538462A46039BF6
:100D000000F058FA0028DED02020F86703200FE01A
:100D1000684604990160402100223846039B00F098
:100D200049FA01462020F8670320002900D108462F
:100D300005B0F0BDFF010000FEE7000082B0012019
:100D40008105094A13680B43136013680B40019334
:100D5000019940041168014311601168014000913C
:100D6000009802B07047C0461410024080B50B488E
:100D70000B490160E1214902416000218160C160AD
:100D800001610C22426101624162C1618161FFF730
:100D900003FF002801D0FFF7E3F980BD38000020F1
:100DA00000380140FEE77047704780B5FFF7C8FA8A
:100DB00080BD70B598B00BAC204608301C25294684
:100DC000FFF7B1F900260A96099608960796684635
:100DD0002946FFF7A8F901200B900C9002251495E5
:100DE000010415910005169017962046FFF770FC38
:100DF000002803D0EFF3108072B6FEE7072007A9A2
:100E000061C10A9607A801242146FFF785FB002847
:100E100003D0EFF3108072B6FEE7009402966846A6
:100E2000FFF7DCFA002803D0EFF3108072B6FEE77C
:100E300018B070BD704770B5426A01210A4206D0F1
:100E40004B04046865689D43836A2B436360930782
:100E500006D50B04046865689D43C36A2B43636031
:100E6000530706D58B04046865689D43036B2B43C9
:100E70006360130706D5CB03046865689D43436B25
:100E80002B436360D30606D50B030468A5689D4316
:100E9000836B2B43A360930606D54B030468A568B8
:100EA0009D43C36B2B43A36053060FD50C0503680A
:100EB0005D68A543066C35435D60A64206D10324F8
:100EC00064055D68A543446C2C435C60120606D53E
:100ED000C904026853688B43806C1843506070BD2E
:100EE000FEB50446842000262650FFF725FA034667
:100EF000206801682B4D082211421DD0684605600C
:100F0000029501256905002220461F4600F052F98E
:100F100000280ED0EFF3108085F3108821680A684E
:100F200080239A430A6080F310882020E067032022
:100F300032E020683B46029D00680421084224D02C
:100F4000684605600127B9050022204600F032F905
:100F500000281AD0EFF3108087F310880921490187
:100F6000226813688B43136080F31088EFF31080BE
:100F700087F3108821688A68BA438A6080F31088F2
:100F8000802020212150032006E02020E0678021DE
:100F9000605026666666304678216654C0B203B05B
:100FA000F0BDC046FFFFFF01B0B5EFF31082012195
:100FB00081F3108809235B01046825689D4325603F
:100FC00082F31088EFF3108281F3108803689C6825
:100FD0008C439C6082F31088026E012A0AD1EFF3E1
:100FE000108281F3108801680B681024A3430B6002
:100FF00082F3108880212022425000210166816600
:10100000B0BD0000F0B585B00446E16960692269B1
:10101000A36825682E68594F3740134303430B4399
:101020003B432B60032318036A688243E068104344
:101030006860A069226A02430B200002AE68864302
:101040001643AE6001200490C003039000274C4873
:1010500001904C480290022000904B4A4B4E4C4865
:10106000854218D04B4885421AD04B48854224D03F
:101070004A48854221D04A4885421ED04948854287
:101080001BD04948854218D04848854214D1484869
:101090000240306808E0464802403068000C03E037
:1010A000434802403068800C009D6840184005238A
:1010B0004343DA40174600E01027039B1F200740F8
:1010C000994211D1082F049E3AD83146029D0198C9
:1010D0007F443F797F00BF44044B204B194B4B4B5F
:1010E0001F00FFF7A7FA13E0082F049E28D8314607
:1010F000029D01987F443F797F00BF4404392A391B
:10110000233939392900FFF795FA1DE0FFF7A2FAD4
:101110000021002801D12BE01846400061684A08F0
:101120001018FEF7E3FF01461039A94231461FD2DD
:10113000054040080721014029432068C16016E0AE
:10114000314615E0FFF786FA0021002801D10FE0B3
:10115000184661684A081018FEF7C8FF01461039A2
:10116000A942314604D20F3528402168C8600021C9
:101170000020A066E066084605B0F0BDF369FFEF09
:1011800000127A00F0FF0000480002003010024018
:101190000044004000480040004C00400050004027
:1011A0000014014000180140001C014000380140BB
:1011B000FFFF0F00FEB5029316460F460368089C1A
:1011C000D9693940C91B00256A1A4A41B24230D157
:1011D000611CF5D00190FFF7AFF80299401A032582
:1011E000002C26D0A04224D8019803681968042254
:1011F0001142E5D0D969082211420FD10121C9025B
:10120000DA690A42DCD019620446FFF7CDFE842079
:10121000202121507820002121540AE01A6204463E
:101220001546FFF7C1FE8420255078200021215467
:101230000125E8B203B0F0BDC200182313408901B4
:10124000C9B29940FF229A40D243002803DB03230E
:101250009843084B05E00F231840083803239843B0
:10126000034BC018036813400B4303607047C0462C
:101270001CED00E000E400E070B5FFF767F8FFF751
:1012800098FDFFF75BFDFFF771FD074C074D7D20D3
:10129000C6002622204629463346FFF7DFFC3046AB
:1012A000FEF762FFF3E7C046380000201000002080
:1012B00002E008C8121F08C1002AFAD1704770471F
:1012C000002001E001C1121F002AFBD1704700007D
:1012D00000000000000001020304060708090000E6
:1012E00000000102030400000813000800000020B1
:1012F00038000000B0120008401300083800002039
:1013000088040000C0120008010000000400000072
:101310000000000000127A00582050756C736520A0
:1013200053544D333246303931524354362075735D
:1013300061727420746573742E2E2E0D0A000000E5
:04000005080000BD32
:00000001FF
