:020000040800F2
:10000000C0040020A101000839190008BD1800082B
:1000100035190008B502000841240008000000005E
:100020000000000000000000000000007D1C00082F
:10003000B90200080000000075190008B51C00088E
:10004000BB010008BB010008BB010008BB010008A0
:10005000BB010008BB010008BB010008BB01000890
:10006000BB010008BB010008BB010008BB01000880
:10007000BB010008BB010008BB010008BB01000870
:10008000BB010008BB010008BB010008BB01000860
:10009000BB010008BB010008BB010008BB01000850
:1000A000BB010008BB010008BB010008BB01000840
:1000B000BB0100080000000000000000BB010008B8
:1000C000BB010008BB010008BB010008BB01000820
:1000D000BB01000835240008BB010008BB01000873
:1000E000BB010008BB010008000000000000000088
:1000F0000000000000000000000000000000000000
:1001000000000000BB01000800000000BB01000867
:100110000000000000000000BB010008BB01000857
:10012000BB010008BB010008BB010008BB010008BF
:10013000BB010008000000000000000000000000FB
:10014000BB010008BB010008BB0100080000000063
:10015000BB010008BB010008BB010008BB0100088F
:10016000BB010008BB010008BB0100080000000043
:10017000BB010008BB0100080000000000000000F7
:10018000BB010008BB010008BB010008DFF80CD070
:1001900000F07EF800480047BD240008C00400209D
:1001A0000648804706480047FEE7FEE7FEE7FEE711
:1001B000FEE7FEE7FEE7FEE7FEE7FEE7251D000897
:1001C0008D0100082DE9F05F0546002092469B4610
:1001D00088460646814640241BE02846414647465D
:1001E000224600F044F853465A46C01A914110D3B3
:1001F00011461846224600F02BF82D1A67EB01082D
:100200004F4622460120002100F022F817EB00099A
:100210004E41201EA4F10104DFDC484631462A4647
:10022000434600F000B830BCBDE8C09FD2B201E048
:1002300000F8012B491EFBD270470022F6E710B5EB
:1002400013460A4604461946FFF7F0FF204610BD44
:10025000202A04DB203A00FA02F100207047914086
:10026000C2F1200320FA03F3194390407047202A7B
:1002700004DB203A21FA02F00021704721FA02F350
:10028000D040C2F120029140084319467047000057
:10029000064C074D06E0E06840F0010394E80700D3
:1002A00098471034AC42F6D3FFF774FF702500086E
:1002B00090250008FEE7000070470000EFF3108073
:1002C00072B600BFFEE7000090F82510022915D194
:1002D00001680A6822F00E020A6001680A6822F0CA
:1002E00001020A60D0E9101202F01C02012303FA95
:1002F00002F24A6080F82530002102E00421C16347
:100300000121002280F824200846704790F825102B
:1003100002291FD101680A6822F00E020A600168F2
:100320000A6822F001020A60D0E9101202F01C02F1
:10033000012303FA02F24A6080F82530002180F898
:100340002410826B22B180B590470021BDE8804027
:10035000084670470421C163012108467047000028
:1003600070B505466E1C00F003F9044636B140F244
:100370002A00C2F200000078054401E04FF0FF358A
:1003800000F0F6F8001BA842FAD370BD2DE9F04F3B
:1003900082B00E68002E00F0E58041F60002C4F63F
:1003A00000020727904208BF062700F138424FEAB3
:1003B000B223062B38BF4FEAB227009700234FF035
:1003C000030E40F2004AC4F2010A0025012400BFD6
:1003D000A4F10109012202FA09FB16EA0B0800F058
:1003E000B6804E6806F00306013E012E13D80EFAC1
:1003F00005F6D0F808C02CEA0606CA68AA403243BF
:100400008260426822EA0B024E68C6F3001606FAC2
:1004100009F6324342604E6806F00302032A08D10F
:10042000C6F3C00202FA09F2C66A26EA0B06324394
:10043000C2624A6802F00302032A08D00EFA05F2EB
:10044000C66826EA02028E68AE403243C2604A683D
:1004500002F00302022A14D103F01C020F2707FA4C
:1004600002FC4FF6FC76C7F6FF7606EA590707440A
:100470003E6A26EA0C0C0E6906FA02F242EA0C0207
:100480003A620EFA05F2076827EA02024F6807F09F
:100490000307AF403A4302608A79920757D041F28E
:1004A0006002C4F2020217463A6842F001023A6062
:1004B0003A6802F00102019229F003025244019FBE
:1004C0004FF60847CFF6FF77B94652F809C003F058
:1004D0000C060F27B7402CEA070C009F07FA06F618
:1004E0004CEA060742F80970DAF8082022EA080206
:1004F0004F6817F4801F18BF42EA0802CAF80820A4
:1005000040F20C42C4F201021646326822EA0802A6
:100510004F6817F4001F18BF42EA08023260DAF889
:10052000042022EA08024F6817F4003F18BF42EA8D
:100530000802CAF80420DAF8002022EA08024F680C
:1005400017F4803F18BF42EA0802CAF800200E687C
:1005500036FA04F203F1040305F1020504F1010483
:100560007FF436AF02B000F000B830BCBDE8C08FF9
:1005700040F2B800C2F200000068704740F22A0062
:10058000C2F20000007840F2B801C2F200010A682D
:10059000104408607047000080B5032000F064F844
:1005A000032000F009F800281CBF012080BD00F0E6
:1005B0002FF84FF0000080BDB0B5044640F22A008D
:1005C000C2F200000078002802BF01252846B0BD15
:1005D0004FF47A71B1FBF0F040F20001C2F2000179
:1005E0000968B1FBF0F000F0A3FE4FF001050F2CFD
:1005F0000CD858B900254FF0FF302146002200F0FA
:1006000023F840F22C00C2F2000004602846B0BD7E
:1006100082B041F25800C4F20200816841F0010149
:100620008160816801F0010101910199016841F047
:1006300080510160006800F080500090009802B086
:100640007047000001F0FEBE70B514460D46064628
:1006500001F00AFF2946224601F070F901463046B2
:10066000BDE8704001F008BF01F018BF47F200017B
:10067000C4F200010A6802F4C062B0F5007F26D11E
:10068000B2F5007F2BD00868012262F34A2008608F
:1006900040F20000C2F200000068322250434DF6E2
:1006A0008362C4F21B32A0FB02026FEA924000BFD9
:1006B0004A6900281CBF013012F48062F8D14869F1
:1006C00010F4806F1EBF0320C0B2704707E0B2F580
:1006D000806F1FBF0868022262F34A200860002072
:1006E000C0B2704747F20000C4F20000006800F496
:1006F000C06070472DE9F04F81B004466078000774
:1007000041F28807C4F2020723D5606E4FEAB05069
:10071000032808D8DFE800F002091117201D002186
:1007200001F02AF906E0012514E004F1200000217F
:1007300001F0C8F905466DB905E057F87C0C40F4A6
:10074000803047F87C0C3868616E20F44000084324
:10075000386000256078C00601D4AB462DE0A06E5D
:100760004FEA3060032809D8AB46DFE800F0020CFE
:10077000131A201D002101F0FFF809E04FF0010BD2
:100780004FF001091AE004F12000002101F09AF96C
:10079000834606E057F87C0C40F4803047F87C0C28
:1007A000AB46BBF1000FD94608D13868A16E20F0E6
:1007B0004070084338604FF0000BA946A0788007CE
:1007C00001D44D4658E057F8300C47F20006C4F209
:1007D000000610F0805F0ED157F8300C40F08050CA
:1007E00047F8300C57F8300C00F08050009000981B
:1007F0004FF0010A01E04FF0000A306840F48070C9
:100800003060FFF7B5FE0546306810F4807F06D1F2
:10081000FFF7AEFE401B0228F6D9032523E0BBF10B
:10082000000F01D05D461EE0B86810F4407012D091
:10083000D4F8841088420BD0B868B96841F480318C
:10084000B960B96821F48031B96020F44070B860B3
:10085000C00740F00281B868D4F8841020F44070DA
:100860000843B8604D46BAF1010F02BF57F8300C8B
:1008700020F0805047F8300C2078C00705D0386849
:10088000A16B20F00300084338602078800705D56D
:100890003868E16B20F00C0008433860207840078E
:1008A00005D53868216C20F0300008433860207886
:1008B000000705D53868616C20F0C0000843386037
:1008C0002078C00605D53868A16C20F44070084334
:1008D00038602078800605D53868E16C20F44060E7
:1008E000084338606078800705D53868E16D20F4EA
:1008F0004020084338606078400705D53868216E8D
:1009000020F44010084338602078400605D5386848
:10091000216D20F44050084338602078000605D54A
:100920003868616D20F44040084338606078C00743
:1009300005D03868A16D20F44030084338606078F5
:1009400080061AD53868E16E20F0406008433860B0
:10095000E06EB0F1806F09D0B0F1006F02BF57F8C0
:100960007C0C40F4801047F87C0C06E0201D01212F
:1009700001F002F8002818BF0546A07800071AD534
:100980003868216F20F0406008433860206FB0F174
:10099000806F09D0B0F1006F02BF57F87C0C40F4B3
:1009A000801047F87C0C06E0201D012100F0E4FFD8
:1009B000002818BF0546A07840071AD53868616F2F
:1009C00020F0406008433860606FB0F1806F09D05C
:1009D000B0F1006F02BF57F87C0C40F4801047F86C
:1009E0007C0C06E0201D012100F0C6FF002818BF86
:1009F00005466078400619D53868A16F20F0405050
:100A000008433860A06FB0F1005F07D0B0F1805F9D
:100A10000CD1201D022100F0AFFF04E004F1200002
:100A2000022101F04FF8002818BF05466078000643
:100A300005D53868E16F20F0804008433860A07821
:100A4000C00706D03868D4F8801020F00040084372
:100A50003860284601B000F018B8FFF789FD8046DD
:100A600041F28836032500BFB86810F0020F06D1A6
:100A7000FFF77EFDA0EB0800B042F5D9F3E6BBF12D
:100A8000000F5D467FF4EFAEE5E630BCBDE8C08FF9
:100A90002DE9F04188460446002C00F0AF8041F279
:100AA0000807C4F20207D7F8F80F00F00700404526
:100AB0000ED2D7F8F80F20F0070040EA0800C7F878
:100AC000F80FD7F8F80F00F00700404540F0968087
:100AD000207880070AD5A068396801F0F0018842C3
:100AE00081BF396821F0F001084338602078C007E1
:100AF00034D06068022807D003280BD157F8080CBF
:100B000010F0007F7AD00DE057F8080C10F4003F89
:100B100074D007E057F8081C10B148056ED501E005
:100B200088076BD53868616820F003000843386097
:100B3000FFF71EFD064641F2883500BF3868616840
:100B400000F00C00B0EB810F08D0FFF711FD801B07
:100B5000A842F3D90320C0B2BDE8F0812078800715
:100B60000AD5A068396801F0F00188423FBF3968B2
:100B700021F0F00108433860D7F8F80F00F00700C3
:100B800040450DD9D7F8F80F20F0070040EA0800DB
:100B9000C7F8F80FD7F8F80F00F0070040452DD13F
:100BA0002078400705D53868E16820F4E060084304
:100BB00038602078000706D53868216920F4605035
:100BC00040EAC100386000F04BF83968C1F3031106
:100BD00042F22652C0F60002515C01F01F01C840EB
:100BE00040F20001C2F20001086040F22C00C2F2A3
:100BF00000000068BDE8F041FFF7DEBC0120C0B294
:100C0000BDE8F08140F20000C2F2000000687047C9
:100C100080B5FFF7F7FF41F20801C4F2020109684D
:100C2000C1F3022142F23652C0F60002515C01F0DB
:100C30001F01C84080BD000080B5FFF7E3FF41F20F
:100C40000801C4F202010968C1F3C22142F236521E
:100C5000C0F60002515C01F01F01C84080BD0000D9
:100C600080B541F20C01C4F2020151F8042C08686D
:100C700012F00C0341F2002CC0F27A0C42F2004E4A
:100C8000C0F2F40E05D00C2B04BF00F003000128C5
:100C900018D151F80C0C10F0080F03D1D1F88800CE
:100CA000000A02E051F80C0C000900F00F0042F2BB
:100CB0004052C0F6000252F82020002B104618BF08
:100CC00000200DE003F00F00042804BF704680BD33
:100CD000082804BF604680BD4FF000004FF00002BE
:100CE0000C2B18BF80BD086800F00300022803D059
:100CF0000328E64618BF964608680A680968C1F3E3
:100D00004161022303EB4101C2F3062202FB0EF212
:100D1000C0F302100130B2FBF0F0B0FBF1F080BD87
:100D20002DE9F04782B00446002C00F0428241F2E7
:100D30000407C4F20207786800F00C08B86800F0F5
:100D400003092078C00641F2000AC4F2020A52D414
:100D50002078C00712D0B8F1080F06D0B8F10C0FF8
:100D600008BFB9F1030F40F03081DAF8000010F449
:100D7000003F03D06068002800F01B8220788007C5
:100D800019D5B8F1040F06D0B8F10C0F08BFB9F1AE
:100D9000020F40F02D81DAF8000010F4806F03D0CC
:100DA000E068002800F005823868216920F0F850DA
:100DB00040EA016038602078000740F1BB8061693B
:100DC000D7F89000002900F0A28040F00100C7F899
:100DD0009000FFF7CDFB0546D7F8900010F0020F0A
:100DE00040F0A880FFF7C4FB401B0228F4D9032081
:100DF00002B0BDE8F087B8F1000F05D0B8F10C0FD4
:100E000008BFB9F1010F68D1DAF8000010F0020F45
:100E100003D0A069002800F0CC81206ADAF8001025
:100E200011F0080F06BFD7F890100909DAF8001082
:100E300001F0F00188421AD900F0DAFE002840F0F3
:100E4000B881DAF8000040F00800CAF80000DAF8CB
:100E50000000216A20F0F0000843CAF8000038685A
:100E6000E16920F47F4040EA0120386018E0DAF8B8
:100E7000000040F00800CAF80000DAF80000216A1B
:100E800020F0F0000843CAF800003868E16920F457
:100E90007F4040EA01203860B8F1000F00F08E80FA
:100EA000FFF7DEFE7968C1F3031142F22652C0F665
:100EB0000002515C01F01F01C84040F20001C2F283
:100EC0000001086040F22C00C2F200000068FFF749
:100ED00073FB002840F025823AE7A169DAF80000A8
:100EE000002900F0A08040F00100CAF80000FFF7E0
:100EF0003FFB0546DAF8000010F0020F40F05D817C
:100F0000FFF736FB411B03200229F3D909E220F049
:100F10000100C7F89000FFF72BFB0546D7F89000BB
:100F200010F0020F06D0FFF723FB411B032002291C
:100F3000F4D9F6E12078400740F1BB80786D10F0DD
:100F4000805F0BD1786D40F080507865786D00F04F
:100F50008050019001984FF0010901E04FF0000925
:100F600046F20006CFF6FE765AF8060010F4807FAF
:100F700014D15AF8060040F480704AF80600FFF7D2
:100F8000F7FA05465AF8060010F4807F06D1FFF7FD
:100F9000EFFA411B03200229F4D9C2E1A16801291B
:100FA00007D0D7F88C00052951D140F00400C7F8CC
:100FB0008C00D7F88C0040F0010050E0206A00F06F
:100FC00017FE002840F0F5806AE76168B1F5803FC0
:100FD00009D0DAF80000B1F5A02F40F0388140F4D4
:100FE0008020CAF80000DAF8000040F4803036E1D2
:100FF000E168DAF80000002900F0008140F4807018
:10100000CAF80000FFF7B4FA054600BFDAF800009E
:1010100010F4806F7FF4C8AEFFF7AAFA411B0320DB
:101020000229F3D97DE120F00100CAF80000FFF7A2
:101030009FFA0546DAF8000010F0020F3FF488AE80
:10104000FFF796FA411B03200229F3D969E120F04A
:101050000100C7F88C00D7F88C0020F00400C7F816
:101060008C00A668FFF784FA05466EB141F2883617
:10107000D7F88C0010F0020F14D1FFF779FA411B5A
:101080000320B142F4D94CE141F28836D7F88C0004
:1010900010F0020F06D0FFF76BFA411B0320B1429C
:1010A000F4D93EE1B9F1010F02BF786D20F0805014
:1010B0007865A06A002800F03781022853D1B8680B
:1010C000E16A00F003028A4266D1216B6FF00F02E1
:1010D00002EB011100F070028A425DD1616B00F4F5
:1010E000FE42B2EB012F57D1A16B073918BF012186
:1010F00000F400328A424FD1E16B0022CFF6E07259
:1011000002EA0151A1F5001100F4C0028A4243D164
:10111000216C4FF07E4202EA016101F17E4100F054
:10112000C060884238D1DAF8000010F0007F40F04B
:10113000FB80DAF8000040F08070CAF80000B86860
:1011400040F08070B860FFF713FA0446DAF8000048
:1011500010F0007F40F0E880FFF70AFA011B03203F
:101160000229F3D9DDE0B8F10C0F22D0DAF8000043
:1011700020F08070CAF80000FFF7FAF9044600BFBB
:10118000DAF8000010F0007F2DD0FFF7F1F9011B15
:1011900003200229F4D9C4E0B8F10C0F09D0DAF821
:1011A000000010F0806F04BFDAF8000010F0805FDC
:1011B00038D0012002B0BDE8F087DAF8000040F036
:1011C0000800CAF80000DAF80000216A20F0F000F8
:1011D0000843CAF800003868E16920F47F4040EA1B
:1011E00001203860B4E5B8684FF6FC71CFF6EE61C7
:1011F0000840B860002002B0BDE8F08720F480709D
:10120000CAF80000FFF7B4F90546DAF8000010F458
:10121000806F3FF4D0ADFFF7ABF9411B03200229EB
:10122000F3D97EE0DAF8000020F08070CAF8000000
:10123000FFF79EF90546DAF8000010F0007F2FD086
:10124000FFF796F9411B03200229F4D969E020F445
:101250008030CAF80000DAF8000020F48020CAF8D4
:1012600000006668FFF784F9054666B1DAF8000009
:1012700010F4003F7FF482ADFFF77AF9411B0320A1
:101280006429F3D94DE0DAF8000010F4003F3FF490
:1012900075ADFFF76DF9411B03206429F3D940E0D8
:1012A000B86804F12C064ECE6FF00F0505EB021264
:1012B00048F28C05CFF69D1528400843104340EABC
:1012C0000320E16B0022CFF6E07202EA0151A1F5A2
:1012D00000110843216C4FF07E4202EA016101F1E6
:1012E0007E4108430021CFF6FE7101EA46310843F2
:1012F000B860DAF8000040F08070CAF80000B86802
:1013000040F08070B860FFF733F90446DAF8000067
:1013100010F0007F08D1FFF72BF9011B03200229F1
:10132000F4D902B0BDE8F087002002B0BDE8F08734
:1013300000F0A6BC70470000704700007047000036
:1013400070B504462268D06940F62F0100EA010317
:101350001168956801F02002202B08D13AB1616E26
:10136000002900F043812046BDE87040084740F660
:101370000F0318420CD005F0010C8CF0010E40F266
:101380002013C0F20043194253D1BEF1000F50D0D8
:101390000140CA06226E3CD5012A3AD120681021AC
:1013A00001622068806810F0400F40F0CC80B4F8F3
:1013B0005800B4F85A10B4F85A20002A1EBF401A38
:1013C00081B2002900F01281206850E8000F2268E5
:1013D00020F4907042E80003002BF5D1206850E81B
:1013E000020F226820F0010042E80203002BF5D131
:1013F0002020E06700202066606600BF206850E87B
:10140000000F226820F0100042E80003002BF5D105
:10141000E1E0C00240F1E48015F4800000F0E080DB
:1014200020684FF4801101622046BDE87040FFF74C
:1014300083BFC30718BF11F4807308D02368012548
:101440001D62D4F8803043F00103C4F8803000F00E
:101450000205012383EA550555EA0E0508D12568E2
:1014600002262E62D4F8805045F00405C4F880505E
:1014700000F0040583EA950353EA0E0308D12368BC
:1014800004261E62D4F8803043F00203C4F8803092
:1014900052EA0C0218BF012203070AD5012A08D11B
:1014A000226808231362D4F8802042F00802C4F8AE
:1014B000802002050CD511F0806209D022684FF41B
:1014C00000631362D4F8802042F02002C4F8802028
:1014D000D4F88020002A00F089800840800604D5D6
:1014E000616E00291CBF20468847D4F8800000F0B8
:1014F00028002168896801F04001084300F07C80E1
:10150000204600F0BFFC2068806810F0400F6ED0CD
:10151000206850E8020F216820F0400041E80202F4
:10152000002AF5D1206F002861D041F67561C0F620
:1015300000018163FEF7EAFE002857D0206F816B1F
:10154000BDE870400847206F0068406881B20029FC
:101550004CD0B4F85820914248D2A4F85A00206FD9
:101560000068006810F0200F2FD100BF206850E8FD
:10157000000F216820F4807041E80002002AF5D1B4
:10158000206850E8020F216820F0010041E80202C3
:10159000002AF5D1206850E8020F216820F04000B1
:1015A00041E80202002AF5D12020E06700202066F1
:1015B000206850E8000F216820F0100041E8000288
:1015C000002AF5D1206FFEF77FFEB4F85800B4F87A
:1015D0005A10401A81B22046BDE87040FFF7AABEFB
:1015E000080610D5A16E00297FF4BDAE70BD20465F
:1015F000BDE87040FFF7A2BE2046FFF79FFE002027
:10160000C4F8800070BD480658BF70BD2046BDE8D4
:10161000704000F05FBC000010B504469CB1A06FA4
:1016200028B9002084F87400204600F029F824200E
:10163000A0672068016821F001010160204600F0E8
:10164000F7FC012801D1012010BD606A00281CBFF1
:10165000204600F071FB2068416821F49041416010
:101660002068816821F02A0181602068016841F0CA
:10167000010101602046BDE8104000F0C3BB00003E
:10168000B0B5A8B0044600252795CDE92555CDE98C
:10169000235501A88821FEF7D0FD206843F60001FC
:1016A000C4F20101884201D028B0B0BD01200190F0
:1016B0000F9501A8FFF71EF8002818BFFEF7FEFDE2
:1016C00041F24C00C4F20200416941F480414161A1
:1016D000416901F4804100910099016841F00101E4
:1016E0000160006800F00100009000984FF4C060B5
:1016F00023904FF0020024904FF0000025904FF00F
:10170000030026904FF00700279023A94FF0904048
:10171000FEF73CFE4FF025004FF000014FF00002B5
:10172000FEF792FF4FF02500FEF78CFF28B0B0BD0A
:10173000C36F202B08D10123002918BF002A2AD00B
:1017400090F87430012B02D10223D8B2704780B5D3
:10175000012380F8743000230366D0F800C048F2FB
:101760000003C4F200039C451CBFDCF8043013F4F2
:10177000000F0BD0036853E8003FD0F800C043F0DF
:1017800080634CE8003EBEF1000FF3D100F076FD1F
:101790000023BDE88040D8B270470000006843F6DF
:1017A0000001C4F20101884218BF7047B0B540F291
:1017B0003004C2F2000440F2B405C2F20005204633
:1017C00029464FF001024FF47A7300F009F82046E1
:1017D00029464FF00102FFF7ABFFBDE8B04070476C
:1017E0002DE9F04782B0994616460D460446A06F93
:1017F00020280AD10120002D18BF002E06D094F811
:101800007400012806D1022000E00220C0B202B01C
:10181000BDE8F087012084F874004FF0000AC4F896
:1018200080A02120A067FEF7A3FE8046A4F85060A8
:10183000A4F85260A068B0F5805F07D12769002F37
:101840004FF000060CBF2E462F4601E02F46002623
:1018500084F874A005E000BFB4F852000138A4F881
:101860005200B4F85200B0B1CDF80090204680216B
:101870000022434600F06AFDC0B9206827B117F87E
:10188000011B0185E8E700BF36F8021B6FF35F21FB
:1018900001850027E0E7CDF8009020464021002296
:1018A000434600F053FD18B10320AFE70320ADE736
:1018B0002020A0670020A9E770470000FEE7000095
:1018C00082B041F24C00C4F20200016841F0800194
:1018D0000160016801F0800101910199016841F006
:1018E00001010160006800F001000090009802B062
:1018F0007047000080B540F23000C2F2000043F6AD
:101900000001C4F2010101604FF4E13141600021A6
:10191000C0E9021101610C224162C0E90711C0E96E
:101920000521FFF779FE00281CBFBDE88040FEF7C7
:10193000C5BC80BDFEE70000FEE7000000F0070028
:1019400000F1040CC31EBCF1070F38BF002380F068
:101950000700042828BF04204FF0010C0CFA00F007
:101960000138084098400CFA03F10139114008434E
:101970007047000070470000F0B581B00D46044686
:1019800041F20007C4F20207F868216810F0030F63
:1019900012D0FA680120002900F0908002F00302C2
:1019A0008A4240F08B80F8686168C0F30210013011
:1019B000884229D0012081E0032909D0022911D0D1
:1019C000012952D1386810F0020F11D1012075E0C1
:1019D000386810F4003F04BF386810F4802F07D136
:1019E00001206BE0386810F4806F01D1012065E0C0
:1019F000F868D4E900126FF00F0303EB021220F035
:101A0000730008431043F860386820F08060386045
:101A1000FEF7AEFD064600BF386810F0006F06D036
:101A2000FEF7A6FD801B0228F6D9032046E0A06839
:101A30000002E5B148F2FF01CFF6FF11012D08BF0A
:101A400001F1B4613A69114004F11402012D08BF9B
:101A500004F1100212684FF0FF3303EB5202192316
:101A6000012D08BF15239A400DE0012026E03969B9
:101A700048F2FF02CFF6FD721140E2680023CFF674
:101A8000FE7303EA4232104308433861386840F07D
:101A900080603860FEF76CFD054600BF386810F0C6
:101AA000006F06D1FEF764FD401B0228F6D9032023
:101AB00004E0A0693969084338610020C0B201B070
:101AC000F0BD0000F0B581B00D46044641F20007BC
:101AD000C4F20207F868216810F0030F11D0FA6809
:101AE0000120002900F0808002F003028A427BD1AD
:101AF000F8686168C0F302100130884229D00120E3
:101B000072E0032909D0022911D0012944D1386893
:101B100010F0020F11D1012066E0386810F4003F88
:101B200004BF386810F4802F07D101205CE03868CA
:101B300010F4806F01D1012056E0F868D4E900125A
:101B40006FF00F0303EB021220F073000843104301
:101B5000F860386820F080503860FEF709FD0646CE
:101B6000386810F0005F06D0FEF702FD801B0228E7
:101B7000F6D9032038E07969A068000275B148F20F
:101B8000FF02CFF6FF12114022694FF07E4303EAB5
:101B9000026202F17E420CE0012025E048F2FF02E1
:101BA000CFF6FD721140E2680023CFF6FE7303EA20
:101BB0004232104308437861386840F08050386002
:101BC000FEF7D6FC054600BF386810F0005F06D16E
:101BD000FEF7CEFC401B0228F6D9032004E0606922
:101BE0007969084378610020C0B201B0F0BD0000FF
:101BF000B0B582B0044641F25805C4F20205286827
:101C000010F0805F0FD1286840F08050286028686D
:101C100000F0805001900198FEF764FD296821F0E2
:101C20008051296001E0FEF75DFD42F20001C4F23F
:101C30000201B0F5007F06D1812C08D30120A02C31
:101C400088BF02200DE0802C03D9032009E000208A
:101C500007E0A4F17000B0FA80F04009802C08BFC2
:101C600002200A6822F0070202430A60096801F0B4
:101C70000701081A18BF012002B0B0BD704700006C
:101C8000B0B501380024B4EB106F1EBF012420460C
:101C9000B0BD4EF21005CEF2000568604FF0FF3087
:101CA0004FF00F0100F0E8FBAC604FF00700286038
:101CB0002046B0BDFEF762BC10B596B005A8442121
:101CC000FEF7BBFA00200490CDE90200CDE9000048
:101CD0004FF40070FEF7CAFC10BB012005904FF4D2
:101CE0008031069102210F910324CDE91040142088
:101CF00012900720CDE91301159105A8FFF710F800
:101D000070B90F20CDE900040020CDE90200049055
:101D100068460421FEF7BCFE002804BF16B010BDC3
:101D2000FEF7CCFA4EF68850CEF20000016841F47E
:101D3000700101607047000090F82410C90706D0B8
:101D400001684A68836A22F400321A434A6090F8B4
:101D50002410890706D501684A68C36A22F48032D4
:101D60001A434A6090F82410490706D501684A686A
:101D7000036B22F480221A434A6090F8241009076A
:101D800006D501684A68436B22F400421A434A6050
:101D900090F82410C90606D501688A68836B22F47E
:101DA00080521A438A6090F82410890606D501688B
:101DB0008A68C36B22F400521A438A6090F8241098
:101DC000490611D501684A68036C22F480121A434F
:101DD0004A60016CB1F5801F06D101684A68436C06
:101DE00022F4C0021A434A6090F82410090658BF32
:101DF000704701684A68806C22F4002240EA0200C1
:101E000048607047B0B582B004460020C4F8800036
:101E1000FEF7AEFB05462068006810F0080F0CD0F6
:101E20006FF07E40009020464FF4001100222B46B8
:101E300000F08CFA08B1032018E02068006810F068
:101E4000040F0CD06FF07E40009020464FF48001CC
:101E500000222B4600F07AFA08B1032006E0202089
:101E6000A067E0670020206684F87400C0B202B06A
:101E7000B0BD0000806A0021A0F85A10A0F85210EE
:101E8000FFF75CBA016851E8001F026821F4907105
:101E900042E80013002BF5D1016851E8021F0268E7
:101EA00021F0010142E80213002BF5D1016E012956
:101EB0000AD100BF016851E8001F026821F010013B
:101EC00042E80013002BF5D12021C16700210166F3
:101ED00041667047016851E8001F026821F0400127
:101EE00042E80013002BF5D1202181670021816693
:101EF000FFF7E2BCB0F85C20C36F0168222B42D12F
:101F0000898C1140426D22F8021B4265B0F85A10CC
:101F10000139A0F85A10B0F85A10002918BF7047BC
:101F2000016851E8001F026821F4907142E8001333
:101F3000002BF5D1016851E8021F026821F0010170
:101F400042E80213002BF5D12021C1670021416630
:101F5000026E012A18BFFFF721BC0166016851E833
:101F6000001F026821F0100142E80013002BF5D198
:101F70000168CA6912F0100F1CBF10220A62B0F883
:101F80005810FFF7D7B9088B40F008000883704756
:101F9000B0F85C20C36F0168222B44D1898C1140BA
:101FA000426D1170416D01314165B0F85A1001392F
:101FB000A0F85A10B0F85A10002918BF704700BF97
:101FC000016851E8001F026821F4907142E8001393
:101FD000002BF5D1016851E8021F026821F00101D0
:101FE00042E80213002BF5D12021C1670021416690
:101FF000026E012A18BFFFF7D1BB0166016851E8E4
:10200000001F026821F0100142E80013002BF5D1F7
:102010000168CA6912F0100F1CBF10220A62B0F8E2
:102020005810FFF787B9088B40F008000883704705
:10203000B0B504462068A168D4E9042311431943CC
:10204000E2691143026846F6F313CEF6FF731A40B5
:102050001143016020684168E26821F44051114356
:1020600041602068A16941F2880CC4F2020C40F280
:102070000212C0F2020248F2000EC4F2000E7045D5
:102080001CBF236A1943836823F4306341EA0301C8
:10209000816021684FF0100342F20040C0F2F4006A
:1020A00044F6FF75C4F20005A94215DC44F2004570
:1020B000C4F20005A94222D044F60005C4F200058E
:1020C000A94220D044F60045C4F20005A94230D10F
:1020D000DCF80010890921E045F20005C4F2000592
:1020E000A94214D0714516D043F60005C4F201058B
:1020F000A9421ED102F58062DCF800100EE0DCF887
:10210000001089080AE0DCF80010090906E0DCF894
:102110000010090A02E0DCF80010890A6FF31F5270
:1021200081F0020101F0030141EA810122FA01F389
:102130002168714515D0E16903F01F02B1F5004F28
:1021400020D10121082A00F29380DFE802F0055235
:102150005D91569191915B00FEF75AFD002853D195
:102160004EE003F01F020121082A00F28180DFE81F
:1021700002F0057F207F197F7F7F1E00FEF748FD5C
:10218000B8B912E00121082A00F27280DFE802F0FB
:1021900005545F70587070705D00FEF739FD0028BF
:1021A00055D150E0FEF75CFD18B9002160E04FF416
:1021B0000040626802EB42030121984258D31303A6
:1021C000984255D8010E000210EB520041F1000177
:1021D0000023FDF7F7FFA0F540714FF6FF42C0F274
:1021E0000F02914203D82168C860002140E001211C
:1021F0003EE0FEF721FD38B902E0FEF731FD18B9E7
:10220000002135E04FF4004061684A0802EB4000CD
:10221000B0FBF1F0A0F110014FF6EF72914209D836
:102220004FF6F0710140C0F3420008432168C860D6
:1022300000211DE001211BE0FEF7FEFC38B902E0A1
:10224000FEF70EFD18B9002112E04FF4004061685E
:1022500000EB5100B0FBF1F0A0F110014FF6EF726E
:10226000914204D8216880B2C860002100E00121B9
:102270000020C4E919000846B0BD00004165A0F87F
:102280005820A0F85A2000214166816871B1B1F14F
:10229000805F13D0B1F5805F18D10169FF2200295A
:1022A00008BF40F2FF12A0F85C2012E001697F2213
:1022B000002908BFFF22A0F85C200AE001693F2244
:1022C000002908BF7F22A0F85C2002E00021A0F8CE
:1022D0005C100021C0F880102221C167016851E81C
:1022E000021F026841F0010142E80213002BF5D100
:1022F0008168B1F5805F04BF0169002904D041F60F
:102300009171C0F6000103E041F6F561C0F60001ED
:102310004166002180F87410016959B1016851E8E3
:10232000001F026841F4907142E80013002BF5D1C0
:102330000AE000BF016851E8001F026841F0200177
:1023400042E80013002BF5D1002070472DE9F0433F
:1023500081B0984616460F4604462068C06938404A
:10236000C01BB0FA80F04009B0423AD1DDF82090AD
:1023700009F101058DB1FEF7FBF8B9F1000F17D097
:10238000A0EB0800484513D82068016811F0040F3D
:102390001CBFC16911F4006F25D12068C0693840A5
:1023A000C01BB0FA80F04009B042E3D000203CE00E
:1023B000206850E8000F216820F4D07041E8000246
:1023C000002AF5D1206850E8020F216820F00100B2
:1023D00041E80202002AF5D12020A06704F17C0028
:1023E0001DE0002021E04FF400610162206850E808
:1023F000000F216820F4D07041E80002002AF5D1D6
:10240000206850E8020F216820F0010041E8020234
:10241000002AF5D12020A067E06704F18000202188
:102420000160002084F874000320C0B201B0BDE850
:10243000F083000040F23000C2F20000FEF780BFDF
:10244000FEE700000028B8BF704700F01F014FF002
:10245000010202FA01F14FEA50104EF20012CEF2E0
:10246000000242F8201070474EF60C50CEF20000E9
:102470000068C0F30220704700F1604C00F00F03C9
:102480004EF61452CEF200021A44B0F1FF3FC8BF1C
:102490000CF5644208011070704700004EF60C51B4
:1024A000CEF200010A684FF6FF031A4060F30A22D9
:1024B00042F0806040F0FD7008607047B0B5FEF7F4
:1024C0006BF8FFF7F9FBFFF7FBF9FFF713FA40F2A0
:1024D0003004C2F2000440F2B401C2F2000120460E
:1024E0000122FFF725F940F20405C2F2000500BF02
:1024F0002046294626224FF47A73FFF771F94FF4EC
:102500007A70FDF72DFFF3E702E008C8121F08C13B
:10251000002AFAD170477047002001E001C1121F64
:10252000002AFBD1704700000000000000000102FB
:10253000030406070809000000000102030400006C
:10254000A0860100400D0300801A060000350C0033
:1025500040420F0080841E0000093D0000127A00F6
:102560000024F40000366E010048E801006CDC0233
:102570009025000800000020300000000825000819
:10258000C025000830000020900400001825000835
:1025900000093D00582050756C73652053544D332D
:1025A000324C34373652475436207573617274207A
:1025B000746573742E2E2E0D0A00010010000000A9
:040000050800018D61
:00000001FF
