:020000040800F2
:1000000060040020A101000835170008DD15000874
:10001000311700080D020008311D00080000000023
:1000200000000000000000000000000001180008AF
:1000300011020008000000007117000839180008BC
:10004000BB010008BB010008BB010008BB010008A0
:10005000BB010008BB010008BB010008BB01000890
:10006000BB010008BB010008BB010008BB01000880
:10007000BB010008BB010008BB010008BB01000870
:10008000BB010008BB010008BB010008BB01000860
:10009000BB010008BB010008BB010008BB01000850
:1000A000BB010008BD180008BB010008BB01000827
:1000B000BB0100080000000000000000BB010008B8
:1000C000BB010008BB010008BB010008BB01000820
:1000D000BB010008BB010008BB010008BB01000810
:1000E000BB010008BB010008000000000000000088
:1000F0000000000000000000000000000000000000
:1001000000000000BB01000800000000BB01000867
:100110000000000000000000BB010008BB01000857
:10012000BB010008BB010008BB010008BB010008BF
:10013000BB010008000000000000000000000000FB
:10014000BB010008BB010008BB0100080000000063
:10015000BB010008BB010008BB010008BB0100088F
:10016000BB010008BB010008BB0100080000000043
:10017000BB010008BB0100080000000000000000F7
:10018000BB010008BB010008BB010008DFF80CD070
:1001900000F02AF800480047AD1D00086004002068
:1001A0000648804706480047FEE7FEE7FEE7FEE711
:1001B000FEE7FEE7FEE7FEE7FEE7FEE7A918000818
:1001C0008D010008D2B201E000F8012B491EFBD2DC
:1001D00070470022F6E710B513460A460446194652
:1001E000FFF7F0FF204610BD064C074D06E0E06823
:1001F00040F0010394E8070098471034AC42F6D36E
:10020000FFF7C8FF581E0008781E0008FEE7000030
:1002100070470000EFF3108072B600BFFEE70000E9
:1002200070B505466E1C00F003F9044636B140F285
:100230000400C2F200000078054401E04FF0FF35F1
:1002400000F0F6F8001BA842FAD370BD2DE9F04F7C
:1002500082B00E68002E00F0E58041F60002C4F680
:1002600000020727904208BF062700F138424FEAF4
:10027000B223062B38BF4FEAB227009700234FF076
:10028000030E40F2004AC4F2010A0025012400BF17
:10029000A4F10109012202FA09FB16EA0B0800F099
:1002A000B6804E6806F00306013E012E13D80EFA02
:1002B00005F6D0F808C02CEA0606CA68AA40324300
:1002C0008260426822EA0B024E68C6F3001606FA04
:1002D00009F6324342604E6806F00302032A08D151
:1002E000C6F3C00202FA09F2C66A26EA0B063243D6
:1002F000C2624A6802F00302032A08D00EFA05F22D
:10030000C66826EA02028E68AE403243C2604A687E
:1003100002F00302022A14D103F01C020F2707FA8D
:1003200002FC4FF6FC76C7F6FF7606EA590707444B
:100330003E6A26EA0C0C0E6906FA02F242EA0C0248
:100340003A620EFA05F2076827EA02024F6807F0E0
:100350000307AF403A4302608A79920757D041F2CF
:100360006002C4F2020217463A6842F001023A60A3
:100370003A6802F00102019229F003025244019FFF
:100380004FF60847CFF6FF77B94652F809C003F099
:100390000C060F27B7402CEA070C009F07FA06F659
:1003A0004CEA060742F80970DAF8082022EA080247
:1003B0004F6817F4801F18BF42EA0802CAF80820E5
:1003C00040F20C42C4F201021646326822EA0802E8
:1003D0004F6817F4001F18BF42EA08023260DAF8CB
:1003E000042022EA08024F6817F4003F18BF42EACF
:1003F0000802CAF80420DAF8002022EA08024F684E
:1004000017F4803F18BF42EA0802CAF800200E68BD
:1004100036FA04F203F1040305F1020504F10104C4
:100420007FF436AF02B000F000B830BCBDE8C08F3A
:1004300040F25C00C2F200000068704740F2040025
:10044000C2F20000007840F25C01C2F200010A68CA
:10045000104408607047000080B5032000F064F885
:10046000032000F009F800281CBF012080BD00F027
:100470002FF84FF0000080BDB0B5044640F20400F4
:10048000C2F200000078002802BF01252846B0BD56
:100490004FF47A71B1FBF0F040F20001C2F20001BA
:1004A0000968B1FBF0F000F0A7FC4FF001050F2C3C
:1004B0000CD858B900254FF0FF302146002200F03B
:1004C00023F840F20800C2F2000004602846B0BDE4
:1004D00082B041F25800C4F20200816841F001018B
:1004E0008160816801F0010101910199016841F089
:1004F00080510160006800F080500090009802B0C8
:100500007047000001F016BC70B514460D46064653
:1005100001F022FC2946224601F00EF90146304640
:10052000BDE8704001F020BC01F030BC47F2000192
:10053000C4F200010A6802F4C062B0F5007F26D15F
:10054000B2F5007F2BD00868012262F34A200860D0
:1005500040F20000C2F200000068322250434DF623
:100560008362C4F21B32A0FB02026FEA924000BF1A
:100570004A6900281CBF013012F48062F8D1486932
:1005800010F4806F1EBF0320C0B2704707E0B2F5C1
:10059000806F1FBF0868022262F34A2008600020B3
:1005A000C0B2704747F20000C4F20000006800F4D7
:1005B000C06070472DE9F04188460446002C00F0E9
:1005C000AF8041F20807C4F20207D7F8F80F00F035
:1005D000070040450ED2D7F8F80F20F0070040EA98
:1005E0000800C7F8F80FD7F8F80F00F007004045EB
:1005F00040F09680207880070AD5A068396801F01D
:10060000F001884281BF396821F0F0010843386069
:100610002078C00734D06068022807D003280BD1A7
:1006200057F8080C10F0007F7AD00DE057F8080C4E
:1006300010F4003F74D007E057F8081C10B14805CB
:100640006ED501E088076BD53868616820F003003B
:1006500008433860FFF7ECFE064641F2883500BFDC
:100660003868616800F00C00B0EB810F08D0FFF72C
:10067000DFFE801BA842F3D90320C0B2BDE8F081A1
:10068000207880070AD5A068396801F0F001884217
:100690003FBF396821F0F00108433860D7F8F80F00
:1006A00000F0070040450DD9D7F8F80F20F00700FB
:1006B00040EA0800C7F8F80FD7F8F80F00F0070075
:1006C00040452DD12078400705D53868E16820F4F1
:1006D000E060084338602078000706D53868216953
:1006E00020F4605040EAC100386000F01DF839681D
:1006F000C1F3031141F61862C0F60002515C01F02B
:100700001F01C84040F20001C2F20001086040F23F
:100710000800C2F200000068BDE8F041FFF7ACBE7F
:100720000120C0B2BDE8F08180B541F20C01C4F2F5
:10073000020151F8042C086812F00C0341F2002C5D
:10074000C0F27A0C42F2004EC0F2F40E05D00C2B2F
:1007500004BF00F00300012818D151F80C0C10F070
:10076000080F03D1D1F88800000A02E051F80C0C00
:10077000000900F00F0041F62862C0F6000252F8AE
:100780002020002B104618BF00200DE003F00F00C2
:10079000042804BF704680BD082804BF604680BDA1
:1007A0004FF000004FF000020C2B18BF80BD08680E
:1007B00000F00300022803D00328E64618BF96463F
:1007C00008680A680968C1F34161022303EB41012B
:1007D000C2F3062202FB0EF2C0F302100130B2FB9C
:1007E000F0F0B0FBF1F080BD2DE9F04782B0044697
:1007F000002C00F0428241F20407C4F2020778683C
:1008000000F00C08B86800F003092078C00641F237
:10081000000AC4F2020A52D42078C00712D0B8F1FC
:10082000080F06D0B8F10C0F08BFB9F1030F40F064
:100830003081DAF8000010F4003F03D0606800282F
:1008400000F01B822078800719D5B8F1040F06D07C
:10085000B8F10C0F08BFB9F1020F40F02D81DAF8A2
:10086000000010F4806F03D0E068002800F00582DB
:100870003868216920F0F85040EA0160386020783B
:10088000000740F1BB806169D7F89000002900F0B3
:10089000A28040F00100C7F89000FFF7C9FD0546AF
:1008A000D7F8900010F0020F40F0A880FFF7C0FDCD
:1008B000401B0228F4D9032002B0BDE8F087B8F14C
:1008C000000F05D0B8F10C0F08BFB9F1010F68D1C6
:1008D000DAF8000010F0020F03D0A069002800F041
:1008E000CC81206ADAF8001011F0080F06BFD7F8A3
:1008F00090100909DAF8001001F0F00188421AD9C5
:1009000000F038FF002840F0B881DAF8000040F02D
:100910000800CAF80000DAF80000216A20F0F000B0
:100920000843CAF800003868E16920F47F4040EAD3
:100930000120386018E0DAF8000040F00800CAF83A
:100940000000DAF80000216A20F0F0000843CAF83D
:1009500000003868E16920F47F4040EA01203860F7
:10096000B8F1000F00F08E80FFF7DEFE7968C1F36A
:10097000031141F61862C0F60002515C01F01F013C
:10098000C84040F20001C2F20001086040F20800D5
:10099000C2F200000068FFF76FFD002840F02582DA
:1009A0003AE7A169DAF80000002900F0A08040F0E1
:1009B0000100CAF80000FFF73BFD0546DAF8000029
:1009C00010F0020F40F05D81FFF732FD411B032064
:1009D0000229F3D909E220F00100C7F89000FFF7DF
:1009E00027FD0546D7F8900010F0020F06D0FFF75C
:1009F0001FFD411B03200229F4D9F6E120784007AE
:100A000040F1BB80786D10F0805F0BD1786D40F0C5
:100A100080507865786D00F08050019001984FF01B
:100A2000010901E04FF0000946F20006CFF6FE761C
:100A30005AF8060010F4807F14D15AF8060040F4EA
:100A400080704AF80600FFF7F3FC05465AF80600E6
:100A500010F4807F06D1FFF7EBFC411B0320022935
:100A6000F4D9C2E1A168012907D0D7F88C00052983
:100A700051D140F00400C7F88C00D7F88C0040F04A
:100A8000010050E0206A00F075FE002840F0F5807B
:100A90006AE76168B1F5803F09D0DAF80000B1F586
:100AA000A02F40F0388140F48020CAF80000DAF826
:100AB000000040F4803036E1E168DAF800000029F7
:100AC00000F0008140F48070CAF80000FFF7B0FC2D
:100AD000054600BFDAF8000010F4806F7FF4C8AE5E
:100AE000FFF7A6FC411B03200229F3D97DE120F08A
:100AF0000100CAF80000FFF79BFC0546DAF8000089
:100B000010F0020F3FF488AEFFF792FC411B032068
:100B10000229F3D969E120F00100C7F88C00D7F869
:100B20008C0020F00400C7F88C00A668FFF780FC5A
:100B300005466EB141F28836D7F88C0010F0020FEE
:100B400014D1FFF775FC411B0320B142F4D94CE1ED
:100B500041F28836D7F88C0010F0020F06D0FFF76C
:100B600067FC411B0320B142F4D93EE1B9F1010F0A
:100B700002BF786D20F080507865A06A002800F0F0
:100B80003781022853D1B868E16A00F003028A4233
:100B900066D1216B6FF00F0202EB011100F07002C1
:100BA0008A425DD1616B00F4FE42B2EB012F57D156
:100BB000A16B073918BF012100F400328A424FD1DE
:100BC000E16B0022CFF6E07202EA0151A1F50011BB
:100BD00000F4C0028A4243D1216C4FF07E4202EA07
:100BE000016101F17E4100F0C060884238D1DAF83D
:100BF000000010F0007F40F0FB80DAF8000040F0C9
:100C00008070CAF80000B86840F08070B860FFF7E4
:100C10000FFC0446DAF8000010F0007F40F0E88096
:100C2000FFF706FC011B03200229F3D9DDE0B8F130
:100C30000C0F22D0DAF8000020F08070CAF8000013
:100C4000FFF7F6FB044600BFDAF8000010F0007F63
:100C50002DD0FFF7EDFB011B03200229F4D9C4E0DE
:100C6000B8F10C0F09D0DAF8000010F0806F04BF63
:100C7000DAF8000010F0805F38D0012002B0BDE843
:100C8000F087DAF8000040F00800CAF80000DAF84F
:100C90000000216A20F0F0000843CAF8000038681C
:100CA000E16920F47F4040EA01203860B4E5B8688B
:100CB0004FF6FC71CFF6EE610840B860002002B03C
:100CC000BDE8F08720F48070CAF80000FFF7B0FBA1
:100CD0000546DAF8000010F4806F3FF4D0ADFFF75E
:100CE000A7FB411B03200229F3D97EE0DAF80000BC
:100CF00020F08070CAF80000FFF79AFB0546DAF88A
:100D0000000010F0007F2FD0FFF792FB411B032063
:100D10000229F4D969E020F48030CAF80000DAF83A
:100D2000000020F48020CAF800006668FFF780FB0E
:100D3000054666B1DAF8000010F4003F7FF482AD9A
:100D4000FFF776FB411B03206429F3D94DE0DAF865
:100D5000000010F4003F3FF475ADFFF769FB411B45
:100D600003206429F3D940E0B86804F12C064ECE84
:100D70006FF00F0505EB021248F28C05CFF69D15BA
:100D800028400843104340EA0320E16B0022CFF6DD
:100D9000E07202EA0151A1F500110843216C4FF005
:100DA0007E4202EA016101F17E4108430021CFF653
:100DB000FE7101EA46310843B860DAF8000040F0FD
:100DC0008070CAF80000B86840F08070B860FFF723
:100DD0002FFB0446DAF8000010F0007F08D1FFF77F
:100DE00027FB011B03200229F4D902B0BDE8F087DC
:100DF000002002B0BDE8F08700F004BD704700009D
:100E0000704700007047000090F83C20012A02BFA4
:100E10000221C8B2704710B54FF0010280F83C20A3
:100E2000D1E900C3D1E902E248F2FF74CFF6F074D1
:100E300003EA040322F47C522EF4705442EA0402C2
:100E400042EA03022CF4772342EA03020B6923F4FB
:100E5000762342EA03024B6942EA030222F4742237
:100E60008B6A23F4702342EA03028B6942EA03434C
:100E7000026843F20044C4F20104A24205D042F6E3
:100E80000044C4F20104A2420FD1D1E907EC496A3F
:100E90000024CFF6F04404EA015123F07C73194397
:100EA0002EF00073194341EA0C035364002180F8CB
:100EB0003C10BDE81040C8B27047000090F83C30CC
:100EC0000222012B53D010B5012380F83C3080F86A
:100ED0003D2003685A68D3F808E043F2004CC4F29E
:100EE000010C634505D042F60044C4F20104A3425C
:100EF00003D14C6822F4700222430C6822F0700285
:100F000022435A60036840F6FF32C4F20002934263
:100F100010DD43F2FF32C4F20102934229DC40F6B5
:100F20000042C4F20002934213D042F60042C4F2DF
:100F300001020CE0B3F1804F1EBF40F20042C4F248
:100F40000002934205D040F60002C4F20002934230
:100F500005D189682EF08002114302689160012159
:100F600080F83D10002280F83C20BDE81040D0B24F
:100F7000704744F20002C4F20102934218BF634575
:100F8000E7D0ECE710B50446002C04BF012010BDEB
:100F900094F83D0028B9002084F83C00204600F079
:100FA00023F8022084F83D002068211D00F08CFC0D
:100FB000012084F8480084F83E0084F83F0084F85B
:100FC000400084F8410084F8420084F8430084F82B
:100FD000440084F8450084F8460084F8470084F80B
:100FE0003D00002010BD0000006842F60041C4F240
:100FF0000101884218BF704780B582B041F260009D
:10100000C4F20200016841F400610160006800F46C
:101010000060019001984FF019004FF00F014FF060
:101020000002FFF771FA4FF0190002B0BDE88040EE
:10103000FFF768BA10B5044694F83C200220012A54
:1010400069D0012284F83C2084F83D002068826841
:101050008823CFF6FE731A4082600A684F2A10DC9C
:101060001F2A26DD202A18BF302A26D0402A54D134
:101070004B68CA682068194600F036FE2068402197
:1010800040E06F2A1CDDB2F5005F26D0B2F5805F2C
:101090003AD0702A41D1D1E9012CCB682068614651
:1010A00000F0B0FC20688068216840F0770088601C
:1010B0002AE0002A18BF102A2FD12068114621E00B
:1010C000502A17D0602A28D14B68CA682068194670
:1010D00000F01CFE2068602114E0D1E9012CCB68EF
:1010E0002068614600F08EFC2068816841F48041F0
:1010F000816009E04B68CA682068194600F0F4FD79
:101100002068502100F088FC0020012184F83D1067
:10111000002184F83C10C0B210BD0120F5E70000AA
:101120007047000010B504462068016911F0020FF5
:101130001CBFC16811F0020F15D06FF002010161F0
:10114000012020772068806910F0030F03D020462B
:10115000FFF7E6FF05E0204600F0DEF8204600F04D
:101160009DF9002020772068016911F0040F1CBF51
:10117000C16811F0040F15D06FF004010161022065
:1011800020772068806910F4407F03D02046FFF765
:10119000C7FF05E0204600F0BFF8204600F07EF9CA
:1011A000002020772068016911F0080F1CBFC1687A
:1011B00011F0080F15D06FF00801016104202077AD
:1011C0002068C06910F0030F03D02046FFF7A8FF86
:1011D00005E0204600F0A0F8204600F05FF900206E
:1011E00020772068016911F0100F1CBFC16811F051
:1011F000100F15D06FF010010161082020772068D2
:10120000C06910F4407F03D02046FFF789FF05E056
:10121000204600F081F8204600F040F900202077B9
:101220002068016911F0010F1CBFC16811F0010FA6
:1012300005D06FF001010161204600F0CBF9206874
:10124000016911F0800F1CBFC16811F0800F05D03B
:101250006FF0800101612046FFF7D2FD206801692F
:1012600011F4807F1CBFC16811F0800F05D06FF4AE
:10127000807101612046FFF7C1FD2068016911F00E
:10128000400F1CBFC16811F0400F05D06FF0400146
:101290000161204600F0A0F92068016911F0200FDB
:1012A0001CBFC16811F0200F00D110BD6FF02001EC
:1012B00001612046BDE81040FFF7A4BD80B586B0AF
:1012C00000210591CDE90311CDE90111006842F635
:1012D0000042C4F20102904201D006B080BD41F24A
:1012E0004C00C4F20200026842F001020260006891
:1012F00000F00100009000984FF40070019002206F
:10130000CDE9020104910120059001A94FF0904020
:10131000FEF79CFF06B080BD70470000B0B50D46DB
:10132000044694F83C00012802BF0220C0B2B0BDC0
:101330004FF0010084F83C004FEAB201052900F2A9
:101340007380DFE801F003152638495B20682946E1
:1013500000F06AFB2068816941F008018161206822
:10136000816921F00401816129692068183057E002
:101370002068294600F098FB2068816941F40061EB
:1013800081612068816921F4806181612068183061
:1013900044E02068294600F0CFFB2068C16941F095
:1013A0000801C1612068C16921F00401C161296996
:1013B00020681C3034E02068294600F005FC2068D5
:1013C000C16941F40061C1612068C16921F4806193
:1013D000C16120681C3021E02068294600F024FC0F
:1013E0002068416D41F0080141652068416D21F0A0
:1013F0000401416529692068543011E020682946BC
:1014000000F042FC2068416D41F4006141652068B4
:10141000416D21F4806141652068543029690902D9
:101420000268114301600020002184F83C10C0B222
:10143000B0BD000010B50446002C04BF012010BD53
:1014400094F83D0028B9002084F83C00204600F0C4
:1014500023F8022084F83D002068211D00F034FAB2
:10146000012084F8480084F83E0084F83F0084F8A6
:10147000400084F8410084F8420084F8430084F876
:10148000440084F8450084F8460084F8470084F856
:101490003D00002010BD00007047000070470000B4
:1014A000B0B5044649B10A1F01234FEAB205052031
:1014B000042D38BF03EBB20000E00020204490F878
:1014C0003E0001281CBF0120B0BD61B1081F4FEADA
:1014D000B00003280BD8DFE800F0020E121602203D
:1014E00084F83F0012E0022084F83E000EE0022063
:1014F00084F843000AE0022084F8400006E002205D
:1015000084F8410002E0022084F8420020680125AE
:10151000012200F067FA2068A0F18041A1F5963120
:101520004FEAB12106294ED805FA01F111F0650FF5
:1015300049D02068416C41F400414164206840F684
:10154000FF31C4F2000188420EDD43F2FF31C4F2E4
:101550000101884218DC40F60041C4F200018842D3
:101560001ED042F6004117E0B0F1804F1EBF40F29E
:101570000041C4F20001884212D040F60001C4F2DA
:10158000000188420CD017E044F20001C4F20101CE
:10159000884205D043F20041C4F2010188420BD1D8
:1015A000206880680721C0F201010140002006295F
:1015B00018BFB1F5803F05D02068016841F00101F6
:1015C00001600020B0BD44F60001C4F20101884270
:1015D000B4D1AEE77047000070470000FEE700009E
:1015E00082B041F24C00C4F20200016841F0800177
:1015F0000160016801F0800101910199016841F0E9
:1016000001010160006800F001000090009802B044
:101610007047000010B59AB00024CDE91844CDE918
:101620001644CDE91444CDE91244CDE91044CDE986
:101630000E44CDE90C4401A82C21FEF7CAFD40F26E
:101640001000C2F2000042F60041C4F201014F2234
:101650004FF47A7380E81600C0E90334C0E905440A
:10166000FFF790FC002818BFFEF7D4FD4FF4805020
:10167000169040F21000C2F2000016A9FFF7DAFC43
:10168000002818BFFEF7C6FD40F21000C2F20000AD
:10169000FFF7D0FE002818BFFEF7BCFD4FF0000496
:1016A000CDE91344159440F21000C2F2000013A9D2
:1016B000FFF704FC002818BFFEF7ACFD4FF06000F8
:1016C0001294CDE91044CDE90E44CDE90C0440F26A
:1016D0001000C2F200000CA94FF00402FFF71EFE3A
:1016E000002818BFFEF796FD4FF000000590CDE9E9
:1016F0000300CDE901004FF40051CDE90610089038
:101700004FF00071CDE909100B9040F21000C2F2C9
:10171000000001A9FFF778FB002818BFFEF77AFD4B
:1017200040F21000C2F20000FFF7C8FD1AB010BD71
:10173000FEE70000FEE7000000F0070000F1040CE7
:10174000C31EBCF1070F38BF002380F00700042838
:1017500028BF04204FF0010C0CFA00F001380840BB
:1017600098400CFA03F1013911400843704700001A
:1017700070470000B0B582B0044641F25805C4F28B
:101780000205286810F0805F0FD1286840F0805073
:101790002860286800F0805001900198FEF702FF51
:1017A000296821F08051296001E0FEF7FBFE42F23A
:1017B0000001C4F20201B0F5007F06D1812C08D3EC
:1017C0000120A02C88BF02200DE0802C03D903202B
:1017D00009E0002007E0A4F17000B0FA80F04009B1
:1017E000802C08BF02200A6822F0070202430A6028
:1017F000096801F00701081A18BF012002B0B0BD46
:1018000070470000B0B501380024B4EB106F1EBF64
:1018100001242046B0BD4EF21005CEF200056860EE
:101820004FF0FF304FF00F0100F09EFAAC604FF028
:10183000070028602046B0BDFEF700BE10B596B088
:1018400005A84421FEF7C5FC00200490CDE9020064
:10185000CDE900004FF40070FEF768FE10BB0120D8
:1018600005904FF48031069102210F910324CDE9B8
:101870001040142012900720CDE91301159105A8FE
:10188000FEF7B2FF70B90F20CDE900040020CDE9CA
:101890000200049068460421FEF78CFE002804BF75
:1018A00016B010BDFEF7B6FC4EF68850CEF2000022
:1018B000016841F4700101607047000040F21000BF
:1018C000C2F20000FFF72EBC026840F6FF33C4F2FC
:1018D000000398420FDCB0F1804F1EBF40F200437E
:1018E000C4F20003984218D040F60003C4F200038B
:1018F000984212D015E040F60043C4F2000398422B
:101900001EBF43F20043C4F20103984205D042F6E1
:101910000043C4F20103984203D14B6822F07002E5
:101920001A4342F6FF33C4F20103984214DD43F632
:10193000FF73C4F2010398421ADD44F20003C4F2BB
:10194000010398421EBF44F60003C4F2010398420B
:1019500027D044F2004313E040F2FF73C4F20003C7
:10196000984212DCB0F1804F1BD040F2004314E0EB
:1019700042F60043C4F20103984212D043F20043FE
:10198000C4F2010398420CD00FE040F60003C4F209
:101990000003984205D040F60043C4F20003984289
:1019A00003D1CB6822F440721A434B6922F08002C3
:1019B0001A4302608A68C2620A688262A0F18042A9
:1019C000A2F596324FEAB222072A07D8012303FA7A
:1019D00002F212F0E50F1CBF0969016301214161A8
:1019E0007047000001F01F01012303FA01FC036AA4
:1019F00023EA0C03036202FA01F1026A1143016255
:101A000070470000114341EA0321826822F47F42BB
:101A10001143816070470000826822F07702114311
:101A200041F0070181607047B0B5026A22F00102FF
:101A30000262026AD0F804E083690C688D6822F0C3
:101A4000020215434FF68C72CFF6FE721A4042EA3C
:101A5000040CA0F18042A2F596324FEAB222072A86
:101A60000BD80123934013F0E50F1FBF25F00C03A3
:101A7000CC6824F0040444EA0305072A0CD80123A7
:101A800003FA02F212F0E50F1FBFD1E905232EF48D
:101A90004074224342EA030EC0F804E0C0F818C0C4
:101AA000496841630562B0BD70B5026A22F0100258
:101AB0000262026A466883690C688D6822F020021F
:101AC00042EA051E48F6FF42CFF6FF621A4042EA9C
:101AD000042C43F20042C4F20102904205D042F6C7
:101AE0000042C4F20102904208D1CA686FF04F036D
:101AF00003EA02122EF0C00342EA030EA0F1804274
:101B0000A2F596324FEAB222072A0DD8012303FA32
:101B100002F212F0E50F1FBFD1E9052326F440645D
:101B200044EA820242EA83064660C0F818C0496867
:101B30008163C0F820E070BD70B5026A22F4807243
:101B40000262026A4668C3690C688D6822F40072FA
:101B500042EA052E4FF68C72CFF6FE721A4042EA28
:101B6000040C43F20042C4F20102904205D042F656
:101B70000042C4F20102904208D1CA68120240F247
:101B8000FF439A432EF4406342EA030EA0F18042E1
:101B9000A2F596324FEAB222072A0DD8012303FAA2
:101BA00002F212F0E50F1FBFD1E9052326F44054DD
:101BB00044EA021242EA03164660C0F81CC04968B3
:101BC000C163C0F820E070BD70B5026A22F4805293
:101BD0000262026A4668C3690C688D6822F400528A
:101BE00042EA053C48F6FF42CFF6FF621A4042EA5D
:101BF000042EA0F18042A2F596324FEAB222072AC3
:101C00000AD8012303FA02F212F0E50F1EBF4A6957
:101C100026F4804343EA82164660C0F81CE0496817
:101C20000164C0F820C070BD70B5026A22F4803231
:101C30000262026A4668436D0C688D6822F40032C5
:101C400042EA054C4FF68F72CFF6FE721A4042EA16
:101C5000040EA0F18042A2F596324FEAB222072A82
:101C60000AD8012303FA02F212F0E50F1EBF4A69F7
:101C700026F4803343EA02264660C0F854E04968FF
:101C80008165C0F820C070BD70B5026A22F4801270
:101C90000262026A4668436D0C688D6822F4001285
:101CA00042EA055C48F6FF72CFF6FF621A4042EA4C
:101CB000042EA0F18042A2F596324FEAB222072A02
:101CC0000AD8012303FA02F212F0E50F1EBF4A6997
:101CD00026F4802343EA82264660C0F854E049682F
:101CE000C165C0F820C070BDD0F820C0036A23F0E1
:101CF00001030362836923F0F00343EA0212826165
:101D00002CF00A021143016270470000036A23F0BD
:101D100010030362836923F4704343EA0232036AC7
:101D2000826123F0A00242EA0111016270470000C3
:101D3000FEE700000028B8BF704700F01F014FF019
:101D4000010202FA01F14FEA50104EF20012CEF2F7
:101D5000000242F8201070474EF60C50CEF2000000
:101D60000068C0F30220704700F1604C00F00F03E0
:101D70004EF61452CEF200021A44B0F1FF3FC8BF33
:101D80000CF5644208011070704700004EF60C51CB
:101D9000CEF200010A684FF6FF031A4060F30A22F0
:101DA00042F0806040F0FD700860704770B5FEF74B
:101DB00053FBFFF743FDFFF713FCFFF72BFC40F24B
:101DC0001004C2F2000420460421FFF769FB00253D
:101DD000012604E00A20FEF723FA2068856306EB5B
:101DE000860005EB4005B5F57A7F03D0002D08BFCE
:101DF0000126EFE74FF0FF36ECE702E008C8121FBC
:101E000008C1002AFAD170477047002001E001C1E3
:101E1000121F002AFBD170470000000000000000E4
:101E20000102030406070809A0860100400D030013
:101E3000801A060000350C0040420F0080841E000E
:101E400000093D0000127A000024F40000366E0103
:101E50000048E801006CDC02781E00080000002049
:101E600010000000FA1D0008881E00081000002065
:101E7000500400000A1E000800093D000100000097
:081E800010000000000000004A
:040000050800018D61
:00000001FF
