:020000040800F2
:10000000D80600209D010008051C0008A116000864
:10001000011C000841070008651F000800000000DF
:10002000000000000000000000000000A51E000805
:100030004507000800000000411C0008DD1E000804
:10004000B7010008B7010008B7010008B7010008B0
:10005000B7010008B7010008B7010008B7010008A0
:10006000B7010008B7010008B7010008B701000890
:10007000B7010008B7010008B7010008B701000880
:10008000B7010008B7010008B7010008B701000870
:10009000B7010008B7010008B7010008B701000860
:1000A000B7010008B7010008B7010008B701000850
:1000B000B7010008B7010008B7010008B701000840
:1000C000B7010008B7010008B7010008B701000830
:1000D000B7010008B7010008B7010008B701000820
:1000E000B7010008B7010008B7010008B701000810
:1000F000B7010008B7010008B7010008B701000800
:10010000B7010008B7010008B7010008B7010008EF
:10011000B7010008B7010008B7010008B7010008DF
:10012000B7010008B7010008B7010008B7010008CF
:10013000B7010008B7010008B7010008B7010008BF
:10014000B7010008B7010008B7010008B7010008AF
:10015000B7010008B7010008B7010008B70100089F
:10016000B7010008B7010008B7010008B70100088F
:10017000B7010008B7010008B7010008000000003F
:10018000B7010008B7010008DFF80CD000F038FA1A
:1001900000480047BD1F0008D806002006488047D9
:1001A00006480047FEE7FEE7FEE7FEE7FEE7FEE75C
:1001B000FEE7FEE7FEE7FEE7511F000889010008A1
:1001C000D2B201E000F8012B491EFBD27047002299
:1001D000F6E710B513460A4604461946FFF7F0FF46
:1001E000204610BD30B50B460146002020220124D8
:1001F00009E021FA02F59D4205D303FA02F5491BF5
:1002000004FA02F52844151EA2F10102F1DC30BD0A
:100210002DE9F05F0546002092469B46884606463B
:10022000814640241BE0284641464746224600F0CE
:1002300008FA53465A46C01A914110D3114618463F
:10024000224600F0EFF92D1A67EB01084F462246CF
:100250000120002100F0E6F917EB00094E41201EB5
:10026000A4F10104DFDC484631462A46434600F04B
:1002700000B830BCBDE8C09F2DE9FE4F804681EA42
:100280000300C00F0C46009021F0004123F0004510
:10029000B8EB0200A94105D24046214690461C46D3
:1002A0000B46024623F00040104347D0270DC7F30A
:1002B0000A00C3F30A510290401A019040286BDAF9
:1002C000C3F3130040F4801B0098924620B1002332
:1002D000D2EB030A63EB0B0B01985946C0F14002C5
:1002E000504600F09FF906460D4650465946019A81
:1002F00000F0B7F910EB08006141002487EA1152C1
:1003000084EAE7731A4340D0009A62B3019A012A43
:100310004FEA075215DC001B61EB02014FF000426F
:1003200002EA0752CDE90042001C41F58011324635
:100330002B4600F0B7F903B000F045B8404621461F
:10034000F9E7001B61EB0201001C41F58013001866
:100350005B412018A2F5001747EB030140EAD57076
:10036000B6196D4111E06D084FEA360645EAC075D1
:100370004FEA0752001B61EB0201001C41F580119E
:1003800049084FEA30000019514132462B4603B06C
:1003900000F01CB800F077B900980122400000235B
:1003A000D0EB020263EBE073009821464FEAE07461
:1003B000B8EB000061EB0401E9E783F000435BE781
:1003C00081F0004158E730BCBDE8C08F30BCBDE8CB
:1003D000C04FFFF7DFBF2DE9FE4F81EA030404F0B1
:1003E000004421F0004100944FF0000B23F0004343
:1003F00050EA01045ED052EA03045BD0C3F30A540E
:10040000C1F30A552C44A4F2F3340194A0FB025426
:10041000C1F3130141F48011C3F3130343F48013B8
:1004200001FB024400FB034E840A970A44EA81540C
:1004300047EA8357A4FB076802958D0A05FB0785E9
:100440004FEA932C04FB0C542705029D4FEA0658F3
:1004500047EA1637B5EB08056EEB070C870E920ED0
:1004600047EA811742EA8312A7FB0201B6EB0B01B0
:1004700064EB00042B0D43EA0C335E1844EB1C5074
:10048000DA465146E7FB0201C5F313044FEA0B338A
:1004900043EA14534FEA0432019C43EA0603A4F1F1
:1004A0000C040294009CCDE900B400F0FBF803B00A
:1004B00000F003B800200146F9E730BCBDE8C08F6A
:1004C0002DE9F04D81EA030404F0004B21F00045D2
:1004D00014464FF0000A23F0004150EA050220D0F4
:1004E00054EA01021DD0C5F30A570246C5F31303AF
:1004F000C1F31300C1F30A5640F4801543F480138E
:10050000A7EB0608101BD64608F2FD3873EB050072
:1005100002D308F1010801E092185B41B8F1000F25
:1005200003DA00200146BDE8F08D00204FF4801171
:10053000064684460EE0171B73EB050705D3121B16
:1005400063EB050306434CEA010C49084FEA30000F
:1005500092185B4150EA0107EDD152EA030012D034
:1005600082EA040083EA0501084305D0101BAB4171
:1005700006D20122002306E000224FF0004302E0F1
:100580006FF0010253101AEB06004CEB085110EB10
:100590000A0041EB0B01BDE8F04D00F074B8C1F367
:1005A0000A52C1F3130140F2FF3341F480119A4221
:1005B00002DA00200146704740F233439A42A2F229
:1005C000334202DC524200F03CB800F02BB800008D
:1005D00030B5041E71F1000404DB4FF000444042CA
:1005E00064EB0101141E73F1000405DB1C464FF09F
:1005F0000043524263EB0403994208BF904230BD6E
:10060000064C074D06E0E06840F0010394E807005F
:1006100098471034AC42F6D3FFF7BAFDB42C01086A
:10062000D42C0108202A04DB203A00FA02F1002031
:1006300070479140C2F1200320FA03F31943904020
:100640007047202A04DB203A21FA02F0002170478B
:1006500021FA02F3D040C2F120029140084319462A
:100660007047202A06DBCB17203A41FA02F043EA12
:10067000E07306E041FA02F3D040C2F1200291405B
:1006800008431946704710B5141E73F1000408DAC8
:10069000401C41F1000192185B411A4301D120F046
:1006A000010010BD2DE9F04D92469B4611B1B1FA03
:1006B00081F202E0B0FA80F220329046FFF7B2FFFA
:1006C00004460F4640EA0A0041EA0B0153465A46E7
:1006D000084313D0114653EA010019D0C8F1400273
:1006E0005046FFF7AEFF05460E4650465946424675
:1006F000FFF798FF084305D0012004E02046394663
:10070000BDE8F08D0020054346EAE0762C433743F0
:100710000A986305E40AA0EB08000022FD0A44EAF7
:1007200047540A3002D500200146E9E701051019B7
:100730006941DDE9084500196941BDE8F04DA2E7CE
:10074000FEE7000070470000EFF3108072B600BFB4
:10075000FEE7000070B505466E1C00F00BF904467C
:1007600036B140F20400C2F200000078054401E016
:100770004FF0FF3500F0FEF8001BA842FAD370BD21
:100780002DE9F04F82B00E68002E00F0E58041F6B2
:100790000002C4F600020727904208BF062700F1B6
:1007A00038424FEAB223062B38BF4FEAB2270097F0
:1007B00000234FF0030E40F2004AC4F2010A002564
:1007C000012400BFA4F10109012202FA09FB16EA83
:1007D0000B0800F0B6804E6806F00306013E012EBD
:1007E00013D80EFA05F6D0F808C02CEA0606CA6837
:1007F000AA4032438260426822EA0B024E68C6F386
:10080000001606FA09F6324342604E6806F003020B
:10081000032A08D1C6F3C00202FA09F2C66A26EA20
:100820000B063243C2624A6802F00302032A08D070
:100830000EFA05F2C66826EA02028E68AE4032431E
:10084000C2604A6802F00302022A14D103F01C02BB
:100850000F2707FA02FC4FF6FC76C7F6FF7606EA8A
:10086000590707443E6A26EA0C0C0E6906FA02F2A2
:1008700042EA0C023A620EFA05F2076827EA02021F
:100880004F6807F00307AF403A4302608A79920746
:1008900057D041F26002C4F2020217463A6842F0B1
:1008A00001023A603A6802F00102019229F0030263
:1008B0005244019F4FF60847CFF6FF77B94652F8EA
:1008C00009C003F00C060F27B7402CEA070C009F65
:1008D00007FA06F64CEA060742F80970DAF808202B
:1008E00022EA08024F6817F4801F18BF42EA080284
:1008F000CAF8082040F20C42C4F2010216463268DF
:1009000022EA08024F6817F4001F18BF42EA0802E3
:100910003260DAF8042022EA08024F6817F4003F38
:1009200018BF42EA0802CAF80420DAF8002022EAD6
:1009300008024F6817F4803F18BF42EA0802CAF85D
:1009400000200E6836FA04F203F1040305F10205F3
:1009500004F101047FF436AF02B000F000B830BCFF
:10096000BDE8C08F00F12803002A18BF00F118036A
:100970001960704740F2D420C2F20000006870474E
:1009800040F20400C2F20000007840F2D421C2F22A
:1009900000010A68104408607047000080B5032019
:1009A00000F062F80F2000F009F800281CBF0120B9
:1009B00080BD00F02FF84FF0000080BDB0B50446B8
:1009C00040F20400C2F200000078002802BF0125B6
:1009D0002846B0BD4FF47A71B1FBF0F040F200014F
:1009E000C2F200010968B1FBF0F000F057FE4FF0D1
:1009F00001050F2C0CD858B900254FF0FF302146C7
:100A0000002200F021F840F20800C2F20000046069
:100A10002846B0BD82B041F25800C4F2020081689D
:100A200041F001018160816801F0010101910199AA
:100A3000016841F080510160006800F08050009032
:100A4000009802B07047000070B514460D46064687
:100A500001F08AFA2946224601F0D6F801463046CE
:100A6000BDE8704001F088BA01F098BA47F2000181
:100A7000C4F200010A6802F4C062B0F5007F26D11A
:100A8000B2F5007F2BD00868012262F34A2008608B
:100A900040F20000C2F200000068322250434DF6DE
:100AA0008362C4F21B32A0FB02026FEA924000BFD5
:100AB0004A6900281CBF013012F48062F8D14869ED
:100AC00010F4806F1EBF0320C0B2704707E0B2F57C
:100AD000806F1FBF0868022262F34A20086000206E
:100AE000C0B2704747F20000C4F20000006800F492
:100AF000C06070472DE9F04188460446002C00F0A4
:100B0000AF8041F20807C4F20207D7F8F80F00F0EF
:100B1000070040450ED2D7F8F80F20F0070040EA52
:100B20000800C7F8F80FD7F8F80F00F007004045A5
:100B300040F09680207880070AD5A068396801F0D7
:100B4000F001884281BF396821F0F0010843386024
:100B50002078C00734D06068022807D003280BD162
:100B600057F8080C10F0007F7AD00DE057F8080C09
:100B700010F4003F74D007E057F8081C10B1480586
:100B80006ED501E088076BD53868616820F00300F6
:100B900008433860FFF7EEFE064641F2883500BF95
:100BA0003868616800F00C00B0EB810F08D0FFF7E7
:100BB000E1FE801BA842F3D90320C0B2BDE8F0815A
:100BC000207880070AD5A068396801F0F0018842D2
:100BD0003FBF396821F0F00108433860D7F8F80FBB
:100BE00000F0070040450DD9D7F8F80F20F00700B6
:100BF00040EA0800C7F8F80FD7F8F80F00F0070030
:100C000040452DD12078400705D53868E16820F4AB
:100C1000E060084338602078000706D5386821690D
:100C200020F4605040EAC100386000F01DF83968D7
:100C3000C1F3031142F66212C0F60002515C01F0EA
:100C40001F01C84040F20001C2F20001086040F2FA
:100C50000800C2F200000068BDE8F041FFF7AEBE38
:100C60000120C0B2BDE8F08180B541F20C01C4F2B0
:100C7000020151F8042C086812F00C0341F2002C18
:100C8000C0F27A0C42F2004EC0F2F40E05D00C2BEA
:100C900004BF00F00300012818D151F80C0C10F02B
:100CA000080F03D1D1F88800000A02E051F80C0CBB
:100CB000000900F00F0042F67412C0F6000252F86C
:100CC0002020002B104618BF00200DE003F00F007D
:100CD000042804BF704680BD082804BF604680BD5C
:100CE0004FF000004FF000020C2B18BF80BD0868C9
:100CF00000F00300022803D00328E64618BF9646FA
:100D000008680A680968C1F34161022303EB4101E5
:100D1000C2F3062202FB0EF2C0F302100130B2FB56
:100D2000F0F0B0FBF1F080BD2DE9F04782B0044651
:100D3000002C00F0428241F20407C4F202077868F6
:100D400000F00C08B86800F003092078C00641F2F2
:100D5000000AC4F2020A52D42078C00712D0B8F1B7
:100D6000080F06D0B8F10C0F08BFB9F1030F40F01F
:100D70003081DAF8000010F4003F03D060680028EA
:100D800000F01B822078800719D5B8F1040F06D037
:100D9000B8F10C0F08BFB9F1020F40F02D81DAF85D
:100DA000000010F4806F03D0E068002800F0058296
:100DB0003868216920F0F85040EA016038602078F6
:100DC000000740F1BB806169D7F89000002900F06E
:100DD000A28040F00100C7F89000FFF7CBFD054668
:100DE000D7F8900010F0020F40F0A880FFF7C2FD86
:100DF000401B0228F4D9032002B0BDE8F087B8F107
:100E0000000F05D0B8F10C0F08BFB9F1010F68D180
:100E1000DAF8000010F0020F03D0A069002800F0FB
:100E2000CC81206ADAF8001011F0080F06BFD7F85D
:100E300090100909DAF8001001F0F00188421AD97F
:100E400000F000FF002840F0B881DAF8000040F020
:100E50000800CAF80000DAF80000216A20F0F0006B
:100E60000843CAF800003868E16920F47F4040EA8E
:100E70000120386018E0DAF8000040F00800CAF8F5
:100E80000000DAF80000216A20F0F0000843CAF8F8
:100E900000003868E16920F47F4040EA01203860B2
:100EA000B8F1000F00F08E80FFF7DEFE7968C1F325
:100EB000031142F66212C0F60002515C01F01F01FC
:100EC000C84040F20001C2F20001086040F2080090
:100ED000C2F200000068FFF771FD002840F0258293
:100EE0003AE7A169DAF80000002900F0A08040F09C
:100EF0000100CAF80000FFF73DFD0546DAF80000E2
:100F000010F0020F40F05D81FFF734FD411B03201C
:100F10000229F3D909E220F00100C7F89000FFF799
:100F200029FD0546D7F8900010F0020F06D0FFF714
:100F300021FD411B03200229F4D9F6E12078400766
:100F400040F1BB80786D10F0805F0BD1786D40F080
:100F500080507865786D00F08050019001984FF0D6
:100F6000010901E04FF0000946F20006CFF6FE76D7
:100F70005AF8060010F4807F14D15AF8060040F4A5
:100F800080704AF80600FFF7F5FC05465AF806009F
:100F900010F4807F06D1FFF7EDFC411B03200229EE
:100FA000F4D9C2E1A168012907D0D7F88C0005293E
:100FB00051D140F00400C7F88C00D7F88C0040F005
:100FC000010050E0206A00F03DFE002840F0F5806E
:100FD0006AE76168B1F5803F09D0DAF80000B1F541
:100FE000A02F40F0388140F48020CAF80000DAF8E1
:100FF000000040F4803036E1E168DAF800000029B2
:1010000000F0008140F48070CAF80000FFF7B2FCE5
:10101000054600BFDAF8000010F4806F7FF4C8AE18
:10102000FFF7A8FC411B03200229F3D97DE120F042
:101030000100CAF80000FFF79DFC0546DAF8000041
:1010400010F0020F3FF488AEFFF794FC411B032021
:101050000229F3D969E120F00100C7F88C00D7F824
:101060008C0020F00400C7F88C00A668FFF782FC13
:1010700005466EB141F28836D7F88C0010F0020FA9
:1010800014D1FFF777FC411B0320B142F4D94CE1A6
:1010900041F28836D7F88C0010F0020F06D0FFF727
:1010A00069FC411B0320B142F4D93EE1B9F1010FC3
:1010B00002BF786D20F080507865A06A002800F0AB
:1010C0003781022853D1B868E16A00F003028A42EE
:1010D00066D1216B6FF00F0202EB011100F070027C
:1010E0008A425DD1616B00F4FE42B2EB012F57D111
:1010F000A16B073918BF012100F400328A424FD199
:10110000E16B0022CFF6E07202EA0151A1F5001175
:1011100000F4C0028A4243D1216C4FF07E4202EAC1
:10112000016101F17E4100F0C060884238D1DAF8F7
:10113000000010F0007F40F0FB80DAF8000040F083
:101140008070CAF80000B86840F08070B860FFF79F
:1011500011FC0446DAF8000010F0007F40F0E8804F
:10116000FFF708FC011B03200229F3D9DDE0B8F1E9
:101170000C0F22D0DAF8000020F08070CAF80000CE
:10118000FFF7F8FB044600BFDAF8000010F0007F1C
:101190002DD0FFF7EFFB011B03200229F4D9C4E097
:1011A000B8F10C0F09D0DAF8000010F0806F04BF1E
:1011B000DAF8000010F0805F38D0012002B0BDE8FE
:1011C000F087DAF8000040F00800CAF80000DAF80A
:1011D0000000216A20F0F0000843CAF800003868D7
:1011E000E16920F47F4040EA01203860B4E5B86846
:1011F0004FF6FC71CFF6EE610840B860002002B0F7
:10120000BDE8F08720F48070CAF80000FFF7B2FB59
:101210000546DAF8000010F4806F3FF4D0ADFFF718
:10122000A9FB411B03200229F3D97EE0DAF8000074
:1012300020F08070CAF80000FFF79CFB0546DAF842
:10124000000010F0007F2FD0FFF794FB411B03201C
:101250000229F4D969E020F48030CAF80000DAF8F5
:10126000000020F48020CAF800006668FFF782FBC7
:10127000054666B1DAF8000010F4003F7FF482AD55
:10128000FFF778FB411B03206429F3D94DE0DAF81E
:10129000000010F4003F3FF475ADFFF76BFB411BFE
:1012A00003206429F3D940E0B86804F12C064ECE3F
:1012B0006FF00F0505EB021248F28C05CFF69D1575
:1012C00028400843104340EA0320E16B0022CFF698
:1012D000E07202EA0151A1F500110843216C4FF0C0
:1012E0007E4202EA016101F17E4108430021CFF60E
:1012F000FE7101EA46310843B860DAF8000040F0B8
:101300008070CAF80000B86840F08070B860FFF7DD
:1013100031FB0446DAF8000010F0007F08D1FFF737
:1013200029FB011B03200229F4D902B0BDE8F08794
:10133000002002B0BDE8F08710B50446002C04BFC1
:10134000012010BD606A20B10020206104F114006A
:1013500005E06068B0F5827F03D004F11C00002135
:1013600001600020A06294F85D1021B984F85C004F
:10137000204600F05FF8022084F85D0020680168D4
:1013800021F040010160E1684FF48050B1F5E06F59
:1013900088BF002041F40061B1F5706F1CBF0021CF
:1013A000A162D4E900C2A368216902F4827203F445
:1013B000044342EA030201F0020141EA02016269C8
:1013C00002F0010241EA0201A26902F4007241EA5C
:1013D0000201E26902F0380241EA0201226A02F0E7
:1013E000800241EA0201A26A02F4005241EA0201CB
:1013F000CCF80010D4F800C0E268636A616B03F0B7
:10140000100340EA0300638B03F0040340EA030087
:1014100001F0080140EA010002F4706140EA0100B5
:10142000CCF804004FF0000020664FF0010184F872
:101430005D1010BD80B586B000210591CDE9031186
:10144000CDE90111006843F20002C4F201029042AA
:1014500001D006B080BD41F24C00C4F202004269E6
:1014600042F480524261426902F480520092009A32
:10147000026842F001020260006800F00100009082
:101480000098A02001900220CDE9020103200490E1
:101490000520059001A94FF09040FFF771F906B0C3
:1014A00080BD00002DE9F04381B01D4617460E4671
:1014B000044694F85C00012801D10220EAE04FF0D4
:1014C000010984F85C90FFF755FA804694F85D00B6
:1014D000012872D10120002E18BF002F00F0D58006
:1014E000032084F85D0000202066A663A787E787B5
:1014F0002064A4F84400A4F84600C4E91300A068DE
:10150000B0F5004F09D12068016821F04001016069
:101510002068016841F4804101602068016811F091
:10152000400F02BF016841F040010160A7F10100D6
:10153000B0FA80F04FEA50106168E268B1FA81F1C8
:101540004FEA511140EA0100B2F5E06F37D90128A6
:1015500009D12068A16B0988C160A06B0230A0632B
:10156000E08F0138E087E08F002876D06E1C00BF46
:101570002068816811F0020F12D1FFF7FBF9A0EB90
:101580000800A8424FF0000128BF0121002E32467A
:1015900018BF01220320002D77D0114009D074E03C
:1015A000A16B0988C160A06B0230A063E08F013895
:1015B000E087E08F0028DBD14FE0022065E00128C2
:1015C00017D1E18FA06B02290AD321680088C86077
:1015D000A06B0230A063E08F4FF6FE71084407E075
:1015E000216800780873A06B0130A063E08F013898
:1015F000E087E08F88B36E1C4FF6FE772068816825
:1016000011F0020F12D1FFF7B5F9A0EB0800A842C4
:101610004FF0000128BF0121002E324618BF0122E1
:10162000032095B3114015D02FE000BFE28FA16BCE
:10163000022A07D30988C160A06B0230A063E08F43
:10164000384406E009780173A06B0130A063E08F95
:101650000138E087E08F0028D0D120462946424655
:1016600000F036FB00281CBF20202066A06840B98F
:10167000002000902068C06800902068806800907A
:101680000098206E002818BF012084F85D9000218A
:1016900084F85C10C0B201B0BDE8F08300F004BC77
:1016A000FEE70000F0B581B01C4615460E46074621
:1016B0002A2000F0FDF907F1280080B200F0B4F90B
:1016C00005F1280080B200F0AFF92B2000F0F0F90E
:1016D00006F1340080B200F0A7F904F1340080B2C2
:1016E00000F0A2F92C2001B0BDE8F04000F0E0B914
:1016F00070B50446002500200021EF228623FFF765
:10170000D1FF204600F0A4FC40F2F401C2F2000137
:1017100021F815000135F02DFAD14FF0904040210D
:101720000122FFF71FF9872640F29004C2F200045D
:1017300040F2F405C2F20005204629464FF4F0724B
:101740004FF48073FFF7AEFE013EF5D170BD00008F
:1017500010B5144602460B46FFF7A4FF2046BDE82D
:10176000104000F061B9000010B540F20044C4F62A
:10177000000420464FF400510022FFF7F3F86420E4
:10178000FEF7E8FF20464FF400510122FFF7EAF888
:101790006420FEF7DFFF20464FF480410022FFF770
:1017A000E1F86420FEF7D6FF112000F081F97820DF
:1017B000FEF7D0FF362000F07BF9A02000F04CF9B6
:1017C0003A2000F075F9052000F046F9B22000F04B
:1017D0006FF90C2000F040F90C2000F03DF90020DA
:1017E00000F03AF9332000F037F9332000F034F9F3
:1017F000B72000F05DF9352000F02EF9BB2000F095
:1018000057F9192000F028F9C02000F051F92C20D8
:1018100000F022F9C22000F04BF9012000F01CF981
:10182000C32000F045F9122000F016F9C42000F0A2
:101830003FF9202000F010F9C62000F039F90F2000
:1018400000F00AF9D02000F033F9A42000F004F9E8
:10185000A12000F001F9E02000F02AF9D02000F0EA
:10186000FBF8042000F0F8F80D2000F0F5F8112046
:1018700000F0F2F8132000F0EFF82B2000F0ECF865
:101880003F2000F0E9F8542000F0E6F84C2000F08A
:10189000E3F8182000F0E0F80D2000F0DDF80B2050
:1018A00000F0DAF81F2000F0D7F8232000F0D4F879
:1018B000E12000F0FDF8D02000F0CEF8042000F088
:1018C000CBF80C2000F0C8F8112000F0C5F8132068
:1018D00000F0C2F82C2000F0BFF83F2000F0BCF868
:1018E000442000F0B9F8512000F0B6F82F2000F0A5
:1018F000B3F81F2000F0B0F81F2000F0ADF8202052
:1019000000F0AAF8232000F0A7F8212000F0D0F87A
:101910002920BDE8104000F0CBB800002DE9F04FC1
:1019200081B01C46174688460646E02E98BFB8F19F
:10193000770F2FD8F01D82B208F10F0083B2304626
:101940004146FFF7AFFEA7F1200080B24FEA001A30
:101950004FF0000B0BEB08070BEB0A0042F6A4114B
:10196000C0F600010D5C4FF0000900BFE80706D08B
:1019700006EB090080B2B9B22246FFF7E9FE09F191
:1019800001096D08B9F1080FF0D10BF1010BBBF1A2
:10199000100FDFD101B000F000B830BCBDE8C08F3F
:1019A000B0B51C46154642194FF6FF7C624492B210
:1019B0000B1963449BB2FFF775FE05FB04F0400072
:1019C00081B20498BDE8B04000F05CB82DE9F04366
:1019D00081B01C460D460646107810B3571C4FF0D8
:1019E00010084FF0080900BFB0B2E12824BF18FA70
:1019F00085F50026A8B2782805D34FF47840FFF784
:101A000077FE0025002617F8012CB0B2A9B22346B4
:101A1000FFF784FF19FA86F6781C39780029074603
:101A2000E2D101B0BDE8F08380B582B000F010FBD8
:101A3000ADF806004FF0904040210122FEF792FFE2
:101A400040F29000C2F200000DF1060102220A23CA
:101A5000FFF728FD02B080BD80B582B08DF8070089
:101A60004FF0904040210122FEF77CFF40F29000B1
:101A7000C2F200000DF1070101220A23FFF712FD57
:101A800002B080BDB0B50C4605464FF090404021F5
:101A90000122FEF767FF40F29000C2F200002946E3
:101AA00022464FF47A73BDE8B040FFF7FBBC00005C
:101AB00080B582B08DF807004FF0904040210022A1
:101AC000FEF750FF40F29000C2F200000DF1070156
:101AD00001220A23FFF7E6FC02B080BDF0B581B019
:101AE00014460D46064606AA009240F21007C2F2BE
:101AF00000073846194600F0ADFA304629463A4606
:101B00002346FFF763FF01B0F0BD00002DE9F0416F
:101B100086B00026059641F24C00C4F2020001682E
:101B200041F080010160016801F08001009100999D
:101B3000016841F001010160016801F001010091BB
:101B40000099016841F002010160006800F00200A4
:101B50000090009840254FF0904040210022FEF771
:101B600001FF40F20044C4F600044FF460482046F0
:101B70004FF460410022FEF7F5FE01950127CDE903
:101B80000276049601AD4FF090402946FEF7F8FD2D
:101B9000CDE90187CDE9036620462946FEF7F0FD31
:101BA00006B0BDE8F081000080B540F29000C2F2BE
:101BB000000043F20001C4F2010101604FF48271A0
:101BC00041604FF4004181604FF4E061C160022147
:101BD0000161012141614FF4007181610021C0E97F
:101BE0000911C0E907110722C0E90B214163FFF782
:101BF000A3FB00281CBFBDE88040FEF7A5BD80BD4B
:101C0000FEE70000FEE7000000F0070000F1040C12
:101C1000C31EBCF1070F38BF002380F00700042863
:101C200028BF04204FF0010C0CFA00F001380840E6
:101C300098400CFA03F10139114008437047000045
:101C400070470000B0B582B0044641F25805C4F2B6
:101C50000205286810F0805F0FD1286840F080509E
:101C60002860286800F0805001900198FEF73AFF44
:101C7000296821F08051296001E0FEF733FF42F22C
:101C80000001C4F20201B0F5007F06D1812C08D317
:101C90000120A02C88BF02200DE0802C03D9032056
:101CA00009E0002007E0A4F17000B0FA80F04009DC
:101CB000802C08BF02200A6822F0070202430A6053
:101CC000096801F00701081A18BF012002B0B0BD71
:101CD00070B515460E4604464FF4C05132462B46A9
:101CE00000F01AF888B9204631462A4600F080F8FC
:101CF00058B920464FF4C06132462B4600F00CF82C
:101D0000002802BF0020C0B270BD206E40F020004D
:101D100020660320C0B270BD2DE9F04383B01E469B
:101D200017460D46044600208DF80700FEF722FEF8
:101D3000301A00EB0709FEF71DFE804640F2000056
:101D4000C2F20000006823214843000D00FB09F0A7
:101D500026680290013707E0029802990139029142
:101D6000002808BF814600BF2068806828423AD01A
:101D7000B5F5C06F02BF307B8DF807009DF80700F6
:101D8000002FF1D0FEF7F6FDA0EB08004845E3D3A5
:101D90002068416821F0E00141606068B0F5827F11
:101DA0000BD1A068B0F5004F18BFB0F5806F04D11B
:101DB0002068016821F040010160A06AB0F5005F71
:101DC00009D12068016821F4005101602068016890
:101DD00041F400510160012084F85D00002084F886
:101DE0005C00032000E00020C0B203B0BDE8F08337
:101DF000F0B581B015460E460446FEF7BBFD281A25
:101E00008719FEF7B7FD054640F20000C2F2000058
:101E10000068C0F3CB3078430090013606E00098AC
:101E2000009901390091002808BF074620688068A2
:101E300010F0800F31D0002EF8D0FEF79BFD401B34
:101E4000B842ECD32068416821F0E001416060684D
:101E5000B0F5827F0BD1A068B0F5004F18BFB0F588
:101E6000806F04D12068016821F040010160A06A00
:101E7000B0F5005F09D12068016821F400510160CC
:101E80002068016841F400510160012084F85D0080
:101E9000002084F85C00032000E00020C0B201B004
:101EA000F0BD000070470000B0B501380024B4EB6D
:101EB000106F1EBF01242046B0BD4EF21005CEF2B9
:101EC000000568604FF0FF304FF00F0100F054F84C
:101ED000AC604FF0070028602046B0BDFEF750BD53
:101EE00010B596B005A84421FEF771F900200490C2
:101EF000CDE90200CDE900004FF40070FEF7B6FD19
:101F000020BB012005904FF48031069102210F91F2
:101F10000324CDE91040142012900720CDE91301CD
:101F2000159105A8FEF700FF80B90F20CDE9000448
:101F3000002002904FF48061CDE90310684604212F
:101F4000FEF7D8FD002804BF16B010BDFEF7FCFB5D
:101F50004EF68850CEF20000016841F47001016035
:101F600070470000FEE700004EF60C50CEF2000075
:101F70000068C0F30220704700F1604C00F00F03CE
:101F80004EF61452CEF200021A44B0F1FF3FC8BF21
:101F90000CF5644208011070704700004EF60C51B9
:101FA000CEF200010A684FF6FF031A4060F30A22DE
:101FB00042F0806040F0FD700860704710B582B05C
:101FC000FEF7ECFCFFF78CFFFFF7A0FDFFF7ECFD41
:101FD000FFF7CAFB0020FFF78BFB16A400200A21A5
:101FE0001F222346FFF77AFD00201E214FF478427E
:101FF0002346FFF773FD002032214FF4FC62234695
:10200000FFF76CFD0DA300206E2147F67C52FFF711
:1020100065FD4FF4FA60FEF79DFB42F69470C0F642
:102020000000009000200021F0228723FFF7B8FC79
:10203000FEE700BF582050756C73650032303234B3
:102040002D30312D30312030303A30303A303100BF
:1020500040BA704737B514460846064B6A462146D3
:1020600000F0E0F804466946002000F075FC2046C8
:102070003EBD00005929000802E008C8121F08C12F
:10208000002AFAD170477047002001E001C1121FF9
:10209000002AFBD1704700002DE9FF5F82B00021CC
:1020A000DDE90430020DDDF840B0034318D044F6FA
:1020B0001050A2F2FF3242431514119801281FD08C
:1020C000A5EB0B00401C5FEA000A4FF000064E4FE4
:1020D000DFF83891B046504615D5CAF1000413E038
:1020E000119801244AA3012801D16FEA0B0102983B
:1020F000119AC0E90031C0E9024206B000F08EB882
:10210000CBF10000DFE704460021404A491842EBCA
:102110000450CDE9001012E0E00707D032463B46FC
:1021200040464946FEF757F98046894632463B46C7
:1021300010461946FEF74FF906460F466410002C6C
:10214000EAD1DDE90401DDE90023BAF1000F06DA86
:10215000FEF741F942464B46FEF73DF905E0FEF732
:10216000AFF942464B46FEF7ABF904460E46002255
:10217000284BFEF72DFA03D84FF0FF30014607E059
:102180000022254B20463146FEF776F8FEF707FA87
:10219000102409E0002C0ADB0A220023FEF738F89D
:1021A000039B30321A55641E50EA0102F2D1641CBE
:1021B000039AC4F111031444119A012A03D0012295
:1021C00008430DD10AE0084304D000204FF0110B62
:1021D000119072E7A3EB0B056D1E0DE05B4504DD6E
:1021E0004FF0000205F1010504E003DA4FF00002B0
:1021F000A5F10105002AECD002981199C0E902313D
:10220000C0E9004579E70000000014400000F03FFD
:10221000300000000000F0430000E03F30BCBDE8AB
:10222000C09F00002DE9FF4F95B09B4689460646AA
:1022300000250FE2252877D100242746F84A0121FE
:10224000059400E0044316F8013F203B01FA03F037
:102250001042F7D130782A2811D06FF02F03307850
:10226000A0F13002092A16D8059A44F0020402EBC4
:10227000820203EB42021044761C0590EFE759F806
:10228000042B0592002A03DA504244F400540590CE
:1022900044F00204761C30782E2816D116F8010F6F
:1022A00044F004042A280DD06FF02F023078A0F1FA
:1022B0003003092B09D807EB870302EB4303C71848
:1022C000761CF3E759F8047B761C30786C280FD025
:1022D00006DC4C2817D068280DD06A2814D104E0F9
:1022E000742810D07A280FD10DE044F400140AE0CD
:1022F00044F4801401E044F440147278824202D124
:1023000004F58014761C761C307866280BD013DC1C
:10231000582877D009DC002875D04528F6D0462803
:10232000F4D047281AD19DE118E0632835D06428FD
:1023300079D0652812D195E1702873D008DC672820
:10234000F1D069286FD06E280DD06F2806D1B5E086
:1023500073282CD0752875D0782874D05A461799D0
:1023600090476D1C75E1C4F30250022809D0032880
:102370000DD0D9F8001004280DD00D6009F1040922
:1023800067E1D9F80010EA17C1E90052F6E7D9F879
:1023900000100D80F2E70D70F0E719F8041B8DF8BE
:1023A000001000208DF80100EA46012003E059F8F2
:1023B00004AB4FF0FF3061074FF0000102D40DE095
:1023C00008F101018846B9420FDA8045F8DB1AF8B6
:1023D00008100029F4D108E008F101018846814283
:1023E000FADB1AF808100029F6D105985B46A0EB35
:1023F000080721463846179A00F097FA284400EB60
:10240000080507E04DE029E10DE01AF8010B5A46F6
:1024100017999047B8F10108F7D25B462146384634
:10242000179A13E142E00A220092C4F302524FF0DD
:10243000000A022A08D059F804CB032A4FEAEC71AB
:102440000AD00DE029E02AE009F1070121F0070296
:10245000F2E802C1914609E00FFA8CFC4FEAEC71F8
:10246000042A03D14FFA8CFC4FEAEC71002907DAF9
:102470000A460021DCF1000C61EB02012D2202E092
:10248000220504D52B228DF80420012203E0E20767
:1024900001D02022F7E7904659E00A2102E01022FD
:1024A0000DE010214FF0000A00910BE010224FF0D8
:1024B000000A44F004040827009203E008224FF0C9
:1024C000000A0092C4F30252022A05D059F804CB44
:1024D0000021032A08D009E009F1070121F00702D1
:1024E000F2E802C1914605E01FFA8CFC042A01D1F2
:1024F0000CF0FF0C4FF00008220728D5702806D0FA
:10250000009B83F0100353EA0A0305D00EE040223B
:102510008DF80420012208E05CEA010206D0302296
:102520008DF804208DF8050002229046009B83F070
:10253000080353EA0A030AD15CEA010201D16207E7
:1025400005D530228DF804204FF001087F1E582851
:1025500004D034A003900EA802900DE036A0F9E755
:1025600053466046009AFDF753FE84460398825C0A
:102570000298401E029002705CEA0100F0D10298BD
:1025800006A9081A00F1200A600702D524F4803455
:1025900000E00127574502DDA7EB0A0000E000201C
:1025A00000EB0A01009005984144401A0590E003B1
:1025B00006D45B462146179A059800F0B6F9054403
:1025C000002706E001A85A46C05D179990476D1C88
:1025D0007F1C4745F6DBE0030CD55B462146179A86
:1025E000059800F0A2F9054404E030205A461799F6
:1025F00090476D1C0099481E00900029F5DC08E00A
:10260000029802995A460078491C029117999047FE
:102610006D1CBAF10001AAF1010AF1DC65E10000CC
:1026200009280100303132333435363738396162A8
:10263000636465660000000030313233343536376C
:1026400038394142434445460000000000F05BF940
:102650000544761C307800287FF4ECAD19B028468C
:1026600000F04EB9620700D4062709F1070222F0F4
:10267000070CFCE80223E14603F000485FEA080C7F
:1026800002D00FF2702C0DE05FEA045C02D50FF26D
:10269000682C07E05FEAC47C02D00FF2602C01E0F6
:1026A000AFF2700C4FF0FF3823F00043CDF850C06C
:1026B00065280CD006DC452809D046281DD04728BF
:1026C0003DD13DE0662818D067287ED138E0002152
:1026D000112F01DB112000E0781CCDE9000106A9D3
:1026E0000EA8FFF7D9FCDDE90F010E9A0391002136
:1026F000009207F1010A04914DE04FF0004000976D
:10270000CDE9011006A90EA8FFF7C6FCDDE90F020E
:1027100003920E9B11990022DDF80CA00093049205
:1027200011B9791C00EB010AB7EB0A0004D4C0F11F
:10273000FF3007F1010A0490AAEB0700019044E082
:10274000012F00DA01270021112F01DD112000E007
:102750003846CDE9000106A90EA8FFF79DFCDDE98A
:102760000F010E9A0391002104910092BA462107AD
:102770000CD40399514500DA8A46BAF1010F05DD00
:10278000009AAAF10101515C302908D0B84202DA5E
:1027900010F1040F06DA0121CDE9011015E0AAF1CC
:1027A0000101E9E7002805DC049901440491AAEB42
:1027B000000102E0411C514500DD8A460499401A9F
:1027C000401C01904FF000400290200704D4019873
:1027D000504501DBCDF8048000208DF84F000298B1
:1027E0000DF14F07B0F1004F25D02B200E9002982D
:1027F0004FF0020800280CDA404202902D200E9083
:1028000007E00A210298FDF7EDFC3031029007F84D
:10281000011DB8F10001A8F10108F2DC02980028BE
:10282000EFD1791E0E980870307800F0200040F04B
:10283000450007F8020D12A8C01B00F10708149804
:10284000007800B1012000EB0A01019801EBE07172
:1028500005984144401A401E0590E00306D45B46AB
:102860002146179A059800F060F8054414980078FE
:1028700018B15A46179990476D1CE00324D55B4662
:102880002146179A059800F050F805441CE004987A
:10289000002807DBDDE90301884203DD0098405C86
:1028A000179901E0179930205A469047049805F18E
:1028B0000105401C04900198401E019004D12E2077
:1028C0005A46179990476D1CBAF10001AAF1010A06
:1028D000DDDC05E017F8010B5A46179990476D1C8F
:1028E000B8F10001A8F10108F4DC5B462146179A13
:1028F0000598ABE62D0000002B0000002000000032
:1029000030BCBDE8C08F2DE9F041044600251E46CD
:102910001746880404D405E039462020B0476D1CD2
:10292000641EF9D52846BDE8F0812DE9F041044642
:1029300000251E469046C80301D5302700E0202719
:10294000880404D505E041463846B0476D1C641E36
:10295000F9D52846BDE8F0810A68531C0B60107059
:102960007047000000000000000001020304060799
:1029700008090000A0860100400D0300801A06002F
:1029800000350C0040420F0080841E0000093D000D
:1029900000127A000024F40000366E010048E801BD
:1029A000006CDC02000000000000000000000000DD
:1029B00000000000000000080808080808080000DF
:1029C0001818000000486C241200000000000000ED
:1029D000000000000000002424247F1212127F1245
:1029E000121200000000081C2A2A0A0C1828282AA3
:1029F0002A1C080800000022251515152A585454D1
:102A0000542200000000000C1212120A762529112F
:102A1000916E0000000606040300000000000000A4
:102A200000000000004020101008080808080810E6
:102A300010204000000204080810101010101008A8
:102A4000080402000000000008086B1C1C6B08084A
:102A50000000000000000000080808087F080808BF
:102A6000080000000000000000000000000000005E
:102A7000060604030000000000000000FE00000045
:102A80000000000000000000000000000000000046
:102A900006060000000080404020201010080804B6
:102AA0000402020000000018244242424242424214
:102AB00024180000000000080E080808080808088C
:102AC000083E00000000003C424242202010080462
:102AD000427E00000000003C42422018204040425C
:102AE000221C0000000000203028242422227E2006
:102AF000207800000000007E0202021A26404042B8
:102B0000221C0000000000382402021A2642424221
:102B1000241800000000007E222210100808080877
:102B2000080800000000003C4242422418244242AF
:102B3000423C0000000000182442424264584040D9
:102B4000241C000000000000000018180000000015
:102B5000181800000000000000000008000000003D
:102B600000080804000000402010080402040810B7
:102B7000204000000000000000007F0000007F00F7
:102B8000000000000000000204081020402010088F
:102B9000040200000000003C4242464020101000A9
:102BA000181800000000001C225A555555552D429A
:102BB000221C00000000000808181414243C2242C3
:102BC00042E700000000001F2222221E2242424251
:102BD000221F00000000007C42420101010101426D
:102BE000221C00000000001F224242424242424298
:102BF000221F00000000003F4212121E1212024269
:102C0000423F00000000003F4212121E1212020258
:102C1000020700000000003C222201010171212274
:102C2000221C0000000000E7424242427E42424233
:102C300042E700000000003E0808080808080808ED
:102C4000083E00000000007C101010101010101042
:102C50001010110F0000007722120A0E0A12122221
:102C600022770000000000070202020202020202B4
:102C7000427F000000000077363636362A2A2A2A9C
:102C80002A6B0000000000E346464A4A5252526254
:102C9000624700000000001C224141414141414186
:102CA000221C00000000003F424242423E0202025B
:102CB000020700000000001C2241414141414D53E8
:102CC000321C60000000003F4242423E12122222AB
:102CD00042C700000000007C42420204182040422B
:102CE000423E00000000007F490808080808080864
:102CF000081C0000000000E74242424242424242B9
:102D0000423C0000000000E7424222242414141830
:102D1000080800000000006B494949495555362212
:102D200022220000000000E742242418181824245E
:102D300042E7000000000077222214140808080867
:102D4000081C00000000007E21201010080404422E
:102D5000423F00000078080808080808080808082A
:102D60000808780000000202040408080810102077
:102D700020204040001E10101010101010101010D5
:102D800010101E0000384400000000000000000089
:102D90000000000000000000000000000000000033
:102DA000000000FF00060800000000000000000016
:102DB00000000000000000000000003C4278444297
:102DC00042FC0000000000030202021A26424242B6
:102DD000261A000000000000000000384402020231
:102DE00044380000000000604040407844424242C5
:102DF00064D80000000000000000003C427E020297
:102E0000423C0000000000F08808087E080808081E
:102E1000083E0000000000000000007C22221C028E
:102E20003C42423C000000030202023A4642424257
:102E300042E700000000000C0C00000E0808080823
:102E4000083E000000000030300000382020202024
:102E50002020221E0000000302020272120A161233
:102E6000227700000000000E08080808080808087B
:102E7000083E0000000000000000007F9292929245
:102E800092B70000000000000000003B46424242B2
:102E900042E70000000000000000003C42424242C5
:102EA000423C0000000000000000001B264242429D
:102EB000221E020700000000000000784442424247
:102EC000447840E000000000000000774C04040457
:102ED000041F0000000000000000007C42023C4093
:102EE000423E0000000000000008083E08080808F4
:102EF000083000000000000000000063424242422F
:102F000062DC000000000000000000E742242414FE
:102F10000808000000000000000000EB494955557A
:102F2000222200000000000000000076241818187B
:102F3000246E000000000000000000E7422424147A
:102F400018080807000000000000007E2210080892
:102F5000447E000000C020202020201020202020BF
:102F60002020C000101010101010101010101010A1
:102F700010101010000608080808081008080808B3
:102F8000080806000C32C20000000000000000002B
:102F900000000000B0ADB0ADB0ADB0CDB0CDB8CD9B
:102FA000B8ADC0CDC0CDC0CDC0CDC8EDC8EDC8ED69
:102FB000C8EDD0EDD10DD10DD10DD12DD12DD92D03
:102FC000E12DE14DE16EE96EE96DE98EE98DF18D5E
:102FD000F18EF9AEF9AEF9CEF9EFF9EEF9CEF9EEE0
:102FE000F9EEF9EFFA0FFA0FFA2FFA2FFA2FFA2F5C
:102FF000FA4FFA6FFA8FFA8FFAB0FA8FFA8FFAAFA8
:10300000FAD0FAD0FAD0FAEFFAEFFAEFFAF0FB10B2
:10301000600310000000000000000000000000003D
:10302000000000000001000100010001000100019A
:103030000001000100020002002200220022002202
:103040000043006300430063006300630063008388
:10305000008400A400A400C400A400C400C500C5EE
:1030600000E500C500E500E500E500E500E500E558
:103070000105010500E500E501060106010601065E
:103080000106010600E500C50085002400020002DB
:10309000000200020003000300030002000300031B
:1030A0000002000200020002000200020002000210
:1030B0000002000200020002000200020002000200
:1030C00000020002000200020002000200220022B0
:1030D0000022000200220022002200220022002200
:1030E00000220022002200220022002200220022D0
:1030F000002200220043002200430043004300431B
:1031000000430043004300430043004300430043A7
:10311000004300430063006400C501060127014825
:103120000148014801480148016801480148014837
:103130000148014801480148014801480148014847
:103140000147014801480148014801480148016818
:1031500001680168016801480148014801480148C7
:1031600001480148014801480148016801680168B7
:1031700001480168B0ADB0ADB0CDB0CDB8CDB8ADFF
:10318000B8ADC0ADC0CDC0CDC0CDC8CDC8CDC8CD07
:10319000C8EDC8EDD10DD12DD12DD10DD12DD92D09
:1031A000E12DE12DE16EE16EE96DE98DE98DF18DA5
:1031B000F18DF9AEF9AEF9AEF9CEF9CEF9EEF9EE40
:1031C000F9EEF9EFF9EEFA0FFA0FFA2FFA2FFA2FBC
:1031D000FA6FFA6FFA6FFA8FFA8FFA8FFA8FFAAFE7
:1031E000FAD0FAD0FAD0FAEFFAF0FAF0FB10FB308E
:1031F000DB30380108000000000000000000000083
:1032000000010001000100010001000100010001B6
:1032100000010001000200020022002200220043FF
:103220000043006300630063006300630083008465
:10323000008400A400A400C400C400C500C500C5EB
:1032400000C500E500E500E500E500E500E500E576
:1032500000E5010500E500E500E500E500E500E525
:1032600000C500C500840023000200020002000225
:10327000000200020003000300020002000300033A
:10328000000200020002000200020002000200022E
:10329000000200020002000200020002000200021E
:1032A00000020002000200020002000200220022CE
:1032B00000220022002200220022002200220022FE
:1032C00000220022002200220022002200220022EE
:1032D000002200220022002200220043004300437B
:1032E00000430043004300430043004300430043C6
:1032F0000043004300430063006300A400E601278D
:103300000147014801480168014801480148014856
:103310000148014801480148014801480148014865
:103320000148014801680148014801480148014835
:103330000148014801480148014801480148014845
:103340000148014801480148014801470148014836
:1033500001680148A8ADB0ADB0ADB0ADB8ADB8AD85
:10336000B8ADB8ADC0ADC0CDC0CDC0CDC8CDC8CD55
:10337000C8CDC8EDC8EDD0EDD10DD10DD90DD92DE9
:10338000E12DE12DE14DE16EE16DE96DE98EF18D0B
:10339000F18DF18DF9AEF9AEF9CEF9CEF9CFF9CEC6
:1033A000F9EEF9EEF9EFF9EFFA0FFA0FFA0FFA2F3B
:1033B000FA4FFA4FFA6FFA90FA8FFA8FFAB0FAB022
:1033C000FAAFFAD0FAD0FAF0FAF0FAF0FAF0FB100D
:1033D000FB30CAAE2000000000000000000000002A
:1033E00000010001000100010001000100010001D5
:1033F00000010001000200220022002200220043FE
:1034000000430043006300630063006300830084A3
:1034100000A400A400A400C400C400C400C400C5EB
:1034200000C500C500E500E500E500E500E500E5B4
:1034300000E500E500E500E5010500E500E500C563
:1034400000840023000200020002000200020002C9
:10345000000200020002000300020003000200025A
:10346000000200020002000200020002000200024C
:10347000000200020002000200020002000200023C
:1034800000020002000200020002000200220022EC
:10349000002200220022002200220022002200221C
:1034A000002200220022002200220022002200220C
:1034B0000022002200220022004300220043004399
:1034C00000430043004300430043004300430043E4
:1034D00000630063006300630063006300630084B3
:1034E00000E6012701470148014801480148014819
:1034F0000148014801480168014801480148014864
:103500000148014801680168014801480148014833
:103510000148014801480148014801480127014884
:103520000127014801480148014801480148014874
:1035300001480148A88DA8ADB0ADB0ADB8ADB8ADEB
:10354000B88DB8ADC0ADC0ADC0ADC0CDC8CDC8CDD3
:10355000C8CDC8CDC8EDC8EDD10DD12DD90DD92D0F
:10356000D92DE12DE14DE16EE16EE96EE96EF16E6E
:10357000F18EF18EF9AEF9AEF9AEF9AEF9CEF9CE23
:10358000F9CEF9EFF9EEF9EFF9EFF9EFFA0FFA2FBB
:10359000FA4FFA4FFA4FFA70FA8FFA8FFA8FFAB0A1
:1035A000FAAFFAD0FAD0FAD0FAF0FAF0FAF0FAF06C
:1035B000FB10FB50A22B18000000000000010001CE
:1035C00000010001000100010001000100010001F3
:1035D00000010002000200220022002200430043FA
:1035E00000430043006300630063006300840084C1
:1035F00000A400A400A400C400C400A400C400C52A
:1036000000C500C500C500E500E500E500E500E5F2
:1036100000E5010600E500E500E500E50084002284
:10362000000200020002000200020002000200028A
:103630000002000200020003000200020002000279
:10364000000200020002000200020002000200026A
:10365000000200020002000200020002000200025A
:103660000002000200020003000200020022002209
:10367000002200220022002200220022002200223A
:10368000002200220022002200220022002200222A
:1036900000220022002200220022002200430043D8
:1036A0000043004300430043004300430043004302
:1036B00000630063006300630063006300630063F2
:1036C000006400A500E601270147014801480148C0
:1036D00001480148014801480148014801480148A2
:1036E0000148014801480148014801480148014892
:1036F00001480148014801480148014801280148A2
:103700000128012801280128014801480128012831
:1037100001280128A8ADA88DB0ADB0ADB08DB88C92
:10372000B88DB8ADC0ADC0ADC0ADC0CDC8CDC8AD11
:10373000C8ADC8CDD0EDD0EDD0EDD10DD10DD92D86
:10374000D90DD92DE12DE14DE14DE94EE96DF16E37
:10375000F18EF18EF18EF9AEF9AEF9CEF9CFF9CF47
:10376000F9CFF9CFF9EFF9EEF9EFFA0FFA0FFA0FF7
:10377000FA2FFA4FFA4FFA4FFA6FFA8FFA8FFAB020
:10378000FAB0FAAFFAD0FAD0FAD0FAD0FAF0FAF0EA
:10379000FAF0FB10FB508948100000000001000106
:1037A0000001000100010001000100010001000111
:1037B00000020002002200220022002200430043F7
:1037C000004300430063006300630063008400A4BF
:1037D00000A400A400A400C400C400C400C400C429
:1037E00000C500C500C500C500C500E500E500E551
:1037F00000E500E500C500C50084000300020002EA
:1038000000020002000200020002000200020002A8
:103810000002000200020002000200020002000298
:103820000002000200020002000200020002000288
:103830000002000200020002000200020002000278
:103840000002000200020002000200020022002228
:103850000022002200220022002200220022002258
:103860000022002200220022002200220022002248
:103870000022002200430043002200430043004393
:103880000043004300430043004300430043004320
:103890000063006300630063006300630063006310
:1038A00000630064008400A500E601270148014888
:1038B00001480148014801480148014801480148C0
:1038C0000128014801470148014801480127012713
:1038D00001480148014801480148014801280128E0
:1038E0000128012801480128014801270128012851
:1038F00001270128A88DA88DA88DB08DB08DB88D19
:10390000B88DB88CB88DC0ADC0ADC0ADC8CDC0ADA0
:10391000C8ADC8CDC8CDC8CDD0EDD0EDD10DD90D35
:10392000D90DD90DE12DE12DE14EE94EE96EE96D9C
:10393000F16EF16EF18EF18EF98EF9AEF9AEF9AE4F
:10394000F9CFF9CFF9EFF9EFF9EFF9EEFA0FFA0F36
:10395000FA2FFA2FFA4FFA4FFA4FFA6FFA8FFA8FBF
:10396000FA8FFAB0FAD0FAD0FAD0FAD0FAD0FAF048
:10397000FAF0FB10FB30F3505884080000000001FF
:10398000000100010001000100010001000100012F
:1039900000020002002200220022004300430043F4
:1039A00000430043006300630063008300840084DD
:1039B00000A400A400A400C400C400C400C400C447
:1039C00000C500C500C500C500C500C500E500E58F
:1039D00000E500C50084002300020002000200028E
:1039E00000020002000200020002000200020002C7
:1039F00000020002000200020002000200020002B7
:103A000000020002000200020002000200020002A6
:103A10000002000200020002000200020002000296
:103A20000002000200020002000200020022002246
:103A30000002002200220022002200220022002296
:103A40000022002300220022002200220022002265
:103A50000022002200430043004200430043004391
:103A6000004300430043004300430043004300433E
:103A7000006300630063006300630063006300632E
:103A80000063006300640084008400C50106012710
:103A900001480148014801480168014801480148BE
:103AA000014801480148014801280128012801284E
:103AB00001280128012801280128012801280128BE
:103AC00001280128012801270128012801280128AF
:103AD00001280127A88DA88DA88EB08DB08DB88D36
:103AE000B88DB88DB88DB88CC08DC0ADC0ADC8AD27
:103AF000C8ADC8ADC8CDC8CDC8CDD0EDD10DD10DA4
:103B0000D90DD90DE12EE12DE12DE14EE94EE94E21
:103B1000E96EF16EF18EF18EF18EF98EF9AEF9AE9D
:103B2000F9AEF9AEF9CFF9CFF9CEF9EFF9EFF9EF38
:103B3000FA0FFA0FFA2FFA4FFA4FFA70FA50FA907A
:103B4000FA8FFAB0FAB0FAD0FAD0FAD0FAD0FAD0A6
:103B5000FAD0FB10FB10FB30E330480208000001F4
:103B6000000100010001000100010001000100024C
:103B70000002000200220022002200430043004312
:103B800000430043006300630063008300840084FB
:103B9000008400A400A400C400C400C400C400A4A5
:103BA00000C400C500C400C500C500C500C500C5EF
:103BB00000A4002300020002000200020002000232
:103BC00000020002000200020002000200020002E5
:103BD00000020002000200020002000200020002D5
:103BE00000020002000200020002000200020002C5
:103BF00000020002000200020002000200020002B5
:103C00000002000200020002000200020022000284
:103C100000220022002200020022002200230022B3
:103C20000022002200220022002200220022002284
:103C3000002200430043004300430043004300438D
:103C4000004300430043006300430043004300631C
:103C5000006300630063006300630063006300634C
:103C600000630063006400840084008400A400C535
:103C7000010601270148014801480148014801485F
:103C800001480148012801280128012801280128AC
:103C900001280128012801280127012801280128DD
:103CA00001280128012801280127012701270127D0
:103CB00001270127A88DA86DA86DB08DB08DB88D96
:103CC000B88DB88CC0ADB88CC08DC08DC08DC08C87
:103CD000C8ADC8ADC8ADC8ADC8CDC8CDD0EDD0ED6C
:103CE000D90DD8EDE10DE10EE12EE14DE94DE94EA2
:103CF000E94EE96EF16EF18EF18EF98EF98EF9AE24
:103D0000F9AEF9AEF9AFF9AFF9CEF9EFF9CFF9EFB6
:103D1000F9EFFA0FFA0FFA4FFA4FFA4FFA70FA6FFB
:103D2000FA8FFA8FFAB0FAB0FAD0FAD0FAD0FAF0E5
:103D3000FAF0FAF0FAF0FB10FB50CACE28010001AD
:103D40000001000100010001000100010002000269
:103D500000020022002200220042004300430043F0
:103D6000004300630063006300630063008400A4F9
:103D700000A400A400C400C400C500C400C400C462
:103D800000C400C500C400C500C500C500A40044AF
:103D90000002000200020002000200020002000213
:103DA0000002000200020002000200020002000203
:103DB00000020002000200020002000200020002F3
:103DC00000020002000200020002000200020002E3
:103DD00000020002000200020002000200020002D3
:103DE0000002000200020002000200220022002263
:103DF00000220022002200220022002200220022B3
:103E000000230022002200220022002200220022A1
:103E100000220043004300220043004300430043CC
:103E200000430043004300630043006300630063FA
:103E3000006300630063006300630063006300636A
:103E4000006300630064008400840084008400A494
:103E500000C5010601270147014801480128012842
:103E600001480148012801280128012801270127CC
:103E7000010801080127012801270127012801273E
:103E80000127012801270127010701270127012711
:103E900001270127A86DA86DA86DA86DB06DB06D44
:103EA000B86CB88DB88DB88DC0ADC0ADC0ADC08D8B
:103EB000C8ADC8ADC8ACC8CDD0CDD0CDD0EDD0ED5B
:103EC000D0EDD8EDD90DD90DE12DE12EE12DE94E42
:103ED000E94EE94EF14EF16EF18EF18EF98EF9AEAA
:103EE000F98EF9AEF9AEF9AFF9CFF9CFF9EFF9CE16
:103EF000F9EFF9EFFA0FFA2FFA2FFA2FFA50FA50DA
:103F0000FA6FFA8FFAB0FAB0FAAFFAD0FAD0FAF044
:103F1000FAF0FAF0FAF0FAF0FB10FB50B26C200065
:103F20000001000100010001000100020002000286
:103F300000220022002200420042004300430043CE
:103F4000006300630063006300630083008400A4D7
:103F500000A400A400C400C400C400C400C400A4A1
:103F600000C400C400C400A400A500840002000234
:103F70000002000200020002000200020002000231
:103F80000002000200020002000200020002000221
:103F90000002000200020002000200020002000211
:103FA0000002000200020002000200020002000201
:103FB00000020002000200020002000200020002F1
:103FC00000020002000200020002000200220022A1
:103FD00000220022002200220022002200220022D1
:103FE00000220022002200220022002200220042A1
:103FF00000430043004300430043004300430043A9
:104000000043004300430043004300630063006338
:1040100000430043006300630063006300630063C8
:1040200000630063008400840084008400840084B2
:1040300000A400A400C501060127014801280128A9
:10404000012801270127012701470127012701270F
:104050000127012701270127012701070127010760
:104060000127012701270107010701070127010790
:1040700001070127A86DA86DA88DA86DB06DB06D62
:10408000B06DB86DB88DB88DB88DC0ADC0ADC08DF8
:10409000C0ACC8ADC8ACC8CDC8ADD0CDC8CDD0CDF2
:1040A000D0CDD8EDD90ED90DD90DD92DE12DE12DD9
:1040B000E94EE94EE94EF16EF16EF16EF18EF98E38
:1040C000F98EF9AEF9AEF9AFF9AFF9AFF9CFF9EF73
:1040D000F9EFF9EFFA0FFA0FFA0FFA2FFA4FFA5039
:1040E000FA6FFA8FFA8FFA8FFAAFFAD0FAD0FAD0C5
:1040F000FAD0FAF0FAF0FAF0FAF0FB30F35091A9A6
:104100001000000100010001000200020002002274
:10411000002200220022002200430043004300430B
:10412000006300630063006300630083008400A4F5
:1041300000A400A400C400C400C400C400C400C49F
:1041400000C400A400A40084004300020001000297
:104150000001000100020002000200020002000251
:10416000000200020002000200020002000200023F
:10417000000200020002000200020002000200022F
:10418000000200020002000200020002000200021F
:10419000000200020002000200020002000200020F
:1041A000000200020002002200220022002200225F
:1041B00000220022002200220022002200220022EF
:1041C00000220022002200220022002200220043BE
:1041D00000430043004300430043004300430043C7
:1041E0000043004300430043006300630043006357
:1041F00000630043006300630063006300630063C7
:1042000000630063008400840084006300840084F1
:1042100000A400A400A400A500E6012701270128AE
:10422000012801270127012701270127012701274D
:10423000012701270127012701270127010701077E
:104240000107010701070107010601070106010730
:1042500001060106A86DA86DA86DB06DB06DB06DBA
:10426000B06DB86DB86DB88DB88DB88DB88DC08D86
:10427000C08DC08DC88DC8ADC8ADC8ADC8CDD0CDBE
:10428000D0CDD8EDD8EDD8EDD90DD90DE12EE12D59
:10429000E92EE94EE94EF14EF14EF16EF96EF96EEE
:1042A000F98EF98EF98EF9AEF9AFF9AFF9CEF9CEF4
:1042B000F9CFF9EFF9EFFA0FFA0FFA2FFA2FFA2FD9
:1042C000FA4FFA6FFA8FFA8FFA8FFAAFFAAFFAD085
:1042D000FAD0FAD0FAF0FAF0FB10FB10FB10F35012
:1042E00068E6100000010002000200020002002344
:1042F000002200220022002200430043004300432A
:104300000063006300630063006300830084008433
:1043100000A400A400C400C400C400C500C400C4BC
:1043200000A400A4008400020001000100010001BB
:10433000000100020002000200020002000200026E
:10434000000200020002000200020002000200025D
:10435000000200020002000200020002000200024D
:10436000000200020002000200020002000200023D
:10437000000200020002000200020002000200022D
:10438000000200020002002200220022002200227D
:10439000002200220022002200220022002200220D
:1043A00000220022002200220022004300220043BB
:1043B00000430043004300430043004300430043E5
:1043C0000043004300430063006300630063006335
:1043D00000630063006300630063004300630064E4
:1043E0000084006300630063008400630063008452
:1043F00000830084008400A400A400C601070127F4
:10440000014801270107012701070127012701278B
:10441000010701070107010701070107010701075C
:10442000010701070107010700E6010600E600E6B3
:1044300000E60106A84DA86DA86DB06DB06DB04D39
:10444000B06DB04DB86DB88DB88DB88DB88DC0ADAC
:10445000C08DC08DC88DC88DC8ADC8ADC8CDD0CDFC
:10446000D0CDD0EDD8EDD8EED90ED90DE10DE12D9E
:10447000E12DE92DE94EE94EF14EF14EF16EF96E66
:10448000F98EF98EF98EF98EF9AFF9AFF9AFF9AE71
:10449000F9CFF9CFF9EFF9EFFA0FFA0FFA2FFA2F58
:1044A000FA4FFA6FFA70FA8FFA8FFAB0FAAFFAD0C1
:1044B000FAD0FAD0FAD0FAF0FAF0FB10FB10FB3089
:1044C000E370504308010001000200220023002392
:1044D0000022002200220043004300430043006307
:1044E0000063006300630063006300830084008452
:1044F00000A400A400C400C400C400C400A400A41C
:1045000000A40043000200010001000100010001BD
:10451000000100010002000200020002000200028D
:10452000000200020002000200020002000200027B
:10453000000200020002000200020002000200026B
:10454000000200020002000200020002000200025B
:10455000000200020002000200020002000200024B
:1045600000020002000200020022002200220022BB
:10457000002200220022002200220022002200222B
:1045800000220022002200220022004300430043B8
:104590000043004300430043004300430043004303
:1045A0000043004300430063006300630063006353
:1045B0000063006300630063006300430063006402
:1045C000006300630063008400840084008400842E
:1045D00000830083008400840084008400C50106F9
:1045E00001270127012701270127012701270107AB
:1045F000010701070107010701070107010700E79C
:104600000107010700E70107010600E600E600E6F2
:1046100000E600E6A84DA84DA84DB04DB06DB04DD8
:10462000B04DB04DB06DB86DB86DB86DB88CC08D73
:10463000C08CC08DC88DC88DC8ADC8ADC8CDC8CD23
:10464000D0CDD0CDD0EDD90ED8EDD90ED90DE12EEB
:10465000E12EE12EE94DE94DE94EF14EF16EF16E9C
:10466000F96EF98EF98EF98EF98EF98EF9AEF9AFF1
:10467000F9AFF9CFF9CFF9EFF9EFFA0FFA0FFA2FF7
:10468000FA2FFA4FFA4FFA6FFA8FFA8FFA8FFAB0C1
:10469000FAD0FAD0FAD0FAD0FAF0FAF0FAF0FB1029
:1046A000FB30DAEF3002000100020022002200435A
:1046B0000022004300220043004300430043006304
:1046C000006300630063006300840083008400A42F
:1046D00000A400A400C400C400A400C500A4008479
:1046E00000230001000100010001000100010001A0
:1046F00000010001000100020002000200020002AD
:104700000002000200020002000200020002000299
:104710000002000200020002000200020002000289
:104720000002000200020002000200020002000279
:104730000002000200020002000200020002000269
:1047400000020002000200020022002200220022D9
:104750000022000200220022002200220022002269
:1047600000220022002200220022004300430043D6
:104770000043004300430043004300430043004321
:104780000043004300430043006300630063006391
:104790000063006300630063006300630063006301
:1047A000006300630063008400840084008400844C
:1047B00000840084008400840084008400A400A598
:1047C00000E501060107012701270127012701272D
:1047D0000107010701070107010701070107010799
:1047E000010700E700E700E600E600E600E600E675
:1047F00000E600E6A04DA84DA84DA84DB04DB04D27
:10480000B06DB04DB04DB06DB86DB86DB86DC08DB8
:10481000C08CC08DC08DC88DC88DC8ADC8ADC8CD89
:10482000C8CDD0CDD0CDD0EDD8EDD8EDD90DD90DA6
:10483000E10EE12EE92EE94DE94EE94EF14EF16E21
:10484000F96FF16EF98EF98EF98EF98EF9AEF9AF36
:10485000F9AFF9AFF9CFF9CFF9EFF9EFFA0FFA0F96
:10486000FA0FFA2FFA50FA4FFA6FFA8FFA8FFAB05E
:10487000FAD0FAD0FAD0FAD0FAD0FAF0FAF0FAF088
:10488000FAF0FB51BACE20010001002200220022E2
:104890000022002200430043004300430043006322
:1048A000006300630063006300830083008400846E
:1048B00000A400A400C400A400A400A4006400029A
:1048C00000010001000100010001000100010001E0
:1048D00000010001000100010002000200020002CC
:1048E00000020002000200020002000200020002B8
:1048F00000020002000200020002000200020002A8
:104900000002000200020002000200020002000297
:104910000002000200020002000200020002000287
:1049200000020002000200020022002200220022F7
:104930000022002200220022002200220022002267
:1049400000220022002200220043004300430043D3
:10495000004300430043004300630043004300431F
:1049600000430043004300430063006300630063AF
:10497000006300630063006300630063006300631F
:104980000063006300840084008400840084008449
:1049900000840084008400840084008400A400A4B7
:1049A00000C400C501060106010701270107010730
:1049B00001070107010701070107010701060106B9
:1049C00000E600E700E600E600E600E600E600E6B6
:1049D00000E600E6A82DA82DA84DA84DB04DB04D7D
:1049E000B04DB04DB04DB84DB84DB86DB86DC08D2F
:1049F000C06CC08DC08DC08DC88DC8ADC8ADC8ADF0
:104A0000D0CDD0CDD0CDD0CDD8EDD8EDD8EDD90DFD
:104A1000E10DE10EE92EE92EE94EE94EF14EF14E9F
:104A2000F14EF16EF98EF96EF98EF98EF98FF98FDC
:104A3000F9AFF9AFF9AFF9CFF9CFF9CFF9EFF9EF56
:104A4000F9EFFA10FA30FA2FFA50FA90FA8FFAB01A
:104A5000FAAFFAD0FAD0FAD0FAD0FAD0FAF0FAF0E7
:104A6000FAF0FB10FB50AA0B1801000200220042D2
:104A700000220043004300430063004300430063FF
:104A8000006300630063006300830084008400848B
:104A900000A400A500A500A50084004300010001BA
:104AA00000010001000100010001000100010001FE
:104AB00000010001000100010002000200020002EA
:104AC00000020002000200020002000200020002D6
:104AD00000020002000200020002000200020002C6
:104AE00000020002000200020002000200020002B6
:104AF00000020002000200020002000200020002A6
:104B00000002000200020002002200220002000255
:104B10000022002200220022002200220022002285
:104B200000220022002200430043004300430043D0
:104B3000004300430043004300430043004300435D
:104B400000430043004300430063006300630063CD
:104B5000006300630063006300640064006300633B
:104B60000063006300840084008300830084008469
:104B700000840084008400840084008400A400A4D5
:104B800000A400A400C500E6010701070107010712
:104B90000107010700E701070107010700E600E63A
:104BA00000E600E600E600E600E600C600E600E6F5
:104BB00000C600E7A82DA82DA84DA84DA82CB04DE3
:104BC000B04DB04DB84DB84DB84DB84DB84CB86DAE
:104BD000B86DC06DC06DC06DC08DC88DC8ADC8AD9D
:104BE000C8ADD0CDD0CDD0CDD0CDD8EDD90ED90D4A
:104BF000E10DE10EE10EE92EE92EE92EF14EF12E46
:104C0000F14EF14EF96EF96EF96EF98EF96EF98E7C
:104C1000F98EF98EF9AFF9AFF9CFF9CFF9CFF9EFF6
:104C2000F9F0FA10FA10FA30FA50FA70FA70FA90B5
:104C3000FAB0FAB0FAB0FAD0FAD0FAD0FAD0FAD084
:104C4000FAF0FB10FB10F3507989100100020043C9
:104C500000430043004300430043004300630063FC
:104C600000630063006300830083008400A400A449
:104C700000A400A500A4008400230001000100019D
:104C8000000100010001000100010001000100011C
:104C90000001000100010001000200020002000208
:104CA00000020002000200020002000200020002F4
:104CB00000020002000200020002000200020002E4
:104CC00000020002000200020002000200020002D4
:104CD00000020002000200020002000200020002C4
:104CE0000002000200020002000200220002002274
:104CF00000220022002200220022002200230022A3
:104D000000220022004300430043004300430043CD
:104D1000004300430043004300430043004300437B
:104D2000004300430043004300630063006300430B
:104D30000063006300630063006400640063006359
:104D40000063006300840084008300830084008487
:104D5000008400840084008400840084008400A413
:104D6000008400A400A400C500E6010601070107B5
:104D7000010701070107010700E700E700E600E679
:104D800000E600E600E600E600C600C600E600E633
:104D900000C600C6A02DA82DA82DA84DA82DB04D49
:104DA000B04DB04DB04DB84DB84DB84DB86DB84DD3
:104DB000B84DC06DC88DC08DC88CC88CC88DC8ADAD
:104DC000C8ADC8CDD0CDD0CDD0CDD8EDD8EDE0EEAA
:104DD000D90DE10DE10DE92EE90EE92EE92EE92EBE
:104DE000F14EF14EF16EF96EF96EF96EF96EF98FC2
:104DF000F98FF98EF98EF9AFF9AFF9AFF9AFF9CFB5
:104E0000F9EFF9EFF9EFFA0FFA2FFA4FFA4FFA70BC
:104E1000FA90FA90FA90FAD0FAD0FAD0FAD0FAD002
:104E2000FAF0FAF0FB10FB10F37160850801002224
:104E300000420042004300630043006300630063DC
:104E400000630063006300840084008400A400A465
:104E500000A400A400840022000100010001000160
:104E6000000100010001000100010001000100013A
:104E70000001000100010001000200020002000226
:104E80000002000200020002000200020002000212
:104E90000002000200020002000200020002000202
:104EA00000020002000200020002000200020002F2
:104EB00000020002000200020002000200020002E2
:104EC00000020002000200020002000200020022B2
:104ED00000220022002200220022002200220022C2
:104EE00000220043004300430043004300430043CB
:104EF000004300430043004300430063004300437A
:104F000000430043006300630063006300630063C9
:104F10000063006300630063006300630063006379
:104F20000063008400840084008400840084008482
:104F300000840084008400840084008400A400A411
:104F400000A400A400A400A400C500E600E6010738
:104F500001070107010700E700E700E700E600E6B8
:104F600000E600E600E600C600C600C600C600C6B1
:104F700000C600C6A02DA02DA82DA82DA82DB04D8F
:104F8000B04DB04DB04DB04DB84DB84DB84DB84D19
:104F9000B84DC06DC06DC06CC88CC88CC88DC88D34
:104FA000C8ADC8ADC8ADD0CDD0CDD0CDD8CDD8ED61
:104FB000D8EDE0EDE0EDE10EE90EE92EE92EE92E67
:104FC000F14EF14EF14EF14EF14EF96EF96EF96E71
:104FD000F98EF98EF98EF98EF9AEF9AFF9AFF9CFF6
:104FE000F9CFF9EFF9EFFA10FA0FFA0FFA2FFA509A
:104FF000FA70FA70FA90FAB0FAAFFAD0FAD0FAD0A2
:10500000FAF0FAF0FAF0FB10FB51E33038430802F3
:1050100000220043004300630063006300630063F9
:1050200000630063006400840084008400A400A482
:1050300000A4008400020001000000000001000143
:105040000001000100010001000100010001000158
:105050000001000100010001000100020001000246
:105060000002000200020002000200020002000230
:105070000002000200020002000200020002000220
:105080000002000200020002000200020002000210
:105090000002000200020002000200020002000200
:1050A00000020002000200020002000200020023CF
:1050B00000220022002200220023002200220022DF
:1050C00000430043004300430043004300430043C8
:1050D00000430043004300430043004300430043B8
:1050E00000430043006300630063006300630063E8
:1050F0000063006300630063006300630063006398
:10510000008400840084008400840084008400847F
:105110000084008400840084008400A400A400A40F
:1051200000A400A400A400A400A400C500C600E6DA
:1051300000E7010700E700E700E700C600E600E639
:1051400000E600E600C600C600A600C600C600C60F
:1051500000C600C6A80DA80DA80DA82DA82DA82D25
:10516000B02DB02DB02DB02DB02DB84DB84DB84DDF
:10517000B84DC04DC06DC06DC08DC08CC08CC88C8A
:10518000C8ADC8ADC8ADD0CED0CDD0CDD0CDD8ED86
:10519000D8EDE0EEE0EEE0EEE0EDE90EE92EE92EEE
:1051A000E94EE92EF14EF14EF14EF96EF96FF96EBE
:1051B000F96EF98EF98EF98EF98EF98EF98FF9CF95
:1051C000F9CFF9CFF9CFF9EFF9EFFA0FFA2FFA2F5C
:1051D000FA50FA70FA90FA90FAB0FAB0FAD0FAD01F
:1051E000FAD0FAD0FAD0FB10FB10FB51C2EE30011E
:1051F0000022004300430063006300430063006338
:1052000000630083008300840084008400840084A1
:105210000064000100010001000000000000000126
:105220000001000100010001000100010001000176
:105230000001000100010001000100010001000265
:10524000000200020002000200020002000200024E
:10525000000200020002000200020002000200023E
:10526000000200020002000200020002000200022E
:10527000000200020002000200020002000200021E
:1052800000020002000200020002000200220022CE
:1052900000220022002200220022002200220023FD
:1052A00000430043004300430043004300430043E6
:1052B00000430043004300430043004300430043D6
:1052C00000630063006300630063006300630063C6
:1052D00000630063006300630063006300630063B6
:1052E000008400840084008400840084008400849E
:1052F000008400840084008400A4008400A400A42E
:10530000008400A400A400A4008400A500C500C679
:1053100000C600E600E600E600E600E600C600C6BD
:1053200000C600C600C600C600C600C600C500C54F
:1053300000C500C5A00DA00DA82DA80DA80DA82D75
:10534000B02DB02DB02DB02DB02DB02DB84DB84D25
:10535000B84DC04DC04CC06DC06DC06CC08DC08C10
:10536000C88CC8ADC8ADC8ADD0CDD0CDD0CDD0CD16
:10537000D8EDD8EDE0EDE0EEE0EDE90EE90EE92E36
:10538000E92EE94EF14EF12EF14EF14EF96EF96F24
:10539000F96EF96EF96EF98EF98EF98EF98EF9AF14
:1053A000F9AFF9CFF9CFF9CFF9EFFA0FFA0FFA2FDA
:1053B000FA4FFA4FFA6FFA90FA90FA8FFAB0FAD0E1
:1053C000FAD0FAD0FAD0FAD0FAF0FB30FB50AA4C5F
:1053D0001801002200430063006300630063006360
:1053E0000063008300830084008400840084004301
:1053F00000010000000100010000000000010001A8
:105400000001000100010001000100010001000194
:105410000001000100010001000100010001000283
:10542000000200020002000200020002000200026C
:10543000000200020002000200020002000200025C
:10544000000200020002000200020002000200024C
:10545000000200020002000200020002000200023C
:1054600000020002000200020002002200220022CC
:1054700000220022002200220022002200230043FA
:105480000043004300430043004300430043004304
:1054900000430043004300430043004300430043F4
:1054A00000630063006300630063006300630063E4
:1054B00000630084006300630063006300630063B3
:1054C00000840084008400840084008400840084BC
:1054D000008400840084008400A400A400A400A42C
:1054E00000A400A400A400A400A400A400C500C55A
:1054F00000C600C600E600E600E600C600C600C61C
:1055000000C600C600C600C600C600C500C500C56E
:1055100000C500C5A80DA80DA80DA80DA80DA80DC3
:10552000A82DA82DB02DB02DB02DB04DB82DB84D53
:10553000B84DB84DC04DC04CC04DC06DC06CC08D95
:10554000C88DC8ADC8ADC8ADC8CED0CDD0CDD0CD3A
:10555000D0CDD8CDD8EDE0EDE0EDE0EDE90EE90EEF
:10556000E92EE92EE92EE92EF14EF14EF14EF94EDB
:10557000F94EF96EF98FF98EF98EF98EF98EF98E52
:10558000F98FF9AFF9AFF9CFF9EFF9EFFA0FFA0F99
:10559000FA2FFA2FFA4FFA70FA70FA90FAB0FAB0BE
:1055A000FAB0FAD0FAD0FAD0FAF0FB10FB10F351AF
:1055B00081A9180100420063006300630063006377
:1055C00000630083008400840084008400430001A1
:1055D00000010000000000000000000000000000CA
:1055E00000010001000100010001000100010001B3
:1055F00000010001000100010001000100010001A3
:10560000000200020002000200020002000200028A
:10561000000200020002000200020002000200027A
:10562000000200020002000200020002000200026A
:10563000000200020002000200020002000200025A
:1056400000020002000200020002002200220022EA
:1056500000220022002200220022002200430043F8
:105660000043004300430043004300430043004322
:105670000043004300630063006300630063006352
:105680000063006300430063006300630063006322
:1056900000630063006300630063006300630063F2
:1056A00000840084008400840084008400840084DA
:1056B0000084008400A400A400A400A400A400A40A
:1056C00000A400A400A400A400A400A400A500A5B8
:1056D00000C500C600C600C600C600C600C600C69B
:1056E00000C600C600C600C600A600A500A500A60C
:1056F00000A600A6A00DA80DA80DA80DA80DA80D28
:10570000A80CA80DB02DB02DB02DB02DB02DB82DFA
:10571000B82DB82DB84CC04DC04DC04DC06DC06C3B
:10572000C88DC08DC8ADC8ADC8ADC8ADD0CDD0CDC9
:10573000D0CDD0CDD8CDD8EDE0EEE0EDE0EDE90E66
:10574000E90EE92EE90EE92EF12EF12EF12EF94E99
:10575000F94EF94EF94EF96EF96EF96EF98FF98F2F
:10576000F98FF9AFF9AFF9CFF9CFF9CFF9EFFA0F18
:10577000FA0FFA2FFA4FFA70FA70FA70FA90FAB03C
:10578000FAAFFAD0FAD0FAD0FAD0FAF0FAF0FB1069
:10579000EB71690608020043006300630063006365
:1057A0000063008400840084006400430001000062
:1057B00000000000000000000000000000000000E9
:1057C00000010001000100010001000100010001D1
:1057D00000010001000100010001000100010001C1
:1057E00000020002000200020002000200020002A9
:1057F0000002000200020002000200020002000299
:105800000002000200020002000200020002000288
:105810000002000200020002000200020002000278
:105820000002000200020002000200220022002208
:105830000022002200220022002300430022004315
:105840000043004300430043004300430043004340
:105850000043006300630063006300630063006350
:105860000063006300630063006300630063006320
:10587000006300630084006300840084008400846B
:1058800000840084008400840084008400840084F8
:1058900000840084008400A400A400A400A400A448
:1058A00000A400A400A400A400A400A400A500A5D6
:1058B00000C500C500C500C500C600C600C600C6BC
:1058C00000C600C600C600A600A500A500A600A64A
:1058D00000A600A6A00DA00CA80DA80DA80DA80D4F
:1058E000A80CA80CB00CB00DB00DB02DB82DB82D73
:1058F000B82DB82DC02DC02DC04DC04DC06DC06D90
:10590000C06DC88DC88DC8ADC8ADC8ADD0ADD0CD47
:10591000D0CED8CDD8ADD8EDE0EDE0EEE0EDE10EA3
:10592000E10EE90EE90EE92EE92EF12EF12EF12E0F
:10593000F92EF94EF94EF94EF96FF96FF96FF98FAB
:10594000F98FF9AFF9AFF9AFF9AFF9CFF9EFF9EF97
:10595000F9EFFA0FFA2FFA4FFA50FA70FA90FAB0FC
:10596000FAAFFAAFFAD0FAD0FAD0FAD0FAD0FAF009
:10597000FB30E37148850802004300630063008444
:1059800000840084008400640043000100000000E3
:105990000000000000000000000000000000000007
:1059A00000000001000100010001000100010001F0
:1059B00000010001000100010001000100010001DF
:1059C00000010002000200020002000200020002C8
:1059D00000020002000200020002000200020002B7
:1059E00000020002000200020002000200020002A7
:1059F0000002000200020002000200020002000297
:105A00000002000200020002000200220022002226
:105A100000220022002200230043004300430043F1
:105A2000004300430043004300430043004300435E
:105A3000004300430063006300630063006300638E
:105A4000006300630063006300630063006300633E
:105A50000063006300630084008400840084008489
:105A60000084008400840084008400840084008416
:105A700000840084008400840084008400A400A4C6
:105A800000A400A400A400A400A400A400A500A4F5
:105A900000A500C500C500C500A500C600C600C61B
:105AA00000C600A600A600A600A600A600A600A6A6
:105AB00000A600A6A00CA00DA80DA80DA80DA80D6D
:105AC000A80DA80DA80DB00DB00DB00DB82DB82DB6
:105AD000B80DB82DC02DC02DC04DC04DC04DC06CEF
