:020000040800F2
:1000000050120020A5020008B51C00086F1B000854
:10001000B11C0008D5030008E72400080000000018
:10002000000000000000000000000000ED010008DA
:10003000D90300080000000041020008211D00084B
:10004000BF020008BF020008BF020008BF0200088C
:10005000BF020008BF020008BF020008BF0200087C
:10006000BF020008BF020008BF020008BF0200086C
:10007000BF020008BF020008BF020008BF0200085C
:10008000BF02000800000000BF020008BF02000815
:10009000BF020008BF020008BF020008BF0200083C
:1000A000BF020008D11D0008BF020008BF020008FF
:1000B000BF020008BF020008BF020008BF0200081C
:1000C000BF020008BF020008BF020008BF0200080C
:1000D000BF020008BF020008BF020008BF020008FC
:1000E000BF020008BF020008BF020008BF020008EC
:1000F000BF020008BF020008BF02000800000000A5
:1001000000000000BF02000800000000BF0200085D
:10011000BF02000800000000BF020008BF02000884
:10012000BF020008BF020008BF020008BF020008AB
:10013000BF0200080000000000000000BF0200082D
:10014000BF020008BF02000800000000000000001D
:10015000000000000000000000000000000000009F
:10016000000000000000000000000000BF020008C6
:10017000BF020008000000000000000000000000B6
:1001800000000000BF0200080000000000000000A6
:10019000000000000000000000000000000000005F
:1001A0000000000000000000BF020008BF020008BD
:1001B000BF020008BF020008BF02000800000000E4
:1001C00000000000BF020008000000000000000066
:1001D000BF020008BF020008DFF80CD000F0E8F80A
:1001E0000048004761250008501200202A4B19687A
:1001F0000868B0E8F04F80F30988BFF36F8F4FF0C5
:10020000000080F311887047000000000648006875
:10021000006880F3088862B661B6BFF34F8FBFF302
:100220006F8F00DF00BF00BF08ED00E0DFF80C00BB
:10023000016841F470010160704700BF88ED00E083
:10024000EFF30980BFF36F8F134B1A681EF0100F86
:1002500008BF20ED108A20E9F04F106008B44FF07D
:10026000500080F31188BFF34F8FBFF36F8F02F000
:100270002FFE4FF0000080F3118808BC1968086851
:10028000B0E8F04F1EF0100F08BFB0EC108A80F3FA
:100290000988BFF36F8F704718000020EFF30580C7
:1002A000704700000648804706480047FEE7FEE723
:1002B000FEE7FEE7FEE7FEE7FEE7FEE7FEE7FEE716
:1002C000BD1D0008D90100082DE9F05F054600209A
:1002D00092469B4688460646814640241BE02846B7
:1002E00041464746224600F053F853465A46C01A44
:1002F000914110D311461846224600F03AF82D1AC3
:1003000067EB01084F4622460120002100F031F83A
:1003100017EB00094E41201EA4F10104DFDC484622
:1003200031462A464346BDE8F09F40EA01039B0759
:1003300003D009E008C9121F08C0042AFAD203E05A
:1003400011F8013B00F8013B521EF9D27047D2B2BE
:1003500001E000F8012B491EFBD270470022F6E7AE
:1003600010B513460A4604461946FFF7F0FF20462B
:1003700010BD202A04DB203A00FA02F10020704769
:100380009140C2F1200320FA03F3194390407047D3
:10039000202A04DB203A21FA02F00021704721FADA
:1003A00002F3D040C2F12002914008431946704741
:1003B000064C074D06E0E06840F0010394E80700B2
:1003C00098471034AC42F6D3FFF70AFFBC3300085D
:1003D000DC33000800BFFEE7704772B600BFFEE7DF
:1003E00078B502460B460021CAE001268E401D6802
:1003F00005EA0604002C73D01D7905F00305012DD4
:1004000004D01D7905F00305022D13D190684E002C
:100410000325B540A8434E00DD68B54028439060F1
:10042000506801258D40A8431D79C5F300158D4006
:10043000284350601D7905F00305032D09D0D068CD
:100440004E000325B540A8434E009D68B5402843A3
:10045000D0601D7905F00305022D13D1CE0802F1FD
:10046000200555F826004D07EE0E0F25B540A84390
:100470004E07F60E1D69B5402843CE0802F120054F
:1004800045F8260010684E000325B540A8431D79A5
:1004900005F003054E00B540284310605D6805F483
:1004A0004035002D6BD000BF384D2D6E45F0010555
:1004B000364E356635462D6E05F00105009500BFB8
:1004C00000BF4FEAB6358E0855F826008D072E0F6F
:1004D0000F25B540A843B2F1904F02D100251AE094
:1004E0004DE02B4DAA4201D1012514E0294DAA422D
:1004F00001D102250FE0284DAA4201D103250AE0CF
:10050000264DAA4201D1042505E0254DAA4201D17C
:10051000052500E006258E07360FB5402843214DFE
:100520008E0845F82600204D2868A0435D6805F434
:10053000801505B120431C4D28602D1D2868A0435F
:100540005D6805F4001505B12043174D2D1D286089
:10055000154D2D1F2868A0435D6805F4003505B1D1
:100560002043114D2D1F28602D1F2868A0435D6872
:1005700005F4803505B120430B4D083D2860491C2A
:100580001D68CD40002D7FF430AF78BD00100240D3
:100590000004004800080048000C00480010004813
:1005A00000140048080001400804014010B54269E9
:1005B00021EA020302EA010443EA0443836110BD15
:1005C0000AB1816100E08162704700000148006863
:1005D00070470000080000200348006803490968CC
:1005E00008440149086070470800002010000020FE
:1005F00010B50024032000F0CFF80F2000F008F819
:1006000008B1012401E000F051F8204610BD0000BF
:10061000F0B587B0044600260027002500BF1E481D
:10062000006E40F400601C4908660846006E00F445
:100630000060009000BF00BF01A902A800F016FCF6
:1006400000F04EFC06461548B6FBF0F0471E144875
:100650001449086040F2E7311248C1604760002148
:100660000161816000F055FF054695B90D4800F025
:1006700089FF05466DB9192000F03CF8102C07D20F
:1006800000222146192000F049F80748046000E0E4
:100690000125284607B0F0BD0010024040420F007F
:1006A000002C0140100100200C00002008B500BF04
:1006B0000F48006E40F001000D4908660846006EC4
:1006C00000F00100009000BF00BF00BF0846806D31
:1006D00040F0805088650846806D00F080500090A2
:1006E00000BF00BF00220321481F00F017F808BD1B
:1006F000001002400146084600280DDB00BF00BF85
:1007000000F01F0301229A4043099B0003F1E023FC
:10071000C3F8002100BF00BF00BF70472DE9F05FA4
:1007200080460D46164601F0E1FE074639462A4648
:10073000334601F00700C0F1070ABAF1040F02D9ED
:100740004FF0040A01E0C0F1070AD14600F1040AA3
:10075000BAF1070F02D24FF0000A01E0A0F1030A3C
:10076000D4464FF0010A0AFA09FAAAF1010A0AEA84
:10077000020A0AFA0CFA4FF0010B0BFA0CFBABF170
:10078000010B0BEA030B4AEA0B042146404601F039
:10079000B5FEBDE8F09F000000BF00F00702064B69
:1007A00019684FF6FF031940044B0B4343EA02213B
:1007B000014B196000BF70470CED00E00000FA0526
:1007C00002468ABB4148006800F4C060B0F5806F03
:1007D0002BD13E488030006820F480703B4BC3F83A
:1007E00080001846006820F4C06040F40070186073
:1007F0003748006832235843364BB0FBF3F0411CB6
:1008000000E0491E3148406900F48060B0F5806F17
:1008100001D10029F5D12D48406900F48060B0F580
:10082000806F51D10320704708E02848803000686D
:1008300020F48070254BC3F8800045E0B2F5007FBE
:100840003AD12248006800F4C060B0F5806F2AD128
:100850001E488030006840F480701C4BC3F8800054
:100860001846006820F4C06040F400701860184812
:10087000006832235843174BB0FBF3F0411C00E0F3
:10088000491E1248406900F48060B0F5806F01D1C4
:100890000029F5D10D48406900F48060B0F5806F03
:1008A00012D10320BFE709488030006840F480700F
:1008B000064BC3F8800007E00448006820F4C060DD
:1008C00040F48060014B18600020ACE700700040ED
:1008D0001400002040420F002DE9F8430446002791
:1008E000B846206800F40020B0F5002F73D1B94657
:1008F000D348806D00F0805078B900BFD048806D3B
:1009000040F08050CE4988650846806D00F08050E8
:10091000009000BF00BF4FF00109CA48006840F4D2
:100920008070C8490860FFF751FE064606E0FFF7F1
:100930004DFE801B022801D9032705E0C14800684D
:1009400000F480700028F2D000BF002F46D1BC48D0
:100950009030006800F44075CDB1206CA84216D0EC
:10096000B7489030006820F44075B548D0F8900042
:1009700040F48030B249C1F890000846D0F89000A9
:1009800020F48030C1F890000846C0F8905005F07F
:100990000100A0B1FFF71AFE064608E0FFF716FEB9
:1009A000801B41F28831884201D9032706E0A44820
:1009B0009030006800F002000028EFD000BF5FB95F
:1009C0009F489030006820F44070216C08439C4997
:1009D000C1F8900003E00CE0B84600E0B846B9F179
:1009E000010F05D19648806D20F0805094498865AC
:1009F00000BF207800F0010048B1914888300068BD
:100A000020F00300616808438D49C1F88800207810
:100A100000F00200022809D189488830006820F0DF
:100A20000C00A16808438649C1F88800207800F0CE
:100A30000400042809D182488830006820F0300082
:100A4000E16808437E49C1F88800207800F008007A
:100A5000082809D17A488830006820F0C000216950
:100A600008437749C1F88800207800F0200020284A
:100A700009D173488830006820F4406061690843F8
:100A80006F49C1F88800207800F04000402809D163
:100A90006B488830006820F44050A16908436849D9
:100AA000C1F88800207800F08000802809D16448CF
:100AB0008830006820F44040E16908436049C1F88B
:100AC0008800208800F48070B0F5807F09D15C48F0
:100AD0008830006820F44030216A08435849C1F842
:100AE0008800208800F40070B0F5007F09D15448D8
:100AF0008830006820F44020616A08435049C1F8FA
:100B00008800208800F48060B0F5806F13D14C48D5
:100B10008830006820F44010A16A084348498831B1
:100B20000860A06AB0F5801F05D14548C06840F450
:100B300080104349C860208800F40060B0F5006F61
:100B400013D13F488830006820F44000E16A084330
:100B50003B4988310860E06AB0F5800F05D138481C
:100B6000C06840F480103649C860208800F4805086
:100B7000B0F5805F13D132488830006820F04070B3
:100B8000216B08432E4988310860206BB0F1807FCB
:100B900005D12B48C06840F480102949C8602088DE
:100BA00000F40050B0F5005F13D12548883000688C
:100BB00020F04060616B0843214988310860606B18
:100BC000B0F1006F05D11E48C06840F480101C4988
:100BD000C860208800F48040B0F5804F13D11848D9
:100BE0008830006820F04060A16B084314498831C8
:100BF0000860A06BB0F1006F05D11148C06840F4E7
:100C000080100F49C860208800F40040B0F5004F04
:100C100013D10B488830006820F04050E16B084346
:100C2000074988310860E06BB0F1805F05D1044866
:100C3000C06840F480300249C8604046BDE8F8838F
:100C400000100240007000402DE9F04104460D46BE
:100C50004FF0000814B90120BDE8F0817D4800681C
:100C600000F00F00A8420ED27A48006820F00F0072
:100C70002843784908600846006800F00F00A84241
:100C800001D00120E8E7207800F00100002864D0BE
:100C90006068032823D17048006800F0007008B92C
:100CA0000120D9E701F008F806466C48864237D99A
:100CB0006948806800F0F00030B1207800F0020050
:100CC00002282DD1A06858BB6348806820F0F0004E
:100CD00040F08000604988604FF0800820E0606844
:100CE000022806D15C48006800F4003040B90120B9
:100CF000B2E75948006800F4806008B90120ABE70A
:100D000000F000F906465548864209D952488068E5
:100D100020F0F00040F080004F4988604FF08008DC
:100D20004D48806820F00300616808434A498860A4
:100D3000FFF74CFC074608E0FFF748FCC01B41F2F8
:100D40008831884201D9032086E74348806800F053
:100D50000C006168B0EB810FEED1207800F002004A
:100D6000022820D1207800F00400042805D13A4858
:100D7000806840F4E06038498860207800F008001E
:100D8000082807D13448806820F4605040F4E060BF
:100D9000314988603048806820F0F000A16808433D
:100DA0002D49886008E0B8F1800F05D12A48806895
:100DB00020F0F000284988602648006800F00F0005
:100DC000A84219D92348006820F00F002843214980
:100DD0000860FFF7FBFB074608E0FFF7F7FBC01BC7
:100DE00041F28831884201D9032035E7194800686B
:100DF00000F00F00A842F0D1207800F00400042891
:100E000007D11548806820F4E060E1680843124982
:100E10008860207800F00800082808D10E48806813
:100E200020F46050216940EAC1000B49886000F05D
:100E300069F809498968C1F30311094A515C01F055
:100E40001F01C8400749086007480068FFF7E0FB3A
:100E500002E70000002002400010024000B4C40479
:100E600094330008140000200C0000200F220260C0
:100E70000D4A926802F0030242600B4A926802F047
:100E8000F0028260084A926802F4E062C260064A98
:100E9000926802F46052D2080261044A126802F0B9
:100EA0000F020A607047000000100240002002405C
:100EB00001480068704700001400002000B5FFF7EB
:100EC000F7FF05498968C1F30221044A515C01F02A
:100ED0001F01C84000BD000000100240A4330008FC
:100EE00000B5FFF7E5FF05498968C1F3C221044A4F
:100EF000515C01F01F01C84000BD0000001002401D
:100F0000A433000870B5224DAD6805F00C05042D22
:100F100001D120483AE01E4DAD6805F00C05082DC2
:100F200001D11D4832E01A4DAD6805F00C050C2DBD
:100F30002BD1174DED6805F00304154DED68C5F391
:100F400003156A1C022C0CD0032C09D1124DB5FBE1
:100F5000F2F50F4EF668C6F3062605FB06F10AE029
:100F600000BF0C4DB5FBF2F5094EF668C6F3062638
:100F700005FB06F100BF00BF054DED68C5F34165F7
:100F80006D1C6B00B1FBF3F000E0002070BD0000B1
:100F9000001002400024F400001BB7002DE9F843C4
:100FA000044614B90120BDE8F883207800F0010060
:100FB000002865D0FC48806800F00C07FA48C0683B
:100FC00000F003060C2F01D1032E01D0082F0AD107
:100FD000F548006800F40030002851D0606800280F
:100FE0004ED10120DFE700BF6068B0F5803F06D139
:100FF000ED48006840F48030EB4908601AE0606812
:10100000B0F5A02F0BD1E848006840F48020E649F5
:1010100008600846006840F4803008600AE0E24852
:10102000006820F48030E04908600846006820F439
:101030008020086000BF606888B1FFF7C7FA0546E6
:1010400006E0FFF7C3FA401B642801D90320AAE792
:10105000D548006800F400300028F2D010E0FFF717
:10106000B5FA054606E0FFF7B1FA401B642801D93E
:10107000032098E7CC48006800F400300028F2D143
:10108000207800F00200022860D1C748806800F094
:101090000C07C548C06800F003060C2F01D1022ED2
:1010A00001D0042F18D1C048006800F4806018B146
:1010B000E06808B9012076E7BB48406820F0FE40B0
:1010C000217C40EA0160B8494860B8480068FFF7F1
:1010D0009FFA18B3012066E7E06800B3B2480068E1
:1010E00040F48070B0490860FFF770FA054606E0EA
:1010F000FFF76CFA401B022801D9032053E7AA48E6
:10110000006800F480600028F2D0A748406820F012
:10111000FE40217C40EA0160A349486016E0A248F5
:10112000006820F48070A0490860FFF74FFA054678
:1011300006E0FFF74BFA401B022801D9032032E7F3
:101140009948006800F480600028F2D1207800F00F
:101150000800082836D16069D0B1934894300068FF
:1011600040F001009049C1F89400FFF72FFA0546BE
:1011700006E0FFF72BFA401B022801D9032012E7F3
:1011800089489430006800F002000028F1D019E08E
:1011900085489430006820F001008349C1F894002C
:1011A000FFF714FA054606E0FFF710FA401B022885
:1011B00001D90320F7E67C489430006800F0020073
:1011C0000028F1D1207800F00400042872D14FF0FB
:1011D00000087548806D012121EA107078B100BFC8
:1011E0007148806D40F080506F4988650846806D79
:1011F00000F08050009000BF00BF4FF001086C4825
:10120000006800F48070B0B96948006840F48070EC
:1012100067490860FFF7DAF9054606E0FFF7D6F9F7
:10122000401B022801D90320BDE66148006800F494
:1012300080700028F2D000BFA068012808D15A4869
:101240009030006840F001005749C1F8900021E05B
:10125000A06805280FD154489030006840F0040081
:101260005149C1F890000846D0F8900040F00100C4
:10127000C1F890000EE04C489030006820F001006A
:101280004949C1F890000846D0F8900020F00400C9
:10129000C1F8900000BFA068A8B1FFF797F9054614
:1012A00009E0FFF793F9401B41F28831884202D9E7
:1012B000032078E625E03C489030006800F002000A
:1012C0000028EED013E0FFF781F9054608E0FFF7AC
:1012D0007DF9401B41F28831884201D9032062E642
:1012E00031489030006800F002000028EFD1B8F1DA
:1012F000010F05D12C48806D20F080502A49886567
:1013000000BF207800F02000202836D1A069D0B19D
:1013100025489830006840F001002349C1F8980042
:10132000FFF754F9054606E0FFF750F9401B022885
:1013300001D9032037E61C489830006800F002000D
:101340000028F1D019E018489830006820F001001A
:101350001549C1F89800FFF739F9054606E0FFF78F
:1013600035F9401B022801D903201CE60E489830AD
:10137000006800F002000028F1D1E069002860D088
:101380000948806800F00C000C287FD0E069022832
:1013900058D10548006820F0807003490860FFF7C5
:1013A00015F905460DE00000001002400C00002079
:1013B00000700040FFF70AF9401B022801D9032002
:1013C000F1E54D48006800F000700028F2D1D4E942
:1013D0000810401E41EA0011A06A41EA0021208E57
:1013E0000122C2EB500041EA40513420005DC2EBC3
:1013F000500041EA40612C20005D41EAC0603E4956
:10140000C9683E4A114008433B49C8600846006825
:1014100040F0807008600846C06840F08070C86086
:10142000FFF7D4F8054606E0FFF7D0F8401B022886
:1014300001D90320B7E53048006800F000700028AB
:10144000F2D056E02C48006820F080702A490860ED
:101450000846C06820F00300C8600846C0682849F4
:1014600008402549C860FFF7B1F8054607E00DE0E0
:10147000FFF7ACF8401B022801D9032093E51E4872
:10148000006800F000700028F2D132E0E069012825
:1014900000D188E51848C66806F00301206A814239
:1014A00025D106F0F001606A401EB1EB001F1ED18D
:1014B00006F4FE41A06AB1EB002F18D106F0784186
:1014C0002C20005DB1EBC06F11D106F4C001208E5D
:1014D0000122C2EB5000B1EB405F08D106F0C061C1
:1014E0003420005DC2EB5000B1EB406F01D0012011
:1014F00059E5002057E50000001002400C809F01D4
:10150000FFFFEEFE704770477047704770477047A7
:10151000704710B504460CB9012010BD94F83D0089
:1015200028B9002084F83C00204600F029F8022069
:1015300084F83D00211D206800F052FC012084F851
:10154000480000BF84F83E0001213F2001554020A3
:10155000015541200155422001554320015500BF4E
:1015600000BF012084F84400452001554620015564
:101570004720015500BF012084F83D000020CCE742
:1015800070470000014691F83D00012801D001207C
:101590007047022081F83D000868C06840F00100F3
:1015A0000B68D860184B0868984213D00868B0F1EF
:1015B000804F0FD0154B086898420BD0144B086829
:1015C000984207D0134B0868984203D0124B086822
:1015D000984210D108688068104B00EA0302062A7E
:1015E0000FD0B2F5803F0CD00868006840F00100D1
:1015F0000B68186005E00868006840F001000B689F
:1016000018600020C4E70000002C014000040040E6
:101610000008004000340140004001400700010084
:10162000704710B5044620680069C0F34000D8B187
:101630002068C068C0F34000B0B16FF002002168BC
:101640000861012020772068806900F0030018B14C
:101650002046FFF7E5FF05E0204600F002F92046AE
:1016600000F000F90020207720680069C0F38000B6
:10167000D8B12068C068C0F38000B0B16FF004003A
:1016800021680861022020772068806900F440709A
:1016900018B12046FFF7C4FF05E0204600F0E1F84E
:1016A000204600F0DFF80020207720680069C0F3B2
:1016B000C000D8B12068C068C0F3C000B0B16FF0FE
:1016C000080021680861042020772068C06900F0C4
:1016D000030018B12046FFF7A3FF05E0204600F005
:1016E000C0F8204600F0BEF800202077206800698E
:1016F000C0F30010D8B12068C068C0F30010B0B1CA
:101700006FF0100021680861082020772068C06908
:1017100000F4407018B12046FFF782FF05E0204634
:1017200000F09FF8204600F09DF800202077206808
:10173000006900F0010058B12068C06800F00100A5
:1017400030B16FF0010021680861204600F08CF88C
:1017500020680069C0F3C01058B12068C068C0F3A9
:10176000C01030B16FF08000216808612046FFF79B
:10177000CAFE20680069C0F3002058B12068C06824
:10178000C0F3C01030B16FF480702168086120464A
:10179000FFF7B8FE20680069C0F3801058B12068D8
:1017A000C068C0F3801030B16FF04000216808615C
:1017B000204600F065F820680069C0F3401058B179
:1017C0002068C068C0F3401030B16FF0200021687D
:1017D00008612046FFF798FE20680069C0F30050BA
:1017E00058B12068C068C0F3005030B16FF4801069
:1017F000216808612046FFF789FE20680069C0F370
:10180000405058B12068C068C0F3405030B16FF408
:101810000010216808612046FFF777FE2068006904
:10182000C0F3805058B12068C068C0F3805030B118
:101830006FF48000216808612046FFF768FE206889
:101840000069C0F3C05058B12068C068C0F3C050F0
:1018500030B16FF40000216808612046FFF758FEA0
:1018600010BD70477047000010B50446034920685A
:10187000884201D1FEF7B0FE10BD0000002C0140EF
:101880007047014600BF91F88000012801D1022075
:101890007047012081F8800000BF2420C1F8840037
:1018A000086802680868006820F001000B6818608A
:1018B00022F0005200204866086802602020C1F82B
:1018C000840000BF002081F8800000BF00BFDFE778
:1018D00070B504460D4600BF94F88000012801D180
:1018E000022070BD012084F8800000BF2420C4F8CD
:1018F0008400206806682068006820F001002168E4
:1019000008602068806820F0606028432168886053
:10191000204600F0C3FA206806602020C4F8840046
:1019200000BF002084F8800000BF00BFD9E770B579
:1019300004460D4600BF94F88000012801D1022022
:1019400070BD012084F8800000BF2420C4F884000A
:10195000206806682068006820F00100216808609F
:101960002068806820F06040284321688860204615
:1019700000F094FA206806602020C4F8840000BFBC
:10198000002084F8800000BF00BFD9E710B50446EE
:101990000CB9012010BDA06900B100E000BFD4F86F
:1019A000840028B9002084F88000204600F02AF83E
:1019B0002420C4F884002068006820F00100216819
:1019C0000860204600F04EFB012800D1E2E7A06A43
:1019D00010B1204600F08EFA2068406820F4904054
:1019E000216848602068806820F02A0021688860AB
:1019F0002068006840F0010021680860204600F07F
:101A0000F5FAC7E710B598B00446142113A8FEF7FD
:101A1000A5FC442102A8FEF7A1FC1D4920688842CC
:101A200033D1012002900020039002A8FEF754FF5A
:101A300008B1FEF7D2FC00BF1648006E40F48040AB
:101A4000144908660846006E00F48040019000BF0B
:101A500000BF00BF0846C06C40F00100C8640846E3
:101A6000C06C00F00100019000BF00BF4FF4C060E7
:101A700013900220149000201590169007201790C4
:101A800013A94FF09040FEF7ABFC18B010BD00005A
:101A900000380140001002402DE9F84F04460E4680
:101AA00017469946D4F8840020285ED106B117B9AC
:101AB0000120BDE8F88F00BF94F88000012801D113
:101AC0000220F6E7012084F8800000BF0020543493
:101AD000A06321202063FEF779FD8246278067807E
:101AE000543CA068B0F5805F04D1206910B900258E
:101AF000B04602E035464FF0000800BF002084F8F1
:101B0000800000BF1DE05346002280212046CDF812
:101B1000009000F069FC08B10320CAE745B9B8F8A5
:101B20000000C0F308002168886208F1020803E0A1
:101B30002878216888626D1CB4F85600401EA4F80D
:101B40005600B4F856000028DDD15346002240214B
:101B50002046CDF8009000F047FC08B10320A8E72C
:101B60002020C4F884000020A3E70220A1E700BFE2
:101B7000FEE7000000B58BB014220C4906A8FEF762
:101B8000D4FB002106A800F011FD094908601422C9
:101B90000649143101A8FEF7C8FB002101A800F096
:101BA00005FD044908600BB000BD00004433000887
:101BB000000000200400002000B587B0142102A816
:101BC000FEF7CCFB00BF1D48C06C40F004001B4971
:101BD000C8640846C06C00F00400019000BF00BF5C
:101BE00000BF0846C06C40F02000C8640846C06CC6
:101BF00000F02000019000BF00BF00BF0846C06C8D
:101C000040F00100C8640846C06C00F0010001907B
:101C100000BF00BF00224FF400510948FEF7D0FC7E
:101C20004FF4005002900120039000200490059092
:101C300002A90348FEF7D4FB07B000BD0010024024
:101C40000008004810B51848184908604FF4E13002
:101C50004860002115488160C16001610C2141612B
:101C600000218161C1610162416200200F498862E7
:101C70000846FFF78BFE08B1FEF7AFFB00210B48CB
:101C8000FFF755FE08B1FEF7A8FB00210748FFF754
:101C90001FFE08B1FEF7A1FB0448FFF7F2FD08B1F3
:101CA000FEF79BFB10BD00000038014080000020C3
:101CB00000BFFEE700BFFEE770B5164DED6805F00A
:101CC0000304144DED68C5F303156B1C022C0CD0F6
:101CD000032C09D1104DB5FBF3F50E4EF668C6F393
:101CE000062605FB06F10AE000BF0C4DB5FBF3F537
:101CF000084EF668C6F3062605FB06F100BF00BFD6
:101D0000044DED68C5F341656D1C6A00B1FBF2F04E
:101D100070BD000000100240001BB7000024F4005A
:101D200010B500BF502080F31188BFF34F8FBFF371
:101D30006F8F00BF01F0E0F918B14FF080500449F7
:101D4000086000BF002080F3118800BF10BD0000B4
:101D500004ED00E000B593B0382105A8FEF7FEFAC7
:101D600014216846FEF7FAFA0020FEF729FD01204B
:101D700005900004069002200C9003210D910E9115
:101D800055210F91022110911191129105A8FFF791
:101D900005F908B1FEF721FB0F2000900320019008
:101DA000002002900390049004216846FEF74CFF47
:101DB00008B1FEF712FB13B000BD00000348006835
:101DC00040F47000014908607047000088ED00E0B1
:101DD00010B50248FFF725FC10BD000010010020DF
:101DE00010B50268264B98420BD0B0F1804F08D056
:101DF000244B984205D0244B984202D0234B984262
:101E000003D122F070024B681A431D4B984214D044
:101E1000B0F1804F11D01B4B98420ED01A4B984214
:101E20000BD01A4B984208D0194B984205D0194B49
:101E3000984202D0184B984203D122F44072CB68EA
:101E40001A4322F080034C6943EA040202608B6863
:101E5000C3620B6883620A4B98420BD00B4B9842CB
:101E600008D00B4B984205D00A4B984202D00A4B3F
:101E7000984201D10B6903630123436110BD000047
:101E8000002C0140000400400008004000340140E4
:101E900000400140004401400048014070B5456EDB
:101EA0002DB90125A0F86A50A0F868501CE008235D
:101EB00008240568AD68C5F342610568AD686A0F1E
:101EC0000A4DAD5C15FB04F5094EB65C95FBF6F5C5
:101ED000A0F86A50054D6D5C15FB03F5044E765C69
:101EE00095FBF6F5A0F8685070BD0000843300083B
:101EF0008C33000890F8281001F0010139B1016815
:101F0000496821F40031C26A11430268516090F8B7
:101F1000281001F00201022907D10168496821F463
:101F20008031026B11430268516090F8281001F073
:101F30000401042907D10168496821F48021426B1A
:101F400011430268516090F8281001F00801082937
:101F500007D10168496821F40041826B114302688E
:101F6000516090F8281001F01001102907D1016884
:101F7000896821F48051C26B11430268916090F826
:101F8000281001F02001202907D10168896821F477
:101F90000051026C11430268916090F8281001F022
:101FA0004001402913D10168496821F48011426C35
:101FB000114302685160416CB1F5801F07D101687F
:101FC000496821F4C001826C11430268516090F8A5
:101FD000281001F08001802907D10168496821F4A7
:101FE0000021C26C114302685160704738B5044645
:101FF0000020C4F88C00FEF7E9FA05462068006866
:1020000000F0080008280CD16FF07E402B4600221B
:102010004FF400110090204600F0E6F908B10320CB
:1020200038BD2068006800F0040004280CD16FF06F
:102030007E402B4600224FF480010090204600F0A5
:10204000D3F908B10320EBE72020C4F88400C4F8DA
:1020500088000020E06600BF84F8800000BF00BF59
:10206000DEE700002DE9FE4F044600200290D4492F
:102070002068884200D100E000BF2169A0680843C1
:1020800061690843E16940EA010820680068CD49B8
:10209000084040EA0800216808602068406820F491
:1020A0004050E168084321684860D4F81880C4496A
:1020B0002068884202D0206A40EA080820688068C8
:1020C000C149084040EA0800216888602068C06A69
:1020D00020F00F00616A08432168C86200BFBB4955
:1020E0002068884216D1BA48006800F0030030B179
:1020F000012808D0022804D0032808D105E00125D2
:1021000007E0022505E0042503E0082501E010258D
:1021100000BF6FE0AF492068884216D1AC48006824
:1021200000F00C0030B1042808D0082804D00C2896
:1021300008D105E0002507E0022505E0042503E0BD
:10214000082501E0102500BF54E0A349206888421B
:1021500016D19F48006800F0300030B1102808D038
:10216000202804D0302808D105E0002507E002250A
:1021700005E0042503E0082501E0102500BF39E053
:1021800096492068884216D19148006800F0C00046
:1021900030B1402808D0802804D0C02808D105E0FC
:1021A000002507E0022505E0042503E0082501E0FD
:1021B000102500BF1EE082492068884219D184485A
:1021C000006800F4406048B1B0F5806F0AD0B0F507
:1021D000006F05D0B0F5406F08D105E0002507E09D
:1021E000022505E0042503E0082501E0102500BFD5
:1021F00000E0102500BF72492068884259D135B1EE
:10220000022D08D0042D08D0082D0DD109E0FEF7CD
:1022100055FE06460CE0724E0AE0FEF773FE0646D7
:1022200006E04FF4004603E000260120029000BFC4
:1022300000BF002E10D06B49606A31F81000B6FB69
:10224000F0F9606800EB4000484503D8606800037F
:10225000484502D201200290A6E06249606A31F846
:1022600010C06246002330461946FEF72DF84FF4A1
:10227000807C0022A0FB0C3B01FB0CB100FB021197
:102280006068400818185141CDE90001D4F804C035
:1022900062460023FEF718F80746B7F5407F05D3DE
:1022A000B7F5801F02D22068C7607DE00120029050
:1022B0007AE0E069B0F5004F3FD1092D17D2DFE891
:1022C00005F005090D160F1616161300FEF7F6FD9C
:1022D000064610E0FEF704FE06460CE0404E0AE01B
:1022E000FEF710FE064606E04FF4004603E0002627
:1022F0000120029000BF00BF86B33A49606A31F8FE
:102300001000B6FBF0F04000616800EB5100B0FB3C
:10231000F1F7102F0ED3B7F5803F0BD24FF6F070C8
:1023200007EA000AC7F342004AEA000A2068C0F838
:102330000CA039E00120029036E0092D18D2DFE828
:1023400005F005090E17101717171400FEF7B6FD54
:10235000064611E0FEF7C4FD06460DE024E0204EDF
:102360000AE0FEF7CFFD064606E04FF4004603E024
:1023700000260120029000BF00BFAEB11949606A7B
:1023800031F81000B6FBF0F0616800EB5100B0FBD3
:10239000F1F7102F06D3B7F5803F03D2B8B221680A
:1023A000C86001E0012002900120A4F86A00A4F8AE
:1023B00068000020206760670298BDE8FE8F00007B
:1023C00000800040F369FFCFFFF4FF1100380140A7
:1023D000881002400044004000480040004C00408B
:1023E0000024F4006C3300082DE9F04104460D464A
:1023F00017469846069E6AE0701C002867D0FEF7D4
:10240000E5F8A0EB0800B04200D846BB00BF00BF13
:10241000216851E8001F21F4D070226842E80001D1
:102420000029F5D100BF00BF00BF2168083151E885
:10243000001F21F001002168083141E80002002A54
:10244000F3D100BF2020C4F88400C4F8880000BF86
:10245000002084F8800000BF0320BDE8F0812068E0
:10246000006800F0040088B32068C069C0F3C02091
:1024700060B34FF400602168086200BF00BF2168AC
:1024800051E8001F21F4D070226842E800010029C1
:10249000F5D100BF00BF00BF2168083151E8001F1F
:1024A00021F001002168083141E80002002AF3D13F
:1024B00000BF202044F8840F6060A060843C00BF0F
:1024C000002084F8800000BF0320C6E7FFE72068F3
:1024D000C0692840A84201D1012000E00020B84294
:1024E0008AD00020B9E700BFFEE70000024800687C
:1024F000C0F30220704700000CED00E010B500288A
:1025000004DB0A07130E054A135406E00A07140EEB
:10251000034A00F00F031B1FD45410BD00E400E079
:1025200018ED00E002E008C8121F08C1002AFAD125
:1025300070477047002001E001C1121F002AFBD143
:102540007047000000BF4FF400510448FEF72EF81A
:102550004FF4967000F019F8F5E700000008004805
:10256000FEF746F8FFF7F6FBFFF726FBFFF76AFBDF
:10257000FFF700FB00F015F800BFFEE70146002062
:10258000842901D0CA1C1044704770B50446254602
:102590000DB1294600E00121084600F01FFC002093
:1025A00070BD10B500F048FC002010BDFEB504461B
:1025B0000D46B4F90800FFF7E1FF064602A8CDE991
:1025C0000060238A9AB22B46D4E9001000F064FD23
:1025D000012801D00020FEBD0298FCE72DE9F04162
:1025E00005460E461C4807681C480068001D00F0A0
:1025F00001FB50B91948006890F82C100120884060
:1026000017490968814316480160681C38B936B11A
:1026100012480168091D134800F02AFB1AE07C19D2
:102620000E4800684460BC4207D20C480168091D8E
:102630000D48006800F002FB0CE008480168091D25
:102640000A48006800F0FAFA09480068844201D29A
:1026500007480460BDE8F0812C000020180000202D
:102660003000002038020020200000201C00002044
:102670004800002010B5044600F006FB244800681E
:10268000401C234908602348006840B92148046081
:102690000846006801280DD100F028F90AE01E481C
:1026A000006838B91B480068C06AE16A884201D8EE
:1026B0001848046019480068401C1849086008461A
:1026C0000068606494F82C1001208840144909685F
:1026D000084313490860E16A01EB8101114A02EBEA
:1026E0008100211D00F0C4FA00F0F8FA0A480068E1
:1026F00068B108480068C06AE16A884207D24FF0B2
:10270000805009490860BFF34F8FBFF36F8F10BD32
:102710002800002018000020340000204400002081
:10272000300000205C01002004ED00E010B516E050
:1027300000F0AAFA0C48C068C468201D00F05AFADC
:102740000A480068401E0949086009480068401EA0
:102750000749086000F0C2FA204600F00BF8044870
:1027600000680028E4D110BD2402002028000020C9
:102770002400002010B50446206B00F0CDFA20465E
:1027800000F0CAFA10BD000030B54FF4406317489E
:1027900000F007042CB1C01D20F00700134C041BEF
:1027A0001B1B0246124C22600024114D6C60D01895
:1027B000083820F007000F4C206000240D4D2D68D4
:1027C0006C600C4D2D682C601146441A4C60094C0D
:1027D00024680C60084D4C682C60084D4C682C60D7
:1027E0004FF00044064D2C6030BD00004C0200202C
:1027F000540000205C0000206400002060000020E5
:102800007000002000BFFFF791FF06480068012814
:10281000F9D94FF0805004490860BFF34F8FBFF3E0
:102820006F8FF0E75C01002004ED00E02DE9F05F20
:1028300082460E4690469B460A9F0C9C4FEA8801B2
:10284000A522206BFDF783FDA8F10100216B01EBB0
:10285000800929F0070909F0070008B9012000E004
:10286000002050B900BF502080F31188BFF34F8F74
:10287000BFF36F8F00BF00BFFEE786B1002507E002
:10288000715D04F134004155705D00B902E06D1CCA
:10289000102DF5D300BF00214320015502E0002098
:1028A00084F83400072F00D30627E762E76400208E
:1028B0002065201D00F0BFF904F1180000F0BBF9FD
:1028C0002461C7F10700A06164620020606584F89C
:1028D00058005A465146484600F050F920600B987F
:1028E00008B10B980460BDE8F09F000010B500240B
:1028F00007E004EB84010F4A02EB810000F08EF93F
:10290000641C072CF5D30C4800F088F90B4800F044
:1029100085F90B4800F082F90A4800F07FF90A486F
:1029200000F07CF904480949086004480849086037
:1029300010BD00005C010020E8010020FC01002027
:102940001002002024020020380200201C00002079
:102950002000002010B50146164800E0006803681A
:102960008B42FBD30246436813448B4204D1436835
:102970004C682344436001460A464B68134404688C
:10298000A34211D10C4C03682468A34208D04B68C1
:102990000468646823444B6003681B680B6005E0AF
:1029A000054B1B680B6001E003680B60884200D098
:1029B000016010BD540000205C0000200A49096835
:1029C000096809B9012100E0002121B14FF0FF3170
:1029D000064A116006E004490968C968C868034AE4
:1029E00041681160704700001C0000204800002072
:1029F0000E480068401C08B9012000E0002050B9D2
:102A000000BF502080F31188BFF34F8FBFF36F8F4B
:102A100000BF00BFFEE700BF502080F31188BFF366
:102A20004F8FBFF36F8F00BF00BFFEE77400002021
:102A30002DE9F04104464FF0000800F041FA494802
:102A4000006808B9FFF7A0FE47480068204000284A
:102A500070D1D4B1083404F00700B0B104F007001D
:102A6000C0F10800044404F0070008B9012000E0A8
:102A7000002050B900BF502080F31188BFF34F8F62
:102A8000BFF36F8F00BF00BFFEE7002C52D0374866
:102A9000006884424ED8364E3046056801E02E4626
:102AA0002D686868A04202D228680028F7D12D4816
:102AB000006885423ED0306800F108082868306020
:102AC0006868001B102819D92F1907F0070008B9EA
:102AD000012000E0002050B900BF502080F3118891
:102AE000BFF34F8FBFF36F8F00BF00BFFEE7686873
:102AF000001B78606C603846FFF72CFF1B49686844
:102B00000968081A194908600846006819490968DF
:102B1000884203D21548006816490860124968685F
:102B20000968084368600020286013480068401C5A
:102B30001149086000F084FB08F0070008B9012083
:102B400000E0002050B900BF502080F31188BFF38F
:102B50004F8FBFF36F8F00BF00BFFEE74046BDE859
:102B6000F08100005C000020700000206000002068
:102B7000540000206400002068000020001F4FF077
:102B800080730360001F21F001030360001F054BE9
:102B9000036014380260001F6FF0020303602038E6
:102BA00070470000F129000888B0202208A168467B
:102BB000FDF7BBFB00BF4FF6FF73202269460C48B0
:102BC000FEF76AFF4FF47A70FFF7DFFCF3E70000CF
:102BD0004672656552544F532075736172745F7409
:102BE000687265616420746573742E2E2E0D0A0060
:102BF0008000002001460A69D1E901309860D1E9DE
:102C0000010358605068884201D1886850600020F4
:102C100008611068401E10601068704700F10801DC
:102C200041604FF0FF31816000F10801C160016136
:102C300000210160704700210161704710B5024614
:102C40000B685C1C0CB9106907E002F1080000E099
:102C50004068446824689C42FAD944684C604C68D7
:102C6000A160886041600A611468641C146010BD32
:102C700042684A6093688B6093685960916008610C
:102C800003685B1C0360704700BF502080F311880D
:102C9000BFF34F8FBFF36F8F00BF0E480068401C1B
:102CA0000C49086008460068012812D10A480068EB
:102CB000C0B208B9012000E0002050B900BF502088
:102CC00080F31188BFF34F8FBFF36F8F00BF00BF3A
:102CD000FEE770477400002004ED00E00D48006836
:102CE00050B900BF502080F31188BFF34F8FBFF35E
:102CF0006F8F00BF00BFFEE706480068401E054911
:102D000008600846006820B9002080F3118800BFE1
:102D100000BF70477400002070B506463546002E8F
:102D200044D0083D2C46224960680968084008B133
:102D3000012000E0002050B900BF502080F311882E
:102D4000BFF34F8FBFF36F8F00BF00BFFEE7206858
:102D500008B9012000E0002050B900BF502080F3E6
:102D60001188BFF34F8FBFF36F8F00BF00BFFEE727
:102D70000F49606809680840C0B12068B0B90C49C3
:102D8000606809688843606000F09AF809496068E3
:102D900009680844074908602046FFF7DBFD06483C
:102DA0000068401C0449086000F04AFA70BD000049
:102DB00070000020600000206C00002006480068C1
:102DC0004FF47A71B0FBF1F0401E4FF0E021486102
:102DD00007200861704700001400002070B5044609
:102DE0000025D4B11248006808B9012000E0002095
:102DF00050B900BF502080F31188BFF34F8FBFF34D
:102E00006F8F00BF00BFFEE700F05AF80021204698
:102E1000FFF7E4FB00F014FA05463DB94FF080508F
:102E200004490860BFF34F8FBFF36F8F70BD000080
:102E30005000002004ED00E01CB51A4800210B46AC
:102E40008022CDE9001018A1194800F025F90446A8
:102E5000012C15D100BF502080F31188BFF34F8F94
:102E6000BFF36F8F00BF4FF0FF30124908600120A1
:102E70001149086000201149086000F06FF810E067
:102E8000601C08B1012000E0002050B900BF5020B4
:102E900080F31188BFF34F8FBFF36F8F00BF00BF68
:102EA000FEE71CBD4C00002049444C4500000000DA
:102EB0000528000848000020340000202C000020D5
:102EC00002480068401C014908607047500000201B
:102ED0001D48006818B101201C49086032E000203C
:102EE0001A4908601A480068B0FA80F0C0F11F0162
:102EF00001EB8100174A52F8200008B1012000E0E0
:102F0000002050B900BF502080F31188BFF34F8FCD
:102F1000BFF36F8F00BF00BFFEE701EB81020D4BD7
:102F200003EB820042685268426000F10802436885
:102F3000934202D14268526842604268D268064BAE
:102F40001A6000BF70470000500000203C000020C5
:102F5000300000205C010020180000201CB547480C
:102F600000684749884201D0012000E0002050B9A4
:102F700000BF502080F31188BFF34F8FBFF36F8FD6
:102F800000BF00BFFEE73D4800683D49491E88423A
:102F900001D0012000E0002050B900BF502080F394
:102FA0001188BFF34F8FBFF36F8F00BF00BFFEE7E5
:102FB0003449084600780190FF200A461070084600
:102FC000007800909DF8000000F0F0009DF80020CF
:102FD000904201D1012000E0002050B900BF5020F4
:102FE00080F31188BFF34F8FBFF36F8F00BF00BF17
:102FF000FEE79DF8000000F05000234A1070072003
:10300000224A106009E021480068401E1F4A1060F3
:103010009DF800004006000E00909DF8000000F0B2
:1030200080008028EFD0194800680002174A10601D
:103030001046008800F4E0601060124A0198107099
:103040000E482030006840F470000C4920310860C0
:103050000846006840F070400860FFF7AFFE0020AF
:103060000B490860FDF7E2F80A48006840F040406C
:1030700008490860FDF7CAF800201CBD00ED00E01B
:1030800071C20F4100E400E0780000207C000020C5
:103090007400002034EF00E02DE9FF4F85B080463A
:1030A00089461746DDE912ABB800FFF7C1FC0646BA
:1030B00056B15C20FFF7BCFC04460CB1266304E06B
:1030C0003046FFF729FE00E000247CB10020CDE966
:1030D00000ABCDE902403A4649464046089BFFF71F
:1030E000A5FB2046FFF7C6FA012501E04FF0FF35AA
:1030F000284609B0BDE8F08F2DE9F0414FF00008F7
:103100004448006800287CD143480068451C424878
:10311000056015BB41480068006808B9012000E05F
:10312000002050B900BF502080F31188BFF34F8FAB
:10313000BFF36F8F00BF00BFFEE73848076838480D
:103140000068364908603648076036480068401C09
:1031500034490860FFF732FC00BF334800688542FD
:103160003CD300BF2D480068006808B9012000E08A
:10317000002020B14FF0FF302B4908602DE0274898
:103180000068C068C4686668B54202D22648066016
:1031900023E0201DFFF72EFDA06A18B104F11800EE
:1031A000FFF728FD94F82C10012088401F4909687A
:1031B00008431E490860E16A01EB81011C4A02EBE9
:1031C0008100211DFFF754FD1A49E06A0968C96AA8
:1031D0008842C7D34FF00108C4E700BF1548006814
:1031E000C06A00EB8000124951F82000012801D983
:1031F0004FF001081048006808B14FF0010805E0E1
:10320000FFE70E480068401C0C4908604046BDE8D6
:10321000F0810000500000202C0000201C00002045
:103220002000002040000020480000203000002046
:103230005C010020180000203C0000203800002025
:1032400070B5002400263648006850B900BF5020F1
:1032500080F31188BFF34F8FBFF36F8F00BF00BFA4
:10326000FEE7FFF711FD2E480068401E2C4908605C
:103270000846006800284FD12A48006800284BD033
:1032800024E02948C068C46804F11800FFF7B2FCC4
:10329000201DFFF7AFFC94F82C1001208840234933
:1032A0000968084321490860E16A01EB8101204A6D
:1032B00002EB8100211DFFF7DBFC1E49E06A096873
:1032C000C96A884202D301201B4908601648006879
:1032D00008B9012000E000200028D2D00CB1FFF78F
:1032E0006DFB1648056865B100BFFFF705FF10B11B
:1032F0000120114908606D1E002DF6D100200F49F4
:1033000008600D48006838B1012630070C49086094
:10331000BFF34F8FBFF36F8FFFF7E0FC304670BDF8
:103320005000002028000020100200203000002063
:103330005C010020180000203C0000203800002024
:1033400004ED00E0B4330008A92B000800000000E1
:103350000000000080000000AC3300084525000894
:1033600000000000000000008000000001000200DA
:103370000400060008000A000C00100020004000B5
:10338000800000010101010307010000080402049C
:103390000801010100000000000000000102030418
:1033A0000607080900000000010203047468726542
:1033B000616431007468726561643200DC33000856
:1033C0000000002080000000242500085C34000874
:1033D00080000020D011000034250008000000000B
:1033E00000000000000000001000000001000000CC
:1033F0000024F400000000000000000000000000B5
:1034000000000000000000000000000000000000BC
:1034100000000000000000000000000000000000AC
:10342000000000000000000000000000000000009C
:10343000000000000000000000000000000000008C
:10344000000000000000000000000000000000007C
:0C345000AAAAAAAA0000000000000000C8
:04000005080001D915
:00000001FF
