:020000040800F2
:1000000018050020ED0100088725000829240008B4
:1000100085250008150A0008CD2A00080000000008
:100020000000000000000000000000008B25000818
:10003000170A000800000000892500088D25000827
:10004000070200080702000807020008070200086C
:10005000070200080702000807020008070200085C
:10006000070200080702000807020008070200084C
:10007000070200080702000807020008070200083C
:10008000070200080702000807020008070200082C
:10009000070200080702000807020008070200081C
:1000A000070200080702000807020008070200080C
:1000B00007020008070200080702000807020008FC
:1000C00007020008070200080702000807020008EC
:1000D00007020008070200080702000807020008DC
:1000E00007020008070200080702000807020008CC
:1000F00007020008070200080702000807020008BC
:1001000007020008070200080702000807020008AB
:10011000070200080702000807020008070200089B
:10012000070200080702000807020008070200088B
:10013000070200080702000807020008070200087B
:10014000070200080702000807020008070200086B
:10015000070200080702000807020008070200085B
:10016000070200080702000807020008070200084B
:10017000070200080702000807020008070200083B
:10018000070200080702000807020008070200082B
:10019000070200080000000007020008070200082C
:1001A000070200080702000807020008070200080B
:1001B00007020008070200080702000807020008FB
:1001C00007020008070200080702000807020008EB
:1001D0000702000807020008DFF80CD000F01CFB43
:1001E00000480047F12A000818050020064880470B
:1001F00006480047FEE7FEE7FEE7FEE7FEE7FEE70C
:10020000FEE7FEE7FEE7FEE701260008D901000849
:100210002DE9F05F0546002092469B46884606463B
:10022000814640241BE0284641464746224600F0CE
:1002300009F953465A46C01A914110D3114618463F
:10024000224600F0F0F82D1A67EB01084F462246CF
:100250000120002100F0E7F817EB00094E41201EB5
:10026000A4F10104DFDC484631462A464346BDE896
:10027000F09FD2B201E000F8012B491EFBD270477B
:100280000022F6E710B513460A4604461946FFF762
:10029000F0FF204610BD2DE9FE4F81EA030404F073
:1002A000004421F0004100944FF0000B23F0004384
:1002B00050EA01045ED052EA03045BD0C3F30A544F
:1002C000C1F30A552C44A4F2F3340194A0FB025468
:1002D000C1F3130141F48011C3F3130343F48013FA
:1002E00001FB024400FB034E840A970A44EA81544E
:1002F00047EA8357A4FB076802958D0A05FB07852B
:100300004FEA932C04FB0C542705029D4FEA065834
:1003100047EA1637B5EB08056EEB070C870E920E11
:1003200047EA811742EA8312A7FB0201B6EB0B01F1
:1003300064EB00042B0D43EA0C335E1844EB1C50B5
:10034000DA465146E7FB0201C5F313044FEA0B33CB
:1003500043EA14534FEA0432019C43EA0603A4F132
:100360000C040294009CCDE900B400F0C1F803B085
:10037000BDE8F08F00200146F9E70EB5C10F80EA15
:10038000E0700844CA07002140F233438DE80E00B4
:100390000A460B4600F0ACF803B000BD00F0004286
:1003A00030F000400AD0C10D01F56071C0F31600B5
:1003B00042EA0151C208400711437047002001463C
:1003C000704701F0004330B421F0004150EA0102CF
:1003D00006D00A0DA2F56072C1F31301002A02DCF7
:1003E00030BC00207047440F44EAC104C100E0184B
:1003F00030BC00EBC25000F035B830B50B460146BA
:1004000000202022012409E021FA02F59D4205D3B3
:1004100003FA02F5491B04FA02F52844151EA2F15D
:100420000102F1DC30BD202A04DB203A00FA02F19F
:10043000002070479140C2F1200320FA03F31943D2
:1004400090407047202A04DB203A21FA02F0002174
:10045000704721FA02F3D040C2F1200291400843D4
:10046000194670470029A8BF7047401C490008BFC3
:1004700020F00100704710B4B0FA80FC00FA0CF0D4
:1004800050EA010404BF10BC704749B1CCF120040C
:1004900021FA04F411FA0CF118BF01212143084399
:1004A000A3EB0C01CB1D4FEA00614FEA102042BFC5
:1004B000002010BC704700EBC35010440029A4BFBB
:1004C00010BC7047401C490008BF20F0010010BC60
:1004D000704710B5141E73F1000408DA401C41F196
:1004E000000192185B411A4301D120F0010010BDB8
:1004F0002DE9F04D92469B4611B1B1FA81F202E02E
:10050000B0FA80F220329046FFF78DFF04460F4686
:1005100040EA0A0041EA0B0153465A46084313D009
:10052000114653EA010019D0C8F140025046FFF7C6
:1005300089FF05460E46504659464246FFF773FF6F
:10054000084305D0012004E020463946BDE8F08D7F
:100550000020054346EAE0762C4337430A986305BA
:10056000E40AA0EB08000022FD0A44EA47540A30DE
:1005700002D500200146E9E7010510196941DDE9CE
:10058000084500196941BDE8F04DA2E72DE9FE4F8D
:10059000804681EA0300C00F0C46009021F0004124
:1005A00023F00045B8EB0200A94105D240462146A0
:1005B00090461C460B46024623F00040104347D0AD
:1005C000270DC7F30A00C3F30A510290401A0190A5
:1005D00040286BDAC3F3130040F4801B0098924666
:1005E00020B10023D2EB030A63EB0B0B01985946B1
:1005F000C0F140025046FFF716FF06460D46504632
:100600005946019A00F01AF910EB080061410024E4
:1006100087EA115284EAE7731A4340D0009A62B322
:10062000019A012A4FEA075215DC001B61EB020117
:100630004FF0004202EA0752CDE90042001C41F5AA
:10064000801132462B46FFF753FF03B0BDE8F08F11
:1006500040462146F9E7001B61EB0201001C41F511
:10066000801300185B412018A2F5001747EB030127
:1006700040EAD570B6196D4111E06D084FEA3606B3
:1006800045EAC0754FEA0752001B61EB0201001CEE
:1006900041F5801149084FEA3000001951413246B6
:1006A0002B4603B0BDE8F04FFFF713BF00980122BF
:1006B00040000023D0EB020263EBE0730098214678
:1006C0004FEAE074B8EB000061EB0401E9E783F066
:1006D00000435BE781F0004158E72DE9F04D81EAE6
:1006E000030404F0004B21F0004514464FF0000ACB
:1006F00023F0004150EA050220D054EA01021DD047
:10070000C5F30A570246C5F31303C1F31300C1F33F
:100710000A5640F4801543F48013A7EB0608101B1B
:10072000D64608F2FD3873EB050002D308F1010844
:1007300001E092185B41B8F1000F03DA0020014696
:10074000BDE8F08D00204FF48011064684460EE08F
:10075000171B73EB050705D3121B63EB0503064359
:100760004CEA010C49084FEA300092185B4150EA0C
:100770000107EDD152EA030012D082EA040083EAB5
:100780000501084305D0101BAB4106D2012200230E
:1007900006E000224FF0004302E06FF00102531028
:1007A0001AEB06004CEB085110EB0A0041EB0B0171
:1007B000BDE8F04DFFF78DBEC1F30A52C1F313013E
:1007C00040F2FF3341F480119A4202DA00200146E0
:1007D000704740F233439A42A2F2334202DC524263
:1007E000FFF730BEFFF71FBE30B5041E71F10004E5
:1007F00004DB4FF00044404264EB0101141E73F12E
:10080000000405DB1C464FF00043524263EB040337
:10081000994208BF904230BD064C074D06E0E068A3
:1008200040F0010394E8070098471034AC42F6D337
:10083000FFF7D6FCC4340008E4340008202A06DBA5
:10084000CB17203A41FA02F043EAE07306E041FA9E
:1008500002F3D040C2F1200291400843194670478C
:1008600070B50446206882688368DB0843EA920218
:10087000D20757D0C368664A13F0007F05D0637F64
:10088000012B04BF237F012B04D0022910D10221A8
:1008900008261DE04FF0FF31036813F0400F04D12C
:1008A000214B01319942F7D332E04021016001210F
:1008B000836813F0040F08D0836813F0020F01BFA0
:1008C0008368134043F010038360042601290FD08E
:1008D000836813F0080F08D0836813F0020F01BF7C
:1008E00083681A4042F020028260032908BF0C2668
:1008F00000F060FE054620688068304212D000F0AB
:1009000059FE401B0628F6D3206880683042F2D09A
:10091000E06D40F01000E065206E40F001002066C0
:10092000012070BD002070BD000040A3B0B504469A
:10093000002021688B688A6813F0020F2DD112F015
:10094000010208BFB0BD886800F00D0001281BD16E
:1009500088682F4A104040F0020088600320086039
:1009600000F028FE05462068806810F0010F04BFE3
:100970000020B0BD00F01EFE401B0328F3D320680A
:10098000806810F0010FEED0E06D40F01000E065DF
:10099000206E40F0010020660120B0BD70B5044615
:1009A0002068816811F0010F30D18168184E06F17E
:1009B0007F02114209D0E06D40F01000E065206E2A
:1009C00040F001002066012070BD8168314041F097
:1009D0000101816000F0EEFD05462068016811F01C
:1009E000010F13D1816811F0010F01BF81683140FF
:1009F00041F00101816000F0DDFD401B0328ECD3D4
:100A00002068006810F0010FE7D1D4E7002070BD26
:100A1000C0FFFF7FFEE77047EFF3108072B6FEE77E
:100A2000BCB5044600200D46019094F858000128FA
:100A300001D1022036E0012084F858002046FFF75B
:100A400075FFE16D10B141F0100127E041F2021095
:100A500021EA000040F00200E06520688168124A47
:100A6000114005F08042114341F0004181608168EE
:100A7000B1F1FF3F0DDC0199013101910B49019A60
:100A80008A42F4D3E06D20F0120040F01001012002
:100A900004E0E16D012060F301010020E165002127
:100AA00084F8581002B0B0BDC0FFFF3F02DE040062
:100AB00090F85820012A01D102217DE0BCB5012225
:100AC000002480F858200194009403683B4D05F5FC
:100AD0007E72934205F1F80208BF05F59F64B3F1F9
:100AE000A04F08BF144654B3D4F808C09C6844EA29
:100AF0000C04640723D405F53E749342A44618BF42
:100B000005F5DF6CB3F1A04F08BFA446D1F800E0B3
:100B1000DCF80820BEF1000F22F4604215D04C68CA
:100B2000224390F8384042EA4432CCF8082043F49B
:100B30008072E04B9A4212D155F8F82B16E0C16D45
:100B400041F02001C165012131E0CCF8082043F4D7
:100B50008071D84A914217D155F8F81B1BE0D5F89F
:100B60000024D5F8003505F5BF651A43AB681A4374
:100B7000D2071BD1DCF80820896840F61F739A431E
:100B800042EA0E0211430FE0D5F80014D5F8002513
:100B900005F5BF651143AA681143C90706D1DCF802
:100BA000081040F61F729143CCF808100021002273
:100BB00080F85820BDE8BC40C8B27047080000501B
:100BC0002DE9FC41074600200D46019097F858009A
:100BD000012801D102235FE1012087F8580038681D
:100BE000816811F0040F27D1D5E900121F2602F009
:100BF0001F03C2F3012200EB82029E40146BC1F37B
:100C00008461994024EA0606314311638168826851
:100C1000A34CD20842EA9101C90740F09980AA6822
:100C20002968B2F1004F0DD1002201F0FEFB3868B7
:100C3000416941F000410BE0F86D012340F02000D4
:100C4000F86526E101F0F1FB3868416921F00041C7
:100C50004161D5E90412C36804294CD1016E026ECA
:100C60002968C1F3846391FAA1F6214218BFB6FA4C
:100C700086F3C2F384629A4201BF016E21F0004103
:100C800001662968426EC1F3846291FAA1F32142A0
:100C900018BFB3FA83F2436EC3F38463934201BF78
:100CA000416E21F0004141662968826EC1F3846281
:100CB00091FAA1F3214218BFB3FA83F2836EC3F312
:100CC0008463934201BF816E21F0004181662968EF
:100CD000C26EC1F3846291FAA1F3214218BFB3FA44
:100CE00083F2C16EC1F38461914202BFC16E21F0F3
:100CF0000041C1662CE000F16006D5F800C0A046B6
:100D000056F821E0674C0EEA040E062404EA930329
:100D100044469A400CF0F8431A4342EA0E0242F06D
:100D2000004246F821202969AA6956F8213023F0AB
:100D300080731A4346F821202A69297F56F8223009
:100D4000012923F0007308BF43F0007346F82230F6
:100D5000816811F0010F38D12968EA68524B9A4234
:100D60002BD1D0F8B03011EA04024FF0806642EA8D
:100D70000302C0F8B02091FAA1F2B2FA82F208BFE1
:100D80008A0E511C06EB8262012601F01E0302F05E
:100D9000F84201F01F010A2B06FA01F628BF42F0C3
:100DA00000720A2B28BF0A39324301EB410142EAA3
:100DB0000151AA6801F039FB07E03C4A1143D0F821
:100DC000B02061401140C0F8B0102868384908428E
:100DD0005ED03A68C14D05F5C06E05F50071AA42B6
:100DE000734608BF0B46B2F1A04F08BF0B469E6882
:100DF000314CA04206F0E07C1CBF304CA04221D117
:100E0000300245D42E48824218BFB2F1A04F3FD1E4
:100E1000986820F0E07040EA0C0040F40000986010
:100E2000AB480068AB49B0FBF1F00C2100EB40008F
:100E300001EB800001E00198013801900198002841
:100E4000F9D125E0F4010BD41E4CA04208D19868DA
:100E500020F0E07040EA0C0040F08070986017E0ED
:100E600073024FF0000314D4174CA04211D1B2F119
:100E7000A04F05D0994882420AD0AA4218BF7146B5
:100E8000886820F0E07040EA0C0040F48000886040
:100E90000023002087F85800D8B202B0BDE8F081E6
:100EA000FFFF070000F0FF0300007F400000F8FF95
:100EB0000000088000010050000021C31000C09015
:100EC00000060050000052C7000084CB0068006C90
:100ED00070470000BCB504460020002C019039D0BA
:100EE000E06D30B9204600F0FFF80020206684F85D
:100EF000580021688A68754812F0005F1EBF8A6832
:100F000002408A608A6812F0805F15D18A6800F119
:100F10008050104040F0805088606D4800686D4AF5
:100F2000B0FBF2F0022202EB400001E00198013830
:100F3000019001980028F9D1886810F0805F0BD1EA
:100F4000E06D40F01000E065206E40F0010020668A
:100F5000012002E00120B7E000208A68C2F380028D
:100F6000E36D03F010031A43E26D03D042F0100169
:100F70000120A8E022F4817242F00202E2658A6850
:100F800012F0010F27D1544DC14B41F480729A42A7
:100F900003D12A4652F8F83B06E0D5F80024D5F8EC
:100FA0000035134305F5BF6292681A43D20712D188
:100FB00005F1F80205F53E7391421A4618BF05F592
:100FC000DF62B1F1A04F08BF1A466368956825F447
:100FD0007C152B439360627FE36B43EA4232D4E992
:100FE00002352A431A4394F8243042EA0342012B83
:100FF00001BFA36A3A4D05EB43431A43E36A23B1A9
:1010000003F478731A43236B1A43CB68354D2B4096
:101010001A43CA600A69636B22F040621A430A618C
:101020008A688B68DB0843EA9202D2073DD194F8C4
:10103000383094F81CC0CD6844F202025B0025EA07
:10104000020243EA8C331A43CA6022690B694AB12F
:1010500043F4803343F6FF750B61D1F8C030AB43E6
:101060001A4307E023F4803243F6FF730A61D1F894
:10107000C0209A43C1F8C02094F840300A69012B7F
:1010800010D140F2FD7322EA030CD4E91135D4E902
:10109000132E43EA0C032B431A4342EA0E0242F09A
:1010A000010201E022F001020A6163690A6B22F089
:1010B0000F02012B02BF236A013B1A430A6301227C
:1010C000E16D62F30101E16502B0B0BDC0FFFF5FF9
:1010D00010000020400D03000800005000010050E7
:1010E0000000FEFF0740F0FF10B59CB0044617A8B3
:1010F0001421FFF7C5F802A85421FFF7C1F82068B2
:10110000B0F1A04F29D14FF4004002904FF00050B1
:10111000139002A800F03CFB08B1FFF77DFC1048DB
:10112000016841F400510160016801F4005101912E
:101130000199016841F00101016017A9006800F000
:1011400001000190019801201790032018900020C1
:1011500019904FF0904000F063F91CB010BD00BF33
:101160004C1002402DE9F04704460D462068914E90
:1011700006F50072B042114618BF06F5C061B0F125
:10118000A04F08BF1146D1F80880A269082A02D1F1
:10119000B246082710E008F01F02092A6AD8012386
:1011A00003FA02F240F221231A4263D0C06810F021
:1011B000010F63D1B246042700F0FCF981466E1C92
:1011C00020680168394215D1002EF9D000F0F2F9FB
:1011D0001DB1A0EB0900A842F2D92068006838428E
:1011E000EED1E06D40F00400E065002084F8580086
:1011F000032048E0E16D41F40071E165C16811F43C
:10120000406F11D1617F79B9016811F0080F0BD0DF
:10121000E16D21F48071E165E16D11F4805F02BF41
:10122000E16D41F00101E1650AF580610246884205
:10123000014608BF0AF54071504508BF4FF0A04174
:1012400081420CD008F01F02092A1FD8012303FA9B
:1012500002F240F221231A42024608BF0A46D16830
:10126000082F01D1082102E0490401D40C210160BA
:10127000002008E0886810F4604F9BD0E06D40F0DB
:101280002000E0650120C0B2BDE8F0870A46E6E72D
:101290000001005070B504462068464D05F5007108
:1012A000A8420A4618BF05F5C062B0F1A04F08BFBA
:1012B0000A469668806810F0040F03D194F858002D
:1012C000012801D1022070BD012084F85800204679
:1012D000FFF764FB18B1002184F8581070BDE06D71
:1012E00040F6017206F01F01904340F48070E06503
:1012F0002068304A904205D02F4A904207D105F528
:10130000407201E04FF0A04209B1824203D1E26D88
:1013100022F48012E265E36D002213F4805F4FF047
:1013200000031CBF236E23F0060323661C23036007
:1013300084F858201F4A904205D01F4A90420FD18E
:1013400005F5407201E04FF0A042824208D0092921
:1013500017D8012202FA01F140F22122114210D0E5
:10136000C16811F0007F1FBFE16D012262F30D31F2
:10137000E1658168114A114041F00401816000205B
:1013800070BDE16D41F48011E1650A49884205D0E4
:101390000949884208BF05F5407001E04FF0A040C0
:1013A000C06810F0007F1FBFE06D012161F30D30B8
:1013B000E065E4E70001005000050050C0FFFF7F3A
:1013C00010B5044694F85800012804BF022010BD4F
:1013D0000120032184F858002046FFF741FA58B94C
:1013E0002046FFF7A3FA38B9E06D41F201118843B6
:1013F00040F00100E0650020002184F8581010BD85
:10140000B0B5044600F0D6F805468648611C406831
:1014100018BF044400F0CEF8401BA042FAD3B0BD80
:101420002DE9FC4F5D4A06274FF0000A4FF0010CF2
:101430004FF003094FF0000B0026904200F13842B4
:101440004FEAB22308BF0527052B38BF4FEAB22762
:1014500000970A6832FA06F308BFBDE8FC8F0CFA61
:1014600006F312EA030E00F092804C6804F00302C7
:10147000551E012D16D8D0F8088009FA0BF528EA78
:101480000508CD6805FA0BF545EA08058560C4F343
:10149000001505FA06F8456825EA030343EA080340
:1014A000436001E0032A1DD0C56809FA0BF3022A44
:1014B00025EA03038D6805FA0BF543EA0503C360CB
:1014C00010D1374C0AF01C020F23934004EA560453
:1014D0000444256A25EA03030D6905FA02F21A435A
:1014E00022624C68056804F0030209FA0BF314F455
:1014F000403F02FA0BF225EA030342EA03020260CC
:1015000045D0284A0AF00C050F2707FA05FC136896
:1015100043F001031360126802F00102019226F009
:101520000302214C019B214B224452F80380009F6F
:1015300028EA0C0C07FA05F545EA0C054FF0010CFA
:10154000D550A2684B6822EA0E0213F4801F18BF20
:1015500042EA0E0213F4001FA260154A156825EA3C
:101560000E0518BF45EA0E0513F4003F15606268CA
:1015700022EA0E0218BF42EA0E0213F4803F6260B4
:10158000226822EA0E0218BF42EA0E0222600AF125
:10159000040A0BF1020B01365BE700BF00140048A0
:1015A000FCFFFF7F601002400004014008FCFFFFC9
:1015B0000C0401401B488068704700BF194841680F
:1015C000826811448160704780B5032000F072F892
:1015D000032000F007F808B1012080BD00F024F8D6
:1015E000002080BD70B50F4E04467068B0B14FF456
:1015F0007A71B1FBF0F060490968B1FBF0F000F0DE
:10160000AFFD01250F2C0AD848B94FF0FF30214615
:101610000022002500F022F8346000E00125284671
:1016200070BD00BF0400002082B00B48816841F00B
:1016300001018160816801F0010101910199016856
:1016400041F080510160006800F0805000900098E7
:1016500002B000F095B800BF58100240B0B5144C6D
:101660001A4D00F00F03B0F1FF3FA3F104032B4428
:1016700003F10C03C8BF03192868C0F30220051D3D
:10168000C41E80F00700072D4FF0010538BF00246D
:10169000042828BF042005FA00F00138084005FAA4
:1016A00004F10F31A0401140084300011870B0BD93
:1016B00000E400E005494FF6FF030A681A4060F3B2
:1016C0000A22034810430860704700BF0CED00E099
:1016D0000000FA05D54910B30A68B0F5007F43D180
:1016E000D1F8800040F48070C1F8800002F4C0603E
:1016F000B0F5806F3CD10868012262F34A203222A3
:1017000008601D48006850431C4AB0FBF2F0C0431B
:101710004A6918B3013012F48062F9D11EE00868FA
:10172000D1F8802000F4C06022F48072B0F5806FA0
:10173000C1F880201CD10868012262F34A203222BD
:1017400008600D48006850430C4AB0FBF2F0C043FB
:101750004A6918B1013012F48062F9D1486910F475
:10176000806F05D0032004E0022060F34A220A6063
:101770000020C0B2704700BF1000002040420F00A0
:101780000248016841F480410160704708700040E0
:101790002DE9FC410446A078A34E000701D40020A7
:1017A00060E0F06CA14F10F0805F0BD1F06C4FF057
:1017B000010840F08050F064F06C00F0805001901F
:1017C000019801E04FF00008386840F480703860FC
:1017D000FFF7F0FE0546386810F4807F06D1FFF76A
:1017E000E9FE401B0228F6D9032034E0D6F8840035
:1017F00010F4407026D0216D884211D0D6F88400B4
:10180000D6F8841041F4803120F44070C6F884107A
:10181000D6F8841021F48031C6F88410C6F884000C
:10182000C0070FD0FFF7C6FE054641F28837D6F84D
:10183000840010F0020F05D1FFF7BCFE401BB84238
:10184000F5D9D1E7D6F88400216D20F44070084323
:10185000C6F884000020B8F1010F02BFF16C21F03E
:101860008051F164216811F0010F05D0F26F6368B7
:1018700022F003021A43F2678A0705D5F26FA368C4
:1018800022F00C021A43F2674A0705D5F26FE368AB
:1018900022F030021A43F2670A0705D5F26F236976
:1018A00022F0C0021A43F267CA0605D5F26F6369D7
:1018B00022F440721A43F2678A0605D5F26FA369D3
:1018C00022F440621A43F2674A0605D5F26FE369D3
:1018D00022F440521A43F2670A0605D5F26F236AD2
:1018E00022F440421A43F267CA0505D5F26F636AD3
:1018F00022F440321A43F2678A0307D5D6F89020C3
:10190000A36A22F003021A43C6F890208A0505D57F
:10191000F26FE36A22F440221A43F2674A050DD5BA
:10192000F26F236B22F44012B3F5801F42EA0302E8
:10193000F26702BF326842F4801232600A050DD5A8
:10194000F26F636B22F44002B3F5800F42EA0302A8
:10195000F26702BF326842F480123260CA040DD5C9
:10196000F26FA36B22F04072B3F1807F42EA030270
:10197000F26702BF326842F4801232608A040DD5E9
:10198000F26FE36B22F04062B3F1006F42EA0302B0
:10199000F26702BF326842F4801232604A040DD509
:1019A000F26F236C22F04062B3F1006F42EA03024F
:1019B000F26702BF326842F4801232600A040DD529
:1019C000F26F636C22F04052B3F1805F42EA03028F
:1019D000F26702BF326842F480323260CA030DD52A
:1019E000F26FA36C22F04042B3F1804F42EA03024F
:1019F000F26702BF326842F48032326049030FD589
:101A0000D6F89010E26C21F44011B2F5001F41EAC3
:101A10000201C6F8901002BF316841F480113160B4
:101A2000C0B202B0BDE8F0810C100240007000406E
:101A30002DE9F04781468A46B9F1000F52D0714F27
:101A40004FF48050395801F00F0151450AD23958EE
:101A500021F00F0141EA0A013950385800F00F0017
:101A600050453FD1D9F8000010F0010F02D14FF0DE
:101A7000000864E0D9F80410634E03292DD13968B9
:101A800011F0007F2ED0F968FA68FB68FD68022427
:101A9000C5F3416501F0030104EB4505844C0329BE
:101AA00004BF41F60034C0F2B704C2F30311C3F31C
:101AB00006220131B4FBF1F15143B1FBF5F1B14222
:101AC00008D9B96811F0F00F16D0800702D5D9F8FF
:101AD000080088B14FF0000815E03868022905D1E8
:101AE000800305D40120C0B2BDE8F0874005F9D5D8
:101AF00000F0ACF8B042EDD9B86808214FF080088A
:101B000061F30710B860B868D9F8041020F003003A
:101B10000843B860FFF74EFD064641F28834B868C6
:101B2000D9F8041000F00C00B0EB810F05D0FFF7DE
:101B300041FD801BA042F2D93AE0D9F800008107AC
:101B400006D4B8F1800F17D1B96821F0F00112E086
:101B5000410742BFB96841F4E061B960010741BF84
:101B6000B968072262F30D21B960B968D9F8082075
:101B700021F0F0011143B9604FF48054395901F05C
:101B80000F01514518D9385920F00F0040EA0A00DA
:101B90003851FFF70FFD064641F28835385900F0FD
:101BA0000F00504506D0FFF705FD801BA842F5D970
:101BB000032098E7D9F80000410706D5B968D9F89D
:101BC0000C2021F4E0611143B960000707D5B86823
:101BD000D9F8101020F4605040EAC100B86000F05D
:101BE00035F8B968094AC1F30311515C01F01F01CE
:101BF000C8401449086006480068BDE8F047FFF790
:101C0000F1BC00BF0010024000B4C40492340008CC
:101C1000040000200B480C4A006824490968C1F3FD
:101C20000221515C01F01F01C84070470548064A77
:101C300000681E490968C1F3C221515C01F01F010F
:101C4000C840704710000020A234000817490868F7
:101C5000174A00F00C000428104608BF70470868B7
:101C600000F00C031348082B1ED00B6803F00C0384
:101C70000C2B1CBF002070474B6803F00303032BA1
:101C800008BF02464868C0F303100130B2FBF0F011
:101C90004A68C2F30622496850430222C1F34161F7
:101CA00002EB4101B0FBF1F0704700BF08100240A9
:101CB0000024F400001BB7002DE9F8438146B9F178
:101CC000000F00F0D98199F80000C84EC84FC00736
:101CD00022D199F8000080074FD499F8000000073E
:101CE00040F1AB80D9F81410D7F89000002900F02B
:101CF000928040F00100C7F89000FFF75BFC0546BA
:101D0000D7F8900010F0020F40F09780FFF752FCD8
:101D1000401B0228F4D9E0E0786800F00C01B868B4
:101D2000082954D000F003000C390338B1FA81F1CE
:101D3000B0FA80F0490940090840012847D0D9F895
:101D40000440B4F5803F07D03068B4F5A02F40F0D0
:101D5000E18040F480203060306840F480303060B2
:101D6000FFF728FC0546306810F4003FB1D1FFF7BB
:101D700021FC401B6428F6D9AFE0786800F00C0124
:101D8000B86804292ED000F003000C390238B1FAEB
:101D900081F1B0FA80F0490940090840012821D0BA
:101DA000D9F80C103068002900F0998040F4807058
:101DB0003060FFF7FFFB0546306810F4806F40F09D
:101DC000A080FFF7F7FB401B0228F5D985E03068BB
:101DD00010F4003F3FF47DAFD9F8040000287FF4F1
:101DE00078AF49E1306810F4806F04D0D9F80C0066
:101DF000002800F041813868D9F8101020F0FE402A
:101E000040EA01603860D1480068FFF7EBFB00282A
:101E100040F0328161E720F00100C7F89000FFF741
:101E2000C9FB0546D7F8900010F0020F05D0FFF768
:101E3000C1FB401B0228F5D94FE099F8000040078C
:101E400040F1A580786D10F0805F0BD1786D4FF078
:101E5000010840F080507865786D00F08050009067
:101E6000009801E04FF00008B948305810F4807F26
:101E700012D1B748315841F480713150FFF79AFBC5
:101E80000546B348305810F4807F05D1FFF792FB28
:101E9000401B0228F5D920E0D9F80840012C07D0D2
:101EA000D7F88C00052C4ED140F00400C7F88C0008
:101EB000D7F88C0040F00100C7F88C00FFF77AFBE0
:101EC000054641F28834D7F88C0010F0020F57D144
:101ED000FFF770FB401BA042F5D90320CDE020F4B2
:101EE00080703060FFF766FB0546306810F4806F45
:101EF0003FF4F3AEFFF75EFB411B03200229F4D948
:101F0000BBE03868D9F8101020F0FE4040EA0160CC
:101F10003860E2E620F480303060306820F48020C1
:101F20003060FFF747FB0546002C7FF41CAF30689C
:101F300010F4003F3FF4CDAEFFF73CFB411B032004
:101F40006429F4D999E020F00100C7F88C00D7F893
:101F50008C0020F00400C7F88C00FFF72BFB05462F
:101F6000002CAED141F28834D7F88C0010F0020F6B
:101F700006D0FFF71FFB411B0320A142F4D97CE0F0
:101F8000B8F1010F02BF786D20F08050786599F8A4
:101F9000000080062ED5D9F81810D7F8940091B11A
:101FA00040F00100C7F89400FFF704FB0546D7F89E
:101FB000940010F0020F1DD1FFF7FCFA411B032023
:101FC0000229F4D959E020F00100C7F89400FFF786
:101FD000F1FA0546D7F8940010F0020F0AD0FFF787
:101FE000E9FA411B03200229F4D946E0001002401F
:101FF00004100240D9F81C00002800F0A480796881
:1020000001F00C010C293CD1012835D0B868D9F871
:10201000201000F003028A422ED1D9F824106FF06C
:102020000F0202EB011100F0F0028A4224D1D9F82C
:10203000281000F4FE42B2EB012F1DD1D9F82C106C
:1020400000F07842B2EBC16F16D1D9F83010434A94
:1020500002EA015100F4C002A1F500118A420BD13D
:10206000D9F834104FF07E4200F0C06002EA0161FE
:1020700001F17E41884266D00120C0B201B0BDE8C6
:10208000F0833168022821F0807131600DD1FFF7B3
:1020900091FA0546306810F0007F1CD0FFF78AFAED
:1020A000411B03200229F5D9E7E7B86820F00300B7
:1020B000B860B86827490840B860FFF77BFA044663
:1020C000306810F0007F3ED0FFF774FA011B032048
:1020D0000229F5D9D1E709F12005B8686FF00F049E
:1020E0002ECD04EB02121C4C20400843D9F83010CE
:1020F00010431A4A40EA032002EA01514FF07E429F
:10210000A1F500110843D9F8341040EAC56002EA8D
:10211000016101F17E410843B860306840F0807091
:102120003060B86840F08070B860FFF743FA04464A
:10213000306810F0007F06D1FFF73CFA011B032046
:102140000229F5D999E7002097E700BF0400002095
:102150000060FEFFFFFFEEFE0C809F010000E0FF2D
:10216000411E0020B0EB116F1CBF01207047044AD4
:10217000F023516003490B70072190601160704794
:1021800010E000E023ED00E090F88010012901D17B
:10219000022112E02421C0F884100268136811683B
:1021A00021F0010123F0005311600021416613600A
:1021B0002022C0F8842080F88010C8B27047B0B5E3
:1021C000044694F88000012801D102201BE0012080
:1021D00084F880002420C4F8840020680568026820
:1021E00022F001020260826822F060621143816085
:1021F000204600F00DFA206805602020C4F8840015
:10220000002084F88000C0B2B0BDB0B5044694F898
:102210008000012801D102201BE0012084F8800009
:102220002420C4F8840020680568026822F00102B6
:102230000260826822F0604211438160204600F013
:10224000E7F9206805602020C4F88400002084F8A5
:102250008000C0B2B0BD10B50446ACB1D4F8840063
:1022600028B9002084F88000204600F027F82420B8
:10227000C4F884002068016821F001010160204653
:1022800000F094FA012801D1012010BDA06A10B11C
:10229000204600F0EBF92068416821F4904141604C
:1022A000816821F02A018160016841F0010101602B
:1022B0002046BDE8104000F043BA0000F0B59BB0E6
:1022C000044616A81421FDF7DBFF01A85421FDF7F1
:1022D000D7FF2068AA4988423ED1012000250190FD
:1022E00001A80295FFF754FA08B1FEF795FB8B4859
:1022F0000226072716AC416941F4804141614169DA
:1023000001F4804100910099016841F004010160ED
:10231000016801F0040100910099016841F0010198
:1023200001602146006800F0010000900098102034
:102330001690CDE9176519951A970848FFF770F8B8
:102340004FF480602146CDE916064FF09040CDE96C
:1023500018551A97FFF764F81BB0F0BD0008004845
:102360002DE9FC470446994616460D46D4F88400EC
:10237000202806D101202DB126B194F88000012833
:1023800004D10220C0B202B0BDE8F08701204FF0B6
:10239000000A84F880002120C4F88CA0C4F88400CE
:1023A000FFF708F9A4F85460A4F856608046A068C6
:1023B000B0F5805F06D127690026002F0CBF2E469E
:1023C0002F4601E02F46002684F880A018E0204622
:1023D000802100224346CDF8009000F00BFBE0B9CD
:1023E000206817B117F8011B04E036F8021B00271C
:1023F0006FF35F218162B4F856000138A4F85600EB
:10240000B4F856000028E2D120464021002243467D
:10241000CDF8009000F0EEFA08B10320B2E72020DA
:10242000C4F884000020ADE7FEE7C1F3045CC1F30B
:102430004061072300EB810003FA0CF302FA0CF26F
:1024400041699943114341617047000010B58CB058
:10245000002401A820210B94CDE90944FDF710FFC9
:102460001C484FF0A0414FF44032042380E816008E
:102470000121C0E90344C0E90543047744770162C0
:1024800080F82440C0E90B4480F83840C46380F8E9
:102490004040FEF71FFD08B1FEF7BEFA0D4809A93E
:1024A0000994FEF705FB08B1FEF7B6FA0A487F214A
:1024B0000190062002900020039004910421CDE9B0
:1024C0000510044801A9FEF77BFB08B1FEF7A4FA4A
:1024D0000CB010BD180000200200300483B00F487B
:1024E000016841F020010160016801F020010291C2
:1024F0000299016841F001010160016801F00101E8
:1025000001910199016841F004010160006800F047
:1025100004000090009803B0704700BF4C100240C8
:1025200010B5164C16484FF4E13100220C2384E814
:10253000070004F118001421C4E903226361FDF7C8
:102540009FFE2046FFF787FE08B1FEF765FA0B48AD
:102550000021FFF75AFE08B1FEF75EFA0748002196
:10256000FFF72DFE08B1FEF757FA0448FFF70CFEFF
:1025700018B1BDE81040FEF74FBA10BD840000202E
:1025800000380140FEE7FEE770477047FFF716B8D6
:1025900070B594B006AC142104F10800FDF770FE8C
:1025A00001A81421FDF76CFE00200025FFF792F82A
:1025B00001200326552106904FF480300790022019
:1025C0000D90CDE90E66CDE91010CDE91200204640
:1025D000FFF772FB18B1EFF3108072B6FEE70F2021
:1025E0000421CDE9010601A8CDE903550595FFF7C2
:1025F0001FFA18B1EFF3108072B6FEE714B070BD89
:102600000248016841F470010160704788ED00E004
:10261000416ED9B180B502680FF2400C0FF2440E42
:102620009168C1F3426192681CF801301EF80110F4
:10263000520FC900B1FBF3F11CF802301EF8022062
:10264000D200B2FBF3F2BDE8804001E0012201219B
:10265000A0F86A20A0F86810704700BF08040204C0
:10266000080101010101010307010000816A11F065
:10267000010F08D002685368D0F82CC023F400334F
:1026800043EA0C0353608A0708D502685368D0F800
:1026900030C023F4803343EA0C0353604A0708D563
:1026A00002685368D0F834C023F4802343EA0C0353
:1026B00053600A0708D502685368D0F838C023F47D
:1026C000004343EA0C035360CA0608D502689368C6
:1026D000D0F83CC023F4805343EA0C0393608A068D
:1026E00008D502689368D0F840C023F4005343EA49
:1026F0000C03936080B54A0615D5D0F800E0DEF8EB
:1027000004C0436C2CF48012B3F5801F42EA03022C
:10271000CEF8042007D1DEF80420836C22F4C00236
:102720001A43CEF804200906BDE8804058BF704720
:1027300001684A68C06C22F4002210434860704768
:10274000BCB504460020C4F88C00FEF733FF0546F4
:102750002068016811F0080F0AD013484FF40011E7
:1027600000222B460090204600F044F970B9206802
:10277000006810F0040F0BD00B484FF480010022CA
:102780002B460090204600F035F908B1032008E000
:102790002020C4F88400C4F888000020E06684F893
:1027A0008000C0B202B0B0BDFFFFFF01F8B5044623
:1027B0002168A068D4E9042310431843E3690A6838
:1027C0007F4D18432A40104308604868E26820F4AF
:1027D000405010434860A0697A4E7B4D7B4A91423D
:1027E0001CBF226A10438A68794F3A4010438860C0
:1027F000C86A626A20F00F001043C8627548764FBD
:10280000B94213D0754FB94213D0754FB94213D0A6
:10281000744FB94213D06D4FB94213D0724FB942C1
:1028200040F05280366805F580650DE03768BE08D7
:102830000AE037683E0907E03768BE0904E03768F8
:102840003E0A01E03768BE0A86F002076FF31F55A3
:1028500007F0030747EA870725FA07F65B4DA94209
:1028600012D0B3F5004F1FD106F01F030121082B32
:1028700000F29B80DFE803F0055660995999999919
:102880005E00FFF7C7F952E006F01F030121082B95
:1028900000F28B80DFE803F0058922891A89898993
:1028A0002000FFF7B7F913E006F01F030121082B02
:1028B00000F27B80DFE803F0055963795C79797970
:1028C0006100FFF7A7F955E01026C7E7FFF7BEF94B
:1028D000002867D0626A01E04FF400404349656810
:1028E00031F8122005EB45070121B0FBF2F3BB42A2
:1028F0005BD32F03BB4258D800210023FDF788FC8F
:1029000009022A46002341EA1061000210EB55003B
:1029100041F10001FDF77CFC354AA0F54071914280
:1029200021D941E0FFF782F901E0FFF78FF9C8B341
:10293000626A01E04FF400402C4931F81210B0FBFC
:10294000F1F061684A0802EB40004FF6EF72B0FB0D
:10295000F1F0A0F11001914226D84FF6F07101403C
:10296000C0F34200084321681BE0FFF75FF901E074
:10297000FFF76CF9B0B1626A01E04FF400401B4907
:1029800031F812104FF6EF72B0FBF1F0616800EB16
:102990005100B0FBF1F0A0F11001914204D8216880
:1029A00080B2C860002100E001210120A4F86A0083
:1029B000A4F868000020C4E91C00084601B0F0BD7E
:1029C000F369FFCF8810024002010200008000403E
:1029D000FFF4FF110024F4000044004000480040D0
:1029E000004C00400050004000380140AA3400086C
:1029F000FFFC0F002DE9F8430446DDF820909846CF
:102A000016460F46206809F10105C1693940C91B06
:102A1000B1FA81F14909B14217D1002DF5D0FEF785
:102A2000C9FDB9F1000F15D0A0EB0800484511D839
:102A30002068016811F0040F1CBFC16911F4006F18
:102A4000E3D04FF4006101621FE00020C0B201B08A
:102A5000BDE8F083206850E8000F216820F4D070B2
:102A600041E80002002AF5D1206850E8020F2168F1
:102A700020F0010041E80202002AF5D12020C4F82C
:102A8000840004F188001AE0206850E8000F2168F3
:102A900020F4D07041E80002002AF5D1206850E807
:102AA000020F216820F0010041E80202002AF5D15E
:102AB0002020C4F88400C4F8880004F18C00202190
:102AC0000160002084F880000320BFE7FEE70000DB
:102AD000E0B50190044801A901224FF47A73FFF791
:102AE0003FFC019802B080BD84000020000000007F
:102AF0002DE9F047FEF768FDFFF74AFDFFF7EEFC12
:102B0000FFF70EFDFFF7A2FC1F4C7F212046FDF7CB
:102B100087FF9FED190B0FF274095AEC108B9FED94
:102B2000180B55EC107B4FF47A70FEF769FC2046C9
:102B3000FEF7B0FB20466421FEF714FB2046FEF7AB
:102B4000C5F906462046FEF73BFCB0B2FDF715FC82
:102B500042465346FDF79FFB3A462B46FDF79BFB4B
:102B6000FDF72FFCFDF71AFC024648460B4600F025
:102B700017F8D8E700BF00BF6666666666660A405B
:102B8000000000000000303F1800002050413020BD
:102B9000766F6C7461676520252E32660D0A000021
:102BA0000FB4054B10B503A9044A029800F0DAF8F7
:102BB00010BC5DF814FB0000D12A000800000020C2
:102BC00002E008C8121F08C1002AFAD170477047F6
:102BD000002001E001C1121F002AFBD17047000054
:102BE0002DE9FF5F82B00021DDE90430020DDDF840
:102BF00040B0034318D044F61050A2F2FF324243D3
:102C00001514119801281FD0A5EB0B00401C5FEA9A
:102C1000000A4FF000064E4FDFF83891B04650469C
:102C200015D5CAF1000413E0119801244AA3012824
:102C300001D16FEA0B010298119AC0E90031C0E995
:102C4000024206B0BDE8F09FCBF10000DFE704468A
:102C50000021404A491842EB0450CDE9001012E02F
:102C6000E00707D032463B4640464946FDF713FB96
:102C70008046894632463B4610461946FDF70BFB17
:102C800006460F466410002CEAD1DDE90401DDE9B7
:102C90000023BAF1000F06DAFDF7FDFA42464B4673
:102CA000FDF7F9FA05E0FDF718FD42464B46FDF742
:102CB00014FD04460E460022284BFDF795FD03D86F
:102CC0004FF0FF30014607E00022254B20463146F9
:102CD000FDF75CFCFDF770FD102409E0002C0ADB19
:102CE0000A220023FDF794FA039B30321A55641E22
:102CF00050EA0102F2D1641C039AC4F11103144496
:102D0000119A012A03D0012208430DD10AE0084399
:102D100004D000204FF0110B119072E7A3EB0B05CC
:102D20006D1E0DE05B4504DD4FF0000205F101056D
:102D300004E003DA4FF00002A5F10105002AECD00F
:102D400002981199C0E90231C0E9004579E7000015
:102D5000000014400000F03F300000000000F0438D
:102D60000000E03F2DE9FF4F95B09B46894606469F
:102D700000250FE2252877D100242746F84A0121B3
:102D8000059400E0044316F8013F203B01FA03F0EC
:102D90001042F7D130782A2811D06FF02F03307805
:102DA000A0F13002092A16D8059A44F0020402EB79
:102DB000820203EB42021044761C0590EFE759F8BB
:102DC000042B0592002A03DA504244F40054059083
:102DD00044F00204761C30782E2816D116F8010F24
:102DE00044F004042A280DD06FF02F023078A0F1AF
:102DF0003003092B09D807EB870302EB4303C718FD
:102E0000761CF3E759F8047B761C30786C280FD0D9
:102E100006DC4C2817D068280DD06A2814D104E0AD
:102E2000742810D07A280FD10DE044F400140AE081
:102E300044F4801401E044F440147278824202D1D8
:102E400004F58014761C761C307866280BD013DCD1
:102E5000582877D009DC002875D04528F6D04628B8
:102E6000F4D047281AD19DE118E0632835D06428B2
:102E700079D0652812D195E1702873D008DC6728D5
:102E8000F1D069286FD06E280DD06F2806D1B5E03B
:102E900073282CD0752875D0782874D05A46179985
:102EA00090476D1C75E1C4F30250022809D0032835
:102EB0000DD0D9F8001004280DD00D6009F10409D7
:102EC00067E1D9F80010EA17C1E90052F6E7D9F82E
:102ED00000100D80F2E70D70F0E719F8041B8DF873
:102EE000001000208DF80100EA46012003E059F8A7
:102EF00004AB4FF0FF3061074FF0000102D40DE04A
:102F000008F101018846B9420FDA8045F8DB1AF86A
:102F100008100029F4D108E008F101018846814237
:102F2000FADB1AF808100029F6D105985B46A0EBE9
:102F3000080721463846179A00F094FA284400EB17
:102F4000080507E04DE029E10DE01AF8010B5A46AB
:102F500017999047B8F10108F7D25B4621463846E9
:102F6000179A13E142E00A220092C4F302524FF092
:102F7000000A022A08D059F804CB032A4FEAEC7160
:102F80000AD00DE029E02AE009F1070121F007024B
:102F9000F2E802C1914609E00FFA8CFC4FEAEC71AD
:102FA000042A03D14FFA8CFC4FEAEC71002907DAAE
:102FB0000A460021DCF1000C61EB02012D2202E047
:102FC000220504D52B228DF80420012203E0E2071C
:102FD00001D02022F7E7904659E00A2102E01022B2
:102FE0000DE010214FF0000A00910BE010224FF08D
:102FF000000A44F004040827009203E008224FF07E
:10300000000A0092C4F30252022A05D059F804CBF8
:103010000021032A08D009E009F1070121F0070285
:10302000F2E802C1914605E01FFA8CFC042A01D1A6
:103030000CF0FF0C4FF00008220728D5702806D0AE
:10304000009B83F0100353EA0A0305D00EE04022F0
:103050008DF80420012208E05CEA010206D030224B
:103060008DF804208DF8050002229046009B83F025
:10307000080353EA0A030AD15CEA010201D162079C
:1030800005D530228DF804204FF001087F1E582806
:1030900004D034A003900EA802900DE036A0F9E70A
:1030A00053466046009AFDF7B3F884460398825C65
:1030B0000298401E029002705CEA0100F0D1029872
:1030C00006A9081A00F1200A600702D524F480340A
:1030D00000E00127574502DDA7EB0A0000E00020D1
:1030E00000EB0A01009005984144401A0590E00366
:1030F00006D45B462146179A059800F0B3F90544BB
:10310000002706E001A85A46C05D179990476D1C3C
:103110007F1C4745F6DBE0030CD55B462146179A3A
:10312000059800F09FF9054404E030205A461799AD
:1031300090476D1C0099481E00900029F5DC08E0BE
:10314000029802995A460078491C029117999047B3
:103150006D1CBAF10001AAF1010AF1DC65E1000081
:10316000092801003031323334353637383961625D
:103170006364656600000000303132333435363721
:1031800038394142434445460000000000F058F9F8
:103190000544761C307800287FF4ECAD19B0284641
:1031A000BDE8F08F620700D4062709F1070222F07C
:1031B000070CFCE80223E14603F000485FEA080C34
:1031C00002D00FF2702C0DE05FEA045C02D50FF222
:1031D000682C07E05FEAC47C02D00FF2602C01E0AB
:1031E000AFF2700C4FF0FF3823F00043CDF850C021
:1031F00065280CD006DC452809D046281DD0472874
:103200003DD13DE0662818D067287ED138E0002106
:10321000112F01DB112000E0781CCDE9000106A987
:103220000EA8FFF7DDFCDDE90F010E9A03910021E6
:10323000009207F1010A04914DE04FF00040009721
:10324000CDE9011006A90EA8FFF7CAFCDDE90F02BF
:1032500003920E9B11990022DDF80CA000930492BA
:1032600011B9791C00EB010AB7EB0A0004D4C0F1D4
:10327000FF3007F1010A0490AAEB0700019044E037
:10328000012F00DA01270021112F01DD112000E0BC
:103290003846CDE9000106A90EA8FFF7A1FCDDE93B
:1032A0000F010E9A0391002104910092BA46210762
:1032B0000CD40399514500DA8A46BAF1010F05DDB5
:1032C000009AAAF10101515C302908D0B84202DA13
:1032D00010F1040F06DA0121CDE9011015E0AAF181
:1032E0000101E9E7002805DC049901440491AAEBF7
:1032F000000102E0411C514500DD8A460499401A54
:10330000401C01904FF000400290200704D4019827
:10331000504501DBCDF8048000208DF84F00029865
:103320000DF14F07B0F1004F25D02B200E900298E1
:103330004FF0020800280CDA404202902D200E9037
:1033400007E00A210298FDF758F83031029007F89B
:10335000011DB8F10001A8F10108F2DC0298002873
:10336000EFD1791E0E980870307800F0200040F000
:10337000450007F8020D12A8C01B00F107081498B9
:10338000007800B1012000EB0A01019801EBE07127
:1033900005984144401A401E0590E00306D45B4660
:1033A0002146179A059800F05DF8054414980078B6
:1033B00018B15A46179990476D1CE00324D55B4617
:1033C0002146179A059800F04DF805441CE0049832
:1033D000002807DBDDE90301884203DD0098405C3B
:1033E000179901E0179930205A469047049805F143
:1033F0000105401C04900198401E019004D12E202C
:103400005A46179990476D1CBAF10001AAF1010ABA
:10341000DDDC05E017F8010B5A46179990476D1C43
:10342000B8F10001A8F10108F4DC5B462146179AC7
:103430000598ABE62D0000002B00000020000000E6
:103440002DE9F041044600251E461746880404D4A1
:1034500005E039462020B0476D1C641EF9D528468A
:10346000BDE8F0812DE9F041044600251E46904656
:10347000C80301D5302700E02027880404D505E0E3
:1034800041463846B0476D1C641EF9D52846BDE854
:10349000F0810000000000000000010203040607A4
:1034A00008090000000001020304010002000400FA
:1034B000060008000A000C001000200040008000F8
:1034C00000010000E834000800000020180000009F
:1034D000C02B00080035000818000020000500007F
:1034E000D02B0008000000000000000010000000C9
:1034F00001000000000000000024F40000000000B3
:04000005080001D915
:00000001FF
