:020000040800F2
:10000000880400204501000841130008C9120008B7
:100010003D1300088D0100082514000800000000B1
:10002000000000000000000000000000491300086C
:100030009101000800000000451300084D1300085E
:100040005F0100085F0100085F0100085F01000810
:100050005F0100085F0100085F0100085F01000800
:100060005F0100085F0100085F0100085F010008F0
:100070005F0100085F0100085F0100085F010008E0
:100080005F0100085F0100085F0100085F010008D0
:100090005F0100085F0100085F0100085F010008C0
:1000A0005F0100085F0100085F0100085F010008B0
:1000B0005F0100085F0100085F0100085F010008A0
:1000C0005F0100085F0100085F0100085F01000890
:1000D0005F010008191400085F0100085F010008B3
:1000E0005F0100085F0100085F0100085F01000870
:1000F0005F0100085F0100085F0100085F01000860
:100100005F0100085F0100085F0100085F0100084F
:100110005F0100085F0100085F0100085F0100083F
:100120005F0100085F0100085F0100085F0100082F
:10013000DFF80CD000F018F8004800472914000838
:10014000880400200648804706480047FEE7FEE78F
:10015000FEE7FEE7FEE7FEE7FEE7FEE7FEE7FEE777
:100160005113000831010008064C074D06E0E06815
:1001700040F0010394E8070098471034AC42F6D3EE
:10018000FFF7DAFF1015000830150008FEE7000041
:1001900070470000EFF3108072B600BFFEE700006A
:1001A000014690F82100022816D10868D1E90FC352
:1001B000026822F00E020260026822F00102026070
:1001C000012000FA03F2CCF8042081F8210000207D
:1001D000002281F82020704704208863012000223B
:1001E00081F820207047000080B590F82110022986
:1001F00028D1026840F2040C1368C4F2020C23F008
:100200000E03136013680CF17C018A4223F0010194
:1002100011601BD940F20841C4F202018A4249D060
:1002200040F21C41C4F202018A4247D040F2304100
:10023000C4F202018A4245D14FF48073CCF80034F5
:100240005DE000BF04218163012080BD4321C4F231
:1002500002018A420EDD6B21C4F202018A421BDCDC
:100260004421C4F202018A423CD05821C4F2020166
:100270008A4233E00821C4F202018A4236D01C21AE
:10028000C4F202018A4237D03021C4F202018A420C
:1002900024D14FF4807230E06C21C4F202018A4212
:1002A00026D08021C4F202018A4217D14FF0807219
:1002B00023E000BF0123CCF8003420E01023CCF869
:1002C00000341CE00CF588614FF480338A4208BF8B
:1002D0004FF48053CCF8003411E000BF4FF480326B
:1002E0000BE000BF4FF4805207E000BF012204E0A2
:1002F0004FF4801201E000BF1022CCF80020416BC7
:100300004FF48072028401B18847002080BD000054
:10031000B0B5044600F012F9054640F20000C2F202
:1003200000000078611C18BF044400BF00F006F90B
:10033000401BA042FAD3B0BD2DE9F04F83B041F687
:100340000043C4F201030E6806229842019008BFE0
:100350000522002E009200F0ED80019840F20C453D
:10036000A0F18043A3F584334FEAB32740F2004065
:100370004FF6FF73C4F20105C4F20100009A4FF07A
:10038000000E4FF0010CC1F210034FF0000A4FF0C5
:10039000000B4FF00F08052F38BF3A46009208E0D7
:1003A0000E680AF1010A36FA0AF20EF1040E00F0A4
:1003B000C1800CFA0AF916EA090FF1D04E689E4284
:1003C00012DC122E56D8DFE806F0350B454955559C
:1003D00055555555555555555555554D510000BF19
:1003E000D1F80CB046E000BF4FF6FF72C1F2210217
:1003F00096420FDC0022C1F2110296421AD000226E
:10040000C1F21202964215D00022C1F22102964298
:1004100010D02FE00022C1F2220296420AD0002220
:10042000C1F23102964205D00022C1F23202964258
:1004300020D100BF8E684EB1012E019A14BFC2F8C0
:100440001490C2F810904FF0080B13E04FF0040B1B
:1004500010E000BFCF6807F1080B0BE04FF0000B76
:1004600008E000BFCF6807F1040B03E0CF6807F195
:100470000C0B00BF7446BAF1080F28BF203C019F47
:1004800028BF04373E6808FA04F226EA02020BFA93
:1004900004F632433A60CA79D2067FF581AF41F261
:1004A0001807C4F202073A684FF6084C42F00102FE
:1004B0003A603A68CFF6FF7C02F001020292029A9B
:1004C0002AF00302024452F80C700EF00C0608FAEF
:1004D00006F4A743009C04FA06F6374342F80C7072
:1004E000D1F804C05FEACC32026854BF22EA0906A0
:1004F00042EA09065FEA8C320660426854BF22EA8B
:10050000090642EA09065FEACC224660826854BFC7
:1005100022EA090642EA09065FEA8C2286604FF069
:10052000010C2A6854BF22EA090642EA09062E6035
:1005300036E700BF03B0BDE8F08F000040F2800056
:10054000C2F200000068704740F2000040F28001F3
:10055000C2F20000C2F2000100780A68104408608C
:100560007047000080B542F20000C4F2020001684A
:1005700041F010010160032000F08AF8032000F030
:1005800005F800F027F8002080BD000070B540F2AB
:100590000006C2F2000640F208013278C2F2000101
:1005A0004FF47A730968B3FBF2F20446B1FBF2F13F
:1005B000084600F05FFB0F2C4FF0010508D838B952
:1005C0004FF0FF3021460022002500F035F874601E
:1005D000284670BD82B041F21800C4F202000168E2
:1005E000022241F001010160016801F00101019165
:1005F0000199416841F080514160406800F08050AD
:10060000009000980420C4F20100016862F31A61AE
:10061000016002B070470000002848BF704700F03A
:100620001F01012202FA01F14EF200124009CEF23E
:10063000000242F82010704710B54EF60C5CCEF266
:10064000000CDCF80030C3F3022E8EF00704042CFB
:1006500028BF0424BEF103034FF0FF3E0EFA04F45A
:1006600038BF0023A14399400EFA03F39A43114384
:1006700000F00F02043A624409010C3200F16043B9
:10068000B0F1FF3FC8BF03F56442117010BD000018
:100690004EF60C51CEF200010A684FF6FF031A40E5
:1006A00060F30A2242F0806040F0FD7008607047FD
:1006B0002DE9F04381B0002800F0858042F2000867
:1006C000C4F202080446D8F800000D4600F0070006
:1006D00088420CD2D8F8000020F007002843C8F860
:1006E0000000D8F8000000F00700A8426BD1206895
:1006F00041F204098107C4F2020917D5410705D563
:10070000D9F8001041F4E061C9F80010010705D5DF
:10071000D9F8001041F46051C9F80010D9F8001060
:10072000A26821F0F0011143C9F80010C00741D1BF
:10073000D8F8000000F00700A8420CD9D8F8000053
:1007400020F007002843C8F80000D8F8000000F0A7
:100750000700A84237D12068410707D5D9F8001013
:10076000E26821F4E0611143C9F80010000708D5E0
:10077000D9F80000216920F4605040EAC100C9F8AE
:100780000000D9F8002002F00C00082841F20020F7
:10079000C0F27A0050D141F20053C2F38341C0F657
:1007A0000003595CD2033BD440F60010C0F23D0078
:1007B000484341E0606802280AD001282AD159F84C
:1007C000041C890308D4012001B0BDE8F08300BFF8
:1007D00059F8041C8901F6D5D9F8001021F003015D
:1007E0000843C9F80000FFF7A9FE064641F2883722
:1007F000D9F80000616800F00C00B0EB810F97D0D1
:10080000FFF79CFE801BB842F2D9032001B0BDE87F
:10081000F08300BF59F8041C8907D4D5DCE700BF7A
:10082000D9F8002041F2E643C2F34042C0F600038B
:100830009A5C4843B0FBF2F0D9F8001041F2E8426C
:10084000C1F30311C0F60002515C40F2080220FA25
:1008500001F140F20400C2F200000068C2F200029E
:100860001160FFF793FE002001B0BDE8F0830000A7
:1008700040F2080041F20401C2F20000C4F2020199
:100880000068096841F2F842C1F30221C0F6000293
:10089000515CC8407047000040F2080041F204017A
:1008A000C2F20000C4F202010068096841F2F84295
:1008B000C1F3C221C0F60002515CC840704700007D
:1008C0002DE9F04182B0002868D00446007841F25A
:1008D0000006C007C4F2020625D0706800F00C00C4
:1008E00004281BD0706800F00C00082802D1706842
:1008F000C00313D46068002800F06881B0F5A02F11
:1009000000F07C81B0F5803F00F07C81306820F4FD
:1009100080303060306820F4802076E130688003D9
:1009200001D56068D0B32078800718D5706810F0C2
:100930000C0F07D0706800F00C0008286ED17068AA
:10094000C0036BD43068800702D52069012825D107
:100950003068616920F0F80040EAC100306020781A
:1009600000071FD42078400732D4E56995B170683C
:1009700000F00C00082840F08F80012D0ED0706828
:10098000216A00F480328A4208D1616A00F4701052
:10099000884203D1002002B0BDE8F081012002B0FE
:1009A000BDE8F081A069002862D00020C4F2422096
:1009B0000121C0F88014FFF7C1FD0546706A800769
:1009C00000F18C80FFF7BAFD401B0228F6D92AE11E
:1009D000F06910F0805808D1F06940F08050F06163
:1009E000F06900F080500090009847F20007C4F2D0
:1009F00000073868C00529D4386840F48070386032
:100A0000FFF79CFD054600BF3868C0051ED4FFF700
:100A100095FD401B6428F7D905E100BF2069002837
:100A200040F20000C4F2422000F082800121016007
:100A3000FFF784FD054600BF306880073FF588AFAB
:100A4000FFF77CFD401B0228F6D9ECE0E0680028A7
:100A500000F08080052800F09780012800F0988041
:100A6000306A20F001003062306A20F0040092E029
:100A70000020C4F242200021C0F88014FFF75EFD80
:100A8000054600BF706A80077FF56CAFFFF756FD23
:100A9000401B0228F6D9C6E00027C4F242270020F6
:100AA0003866FFF74BFD022D05460BD130688001FB
:100AB00040F1BE80FFF742FD401B02284FF00300CB
:100AC000F4D968E7306880017FF564AFFFF736FD41
:100AD000401B02284FF00300F4D95CE740F2080005
:100AE000C2F20000006844F6D351C1F26201A0FBDB
:100AF0000101480A019000BF00BF0198411E002873
:100B000001913FF42FAF00BF0198411E00280191D1
:100B10003FF428AF00BF0198411E002801913FF427
:100B200021AF00BF0198411E00280191E4D119E7CF
:100B300000210160FFF702FD054600BF3068800715
:100B40007FF50DAFFFF7FAFC401B02284FF00300C2
:100B5000F4D920E7306A20F001003062306A20F0DA
:100B600004003062FFF7EAFC054641F2883700BF17
:100B7000306A800720D5FFF7E1FC401BB8424FF0F8
:100B80000300F5D907E700BF306A40F00400306287
:100B9000306A40F001003062FFF7D0FC054641F2B8
:100BA000883700BF306A800706D4FFF7C7FC401BB8
:100BB000B842F7D937E000BFB8F1000F7FF4D5AEE7
:100BC000F06920F08050F061CFE600BF306820F47B
:100BD00080303060306820F480203060FFF7AEFC59
:100BE000054600BF306880037FF59DAEFFF7A6FC89
:100BF000401B64284FF00300F4D9CCE6306840F481
:100C000080203060306840F480303060FFF796FC20
:100C1000054600BF306880033FF585AEFFF78EFCC8
:100C2000401B6428F6D9032002B0BDE8F08100BF64
:100C3000206AB0F5803F05D17168A26821F40031C7
:100C4000114371607168626A21F4741110430843A2
:100C5000706001203866FFF771FC0446306880013F
:100C60003FF598AEFFF76AFC001B02284FF0030027
:100C7000F4D990E6411E0020B0EB116F1CBF01209B
:100C800070474EF21002CEF2000251604EF6235130
:100C9000CEF20001F0230B700721906011607047C5
:100CA0007047000070470000B0B582B0026805468A
:100CB0001068D368546900F02F01202903F0200147
:100CC00006D129B1284602B0BDE8B04000F048BBCB
:100CD0005FEA007C1EBF04F0010E03F4907414EB75
:100CE0000E0455D1296B012905D110F0100118BF50
:100CF00013F0100136D1010622D513F080011FD068
:100D000095F83D00212841D1A868B0F5805F03D156
:100D10002869002800F0F680286A411C29620078C2
:100D20005060E88C01380104E8842FD1D06820F0AD
:100D30008000D060D06840F04000D06002B0B0BD0C
:100D4000400623D513F0400020D0D068202120F0A9
:100D50004000D060284685F83D1002B0BDE8B040A4
:100D600000F0B0BA00200190106801905068019026
:100D700001985069400613D4A88DE98DEB8D002BA6
:100D80001CBF401A5FEA004140F0A48002B0B0BD31
:100D9000C40718BF13F480732CD1430730D436E056
:100DA000A86B01684B689CB2002CEFD0A98D8C42D7
:100DB000ECD2EB858369202B17D0D16821F48071A8
:100DC000D160516921F001015161516921F0400167
:100DD0005161202185F83E1000212963D16821F05E
:100DE0001001D160FFF7DCF9A98DE88D081A81B2F6
:100DF000284682E02B6C43F001032B64430706D5A1
:100E0000BEF1000F03D02B6C43F002032B64830769
:100E100006D5BEF1000F03D02B6C43F004032B6406
:100E2000BCF1000F06D551EA0E0303D02B6C43F042
:100E300008032B642B6C002BA8D010F0200018BFE7
:100E4000002903D0284600F08BFA2A685069296CE3
:100E500000F0400001F0080140182DD0D06820F4C7
:100E60009070D060506920F001005061286B01281B
:100E700003D1D06820F01000D060202085F83E001B
:100E800000202863506940061ED5506920F04000BC
:100E90005061A86BC0B141F25531C0F60001416309
:100EA000FFF7A2F900283FF471AFA86B416B02B0C5
:100EB000BDE8B040084700BF2846FFF7F3FE00201A
:100EC000286402B0B0BD00BF284602B0BDE8B04003
:100ED000FFF7E8BED16821F49071D160516921F02B
:100EE00001015161202185F83E1000212963D1685C
:100EF00021F0100381B22846D36002B0BDE8B040B3
:100F0000FFF7CEBE286A30F8021B6FF35F215160F5
:100F1000286206E7002804BF0120704710B5044688
:100F200090F83D0028B9002084F83C00204600F0ED
:100F30005FF8242084F83D002068D4E90212C368D9
:100F400023F40053C360036923F440531A4302613E
:100F5000D4E904231143C268194341F20C639A4354
:100F60001143C1604169A26921F44071114343F604
:100F70000002C4F201029042416103D0FFF778FC05
:100F800002E000BFFFF788FC626819214843910026
:100F9000B0FBF1F048F21F51C5F2EB11A0FB0123A9
:100FA0005A096FF0630302FB0300322303EB0010C6
:100FB000A0FB0101F02303EA5113206803EB0212A6
:100FC000C1F3431111448160016921F49041016131
:100FD000416921F02A014161C16841F40051C160B9
:100FE00000202021206484F83D1084F83E1010BDBC
:100FF00070B586B040F60004C4F20104006804F540
:10100000405100268842049602D006B070BD00BF51
:1010100041F21800C4F20200016802AD41F48041BF
:101020000160016801F4804101910199016841F07A
:10103000040101600068294600F004000190019855
:101040004FF4007002900220039003200590204688
:10105000FFF772F94FF48060CDE902062046294679
:101060000496FFF769F9252000210022FFF7E4FA32
:101070002520FFF7D1FA06B070BD0000034690F8B6
:101080003E0020280AD100294FF0010018BF002A95
:1010900000D1704793F83C00012801D1022070472D
:1010A00000201863996222219A85DA85186483F8F2
:1010B0003E10196883F83C00CA6842F48072CA6026
:1010C0004A6942F001024A61CA6842F02002CA60DD
:1010D00070470000B0B5006843F60001C4F201019A
:1010E000884218BFB0BD40F2380440F27C05C2F21D
:1010F0000004C2F200052046294601224FF47A730B
:1011000000F008F8204629460122BDE8B040FFF76C
:10111000B5BF00002DE9F04381B0044690F83D00D2
:1011200020280DD10F4600294FF0010000F09280D9
:101130001646002A00F08E8094F83C00012803D166
:10114000022001B0BDE8F083012084F83C004FF09C
:10115000000921201D46C4F8409084F83D00FFF7A7
:10116000EDF9A684E684A1688046B1F5805F25D1BB
:10117000206900281CBF38464F463E46074684F883
:101180003C90E08C00B3681C20D0002D66D1206814
:101190000BE000BF36F8021B00276FF35F214160B0
:1011A000E18C0139E184E18C81B30168090675D5D0
:1011B000002FEFD017F8011BF1E700BF002684F8DD
:1011C0003C90E08C0028DED120681FE0206802E01F
:1011D0000168090609D40168090606D401680906F0
:1011E0005CBF01685FEA0161F2D51FB117F8011B0E
:1011F00005E000BF36F8021B00276FF35F21416056
:10120000E18C0139E184E18C0029E4D101684906CF
:101210001CD4002D42D0691C0ED10168490615D49A
:10122000016849065CBF01685FEA41610ED401684C
:101230004906F2D50AE000BFFFF780F9A0EB0801EC
:101240002068A9422AD800684006F5D5202084F8F5
:101250003D00002001B0BDE8F08300BF206800BF62
:101260000168090608D4FFF769F9A0EB08012068B6
:10127000A942F5D912E000BF17B117F8011B04E02D
:1012800036F8021B00276FF35F214160E18C0139C2
:10129000E184E18C0029E3D1B8E700BFC16821F403
:1012A000D071C160416921F001014161202084F8C1
:1012B0003D0084F83E00002084F83C00032001B08B
:1012C000BDE8F08370470000FEE7000082B041F205
:1012D0001800C4F20200016841F0200101600168B9
:1012E00001F0200101910199016841F004010160C0
:1012F000006800F004000090009802B07047000001
:1013000080B540F2380043F60001C2F20000C4F29A
:10131000010100234FF00C0C4FF4E13280E80E0085
:10132000C0E90333C0E905C3C361FFF7F3FD00283B
:1013300008BF80BDBDE88040FEF72CBFFEE700007F
:10134000FEE700007047000070470000FFF7FCB8A0
:1013500070470000406A0021C185C184FFF7A2BC2C
:1013600081B090F83E10222920D18368B3F5805FC8
:1013700008D10169002941D000F128010A680368F9
:101380005B680AE0014651F8282F13B90369002B66
:10139000F5D003685B6803F07F0313700A680132BD
:1013A0000A60C18D01390A04C18501D001B07047BE
:1013B0000168CA6822F02002CA60CA6822F48072FA
:1013C000CA604A6922F001024A61202280F83E2068
:1013D000026B012A1CD100220263CB6823F01003A8
:1013E000CB600B68DB0605D500920A68009249685D
:1013F00000910099818D01B0FFF752BC0168826AAB
:1014000049686FF35F2122F8021B8262C9E700BFBF
:1014100001B0FFF75FBE000040F23800C2F20000EA
:10142000FFF742BCFEE7000090B0FFF79BF80024F6
:101430000120CDE90B44CDE9094406900A904FF410
:10144000E0104FF4803102250F9006A8CDE9071473
:10145000CDE90D51FFF734FA20B1EFF3108072B6E9
:10146000FEE700BF0F20CDE901054FF48060CDE914
:10147000040401A802210394FFF71AF920B1EFF345
:10148000108072B6FEE700BFFFF720FFFFF738FFBE
:1014900040F23804C2F2000440F27C01C2F20001C2
:1014A00020460122FFF7EAFD40F20C05C2F20005DA
:1014B0002046294626224FF47A73FFF72BFE4FF47D
:1014C0007A70FEF725FFF3E702E008C8121F08C193
:1014D000002AFAD170477047002001E001C1121FB5
:1014E000002AFBD17047010200000000000000004C
:1014F00001020304060708090000000001020304BA
:1015000002030405060708090A0B0C0D0E0F101044
:10151000301500080000002038000000C814000842
:10152000681500083800002050040000D814000896
:1015300001000000100000000024F4005820507545
:101540006C73652053544D3332463130335243541B
:101550003620757361727420746573742E2E2E0D8F
:081560000A0000000000000079
:0400000508000131BD
:00000001FF
