:020000040800F2
:1000000018040020CD000008510C0008BD0B0008AA
:1000100000000000000000000000000000000000E0
:10002000000000000000000000000000550C000867
:100030000000000000000000530C0008570C0008EE
:10004000DF00000800000000DF000008DF000008FB
:10005000DF000008DF000008DF0000085901000889
:10006000DF000008DF000008DF000008DF000008F4
:10007000DF000008DF000008DF00000800000000CB
:10008000DF000008DF000008DF000008DF000008D4
:10009000DF000008DF000008DF000008DF000008C4
:1000A000DF000008DF000008DF000008DF000008B4
:1000B000DF000008DF0000080348854600F034F840
:1000C00000480047610C00081804002004488047DD
:1000D00004480047FEE7FEE7FEE7FEE7FEE7FEE72F
:1000E0005F0C0008B900000870B50446002903D071
:1000F00000202022012310E0002801D00020C0436E
:10010000C046C0460DE02546D5408D4205D30D467C
:100110009540641B1D46954040191546521E002D02
:10012000F1DC214670BD00001CB50948009009486B
:10013000019005460126009C05E0E36807CC3343A7
:100140000C3C98471034AC42F7D3FFF7B9FF0000DE
:10015000340D0008540D000880B50120000200F0A5
:100160001BF880BDB0B5044600F004F9084D2968BD
:10017000401A80084B280AD300F0FCF828600120C0
:1001800001028C4203D14103024800F0E3F8B0BD04
:100190001000002000080050B0B50446074D286844
:1001A000204203D02C60204600F00AF86868204204
:1001B00003D06C602046FFF7D5FFB0BD0C1802409D
:1001C00070470000F0B589B006900D68002D00D191
:1001D000B7E05D48069A824202D00846052401E055
:1001E000084604240B210907069A5118890A930529
:1001F00059180091042900D3009400231E461C4680
:100200001F46014607900EE02943049E50480160B6
:1002100007997F1C0D682846F8400833361DA41C3A
:10022000002800D18DE00120B84005400295F0D0B3
:10023000049605930B4603263146A140C943224646
:100240005C68254635406B1E012B08910394019292
:1002500011D806998B68089E3340079EF668964031
:100260001E438E60E306DB0FBB404E6886431E4391
:100270004E60089906E0032D04D135460799049E87
:10028000019C1FE0069AD068084007998B68019C82
:10029000A3400343D360022D049E13D11C203040A1
:1002A0000F218140FB089B00069AD3181D6A8D43DD
:1002B000079909698140294319620799486803250C
:1002C00003900540A540069A1068089B18402843F3
:1002D000106003988003800F059B9AD01820184067
:1002E0000A460F21814003233D469D43174E731953
:1002F0001D6E8D430099814029431966316850680D
:10030000C30202D5029D294301E0029DA9430F4B80
:1003100019605968830201D5294300E0A9430B4BBA
:1003200059600B494968830301D5294300E0A9437B
:10033000059B074E71603168C00300D564E7A9438F
:1003400063E709B0F0BDC04600100050001802403D
:100350008018024042690B4693430A401104C918B1
:1003600081617047002A02D01822815070472822EC
:1003700081507047054800687047C0461E480078A5
:1003800002490A68101808607047C046140000202F
:1003900010B501242002D8490A6802430A600320EC
:1003A00000F00AF8002801D0204610BD00F026F821
:1003B0000024204610BDC04670B50F4E3178012490
:1003C000002916D005467D20C000FFF78DFE0146AE
:1003D000CF480068FFF788FE00F0D6FB032D08D851
:1003E000002806D10024E0432946224600F02EF8DA
:1003F0007560204670BDC0460000002080B582B008
:100400000B4841680122114341604168114001914C
:100410000199110702680A430260006808400090D1
:1004200000980320400200F0A5FB02B080BDC0464A
:100430003C100240002805D41F21084001218140C2
:10044000014801607047C04600E100E0002805D483
:100450000322034693430A4A9A1803E00C220240FF
:10046000064BD2188007C00E8901C9B28140FF2314
:1004700083401068984308431060704714ED00E013
:1004800000E400E0F0B581B0032569021E4E32465B
:10049000143A13688B430343136001246102002262
:1004A000884204D19A4801683068400502D4104659
:1004B00001B0F0BD0092A702062048431349FFF7A0
:1004C00013FE201A022816D03168394217D00128AD
:1004D00011D03168394212D000280CD0316839422D
:1004E0000DD0001D032806D031683942EAD1009AA8
:1004F000104601B0F0BD2A46104601B0F0BD009A8A
:10050000104601B0F0BDC0461470004040420F00DC
:10051000F0B583B00D46012100281BD00191029057
:100520007548006807242040A84216D2724908681E
:10053000A04328430860714EFFF71CFF07466E4832
:1005400000682040A84208D0FFF714FFC01BB0424B
:10055000F5D90321084603B0F0BD029E306881073B
:10056000674B0CD5410703D521031A680A431A606B
:100570000F2109021A688A43B16811431960C00744
:100580001BD15D4800682040A8422CD95A49086810
:10059000A04328430860594FFFF7ECFE0646564833
:1005A00000682040A8421ED0FFF7E4FE801BB8423E
:1005B000F5D90321084603B0F0BD0298406803282E
:1005C0005DD8810001A251588F46C046DD05000864
:1005D000830600088D0600089706000819460839AA
:1005E0000968490559E0029A10784007444B05D53F
:1005F000200319688143D068084318601868800692
:10060000400F22D01A6838210A403E48082A23D0D9
:100610001A680A40102A5ED1596803220A40032A48
:1006200000D0394859684906490F491CFFF75CFD5D
:10063000334949684904490E484331494968490FDB
:10064000491CFFF751FD2E4B06E01846083800689C
:100650008004410F2C48C840196889093C220A408F
:100660002A4989581F220A40D04029490860294850
:100670000068FFF7A1FE0146084603B0F0BD596DC2
:100680000AE0194608390968890306E0194608395D
:100690000968890101E0996D8907019900D459E73A
:1006A0001968A14301431960144FFFF763FE064622
:1006B000134800683821014002984068C000814218
:1006C00000D15EE7FFF756FE801BB842F0D9032148
:1006D000084603B0F0BD18680840202802D1012068
:1006E000C003B9E718680840182801D00020B3E714
:1006F0007D200002B0E7C0460020024088130000C1
:100700000810024000127A000024F400F40C0008E3
:100710000800002004000020F0B587B00125002863
:1007200000D1BFE0049505900078C007FD4F2AD0A6
:10073000B868F96803252A468A4338210140102009
:100740004840821850425041082914D0002812D144
:1007500005984268012001048A4208D005231B0441
:100760009A4200D008E182043B6813433B603A6838
:100770000A433A6009E13868800304D50598406867
:10078000002800D154E105980078800718D4059816
:100790000078000747D4059A1078400750D4D469F0
:1007A000002C00D1A2E1B86838210140102900D006
:1007B000B9E0012C00D013E1049D284607B0F0BD3C
:1007C000B9683820084010214140FA6803263240B9
:1007D00002235340CA18514251410125AC0200285E
:1007E0003AD0002938D13868059AD168002900D15B
:1007F000D9E00721C9028843116901433960280201
:10080000396801433960FFF7B5FD05463868204275
:1008100000D0DBE0FFF7AEFD401B0228F6D93546DD
:10082000284607B0F0BDB8683821014018293CD1EE
:10083000386E8007AFD5059880690028ABD1F7E006
:10084000B86838210140202946D1F86D8007A6D527
:1008500090680028A3D1EBE039682142059B02D0C3
:10086000D96800291ED07F2109027A688A43596914
:1008700009021143796000280DD10720C0023968B0
:10088000814318690843386038688004400FB249D2
:10089000C140B2480160B2480068FFF78DFD0028F2
:1008A00000D174E7284607B0F0BD386E0599896914
:1008B000002900D1CBE0012108433866FFF75AFD3B
:1008C0000646386E800700D565E7FFF753FD801BAD
:1008D00003250228F5D9E5E7012003900107F86B0D
:1008E0000840029006D1F86B0843F863F86B0840A3
:1008F0000690069801919B480068C0052BD4039888
:1009000004029849086820430860FFF733FD064653
:100910009448006820421ED1FFF72CFD801B032560
:100920000228F5D9BEE701252906386804918843D5
:100930003860FFF71FFD0646022C7DD103956C063B
:100940003868204200D1A1E0FFF714FD801B032589
:100950000228F5D9A6E705988068834C012806D0BF
:10096000052800D0C6E0F86D04210143F965F86D53
:1009700003990843F865C7E03B688B433B608104FB
:100980003B688B433B60002A72D04404FFF7F2FCC3
:1009900006463868204200D0F5E6FFF7EBFC801BE6
:1009A0006428F6D97EE7290288433860FFF7E2FC25
:1009B00005463868204200D1E9E6FFF7DBFC401B22
:1009C0000228F6D93546284607B0F0BD7F20000240
:1009D0007968814305984069000208437860D6E64B
:1009E000F86803210140059B1A6A914220D17021C9
:1009F00001405A6A91421BD17F21090201409A6A43
:100A00001202914214D11F2149040140DA6A914235
:100A10000ED107214A0602401C461B6B9A42049DD8
:100A200000D03FE749070840616B88425ED039E754
:100A3000049D284607B0F0BD6C063868204251D0AE
:100A4000FFF798FC801B03250228F6D92AE701212D
:100A500088433866FFF78EFC0646386E800700D460
:100A600099E6FFF787FC801B03250228F5D919E7D3
:100A70004404FFF77FFC06463868204200D182E636
:100A8000FFF778FC801B6428F6D90BE7F868384933
:100A900001400598026A456A836AC66A0196066B38
:100AA0000296406B0A432A4319021143019A1143EB
:100AB000029A11430143F960386804990843386089
:100AC00003980007F9680143F960FFF753FC0646F5
:100AD000386820420AD1FFF74DFC801B032502280D
:100AE000F6D9DFE6F86821490140F960002528467B
:100AF00007B0F0BDF96D039A9143F965F96D0422D1
:100B00009143F96500280FD0FFF734FC0646F86DD5
:100B1000800716D4FFF72EFC801B0325A042F6D9D0
:100B2000C0E6C04600100240FFF724FC0646F86D00
:100B3000800706D5FFF71EFC801B0325A042F6D9CF
:100B4000B0E602980028059A00D028E6F86B0199D3
:100B50008843F86323E6C0460024F4000800002020
:100B6000040000200070004088130000FCFFFEEE2F
:100B70008C80C11103214902024A13688B4303434D
:100B80001360704700000140401E010E01D001209B
:100B900070470749074A5060074803680B40032124
:100BA0008907591801600020906007211160704783
:100BB000FFFFFF0010E000E020ED00E0FEE7000096
:100BC000F0B587B0002406941F4801680422114341
:100BD00001600168114001910199016820221143CF
:100BE00001600168114001910199016801252943C3
:100BF000016000682840019001986E03134F384649
:100C000031462A46FFF7AEFB0594049403950296FD
:100C100002AE38463146FFF7D5FA0495212000048C
:100C2000039028020290052000073146FFF7CAFA18
:100C30000725284621462246FFF708FC2846FFF7ED
:100C4000F9FB07B0F0BDC046341002400008005068
:100C5000FEE77047704780B5FFF790FB80BD704797
:100C600092B0FFF795FB00250A9509950895079521
:100C70000695059501267002FFF704FC7007119098
:100C80007006109070040F9008200E900D950224AD
:100C90000C940B944020099008953002079004941E
:100CA00004A8FFF739FD002803D0EFF3108072B6D7
:100CB000FEE70395029507200090019468462146BF
:100CC000FFF726FC002803D0EFF3108072B6FEE792
:100CD000FFF776FFFEE702E008C8121F08C1002AEE
:100CE000FAD170477047002001E001C1121F002AAD
:100CF000FBD1704700000000000000000000000071
:100D000000000000000000000000000000000000E3
:100D100000000000010000000200000003000000CD
:100D200004000000060000000700000008000000AA
:100D300009000000580D000800000020100000000D
:100D4000D60C0008680D0008100000200804000000
:100D5000E60C000800000000010000000400000094
:080D60000024F4000000000073
:04000005080000B936
:00000001FF
