:020000040800F2
:1000000060040020A1010008711300086D120008AF
:100010006D1300080D020008FD1500080000000027
:100020000000000000000000000000003D14000877
:100030001102000800000000AD130008751400084C
:10004000BB010008BB010008BB010008BB010008A0
:10005000BB010008BB010008BB010008BB01000890
:10006000BB010008BB010008BB010008BB01000880
:10007000BB010008BB010008BB010008BB01000870
:10008000BB010008BB010008BB010008BB01000860
:10009000BB010008BB010008BB010008BB01000850
:1000A000BB010008F9140008BB010008BB010008EF
:1000B000BB0100080000000000000000BB010008B8
:1000C000BB010008BB010008BB010008BB01000820
:1000D000BB010008BB010008BB010008BB01000810
:1000E000BB010008BB010008000000000000000088
:1000F0000000000000000000000000000000000000
:1001000000000000BB01000800000000BB01000867
:100110000000000000000000BB010008BB01000857
:10012000BB010008BB010008BB010008BB010008BF
:10013000BB010008000000000000000000000000FB
:10014000BB010008BB010008BB0100080000000063
:10015000BB010008BB010008BB010008BB0100088F
:10016000BB010008BB010008BB0100080000000043
:10017000BB010008BB0100080000000000000000F7
:10018000BB010008BB010008BB010008DFF80CD070
:1001900000F02AF8004800477916000860040020A3
:1001A0000648804706480047FEE7FEE7FEE7FEE711
:1001B000FEE7FEE7FEE7FEE7FEE7FEE7E5140008E0
:1001C0008D010008D2B201E000F8012B491EFBD2DC
:1001D00070470022F6E710B513460A460446194652
:1001E000FFF7F0FF204610BD064C074D06E0E06823
:1001F00040F0010394E8070098471034AC42F6D36E
:10020000FFF7C8FFF816000818170008FEE70000FF
:1002100070470000EFF3108072B600BFFEE70000E9
:100220002DE9F04F82B00E68002E00F0D78041F229
:100230000002C4F600020727904208BF042700F11D
:1002400038424FEAB223042B38BF4FEAB227009757
:1002500000234FF0030E40F2004AC4F2010A0025C9
:10026000012400BFA4F10109012202FA09FB16EAE8
:100270000B0800F0A8804E6806F00306013E012E30
:1002800013D80EFA05F6D0F808C02CEA0606CA689C
:10029000AA4032438260426822EA0B024E68C6F3EB
:1002A000001606FA09F6324342604A6802F0030279
:1002B000032A08D00EFA05F2C66826EA02028E6802
:1002C000AE403243C2604A6802F00302022A14D1EF
:1002D00003F01C020F2707FA02FC4FF6FC76C7F664
:1002E000FF7606EA590707443E6A26EA0C0C0E69B7
:1002F00006FA02F242EA0C023A620EFA05F20768C6
:1003000027EA02024F6807F00307AF403A43026052
:100310008A79920757D041F26002C4F2020217466E
:100320003A6842F001023A603A6802F00102019232
:1003300029F003025244019F4FF60847CFF6FF779A
:10034000B94652F809C003F00C060F27B7402CEA53
:10035000070C009F07FA06F64CEA060742F80970F8
:10036000DAF8082022EA08024F6817F4801F18BF45
:1003700042EA0802CAF8082040F20C42C4F2010224
:100380001646326822EA08024F6817F4001F18BFA9
:1003900042EA08023260DAF8042022EA08024F68D2
:1003A00017F4003F18BF42EA0802CAF80420DAF83E
:1003B000002022EA08024F6817F4803F18BF42EA83
:1003C0000802CAF800200E6836FA04F203F10403AA
:1003D00005F1020504F101047FF444AF02B000F01E
:1003E00000B830BCBDE8C08F426902EA0103914306
:1003F00041EA03418161704700F12803002A18BFD8
:1004000000F118031960704740F25C00C2F200006E
:100410000068704740F20400C2F20000007840F229
:100420005C01C2F200010A681044086070470000D5
:1004300080B5032000F064F8032000F009F80028DC
:100440001CBF012080BD00F02FF84FF0000080BDE0
:10045000B0B5044640F20400C2F200000078002863
:1004600002BF01252846B0BD4FF47A71B1FBF0F010
:1004700040F20001C2F200010968B1FBF0F000F0A7
:10048000CBFC4FF001050F2C0CD858B900254FF0CC
:10049000FF302146002200F023F840F20800C2F2AB
:1004A000000004602846B0BD82B041F25800C4F29A
:1004B0000200816841F001018160816801F0010161
:1004C00001910199016841F080510160006800F0DC
:1004D00080500090009802B07047000001F090B882
:1004E00070B514460D46064601F09CF82946224692
:1004F00000F040FF01463046BDE8704001F09AB878
:1005000001F0AAB847F20001C4F200010A6802F43F
:10051000C062B0F5007F26D1B2F5007F2BD008680D
:10052000012262F34A20086040F20000C2F200009B
:100530000068322250434DF68362C4F21B32A0FBA6
:1005400002026FEA924000BF4A6900281CBF0130D6
:1005500012F48062F8D1486910F4806F1EBF032046
:10056000C0B2704707E0B2F5806F1FBF0868022273
:1005700062F34A2008600020C0B2704747F20000D2
:10058000C4F20000006800F4C06070472DE9F0413B
:1005900088460446002C00F0AF8041F20807C4F200
:1005A0000207D7F8F80F00F0070040450ED2D7F841
:1005B000F80F20F0070040EA0800C7F8F80FD7F856
:1005C000F80F00F00700404540F096802078800743
:1005D0000AD5A068396801F0F001884281BF396806
:1005E00021F0F001084338602078C00734D06068FB
:1005F000022807D003280BD157F8080C10F0007F11
:100600007AD00DE057F8080C10F4003F74D007E0E2
:1006100057F8081C10B148056ED501E088076BD566
:100620003868616820F0030008433860FFF7ECFE8B
:10063000064641F2883500BF3868616800F00C005A
:10064000B0EB810F08D0FFF7DFFE801BA842F3D983
:100650000320C0B2BDE8F081207880070AD5A068E9
:10066000396801F0F00188423FBF396821F0F0019C
:1006700008433860D7F8F80F00F0070040450DD95F
:10068000D7F8F80F20F0070040EA0800C7F8F80F85
:10069000D7F8F80F00F0070040452DD1207840072B
:1006A00005D53868E16820F4E060084338602078B8
:1006B000000706D53868216920F4605040EAC1007F
:1006C000386000F01DF83968C1F3031141F2B862D7
:1006D000C0F60002515C01F01F01C84040F2000169
:1006E000C2F20001086040F20800C2F20000006897
:1006F000BDE8F041FFF7ACBE0120C0B2BDE8F0811B
:1007000080B541F20C01C4F2020151F8042C0868D2
:1007100012F00C0341F2002CC0F27A0C42F2004EAF
:10072000C0F2F40E05D00C2B04BF00F0030001282A
:1007300018D151F80C0C10F0080F03D1D1F8880033
:10074000000A02E051F80C0C000900F00F0041F221
:10075000C862C0F6000252F82020002B104618BFD5
:1007600000200DE003F00F00042804BF704680BD98
:10077000082804BF604680BD4FF000004FF0000223
:100780000C2B18BF80BD086800F00300022803D0BE
:100790000328E64618BF964608680A680968C1F348
:1007A0004161022303EB4101C2F3062202FB0EF278
:1007B000C0F302100130B2FBF0F0B0FBF1F080BDED
:1007C0002DE9F04782B00446002C00F07E8241F211
:1007D0000407C4F20207786800F00C08B86800F05B
:1007E00003092078C00641F2000AC4F2020A52D47A
:1007F0002078C00712D0B8F1080F06D0B8F10C0F5E
:1008000008BFB9F1030F40F03081DAF8000010F4AE
:10081000003F03D06068002800F0578220788007EE
:1008200019D5B8F1040F06D0B8F10C0F08BFB9F113
:10083000020F40F02D81DAF8000010F4806F03D031
:10084000E068002800F041823868216920F0F85003
:1008500040EA016038602078000740F1BB806169A0
:10086000D7F89000002900F0A28040F00100C7F8FE
:100870009000FFF7C9FD0546D7F8900010F0020F71
:1008800040F0A880FFF7C0FD401B0228F4D90320E8
:1008900002B0BDE8F087B8F1000F05D0B8F10C0F39
:1008A00008BFB9F1010F68D1DAF8000010F0020FAB
:1008B00003D0A069002800F00882206ADAF800104E
:1008C00011F0080F06BFD7F890100909DAF80010E8
:1008D00001F0F00188421AD900F06AFD002840F0CA
:1008E000F481DAF8000040F00800CAF80000DAF8F5
:1008F0000000216A20F0F0000843CAF800003868C0
:10090000E16920F47F4040EA0120386018E0DAF81D
:10091000000040F00800CAF80000DAF80000216A80
:1009200020F0F0000843CAF800003868E16920F4BC
:100930007F4040EA01203860B8F1000F00F08E805F
:10094000FFF7DEFE7968C1F3031141F2B862C0F629
:100950000002515C01F01F01C84040F20001C2F2E8
:100960000001086040F20800C2F200000068FFF7D2
:100970006FFD002840F049823AE7A169DAF80000EB
:10098000002900F0A08040F00100CAF80000FFF745
:100990003BFD0546DAF8000010F0020F40F09981A7
:1009A000FFF732FD411B03200229F3D92DE220F08D
:1009B0000100C7F89000FFF727FD0546D7F8900023
:1009C00010F0020F06D0FFF71FFD411B0320022984
:1009D000F4D91AE22078400740F1BB80786D10F01E
:1009E000805F0BD1786D40F080507865786D00F0B5
:1009F0008050019001984FF0010901E04FF000098B
:100A000046F20006CFF6FE765AF8060010F4807F14
:100A100014D15AF8060040F480704AF80600FFF737
:100A2000F3FC05465AF8060010F4807F06D1FFF764
:100A3000EBFC411B03200229F4D9E6E1A16801295E
:100A400007D0D7F88C00052951D140F00400C7F831
:100A50008C00D7F88C0040F0010050E0206A00F0D4
:100A6000A7FC002840F031816AE76168B1F5803F5A
:100A700009D0DAF80000B1F5A02F40F05F8140F412
:100A80008020CAF80000DAF8000040F480305DE110
:100A9000E168DAF80000002900F0318140F480704C
:100AA000CAF80000FFF7B0FC054600BFDAF8000006
:100AB00010F4806F7FF4C8AEFFF7A6FC411B032043
:100AC0000229F3D9A1E120F00100CAF80000FFF7E4
:100AD0009BFC0546DAF8000010F0020F3FF488AEE8
:100AE000FFF792FC411B03200229F3D98DE120F08E
:100AF0000100C7F88C00D7F88C0020F00400C7F87C
:100B00008C00A668FFF780FC05466EB141F288367E
:100B1000D7F88C0010F0020F14D1FFF775FC411BC1
:100B20000320B142F4D970E141F28836D7F88C0045
:100B300010F0020F06D0FFF767FC411B0320B14203
:100B4000F4D962E1B9F1010F02BF786D20F0805055
:100B50007865207880062BD5616AD7F8940099B122
:100B600040F00100C7F89400FFF74EFC054600BFB7
:100B7000D7F8940010F0020F1AD1FFF745FC411B83
:100B800003200229F4D940E120F00100C7F89400C5
:100B9000FFF73AFC054600BFD7F8940010F0020FAB
:100BA00006D0FFF731FC411B03200229F4D92CE1C8
:100BB000A06A002800F02C81022851D1B868E16AAF
:100BC00000F003028A4263D1216B6FF00F0202EB47
:100BD000011100F070028A425AD1616B00F4FE42AA
:100BE000B2EB012F54D1A16B00F07842B2EBC16F90
:100BF0004ED1E16B0022CFF6E07202EA0151A1F57D
:100C0000001100F4C0028A4242D1216C4FF07E42B2
:100C100002EA016101F17E4100F0C060884237D1F3
:100C2000DAF8000010F0007F40F0F280DAF80000FF
:100C300040F08070CAF80000B86840F08070B8607A
:100C4000FFF7E2FB0446DAF8000010F0007F40F006
:100C5000DF80FFF7D9FB011B03200229F3D9D4E081
:100C6000B8F10C0F31D0DAF8000020F08070CAF82B
:100C70000000FFF7C9FB0446DAF8000010F0007F1F
:100C800051D0FFF7C1FB011B03200229F4D9BCE0BE
:100C9000B8F10C0F19D0DAF8000010F0806F14D101
:100CA000DAF8000020F08070CAF80000FFF7ACFB13
:100CB0000546DAF8000010F0007F69D0FFF7A4FBCA
:100CC000411B03200229F4D99FE0012002B0BDE8B6
:100CD000F087DAF8000040F00800CAF80000DAF8FF
:100CE0000000216A20F0F0000843CAF800003868CC
:100CF000E16920F47F4040EA0120386078E520F483
:100D00008070CAF80000FFF77FFB0546DAF80000A4
:100D100010F4806F3FF49FADFFF776FB411B03207B
:100D20000229F3D971E0B8684FF6FC71CFF6EE6195
:100D30000840B860002002B0BDE8F08720F48030A1
:100D4000CAF80000DAF8000020F48020CAF8000099
:100D50006668FFF759FB05466EB100BFDAF8000080
:100D600010F4003F7FF45AADFFF74EFB411B032008
:100D70006429F3D949E0DAF8000010F4003F3FF4A9
:100D80004DADFFF741FB411B03206429F3D93CE043
:100D9000B86804F12C064ECE6FF00F0505EB021279
:100DA00048F28C05C0F29D1528400843104340EAE4
:100DB0000320E16B0022CFF6E07202EA0151A1F5B7
:100DC0000011084340EAC660216C4FF07E4202EAFF
:100DD000016101F17E410843B860DAF8000040F09B
:100DE0008070CAF80000B86840F08070B860FFF703
:100DF0000BFB0446DAF8000010F0007F08D1FFF783
:100E000003FB011B03200229F4D902B0BDE8F087DF
:100E1000002002B0BDE8F08700F012BB7047000070
:100E2000704700007047000090F83C300222012B10
:100E300032D010B5012380F83C3080F83D200368A3
:100E40005A68D3F808E042F6004CC4F2010C63453E
:100E500002BF4C6822F4700222430C6822F0700238
:100E600042EA04025A600368B3F1804F1EBF44F2A5
:100E70000002C4F20102934201D0634504D18968A3
:100E80002EF0800211439960012180F83D1000226C
:100E900080F83C20BDE81040D0B2704710B5044641
:100EA000002C04BF012010BD94F83D0028B900209B
:100EB00084F83C00204600F023F8022084F83D002E
:100EC0002068211D00F01EFB012084F8480084F8F2
:100ED0003E0084F83F0084F8400084F8410084F824
:100EE000420084F8430084F8440084F8450084F804
:100EF000460084F8470084F83D00002010BD000043
:100F0000006842F60041C4F20101884218BF7047F0
:100F100080B582B041F26000C4F20200016841F481
:100F200000610160006800F40060019001984FF0DA
:100F300019004FF00F014FF00002FFF7D1FA4FF008
:100F4000190002B0BDE88040FFF7C8BA90F83D1024
:100F500001291EBF0121084670474FF0020180F8A9
:100F60003D100168CA6842F00102CA600168B1F12F
:100F7000804F1EBF44F20002C4F20102914205D02C
:100F800042F60042C4F2010291420CD18968072264
:100F9000C0F201020A400021062A18BFB2F5803FC4
:100FA00001D1084670470068016841F00101016005
:100FB000002108467047000010B5044694F83C2014
:100FC0000220012A69D0012284F83C2084F83D00E7
:100FD000206882688823CFF6FE731A4082600A6810
:100FE0004F2A10DC1F2A26DD202A18BF302A26D0DF
:100FF000402A54D14B68CA682068194600F0DAFAD2
:101000002068402140E06F2A1CDDB2F5005F26D049
:10101000B2F5805F3AD0702A41D1D1E9012CCB687A
:101020002068614600F0B4FA20688068216840F0CA
:10103000770088602AE0002A18BF102A2FD1206884
:10104000114621E0502A17D0602A28D14B68CA687F
:101050002068194600F0C0FA2068602114E0D1E948
:10106000012CCB682068614600F092FA2068816804
:1010700041F48041816009E04B68CA6820681946E4
:1010800000F098FA2068502100F08CFA002001212D
:1010900084F83D10002184F83C10C0B210BD01203E
:1010A000F5E700007047000010B5044620680169AC
:1010B00011F0020F1CBFC16811F0020F15D06FF0C4
:1010C00002010161012020772068806910F0030F80
:1010D00003D02046FFF7E6FF05E0204600F0B0F819
:1010E000204600F0AFF8002020772068016911F059
:1010F000040F1CBFC16811F0040F15D06FF004017C
:101100000161022020772068806910F4407F03D0BD
:101110002046FFF7C7FF05E0204600F091F8204683
:1011200000F090F8002020772068016911F0080F86
:101130001CBFC16811F0080F15D06FF008010161E4
:10114000042020772068C06910F0030F03D02046E8
:10115000FFF7A8FF05E0204600F072F8204600F0F7
:1011600071F8002020772068016911F0100F1CBF72
:10117000C16811F0100F15D06FF010010161082047
:1011800020772068C06910F4407F03D02046FFF725
:1011900089FF05E0204600F053F8204600F052F8A1
:1011A000002020772068016911F0010F1CBFC16881
:1011B00011F0010F05D06FF001010161204600F030
:1011C00043F82068016911F0800F1CBFC16811F05D
:1011D000800F05D06FF0800101612046FFF720FEEF
:1011E0002068016911F4807F1CBFC16811F0800F75
:1011F00005D06FF4807101612046FFF70FFE206873
:10120000016911F0400F1CBFC16811F0400F05D0FB
:101210006FF040010161204600F026F82068016966
:1012200011F0200F1CBFC16811F0200F00D110BDBC
:101230006FF0200101612046BDE81040FFF7F2BDCC
:101240007047000070470000006842F60041C4F299
:101250000101884218BF704740F60000C4F6000044
:101260004FF40051FFF7C0B870470000FEE70000E0
:1012700070B586B00025059541F24C00C4F202001D
:10128000016841F004010160016801F0040100916E
:101290000099016841F080010160016801F080015E
:1012A00000910099016841F001010160006800F0BF
:1012B00001000090009840F60004C4F600044FF4CA
:1012C000005620464FF400510022FFF795F8019692
:1012D0000120CDE90205049501A92046FEF7A0FFF3
:1012E00006B070BD80B588B000210791CDE9051129
:1012F000CDE90311CDE9011140F21000C2F2000066
:1013000042F60042C4F2010249F63F434FF47A7CB0
:10131000C0E90023C0E9021CC0E904118161FFF7A4
:10132000BDFD002818BFFEF775FF4FF480500490F4
:1013300040F21000C2F2000004A9FFF73DFE0028B1
:1013400018BFFEF767FF4FF00000CDE901000390E2
:1013500040F21000C2F2000001A9FFF765FD00286D
:1013600018BFFEF757FF08B080BD0000FEE7000081
:10137000FEE7000000F0070000F1040CC31EBCF102
:10138000070F38BF002380F00700042828BF04207F
:101390004FF0010C0CFA00F00138084098400CFAAC
:1013A00003F1013911400843704700007047000005
:1013B000B0B582B0044641F25805C4F2020528686F
:1013C00010F0805F0FD1286840F0805028602868B6
:1013D00000F0805001900198FFF7D0F8296821F0C3
:1013E0008051296001E0FFF7C9F842F20001C4F220
:1013F0000201B0F5007F06D1812C08D30120A02C7A
:1014000088BF02200DE0802C03D9032009E00020D2
:1014100007E0A4F17000B0FA80F04009802C08BF0A
:1014200002200A6822F0070202430A60096801F0FC
:101430000701081A18BF012002B0B0BD70470000B4
:10144000B0B501380024B4EB106F1EBF0124204654
:10145000B0BD4EF21005CEF2000568604FF0FF30CF
:101460004FF00F0100F0E6F8AC604FF00700286085
:101470002046B0BDFEF7CEBF10B596B005A84421FA
:10148000FEF7A7FE00200490CDE90200CDE90000A0
:101490004FF40070FFF736F810BB012005904FF4B1
:1014A0008031069102210F910324CDE910401420D0
:1014B00012900720CDE91301159105A8FFF780F9D7
:1014C00070B90F20CDE900040020CDE9020004909E
:1014D00068460421FFF75AF8002804BF16B010BD73
:1014E000FEF798FE4EF68850CEF20000016841F4F7
:1014F000700101607047000040F21000C2F200006D
:10150000FFF7D2BD036842F6004CC4F2010C6045FF
:1015100018BFB0F1804F03D14A6823F07003134322
:1015200043F6FF72C4F20102904205DCB0F1804F35
:101530000ED060450CD00FE044F20042C4F201022C
:10154000904205D044F20002C4F20102904203D15D
:10155000CA6823F4407313434A6923F080031A4393
:1015600002608A68C2620A68826260451EBF44F2F5
:101570000042C4F20102904205D044F20002C4F2DB
:101580000102904201D10969016301214161704763
:10159000114341EA0321826822F47F4211438160B2
:1015A00070470000826822F07702114341F0070182
:1015B00081607047D0F820C0036A23F00103036202
:1015C000836923F0F00343EA021282612CF00A02DD
:1015D0001143016270470000036A23F010030362A5
:1015E000836923F4704343EA0232036A826123F081
:1015F000A00242EA0111016270470000FEE700000C
:101600000028B8BF704700F01F014FF0010202FA36
:1016100001F14FEA50104EF20012CEF2000242F8F1
:10162000201070474EF60C50CEF200000068C0F358
:101630000220704700F1604C00F00F034EF6145288
:10164000CEF200021A44B0F1FF3FC8BF0CF564426D
:1016500008011070704700004EF60C51CEF20001E8
:101660000A684FF6FF031A4060F30A2242F08060D6
:1016700040F0FD700860704780B5FEF7D9FEFFF7B7
:10168000FBFEFFF7F5FDFFF72DFE40F21000C2F262
:101690000000FFF75BFC00BFFEE702E008C8121F76
:1016A00008C1002AFAD170477047002001E001C14B
:1016B000121F002AFBD1704700000000000000004C
:1016C0000102030406070809A0860100400D03007B
:1016D000801A060000350C0040420F0080841E0076
:1016E00000093D0000127A000024F40000366E016B
:1016F0000048E801006CDC02181700080000002018
:10170000100000009A16000828170008100000209A
:1017100050040000AA16000800093D000100000066
:081720001000000000000000B1
:040000050800018D61
:00000001FF
