:020000040800F2
:10000000E80400204501000811240008B12200087E
:100010000D24000811090008252400080000000034
:10002000000000000000000000000000192400088B
:100030002109000800000000152400081D24000804
:100040005F0100085F0100085F0100085F01000810
:100050005F0100085F0100085F0100085F01000800
:100060005F0100085F0100085F0100081509000832
:100070005F0100085F0100085F0100085F010008E0
:100080005F0100085F0100085F0100085F010008D0
:100090005F0100085F0100085F0100085F010008C0
:1000A0005F0100085F0100085F0100085F010008B0
:1000B0005F0100085F0100085F0100085F010008A0
:1000C0005F0100085F0100085F0100085F01000890
:1000D0005F0100085F0100085F0100085F01000880
:1000E0005F0100085F0100085F0100085F01000870
:1000F0005F0100085F0100085F0100085F01000860
:100100005F0100085F0100085F0100085F0100084F
:100110005F0100085F0100085F0100085F0100083F
:100120005F0100085F0100085F0100085F0100082F
:10013000DFF80CD000F0E8FA004800474924000836
:10014000E80400200648804706480047FEE7FEE72F
:10015000FEE7FEE7FEE7FEE7FEE7FEE7FEE7FEE777
:1001600021240008310100082DE9FE4F81EA030433
:1001700004F0004421F0004100944FF0000B23F004
:10018000004350EA01045ED052EA03045BD0C3F39B
:100190000A54C1F30A552C44A4F2F3340194A0FB91
:1001A0000254C1F3130141F48011C3F3130343F468
:1001B000801301FB024400FB034E840A970A44EAC1
:1001C000815447EA8357A4FB076802958D0A05FB13
:1001D00007854FEA932C04FB0C542705029D4FEA38
:1001E000065847EA1637B5EB08056EEB070C870E85
:1001F000920E47EA811742EA8312A7FB0201B6EB8F
:100200000B0164EB00042B0D43EA0C335E1844EB46
:100210001C50DA465146E7FB0201C5F313044FEACE
:100220000B3343EA14534FEA0432019C43EA0603BA
:10023000A4F10C040294009CCDE900B400F0CFF8C6
:1002400003B0BDE8F08F00200146F9E70EB540F29B
:10025000334102910021CDE900110A460B4600F01E
:10026000BEF803B000BD00F0004230F000400AD0FC
:10027000C10D01F56071C0F3160042EA0151C208D8
:1002800040071143704700200146704701F00043CA
:1002900030B421F0004150EA010206D00A0DA2F567
:1002A0006072C1F31301002A02DC30BC00207047E9
:1002B000440F44EAC104C100E01830BC00EBC25056
:1002C00000F047B830B50B4601460020202201243B
:1002D00009E021FA02F59D4205D303FA02F5491B14
:1002E00004FA02F52844151EA2F10102F1DC30BD2A
:1002F0002DE9F05F0546002092469B46884606465B
:10030000814640241BE0284641464746224600F0ED
:100310001CFA53465A46C01A914110D3114618464A
:10032000224600F003FA2D1A67EB01084F462246D9
:100330000120002100F0FAF917EB00094E41201EC0
:10034000A4F10104DFDC484631462A464346BDE8B5
:10035000F09F0029A8BF7047401C490008BF20F04B
:100360000100704710B4B0FA80FC00FA0CF050EABB
:10037000010404BF10BC704749B1CCF1200421FA3C
:1003800004F411FA0CF118BF012121430843A3EB37
:100390000C01CB1D4FEA00614FEA102042BF002044
:1003A00010BC704700EBC35010440029A4BF10BC20
:1003B0007047401C490008BF20F0010010BC704786
:1003C00010B5141E73F1000408DA401C41F100015D
:1003D00092185B411A4301D120F0010010BD2DE9B4
:1003E000F04D92469B4611B1B1FA81F202E0B0FAAB
:1003F00080F22032904600F099F904460F4640EA18
:100400000A0041EA0B0153465A46084313D01146ED
:1004100053EA010019D0C8F14002504600F095F9A6
:1004200005460E4650465946424600F07FF90843BD
:1004300005D0012004E020463946BDE8F08D0020BB
:10044000054346EAE0762C4337430A986305E40AFD
:10045000A0EB08000022FD0A44EA47540A3002D506
:1004600000200146E9E7010510196941DDE9084569
:1004700000196941BDE8F04DA2E72DE9FE4F804625
:1004800081EA0300C00F0C46009021F0004123F0E8
:100490000045B8EB0200A94105D2404621469046EE
:1004A0001C460B46024623F00040104347D0270D60
:1004B000C7F30A00C3F30A510290401A0190402882
:1004C0006BDAC3F3130040F4801B0098924620B10E
:1004D0000023D2EB030A63EB0B0B01985946C0F1E2
:1004E0004002504600F022F906460D465046594655
:1004F000019A00F03AF910EB08006141002487EA04
:10050000115284EAE7731A4340D0009A62B3019A09
:10051000012A4FEA075215DC001B61EB02014FF084
:10052000004202EA0752CDE90042001C41F5801169
:1005300032462B46FFF753FF03B0BDE8F08F40462D
:100540002146F9E7001B61EB0201001C41F5801315
:1005500000185B412018A2F5001747EB030140EAA1
:10056000D570B6196D4111E06D084FEA360645EABF
:10057000C0754FEA0752001B61EB0201001C41F5F8
:10058000801149084FEA30000019514132462B468C
:1005900003B0BDE8F04FFFF713BF00980122400001
:1005A0000023D0EB020263EBE073009821464FEA90
:1005B000E074B8EB000061EB0401E9E783F000436D
:1005C0005BE781F0004158E72DE9F04D81EA030433
:1005D00004F0004B21F0004514464FF0000A23F0D0
:1005E000004150EA050220D054EA01021DD0C5F3B3
:1005F0000A570246C5F31303C1F31300C1F30A56A9
:1006000040F4801543F48013A7EB0608101BD64670
:1006100008F2FD3873EB050002D308F1010801E090
:1006200092185B41B8F1000F03DA00200146BDE8E3
:10063000F08D00204FF48011064684460EE0171B13
:1006400073EB050705D3121B63EB050306434CEA66
:10065000010C49084FEA300092185B4150EA01074B
:10066000EDD152EA030012D082EA040083EA0501C8
:10067000084305D0101BAB4106D20122002306E03F
:1006800000224FF0004302E06FF0010253101AEB1A
:1006900006004CEB085110EB0A0041EB0B01BDE8E2
:1006A000F04DFFF78DBEC1F30A52C1F3130140F2C2
:1006B000FF3341F480119A4202DA0020014670476C
:1006C00040F233439A42A2F2334202DC524200F03B
:1006D0003CB800F02BB8000030B5041E71F10004E6
:1006E00004DB4FF00044404264EB0101141E73F13F
:1006F000000405DB1C464FF00043524263EB040349
:10070000994208BF904230BD064C074D06E0E068B4
:1007100040F0010394E8070098471034AC42F6D348
:10072000FFF70AFD242F0008442F0008202A04DBCD
:10073000203A00FA02F1002070479140C2F12003F4
:1007400020FA03F3194390407047202A04DB203A33
:1007500021FA02F00021704721FA02F3D040C2F1E1
:1007600020029140084319467047202A06DBCB1728
:10077000203A41FA02F043EAE07306E041FA02F35C
:10078000D040C2F120029140084319467047000052
:10079000B0B5044600688168C90709D0816821F0B6
:1007A0000101816000F0B6FE21688968C90701D1A6
:1007B0000020B0BD054602E08068C007F8D000F018
:1007C000A9FE411B20680329F6D38168C907F3D02D
:1007D000A06A40F01000A062E06A40F00100E06210
:1007E0000120B0BD0146406A826A12F0500F03D06A
:1007F000006A026B084610470168826A42F4007280
:100800008262896801F46021B1F5602F01D1017B1A
:1008100011B100F0DFB900BF816A21F480718162FB
:10082000816AC90448BF00F0D5B9816A41F001016D
:10083000816200F0CFB90000406A816A41F0400156
:100840008162C16A41F00401C16200F0C7B90000D1
:10085000406A00F0C1B90000B0B582B00446002083
:10086000019021688A68D2074FD1886840F0010062
:10087000886040F20C00C2F2000000684DF683610F
:10088000C4F21B31A0FB0101880C01900198A0B1BA
:10089000019801380190019878B1019801380190D0
:1008A000019850B1019801380190019828B1019840
:1008B0000138019001980028EAD100F02BFE216850
:1008C0008968C9071CD1054603E000BF8068C007DE
:1008D0001AD100F01FFE411B20680329F6D381685E
:1008E000C907F3D1A06A40F01000A062E06A40F0AE
:1008F0000100E062002084F82400012002B0B0BDB5
:10090000002002B0B0BD00BF002002B0B0BD0000AA
:10091000FEE7000040F25800C2F2000000F0F6BA14
:1009200070470000EFF3108072B600BFFEE70000D2
:1009300070B582B004460020019094F8240001288C
:1009400004D10225284602B070BD00BF012084F802
:1009500024002046FFF71CFF2046FFF77DFF0546D9
:10096000002867D1A06A41F2021188430230A062D8
:1009700040F20C00C2F200000668022000F084FE83
:10098000B6FBF0F0400001900198A0B10198013849
:100990000190019878B1019801380190019850B107
:1009A000019801380190019828B10198013801900F
:1009B00001980028EAD12068816841F0080181602F
:1009C00000F0A8FD21688A6812070DD4886840F0FD
:1009D0000400886000F09EFD21688968490713D4EF
:1009E00001206FF0030121E0064602E0886800075D
:1009F000ECD500F08FFD801B21680B28F6D38868AA
:100A00000007F3D50EE000BF064602E0806840070D
:100A1000E6D500F07FFD811B20680B29F6D38168A5
:100A20004907F3D5012510206FF01201A26A114089
:100A30000843A062002084F82400284602B070BD5C
:100A400010B581B00022009290F82420012A03D131
:100A50000221084601B010BD4B680122062B80F828
:100A6000242015D8026803EB8303A3F1050E1F238E
:100A7000D2F834C003FA0EF40B682CEA040C03FA23
:100A80000EF444EA0C045463092B17D937E000BF75
:100A900002680C2B20D803EB8303A3F123041F234C
:100AA000D2F830C003FA04FE0B682CEA0E0C03FAED
:100AB00004F444EA0C041463092B20D8D2F810C0C3
:100AC00003EB4303072489689C402CEA0404994003
:100AD00021431161002136E003EB8303A3F14104BC
:100AE0001F23D2F82CC003FA04FE0B682CEA0E0C6C
:100AF00003FA04F444EA0C04D462092BDED903EBB4
:100B00004304D2F80CC0A4F11E0E0724896804FA2D
:100B10000EF42CEA040401FA0EF1214323F001043F
:100B2000102CD1600ED142F20841C4F20101A1F1B2
:100B30000804A2420ED0816A41F0200181620121A5
:100B400001E000BF0021002280F82420084601B007
:100B500010BD00BF0A68120230D40A68102B42F49C
:100B600000020A602CD140F20C01C2F200010968B7
:100B70004DF68362C4F21B32A1FB0212910C01EB11
:100B80008101490000910099E1B10099013900917A
:100B90000099C9B10099013900910099B1B100994A
:100BA00001390091009999B100990139009100999A
:100BB00000294FF00001E8D1C5E700BF0021C2E7DE
:100BC0000021C0E70021BEE70021BCE70021BAE711
:100BD0000021B8E770470000704700007047000030
:100BE000B0B5002800F0B2800446806A20B12168C8
:100BF0008868C0070BD114E00020E06284F824006C
:100C0000204600F0A5F821688868C00709D08868E8
:100C100020F00100886000F07DFC21688A68D2071E
:100C200030D1A06AC00644D4A06A41F202129043B7
:100C30000230A062E36981F0804080F49E3083F44A
:100C40004022104308BF4FF40023D4E9010243EAD5
:100C5000000C531EB3FA83F35D091346B2F5807F8F
:100C600018BF2B02207D257B01284CEA450030D19E
:100C700035B3A56A45F02005A562E56A45F0010592
:100C8000E56226E0054602E08868C007C9D000F0AA
:100C900041FC401B21680328F6D38868C007F3D0C5
:100CA000A06A40F01000A062E06A40F00100E0623B
:100CB000A06AA06A40F01000A0620120B0BD00BF91
:100CC000D4F818C04EF60005CFF6FF7505EB4C358D
:100CD0002B434D68B2F5807F25F4694543EA05034F
:100CE0004B608B684FF2FD75CFF6E17503EA0503A3
:100CF00043EA00038B6001D0012A07D12269002357
:100D0000CFF6F07303EB025201E000BF0022CB6A82
:100D100023F470031A43CA62896840F6FE62CFF674
:100D20001F721140814207D10020E062A16A0122B6
:100D300062F30101A162B0BDA06A40F0100020F092
:100D40000200A062E06A40F00100E0620120B0BD54
:100D500070B586B0044640F60000C4F20100216878
:100D600000F5E052002691420596049602D006B0A6
:100D700070BD00BF41F21801C4F202010A6842F4DA
:100D800000720A600A6802F400720192019A0A680D
:100D900042F004020A60096801F00401019101991E
:100DA0000F2102910321039102A900F0AFFA40F252
:100DB00058050820C2F20005C4F202004FF4807208
:100DC000C5E9000605F1100080214FF480634FF063
:100DD000200C80E80C102846C5E90261EE6100F0A5
:100DE000E3F9002818BFFFF79DFD25626C6206B08D
:100DF00070BD000070B515460446006842F600025A
:100E0000C4F2010290420E4605D042F20041C4F203
:100E10000101884209D142F20440C4F20100006895
:100E200010F4702F1CBF012070BD94F8240001281D
:100E300004BF022070BD012084F824002046FFF783
:100E40000BFD18B1002184F8241070BD42F204405B
:100E50002168A26AC4F2010040F601739A4300F5CA
:100E60007F7302F580729942A26243D0A06A20F497
:100E70008010A0624868400504D5A06A012262F390
:100E80000D30A062A26A0020D2044FF0000244BFDD
:100E9000E26A22F00602E26284F82400206A40F24C
:100EA000E572C0F6000240F6510340F6390C00F13D
:100EB000280EC0F60003C0F6000C8EE80C106FF090
:100EC00002020A608A682B4642F480728A604C31C2
:100ED000324600F0B9F92068816801F46022816827
:100EE000B2F5602F0CBF41F4A00141F48011816084
:100EF000002070BD026812F4702FB7D0A26A42F4CD
:100F00008012A26200684005BCD5B6E710B5D0E9F2
:100F10000FE3D0F800C0DEF80020DCF80010DA4063
:100F200054072DD511F004042AD0DCF800108906EE
:100F300005D4DCF8001021F00401CCF800100422E4
:100F4000C4F2020202F17C018C454DD940F2084105
:100F5000C4F202018C4500F0B18040F21C41C4F2A1
:100F600002018C4500F0AE8040F23041C4F2020133
:100F70008C4540F0AB804FF48061C2F80014F9E07A
:100F8000940747D511F0020444D0DCF8001089061C
:100F900008D4DCF8001021F00A01CCF8001001217F
:100FA00080F821100422C4F2020202F17C018C4577
:100FB0004ED940F20841C4F202018C4500F0B680DF
:100FC00040F21C41C4F202018C4500F0B38040F2B3
:100FD0003041C4F202018C4540F0B0804FF4007102
:100FE000C2F80014D8E000BF4321C4F202018C45CE
:100FF00044DD6B21C4F202018C4551DC4421C4F272
:1010000002018C4500F0A6805821C4F202018C45F3
:1010100068E000BF120740F1C58011F0080108BF69
:1010200010BDDCF8001021F00E01CCF800100121F9
:1010300001FA03F2CEF80420816380F82110016BDD
:101040000022002980F8202040F09680AAE000BF0E
:101050004321C4F202018C4548DD6B21C4F2020138
:101060008C4555DC4421C4F202018C4500F0888097
:101070005821C4F202018C4576E000BF0821C4F279
:1010800002018C456AD01C21C4F202018C456FD04C
:101090003021C4F202018C4524D14FF4806168E014
:1010A0006C21C4F202018C455AD08021C4F20201A5
:1010B0008C4517D14FF080615BE000BF0421C2F87E
:1010C000001457E04021C2F8001453E002F5886391
:1010D0004FF480219C4508BF4FF48041C2F80014B2
:1010E00048E000BF4FF4802143E000BF0821C4F274
:1010F00002018C4548D01C21C4F202018C4549D024
:101100003021C4F202018C452ED14FF4007142E02F
:101110006C21C4F202018C4538D08021C4F2020156
:101120008C4521D14FF0007135E000BF0221C2F89B
:10113000001431E02021C2F800142DE002F588638C
:101140004FF400319C4508BF4FF40051C2F8001421
:1011500022E000BF4FF480410BE000BF042108E013
:101160004FF4800105E000BF4FF4003113E000BFF1
:1011700040211160C16AA9B1BDE81040084700BF15
:101180004FF4005107E000BF022104E04FF40011CA
:1011900001E000BF20211160816A0022002980F84F
:1011A0002020E9D110BD0000014600284FF00100C9
:1011B00008BF70472DE9F04740F2000CC4F2020C62
:1011C0000A684FF6F8330CF5816ECBF6FD73724565
:1011D00038BF03F5806303EB020E4CF6CD43CCF62B
:1011E000CC43AEFB033E6FF003060CF5806506EAC8
:1011F0009E06D1E901A9D1F80C803CBF0025C4F2BC
:101200000205C1E90F56022681F82160166843F6EF
:10121000F075AE4346EA0A06D1E9045746EA0906E4
:1012200046EA0806D1E906432E43374327433B43AA
:10123000136000228A6381F8210081F820200020B9
:10124000BDE8F04770470000F0B590F820C0BCF151
:10125000010F32D04FF0010E80F820E090F821C04D
:10126000BCF1010F26D14FF0020C80F821C04FF0E5
:10127000000CC0F838C0D0E900C4C56AC66BDCF801
:101280000070102C27F00107CCF80070006C0EFAEB
:1012900000F070600846CCF8043004BF10460A46DF
:1012A000CCF80800CCF80C20DCF8000045B140F088
:1012B0000E000DE0002180F820100220F0BD00BFDC
:1012C00020F00400CCF80000DCF8000040F00A0038
:1012D000CCF80000DCF8000040F00100CCF8000081
:1012E0000020F0BDB0B5044600F014F9054640F208
:1012F0000400C2F200000078611C18BF044400BF63
:1013000000F008F9401BA042FAD3B0BD2DE9F04F20
:1013100082B041F60043C4F201030E6806229842EF
:1013200008BF0522002E009200F0F080A0F180435B
:10133000A3F5843340F200484FF6FF754FEAB32718
:10134000C4F20108009A4FF0000E0123C1F210050B
:101350004FF00F0C4FF0000A4FF0000B052F38BF75
:101360003A46009209E000BF0E680AF1010A36FA17
:101370000AF20EF1040E00F0C98003FA0AF916EA27
:10138000090FF1D04E68AE4212DC122E56D8DFE8BB
:1013900006F0350B45495555555555555555555537
:1013A0005555554D510000BFD1F80CB046E000BF77
:1013B0004FF6FF72C1F2210296420FDC0022C1F209
:1013C000110296421AD00022C1F21202964215D0A2
:1013D0000022C1F22102964210D02FE00022C1F279
:1013E000220296420AD00022C1F23102964205D072
:1013F0000022C1F23202964220D100BF8E684EB167
:10140000012E14BFC0F81490C0F810904FF0080BD4
:1014100014E000BF4FF0040B10E000BFCF6807F1ED
:10142000080B0BE04FF0000B08E000BFCF6807F19E
:10143000040B03E0CF6807F10C0B00BF74460746AE
:10144000BAF1080F24BF203C04373E680CFA04F2BE
:1014500026EA02020BFA04F632433A60CA79D2064F
:101460007FF582AF41F21807C4F202073A684FF6DF
:10147000084342F001023A603A68CFF6FF7302F087
:1014800001020192019A2AF003024244D7580EF059
:101490000C060CFA06F4A743009C04FA06F6374340
:1014A000D750D1F804C040F20C445FEACC22D8F8FF
:1014B000082054BF22EA090642EA0906C4F20104E0
:1014C0005FEA8C22C8F80860226854BF22EA090645
:1014D00042EA09065FEA8C322660D8F8042054BF3D
:1014E00022EA090642EA09065FEACC32C8F804603B
:1014F0004FF00F0C4FF00103D8F8002054BF22EA40
:10150000090642EA0906C8F800602DE702B0BDE806
:10151000F08F000040F2E400C2F200000068704763
:1015200040F2040040F2E401C2F20000C2F2000105
:1015300000780A68104408607047000080B542F2E5
:101540000000C4F20200016841F0100101600320B4
:1015500000F08AF8032000F005F800F027F80020DA
:1015600080BD000070B540F20406C2F2000640F2F1
:101570000C013278C2F200014FF47A730968B3FBB0
:10158000F2F20446B1FBF2F1084600F099FC0F2C90
:101590004FF0010508D838B94FF0FF30214600223E
:1015A000002500F035F87460284670BD82B041F225
:1015B0001800C4F202000168022241F0010101603A
:1015C000016801F0010101910199416841F08051E8
:1015D0004160406800F08050009000980420C4F200
:1015E0000100016862F31A61016002B070470000F7
:1015F000002848BF704700F01F01012202FA01F1E4
:101600004EF200124009CEF2000242F8201070475C
:1016100010B54EF60C5CCEF2000CDCF80030C3F3D3
:10162000022E8EF00704042C28BF0424BEF103030D
:101630004FF0FF3E0EFA04F438BF0023A143994057
:101640000EFA03F39A43114300F00F02043A624486
:1016500009010C3200F16043B0F1FF3FC8BF03F550
:101660006442117010BD00004EF60C51CEF2000124
:101670000A684FF6FF031A4060F30A2242F08060C6
:1016800040F0FD700860704780B5411E0F294FF093
:10169000000039D8DFE801F00C2A3808383838085B
:1016A000383838383838383ABDE8804000F002BA67
:1016B00041F20400C4F20200C16940F202320A4061
:1016C000B2F5817F04BF4FF4004080BD01F440714A
:1016D000B1F5407F4CD0B1F5007F51D1006A49F699
:1016E0004041800701EAE07080BD00BF00F0CEF904
:1016F00041F20401C4F2020109680222C1F38131FE
:1017000002EB4101B0FBF1F080BD00BF41F20401EA
:10171000C4F202010A6851F8040CC0015CBF002049
:1017200080BDC2F3834017A3185CD20306D440F6F1
:101730000012C0F23D0250430CE000BF0A6815A33E
:10174000C2F340429A5C41F20023C0F27A03B3FB39
:10175000F2F250430968490248BF80BD4AF6AB2106
:101760004000CAF6AA21A0FB0101480880BD00BFC5
:1017700050F8040C4FF22441800301EAE07080BD70
:10178000002080BD02030405060708090A0B0C0DA2
:101790000E0F1010010200002DE9F04182B0044646
:1017A000007841F21C06C007C4F202064AD0306835
:1017B00010F0805808D1306840F0805030603068B8
:1017C00000F080500190019847F20007C4F2000732
:1017D0003868C00512D4386840F480703860FFF76C
:1017E00099FE05463868C00508D4FFF793FE401BF4
:1017F0006428F7D9032002B0BDE8F081706810F4C6
:10180000407012D0616801F4407188420DD0706858
:1018100040F24042C4F24222012320F4407113609E
:101820000023C007136071602AD17068616820F4DA
:1018300040700843B8F1000F706003D1306820F0A9
:10184000805030602068810707D556F8181CA268C0
:1018500021F44041114346F8181CC00604D400206E
:1018600002B0BDE8F08100BF56F8180C616920F4A1
:101870008000084346F8180C002002B0BDE8F08153
:10188000FFF748FE054641F2883700BF70688007C1
:10189000CBD4FFF73FFE401BB8424FF00300F5D911
:1018A000EBE700002DE9F04381B0002800F08580CF
:1018B00042F20008C4F202080446D8F800000D46BF
:1018C00000F0070088420CD2D8F8000020F0070092
:1018D0002843C8F80000D8F8000000F00700A8422C
:1018E0006BD1206841F204098107C4F2020917D5BF
:1018F000410705D5D9F8001041F4E061C9F800109E
:10190000010705D5D9F8001041F46051C9F800105D
:10191000D9F80010A26821F0F0011143C9F80010B5
:10192000C00741D1D8F8000000F00700A8420CD948
:10193000D8F8000020F007002843C8F80000D8F8C5
:10194000000000F00700A84237D12068410707D502
:10195000D9F80010E26821F4E0611143C9F80010E1
:10196000000708D5D9F80000216920F4605040EA4A
:10197000C100C9F80000D9F8002002F00C000828C6
:1019800041F20020C0F27A0050D142F6FA63C2F36D
:101990008341C0F60003595CD2033BD440F60010EB
:1019A000C0F23D00484341E0606802280AD00128A7
:1019B0002AD159F8041C890308D4012001B0BDE8DC
:1019C000F08300BF59F8041C8901F6D5D9F800103E
:1019D00021F003010843C9F80000FFF79BFD06460C
:1019E00041F28837D9F80000616800F00C00B0EBD4
:1019F000810F97D0FFF78EFD801BB842F2D90320EC
:101A000001B0BDE8F08300BF59F8041C8907D4D5A4
:101A1000DCE700BFD9F8002042F6F863C2F3404289
:101A2000C0F600039A5C4843B0FBF2F0D9F800100E
:101A300042F6E062C1F30311C0F60002515C40F2CD
:101A40000C0220FA01F140F20800C2F20000006826
:101A5000C2F200021160FFF785FD002001B0BDE871
:101A6000F083000040F20C0041F20401C2F20000D9
:101A7000C4F202010068096842F6F062C1F3022173
:101A8000C0F60002515CC8407047000040F20C00F4
:101A900041F20401C2F20000C4F2020100680968C8
:101AA00042F6F062C1F3C221C0F60002515CC840A8
:101AB0007047000041F2040CC4F2020CDCF8003064
:101AC00003F00C00082841F20020C0F27A0018BF91
:101AD000704742F6FA61C3F38342C0F600018A5CA4
:101AE000D90305D440F60010C0F23D0050437047C2
:101AF000DCF8001042F6F863C1F34041C0F6000381
:101B0000595C5043B0FBF1F0704700002DE9F04103
:101B100082B0002868D00446007841F20006C00771
:101B2000C4F2020625D0706800F00C0004281BD017
:101B3000706800F00C00082802D17068C00313D44C
:101B40006068002800F06881B0F5A02F00F07C816B
:101B5000B0F5803F00F07C81306820F48030306048
:101B6000306820F4802076E13068800301D5606819
:101B7000D0B32078800718D5706810F00C0F07D00C
:101B8000706800F00C0008286ED17068C0036BD438
:101B90003068800702D52069012825D13068616945
:101BA00020F0F80040EAC1003060207800071FD420
:101BB0002078400732D4E56995B1706800F00C00D8
:101BC000082840F08F80012D0ED07068216A00F443
:101BD00080328A4208D1616A00F47010884203D1D1
:101BE000002002B0BDE8F081012002B0BDE8F08124
:101BF000A069002862D00020C4F242200121C0F870
:101C00008014FFF787FC0546706A800700F18C801E
:101C1000FFF780FC401B0228F6D92AE1F06910F09A
:101C2000805808D1F06940F08050F061F06900F010
:101C300080500090009847F20007C4F2000738680F
:101C4000C00529D4386840F480703860FFF762FC22
:101C5000054600BF3868C0051ED4FFF75BFC401B7B
:101C60006428F7D905E100BF2069002840F2000090
:101C7000C4F2422000F0828001210160FFF74AFC9B
:101C8000054600BF306880073FF588AFFFF742FC8C
:101C9000401B0228F6D9ECE0E068002800F08080C4
:101CA000052800F09780012800F09880306A20F025
:101CB00001003062306A20F0040092E00020C4F29B
:101CC00042200021C0F88014FFF724FC054600BF25
:101CD000706A80077FF56CAFFFF71CFC401B022881
:101CE000F6D9C6E00027C4F2422700203866FFF785
:101CF00011FC022D05460BD13068800140F1BE80F9
:101D0000FFF708FC401B02284FF00300F4D968E7F6
:101D1000306880017FF564AFFFF7FCFB401B0228B1
:101D20004FF00300F4D95CE740F20C00C2F200006F
:101D3000006844F6D351C1F26201A0FB0101480AD8
:101D4000019000BF00BF0198411E002801913FF49F
:101D50002FAF00BF0198411E002801913FF428AF2A
:101D600000BF0198411E002801913FF421AF00BF40
:101D70000198411E00280191E4D119E7002101607A
:101D8000FFF7C8FB054600BF306880077FF50DAF41
:101D9000FFF7C0FB401B02284FF00300F4D920E7F7
:101DA000306A20F001003062306A20F004003062B6
:101DB000FFF7B0FB054641F2883700BF306A800765
:101DC00020D5FFF7A7FB401BB8424FF00300F5D921
:101DD00007E700BF306A40F004003062306A40F02C
:101DE00001003062FFF796FB054641F2883700BFDD
:101DF000306A800706D4FFF78DFB401BB842F7D945
:101E000037E000BFB8F1000F7FF4D5AEF06920F0E5
:101E10008050F061CFE600BF306820F48030306041
:101E2000306820F480203060FFF774FB054600BF67
:101E3000306880037FF59DAEFFF76CFB401B642884
:101E40004FF00300F4D9CCE6306840F480203060D5
:101E5000306840F480303060FFF75CFB054600BF1F
:101E6000306880033FF585AEFFF754FB401B6428C4
:101E7000F6D9032002B0BDE8F08100BF206AB0F5BA
:101E8000803F05D17168A26821F40031114371606F
:101E90007168626A21F47411104308437060012074
:101EA0003866FFF737FB0446306880013FF598AE8F
:101EB000FFF730FB001B02284FF00300F4D990E637
:101EC000411E0020B0EB116F1CBF012070474EF285
:101ED0001002CEF2000251604EF62351CEF2000104
:101EE000F0230B700721906011607047002804BF39
:101EF0000120704710B5044690F8410028B9002031
:101F000084F84000204600F061F8242084F8410065
:101F10002068D4E90212C36823F40053C360036944
:101F200023F440531A430261D4E904231143C268E5
:101F3000194341F20C639A431143C1604169A2699C
:101F400021F44071114343F60002C4F201029042B1
:101F5000416103D0FFF786FD02E000BFFFF796FD69
:101F60006268192148439100B0FBF1F048F21F511B
:101F7000C5F2EB11A0FB01235A096FF0630302FBCA
:101F80000300322303EB0010A0FB0101F02303EA5E
:101F90005113206803EB0212C1F343111144816015
:101FA000016921F490410161416921F02A014161F7
:101FB000C16841F40051C16000202021606484F8B0
:101FC000411084F84210606310BD000070B586B007
:101FD00040F60004C4F20104006804F540510026F4
:101FE0008842049602D006B070BD00BF41F21800CE
:101FF000C4F20200016802AD41F480410160016851
:1020000001F4804101910199016841F004010160EE
:102010000068294600F00400019001984FF4007018
:10202000029002200390032005902046FFF76EF9EE
:102030004FF48060CDE90206204629460496FFF75A
:1020400065F906B070BD00002DE9F04381B004468B
:1020500090F84100202840F0B1800F4600294FF051
:10206000010000F0D0801646002A00F0CC804FF02E
:10207000000821201D46C4F8448084F84100FFF781
:1020800049FAA684E684A1680646B1F5805F05D1C9
:102090002069002814BF3846B8460746E18C2068FE
:1020A000002900F08F8005F101090AE047B317F815
:1020B000011B4160E18C0139E184E18C002900F0D1
:1020C000818001680906F1D4B9F1000F0AD0EDB1A1
:1020D000FFF720FA801BA84218D82068016809067B
:1020E000F6D5E3E701680906E0D4016809065CBF9C
:1020F00001685FEA0161D9D401680906F2D5D5E724
:1021000038F8021B00276FF35F21D2E7206850E800
:10211000030F216820F4D07041E80302BAB32068AD
:1021200050E8030F216820F4D07041E8030272B335
:10213000206850E8030F216820F4D07041E80302C2
:102140002AB3206850E8030F216820F4D07041E8DA
:102150000302002ADAD11AE0206850E8050F21684E
:1021600020F0010041E80502DAB1206850E8050FCF
:10217000216820F0010041E8050292B1206850E892
:10218000050F216820F0010041E805024AB12068EE
:1021900050E8050F216820F0010041E80502002AFF
:1021A000DAD1202084F8410084F84200002084F82D
:1021B0004000032001B0BDE8F08300BF022001B061
:1021C000BDE8F0830168490619D4FDB1691C0DD141
:1021D0000168490613D4016849065CBF01685FEADB
:1021E00041610CD401684906F2D508E0FFF792F985
:1021F000801BA8420AD8206800684006F6D5202037
:1022000084F84100002001B0BDE8F083206850E868
:10221000030F216820F4D07041E80302E2B3206884
:1022200050E8030F216820F4D07041E803029AB30C
:10223000206850E8030F216820F4D07041E80302C1
:1022400052B3206850E8030F216820F4D07041E8B1
:102250000302002ADAD11FE0206850E8050F216848
:1022600020F0010041E80502002A9AD0206850E8D9
:10227000050F216820F0010041E80502002A3FF423
:1022800090AF206850E8050F216820F0010041E878
:102290000502002A3FF485AF206850E8050F216849
:1022A00020F0010041E80502002AD5D179E70000BD
:1022B000FEE70000B0B584B040F2280042F20041D1
:1022C000C2F20000C4F2010100254FF48072012423
:1022D0004FF46023C0E90015042104730575C36140
:1022E00082600161FEF77CFC002818BFFEF71AFB34
:1022F00040F22800C2F2000001A9CDE90154039484
:10230000FEF79EFB002818BFFEF70CFB0120019092
:1023100040F228000224C2F2000001A90294FEF754
:102320008FFB002818BFFEF7FDFA40F22800019449
:102330000324C2F2000001A90294FEF781FB0028E9
:1023400018BFFEF7EFFA0420029040F22800C2F214
:10235000000001A90194FEF773FB002818BFFEF7E7
:10236000E1FA04B0B0BD000080B582B041F21400C3
:10237000C4F202000168002241F00101016000681E
:10238000002100F00100019001980B20FFF740F9B7
:102390000B2002B0BDE88040FFF72AB982B041F2BD
:1023A0001800C4F20200016841F0200101600168D8
:1023B00001F0200101910199016841F004010160DF
:1023C000006800F004000090009802B07047000020
:1023D00080B540F29C0043F60001C2F20000C4F256
:1023E000010100234FF00C0C4FF4E13280E80E00A5
:1023F000C0E90333C0E905C3C361FFF777FD0028D7
:1024000008BF80BDBDE88040FEF78CBAFEE7000043
:10241000FEE700007047000070470000FFF780B83B
:1024200070470000FEE7000080B582B0019040F2E6
:102430009C00C2F2000001A901224FF47A73FFF759
:1024400003FE019802B080BD96B0FFF777F8002434
:102450000120CDE91144CDE90F440C9010904FF4C8
:10246000E0104FF48031022515900CA80694CDE9B8
:102470000444CDE90244CDE90D14CDE91351FFF731
:1024800045FB28B1EFF3108072B600BFFEE700BF36
:102490000F20CDE907054FF48060CDE90A0407A8B5
:1024A00002210994FFF7FEF920B1EFF3108072B614
:1024B000FEE700BF022001904FF40040039001A806
:1024C000FFF76AF920B1EFF3108072B6FEE700BFA4
:1024D000FFF764FFFFF748FFFFF77AFFFFF7EAFE19
:1024E00040F22805C2F200052846FEF721FA40F224
:1024F0001004C2F20004284621460422FEF77AFCAA
:1025000046F2666542F60A76C3F64A75C0F60006DC
:102510002CA700BF4FF4FA70FEF7E4FE2088FDF709
:1025200095FE4FF066322B46FDF71EFEFDF7AEFE20
:10253000A060A068FDF797FE02460B4630460021DA
:1025400000F042F86088FDF781FE4FF066322B46BE
:10255000FDF70AFEFDF79AFEE060E068FDF783FEF6
:1025600002460B463046012100F02EF8A088FDF708
:102570006DFE4FF066322B46FDF7F6FDFDF786FE49
:1025800020612069FDF76FFE02460B4630460221AE
:1025900000F01AF8E088FDF759FE4FF066322B463E
:1025A000FDF7E2FDFDF772FE60616069FDF75BFE1D
:1025B00002460B463046032100F006F8384600F08C
:1025C0007DFCA7E70D0000000FB4054B10B503A973
:1025D000044A029800F0DAF810BC5DF814FB000021
:1025E000292400080000002002E008C8121F08C1CA
:1025F000002AFAD170477047002001E001C1121F84
:10260000002AFBD1704700002DE9FF5F82B0002156
:10261000DDE90430020DDDF840B0034318D044F684
:102620001050A2F2FF3242431514119801281FD016
:10263000A5EB0B00401C5FEA000A4FF000064E4F6E
:10264000DFF83891B046504615D5CAF1000413E0C2
:10265000119801244AA3012801D16FEA0B010298C5
:10266000119AC0E90031C0E9024206B0BDE8F09F0E
:10267000CBF10000DFE704460021404A491842EB55
:102680000450CDE9001012E0E00707D032463B4687
:1026900040464946FDF768FD8046894632463B463E
:1026A00010461946FDF760FD06460F466410002CE3
:1026B000EAD1DDE90401DDE90023BAF1000F06DA11
:1026C000FDF752FD42464B46FDF74EFD05E0FDF796
:1026D0007BFF42464B46FDF777FF04460E4600223D
:1026E000284BFDF7F9FF03D84FF0FF30014607E014
:1026F0000022254B20463146FDF7BFFEFDF7D3FFF4
:10270000102409E0002C0ADB0A220023FDF7F0FD6B
:10271000039B30321A55641E50EA0102F2D1641C48
:10272000039AC4F111031444119A012A03D001221F
:1027300008430DD10AE0084304D000204FF0110BEC
:10274000119072E7A3EB0B056D1E0DE05B4504DDF8
:102750004FF0000205F1010504E003DA4FF000023A
:10276000A5F10105002AECD002981199C0E90231C7
:10277000C0E9004579E70000000014400000F03F88
:10278000300000000000F0430000E03F2DE9FF4F63
:1027900095B09B468946064600250FE2252877D14D
:1027A00000242746F84A0121059400E0044316F866
:1027B000013F203B01FA03F01042F7D130782A287C
:1027C00011D06FF02F033078A0F13002092A16D80B
:1027D000059A44F0020402EB820203EB4202104429
:1027E000761C0590EFE759F8042B0592002A03DACE
:1027F000504244F40054059044F00204761C3078B2
:102800002E2816D116F8010F44F004042A280DD002
:102810006FF02F023078A0F13003092B09D807EBB5
:10282000870302EB4303C718761CF3E759F8047BD0
:10283000761C30786C280FD006DC4C2817D068281E
:102840000DD06A2814D104E0742810D07A280FD152
:102850000DE044F400140AE044F4801401E044F470
:1028600040147278824202D104F58014761C761CE2
:10287000307866280BD013DC582877D009DC002884
:1028800075D04528F6D04628F4D047281AD19DE1C6
:1028900018E0632835D0642879D0652812D195E1F5
:1028A000702873D008DC6728F1D069286FD06E28B3
:1028B0000DD06F2806D1B5E073282CD0752875D0BF
:1028C000782874D05A46179990476D1C75E1C4F367
:1028D0000250022809D003280DD0D9F8001004288E
:1028E0000DD00D6009F1040967E1D9F80010EA176D
:1028F000C1E90052F6E7D9F800100D80F2E70D703B
:10290000F0E719F8041B8DF8001000208DF8010085
:10291000EA46012003E059F804AB4FF0FF306107AD
:102920004FF0000102D40DE008F101018846B942E0
:102930000FDA8045F8DB1AF808100029F4D108E016
:1029400008F1010188468142FADB1AF808100029D3
:10295000F6D105985B46A0EB080721463846179A42
:1029600000F094FA284400EB080507E04DE029E167
:102970000DE01AF8010B5A4617999047B8F1010873
:10298000F7D25B4621463846179A13E142E00A2205
:102990000092C4F302524FF0000A022A08D059F8FC
:1029A00004CB032A4FEAEC710AD00DE029E02AE0BB
:1029B00009F1070121F00702F2E802C1914609E09E
:1029C0000FFA8CFC4FEAEC71042A03D14FFA8CFC0D
:1029D0004FEAEC71002907DA0A460021DCF1000C0D
:1029E00061EB02012D2202E0220504D52B228DF895
:1029F0000420012203E0E20701D02022F7E79046FD
:102A000059E00A2102E010220DE010214FF0000AE7
:102A100000910BE010224FF0000A44F00404082754
:102A2000009203E008224FF0000A0092C4F3025221
:102A3000022A05D059F804CB0021032A08D009E066
:102A400009F1070121F00702F2E802C1914605E011
:102A50001FFA8CFC042A01D10CF0FF0C4FF0000887
:102A6000220728D5702806D0009B83F0100353EA74
:102A70000A0305D00EE040228DF80420012208E070
:102A80005CEA010206D030228DF804208DF80500A2
:102A900002229046009B83F0080353EA0A030AD1FE
:102AA0005CEA010201D1620705D530228DF80420CD
:102AB0004FF001087F1E582804D034A003900EA8C0
:102AC00002900DE036A0F9E753466046009AFDF704
:102AD0000FFC84460398825C0298401E02900270AC
:102AE0005CEA0100F0D1029806A9081A00F1200A58
:102AF000600702D524F4803400E00127574502DD49
:102B0000A7EB0A0000E0002000EB0A010090059806
:102B10004144401A0590E00306D45B462146179ACB
:102B2000059800F0B3F90544002706E001A85A46CD
:102B3000C05D179990476D1C7F1C4745F6DBE0038D
:102B40000CD55B462146179A059800F09FF905447D
:102B500004E030205A46179990476D1C0099481E92
:102B600000900029F5DC08E0029802995A460078A6
:102B7000491C0291179990476D1CBAF10001AAF106
:102B8000010AF1DC65E1000009280100303132332F
:102B90003435363738396162636465660000000099
:102BA0003031323334353637383941424344454683
:102BB0000000000000F058F90544761C3078002829
:102BC0007FF4ECAD19B02846BDE8F08F620700D461
:102BD000062709F1070222F0070CFCE80223E14670
:102BE00003F000485FEA080C02D00FF2702C0DE0F1
:102BF0005FEA045C02D50FF2682C07E05FEAC47C50
:102C000002D00FF2602C01E0AFF2700C4FF0FF38F1
:102C100023F00043CDF850C065280CD006DC4528D1
:102C200009D046281DD047283DD13DE0662818D060
:102C300067287ED138E00021112F01DB112000E050
:102C4000781CCDE9000106A90EA8FFF7DDFCDDE93F
:102C50000F010E9A03910021009207F1010A0491DD
:102C60004DE04FF000400097CDE9011006A90EA8F5
:102C7000FFF7CAFCDDE90F0203920E9B11990022B7
:102C8000DDF80CA00093049211B9791C00EB010A45
:102C9000B7EB0A0004D4C0F1FF3007F1010A049039
:102CA000AAEB0700019044E0012F00DA0127002180
:102CB000112F01DD112000E03846CDE9000106A901
:102CC0000EA8FFF7A1FCDDE90F010E9A0391002188
:102CD00004910092BA4621070CD40399514500DAB9
:102CE0008A46BAF1010F05DD009AAAF10101515C93
:102CF000302908D0B84202DA10F1040F06DA0121B7
:102D0000CDE9011015E0AAF10101E9E7002805DC91
:102D1000049901440491AAEB000102E0411C5145D1
:102D200000DD8A460499401A401C01904FF0004093
:102D30000290200704D40198504501DBCDF80480AF
:102D400000208DF84F0002980DF14F07B0F1004FB1
:102D500025D02B200E9002984FF0020800280CDAA4
:102D6000404202902D200E9007E00A210298FDF7C4
:102D7000A9FA3031029007F8011DB8F10001A8F15D
:102D80000108F2DC02980028EFD1791E0E98087035
:102D9000307800F0200040F0450007F8020D12A83E
:102DA000C01B00F107081498007800B1012000EB67
:102DB0000A01019801EBE07105984144401A401E58
:102DC0000590E00306D45B462146179A059800F06B
:102DD0005DF805441498007818B15A461799904741
:102DE0006D1CE00324D55B462146179A059800F038
:102DF0004DF805441CE00498002807DBDDE90301D9
:102E0000884203DD0098405C179901E01799302053
:102E10005A469047049805F10105401C049001981A
:102E2000401E019004D12E205A46179990476D1CE0
:102E3000BAF10001AAF1010ADDDC05E017F8010B87
:102E40005A46179990476D1CB8F10001A8F1010886
:102E5000F4DC5B462146179A0598ABE62D0000008E
:102E60002B000000200000002DE9F0410446002561
:102E70001E461746880404D405E039462020B04792
:102E80006D1C641EF9D52846BDE8F0812DE9F0419E
:102E9000044600251E469046C80301D5302700E0B1
:102EA0002027880404D505E041463846B0476D1C0C
:102EB000641EF9D52846BDE8F081000010B504462F
:102EC00001E0FFF7B1FA14F8010B04490028F8D12A
:102ED000BDE810400A20FFF7A7BA0000000000205C
:102EE00000000000000000000102030406070809BA
:102EF00000000000010203040102020304050607AA
:102F000008090A0B0C0D0E0F1010766F6C746167B8
:102F100065205041253164203A20252E3266760DF9
:102F20000A000000482F00080000002010000000E8
:102F3000E8250008582F000810000020D8040000E1
:102F4000F82500080000000000000000010000005B
:082F5000100000000024F40051
:0400000508000131BD
:00000001FF
