:020000040800F2
:1000000048AF002045010008711A0008A116000839
:100010006D1A0008D50100089D3E00080000000090
:100020000000000000000000000000004522000861
:10003000D901000800000000751A000849220008D4
:100040005F0100085F0100085F0100085F01000810
:100050005F0100085F0100085F0100085F01000800
:100060005F0100085F0100085F0100085F010008F0
:100070005F0100085F0100085F0100085F010008E0
:100080005F0100085F0100085F0100085F010008D0
:100090001D3E00085F0100085F0100085F010008C5
:1000A0005F0100085F0100085F0100085F010008B0
:1000B0005F0100085F0100085F0100085F010008A0
:1000C0005F0100085F0100085F0100085F01000890
:1000D0005F0100085F0100085F0100085F01000880
:1000E0005F0100085F0100085F0100085F01000870
:1000F0005F0100085F0100085F0100085F01000860
:100100005F0100085F0100085F0100085F0100084F
:100110005F0100085F0100085F0100085F0100083F
:100120005F0100085F0100085F0100085F0100082F
:10013000DFF80CD000F03CF800480047A13E000872
:1001400048AF00200648804706480047FEE7FEE724
:10015000FEE7FEE7FEE7FEE7FEE7FEE7FEE7FEE777
:10016000E52200083101000840EA01039B0703D0A3
:1001700009E008C9121F08C0042AFAD203E011F8E6
:10018000013B00F8013B521EF9D27047D2B201E0A8
:1001900000F8012B491EFBD270470022F6E710B58C
:1001A00013460A4604461946FFF7F0FF204610BDE5
:1001B000064C074D06E0E06840F0010394E80700B4
:1001C00098471034AC42F6D3FFF7B6FF303F000833
:1001D000503F0008FEE7000070470000EFF310807A
:1001E00072B600BFFEE700004AF64430C2F20000DB
:1001F0000068704740F216104AF64431C2F200001F
:10020000C2F2000100780A681044086070470000DC
:1002100080B542F20000C4F20200016841F0100112
:100220000160032000F08EF8032000F005F800F0D4
:100230002BF8002080BD0000B0B540F21612C2F2CB
:10024000000240F21C011278C2F200014FF47A73EE
:100250000968B3FBF2F20446B1FBF2F1084601F083
:1002600009FA0F2C4FF001050CD858B94FF0FF30A8
:1002700021460022002500F039F840F21810C2F2A1
:10028000000004602846B0BD82B041F21800C4F2FC
:1002900002000168022241F001010160016801F0E1
:1002A000010101910199416841F08051416040682C
:1002B00000F08050009000980420C4F20100016812
:1002C00062F31A61016002B070470000002848BF65
:1002D000704700F01F01012202FA01F14EF20012F4
:1002E0004009CEF2000242F82010704710B54EF6D9
:1002F0000C5CCEF2000CDCF80030C3F3022E8EF062
:100300000704042C28BF0424BEF103034FF0FF3E72
:100310000EFA04F438BF0023A14399400EFA03F308
:100320009A4300F00F03043B1143634409010C336B
:1003300000F16042B0F1FF3FC8BF02F5644319709D
:1003400010BD00004EF60C51CEF200010A684FF6C7
:10035000FF031A4060F30A2242F0806040F0FD7013
:100360000860704780B501F0070C0CEB8C0C00EBBB
:10037000CC0C0CF1280C01EB810E090600EBCE0031
:1003800058BF00F5B47C4AB101208CF80C00180C61
:10039000ACF80A000020ACF8083080BD00208CF8D2
:1003A0000C000020ACF8063080BD00007047000053
:1003B00080B501EB8102D0F8E83200EBC200C26BDD
:1003C000184602F0F1F880BD80B501EB8102D0F84B
:1003D000E83200EBC200D0F87C21184602F046F962
:1003E00080BD000010B50446080601F0070000EBD0
:1003F000800104EBC10205D402F5B471002382F838
:10040000693104E0012302F1280182F8293094F8CF
:10041000A8220870012A04BF022010BD2068012212
:1004200084F8A82202F0A6FF002084F8A80210BDDC
:10043000B0B50446406801F00F02824284BF01203B
:10044000B0BD080601F0070000EB800104EBC1021B
:1004500005D402F5B471002382F8693104E0012368
:1004600002F1280182F8293094F8A8220025012AF7
:100470008D70087004BF0220B0BD2068012284F88E
:10048000A82203F005F8284684F8A852B0BD000061
:1004900010B5044690F8A802012804BF022010BD40
:1004A000206801220B0684F8A82202D403F0B2FCD3
:1004B00003E001F0070103F0AFFC002084F8A8027C
:1004C00010BD000001F0070101EB810100EBC1004C
:1004D000D0F8840170470000B0B50546080601F069
:1004E000070000EB800105EBC10C05D40CF5B471DD
:1004F00000248CF8694104E001240CF128018CF8F7
:1005000029404C780870002C0A61CB7018BFC88154
:10051000022B04BF0020087195F8A802012804BF2F
:100520000220B0BD2868012285F8A82202F01EFE34
:10053000002085F8A802B0BD10B501F0070C0CEB47
:100540008C0100EBC10E00680EF5B4710024CEF8EA
:100550007C21CEF88031CEF884418EF869418EF846
:1005600068C102F0EDFF002010BD0000B0B50446E8
:10057000406801F00705854284BF0120B0BD080630
:1005800009D401EB810004EBC00000F5B471002236
:1005900080F8692108E005EB850004EBC00001222A
:1005A00000F1280180F8292094F8A80201220128EE
:1005B0008A700D7004BF0220B0BD206884F8A822A4
:1005C00002F0A4FF25B9206804F52C7102F05EFF4B
:1005D000002084F8A802B0BD80B501F0070C0CEB38
:1005E0008C0100EBC10101F828CF00684FF0010C2D
:1005F00001F1140781F824C04FF0000E87E80C4089
:100600000B6281F801C002F09BFF002080BD00005A
:100610002DE9F04F85B00446006803F007FC0004A4
:1006200006D52068B0F94410B1F1FF3F40F3BA801D
:10063000206803F0FBFB400519D52068B0F8441092
:1006400021F48061A0F84410204600F0AFFC94F83B
:10065000A80201280BD00120002584F8A80284F804
:1006600024502068002103F0FFFB84F8A852206882
:1006700003F0DCFB400406D52068B0F8441021F4F8
:100680008041A0F84410206803F0D0FB800406D518
:100690002068B0F8441021F40051A0F844102068FC
:1006A00003F0C4FBC00416D52068B0F8401021F058
:1006B0000401A0F84010B0F8401021F00801A0F8A3
:1006C0004010204600F084FC2068B0F8441021F46B
:1006D0008051A0F84410206803F0A8FB000543D522
:1006E00020686FF00102011F01A800BF31F8043F2C
:1006F000871802320E2A7B80F8D12168B1F8402099
:1007000042F00102A1F84020B1F8402022F001029D
:10071000A1F84020B1F844205205FBD5B1F844209F
:100720006FF0010322F48062A1F844200A1F00BF89
:10073000C7187F8802330E2B22F8047FF8D1B1F856
:10074000400040F00800A1F84000B1F8440020F457
:100750000060A1F84400B1F8400040F00400A1F8A6
:100760004000204600F078FC206803F05FFB800525
:1007700009D52068B0F8441021F40071A0F84410A5
:10078000204600F02BFC206803F050FBC00506D586
:100790002068B0F8441021F48071A0F8441005B02E
:1007A000BDE8F08F04F52C7140F60F7B009109E055
:1007B0002046FFF7FDFD00BF2068B0F94410002976
:1007C0007FF536AFB0F8442012F00F094AD030F868
:1007D00029804FEA490A5FEA084140F1668130F812
:1007E0001A1040F60F7501EA0B01803120F81A103B
:1007F00009EB890104EBC10B9BF874110BF5B4767E
:10080000002900F0A0809BF86B11022940F0AE8017
:10081000B0F8502031785FEA484302EBC10200EBA8
:10082000420200F1DA80B2F80C74DBF880216FF339
:100830009F27D21B4FF0000338BF1A46CBF8802108
:1008400040F2E4805FEA486200F1F08030F8212055
:1008500048F2C0032A401A4320F82120002F40F01C
:10086000E68008E10188D2062BD401EA0B0101F5EC
:1008700000410180B0F8501094F8282001EBC2012B
:1008800000EB4100B0F80404E16B6FF39F2060645B
:100890000844E06320460021FFF78AFD94F8240015
:1008A000002889D0206C002886D194F82400216883
:1008B00040F08000C0B2A1F84C00002084F8240071
:1008C0007AE70A056CD409047FF576AF018801EA5E
:1008D0000B0180310180B0F8501094F8682101EBD1
:1008E000C20100EB4101B1F80C346FF39F23C4F84F
:1008F00084318BB1D4F87C1171B1B4F86E2103F05E
:1009000099FAD4F87C01D4F884110844C4F87C0125
:1009100020460021FFF758FD2068018809053FF5B2
:100920004BAFB0F85010D4F8783100F20C42002BE5
:1009300000F09B813E2B00F2A38103F0010707EB3F
:1009400053039B02A9E1B0F85010327801EBC201C9
:1009500000EB4101B1F80C746FF39F27002F00F0FA
:100960008A80DBF87C11BBF86E2181E0317848F297
:10097000C00330F821202A401A4320F8212030F803
:100980002120B0F85030520403EBC10100EB4101CB
:1009900036D4B1F80C746FF39F27002F47D16AE06B
:1009A000B0F8501094F8682101EBC20100EB41014E
:1009B000B1F80C34B4F86E2100996FF39F23C4F89A
:1009C000843103F037FA2068018801EA0B01803195
:1009D0000180204600F01CFBEEE6B2F80474DBF860
:1009E00080216FF39F27D21B4FF0000338BF1A46B8
:1009F000CBF8802120D95FEA48622CD4A7BB3AE02B
:100A0000B1F804746FF39F2777BB34E030F82120EE
:100A100043F60F731A404CF28003A3F500535A407B
:100A200020F821205FEA48627FF510AF1FB3DBF8A2
:100A30007C11BBF872211BE030F8212043F60F73C4
:100A40001A404CF28003A3F500535A4020F82120AD
:100A50005FEA4862D2D530F8212048F2C0032A402C
:100A60001A4320F8212037B1DBF87C11BBF8702144
:100A70003B4603F0DFF9DBF88411DBE95F02394420
:100A80003844CBF88411CBF87C011AB1DBF878013B
:100A9000B84204D931782046FFF796FC03E020687D
:100AA000314602F04DFD40F60F7B5FEA08607FF5AE
:100AB00083AE206809EB890130F81A3004EBC102DB
:100AC00003EA0B0101F5004120F81A1092F82B10EF
:100AD00002F12806002918BF03291CD1B0F85030B4
:100AE0003178176C03EBC10300EB4303B3F8043414
:100AF00000256FF39F23FF1A38BF2F4617647FF638
:100B000057AED16B576C1944D163F9185164314613
:100B100002F016FD50E6022902D15FEAC851DDD588
:100B2000B0F8503031785FEA486703EBC10338D43E
:100B300000F20C4939F81370136C6FF39F27DB1B1D
:100B40004FF0000538BF2B46136464D95FEA484371
:100B500008D430F821304CF2800503EA0B032B4314
:100B600020F82130154615F84C3F012B40F07481D8
:100B7000134653F8488F53E904EC53F804ACBC44D3
:100B8000BA44F04543F80CCC43F804AC80F0C38081
:100B9000B8F1000F00F00C810027C6461F602F70CF
:100BA00009E100F2044939F81370136C6FF39F27C1
:100BB000DB1B4FF0000538BF2B46136442D95FEAB8
:100BC000484308D530F821304CF2800503EA0B0386
:100BD0002B4320F82130134613F84C5F012D40F0D1
:100BE0003B81154655F848EF55E904AC55F8048C9F
:100BF000BC44B844D64545F80CCC45F8048C80F08C
:100C00008E804FF00008BEF1000F83F8008040F0A6
:100C10008980BE4688E092F82920012A49D0002A1E
:100C200040F09D80B0F8503000EB01173B44B3F822
:100C3000047427F4F847A3F80474B3F8047447F471
:100C400000473CE092F82920012A4AD0002A40F0CF
:100C50009580B0F8503009EB0117FD5A25F4F8459E
:100C6000FD52FD5A45F4004540E08B5A48F200071A
:100C700023F4F8438B528B5ACFF6FF773B430CE0BB
:100C80005F09DE064FF0FF3608BF06EB531748F248
:100C90000003CFF6FF7343EA87238B52018843F6A4
:100CA0000F7211404CF28002A2F580525140018037
:100CB00082E5B0F8503000EB01173B440027012AD1
:100CC000A3F8047445D0002A49D1B0F8500009EBCC
:100CD0000112135A23F4F8431352135A43F40043F6
:100CE0003CE0B0F8503009EB01170025012AFD5215
:100CF0003CD0002A42D1B0F8502000EB0110104443
:100D0000B0F80C2422F4F842A0F80C24B0F80C241B
:100D100042F4004230E0A8EB0E051D604BE0AEEB64
:100D20000A08D646C5F8008092F82930012B37D042
:100D3000E3BBB0F85050BEF1000F09EB011157D0E2
:100D4000BEF13E0F64D80EF0010303EB5E039B027D
:100D50006BE0B0F8500009EB01120023135220465B
:100D6000FFF726FB5FEA48400ED575E0B0F850204B
:100D700000EB011010440022A0F80C242046FFF7DD
:100D800017FB5FEA484067D5206831784CF2800352
:100D900030F8212002EA0B021A4320F821205BE000
:100DA000B0F8503009EB011121F803E0128E4EE04B
:100DB00000232B70BE4692F82930012B11D0002B56
:100DC00044D1B0F85070BEF1000F09EB011117D0FB
:100DD000BEF13E0F2CD80EF0010303EB5E039B0225
:100DE00033E0B0F8503009EB011121F803E02DE0B9
:100DF0006B5A23F4F8436B526B5A43F4004314E0EC
:100E00007B5A23F4F8437B527B5A43F400431CE0A3
:100E10005FEACE674FEA5E134FF0FF3708BF07EB7C
:100E20005E134FF4004747EA83236B52128E0EE0A5
:100E30005FEACE654FEA5E134FF0FF3508BF05EB62
:100E40005E134FF4004545EA83237B52528E1FFA0E
:100E50008EF3614603F010F82068317840F63F7356
:100E600030F821201A4048F2C003103B5A4020F8C5
:100E70002120A1E4F0B585B0F8B1044690F8A902AC
:100E800028B9002084F8A802204600F06DF803205D
:100E900084F8A902206802F0EFFA94E82F50D4E910
:100EA00007678DE82050CDE9036702F061FA30B1A1
:100EB000022084F8A902012552E0012550E02068B3
:100EC0000021002502F0CEFF616859B30120002304
:100ED000002200BF03EB830304EBC30787F828203D
:100EE000D3B20132FB86D3B2994287F8290087F842
:100EF0002B50C7E90E553D64ECD80020002300229A
:100F000003EB830304EBC30787F868210132D3B2F4
:100F1000994287F8690187F86B01C7E95E00C7F855
:100F20008001EDD804F10807D4E9056520688CCF6D
:100F3000D4E907CECDE9007602AE86E8205002F073
:100F40008DFA20B1022084F8A902012508E00025CD
:100F5000012084F8245084F8A902206802F07CFA69
:100F6000284605B0F0BD000080B582B0006845F6A7
:100F70000041C4F20001884201D002B080BD41F2BC
:100F80001C00C4F202000168002241F4000101606B
:100F90000068002100F40000019001981420FFF780
:100FA000A5F91420FFF792F902B080BD10B50446F0
:100FB0008068022818BFFFF711F9D4F8E802012170
:100FC00001F062FCD4F8E80201F01CFC10BD000046
:100FD00080B5D0F8E80201F03FFC80BD80B5D0F8C4
:100FE000E80201F043FC80BD10B5044690F8A80269
:100FF000012804BF022010BD012084F8A80284F853
:101000002410206802F030FF002084F8A80210BDF0
:1010100080B5D0F8E82200F52C71104601F04AFCAA
:1010200080BD000010B5044690F8A802012804BF56
:10103000022010BD2068012184F8A81202F0E0FE11
:1010400020460121FFF7B2F9206802F003FA0020E0
:1010500084F8A80210BD000010B50446D0F8E802DC
:1010600001F07CFCA069002808BF10BD4EF61050AE
:10107000CEF20000016841F00601016010BD0000E1
:101080002DE9F04182B00446007841F21C06C00709
:10109000C4F202064AD0306810F0805808D1306897
:1010A00040F080503060306800F08050019001982E
:1010B00047F20007C4F200073868C00512D4386848
:1010C00040F480703860FFF78FF805463868C00537
:1010D00008D4FFF789F8401B6428F7D9032002B031
:1010E000BDE8F081706810F4407012D0616801F4BE
:1010F000407188420DD0706840F24042C4F24222F2
:10110000012320F4407113600023C0071360716055
:1011100029D17068616820F440700843B8F1000F6D
:10112000706003D1306820F0805030602068810703
:1011300007D556F8181CA26821F44041114346F81F
:10114000181CC00603D4002002B0BDE8F08156F898
:10115000180C616920F48000084346F8180C002040
:1011600002B0BDE8F081FFF73FF8054641F288374D
:1011700070688007CDD4FFF737F8401BB8424FF0B6
:101180000300F5D9ECE700002DE9F04381B0002819
:1011900000F0858042F20008C4F202080446D8F844
:1011A00000000D4600F0070088420CD2D8F800007D
:1011B00020F007002843C8F80000D8F8000000F02D
:1011C0000700A8426BD1206841F204098107C4F2EC
:1011D000020917D5410705D5D9F8001041F4E0619F
:1011E000C9F80010010705D5D9F8001041F4605185
:1011F000C9F80010D9F80010A26821F0F0011143DD
:10120000C9F80010C00741D1D8F8000000F007006D
:10121000A8420CD9D8F8000020F007002843C8F8ED
:101220000000D8F8000000F00700A84237D120687D
:10123000410707D5D9F80010E26821F4E0611143B5
:10124000C9F80010000708D5D9F80000216920F47A
:10125000605040EAC100C9F80000D9F8002002F04F
:101260000C00082841F20020C0F27A004ED143F66B
:101270001D73C2F38341C0F60003595CD20339D415
:1012800040F60010C0F23D0048433FE0606802288D
:1012900009D0012829D159F8041C890307D4012059
:1012A00001B0BDE8F08359F8041C8901F7D5D9F8DD
:1012B000001021F003010843C9F80000FEF794FF75
:1012C000064641F2883700BFD9F80000616800F097
:1012D0000C00B0EB810F97D0FEF786FF801BB84261
:1012E000F2D9032001B0BDE8F08359F8041C890746
:1012F000D5D5DCE7D9F8002043F6D063C2F34042ED
:10130000C0F600039A5C4843B0FBF2F0D9F8001035
:1013100043F6D262C1F30311C0F60002515C40F201
:101320001C0220FA01F140F21810C2F2000000681D
:10133000C2F200021160FEF77FFF002001B0BDE89D
:10134000F08300002DE9F04182B0002800F0D78042
:101350000446007841F20006C007C4F2020644D0F9
:10136000706800F00C00042817D0706800F00C00C2
:10137000082802D17068C0030FD465682DB1B5F597
:10138000A02F10D0B5F5803F11D0306820F4803008
:101390003060306820F480200CE03068800324D571
:1013A000606810BBABE0306840F48020306030688B
:1013B00040F480303060FEF717FF002D054611D055
:1013C0003068800311D4FEF70FFF401B6428F7D963
:1013D00016E100BFFEF708FF401B64284FF0030032
:1013E00000F28A8030688003F4D42078800718D512
:1013F000706810F00C0F07D0706800F00C0008281F
:1014000027D17068C00324D43068800702D52069D2
:10141000012874D13068616920F0F80040EAC10009
:101420003060207800074FD5A06940B30020C4F297
:1014300042200121C0F88014FEF7D6FE054600BF09
:10144000706A80072DD4FEF7CFFE401B0228F7D923
:10145000D6E02069002840F20000C4F2422000F0EB
:10146000A68001210160FEF7BFFE054630688007B7
:10147000D0D4FEF7B9FE401B0228F7D9C0E0002007
:10148000C4F242200021C0F88014FEF7ADFE0546EC
:10149000706A800718D5FEF7A7FE401B0228F7D90F
:1014A000AEE040F21C00C2F20000006844F6D351E6
:1014B000C1F26201A0FB0101480A019000BF01983E
:1014C000411E00280191F9D1207840071BD4E5691D
:1014D0008DB1706800F00C00082846D1012D0ED0A7
:1014E0007068216A00F480328A4208D1616A00F48F
:1014F0007010884203D1002002B0BDE8F0810120C5
:1015000002B0BDE8F081F06910F0805808D1F069B0
:1015100040F08050F061F06900F080500090009839
:1015200047F20007C4F200073868C0050FD43868D6
:1015300040F480703860FEF757FE05463868C005F5
:1015400005D4FEF751FE401B6428F7D958E0E56842
:101550001DB1052D3CD0012D3ED0306A20F0010098
:101560003062306A20F0040039E00027C4F24227DC
:1015700000203866FEF738FE022D05460CD100BF6C
:101580003068800154D5FEF72FFE401B02284FF033
:101590000300F5D9B0E700BF30688001ABD5FEF796
:1015A00023FE401B02284FF00300F5D9A4E70021D9
:1015B0000160FEF719FE0546306880077FF531AF00
:1015C000FEF712FE401B02284FF00300F4D993E708
:1015D000306A40F004003062306A40F0010030624E
:1015E000FEF702FE002D054641F2883714D000BFF9
:1015F000306A800713D4FEF7F7FD401BB842F7D9D5
:10160000032002B0BDE8F081FEF7EEFD401BB842BA
:101610004FF003003FF670AF306A8007F4D4B8F1A2
:10162000000F7FF454AFF06920F08050F0614EE776
:10163000206AB0F5803F05D17168A26821F40031BD
:10164000114371607168626A21F474111043084398
:10165000706001203866FEF7C7FD044630688001DF
:101660003FF549AFFEF7C0FD001B02284FF0030015
:10167000F4D941E7411E0020B0EB116F1CBF0120DF
:1016800070474EF21002CEF2000251604EF6235126
:10169000CEF20001F0230B700721906011607047BB
:1016A000FEE70000B0B5D0F8B852044695F818022D
:1016B00078B12046812101F02DF9687A022818BFFF
:1016C000B0BD05F50372204601211F2301F088F803
:1016D000B0BDD5F814020028EBD0687A0028E8D114
:1016E0002046012101F016F9E3E70000B0B5D0F87B
:1016F000B8520446687A022806D12046812101F0BA
:1017000009F900206872B0BD49B2B1F1FF3F1BDC9E
:10171000012808BFB0BD45F25530C5F24230C5F8CA
:101720002C02012085F83802002005F50B72287282
:10173000204681210D2301F01BF905F50372204697
:1017400001211F2301F04CF8B0BD0000B0B5D0F866
:10175000B8520446287AC11E022909D245F25530F2
:10176000C5F2423005F50B72C5F82C02002017E0D7
:10177000022825D195F8191205F21B22204600F007
:101780007BF9B0F1FF3FC8BFB0BDD4F8B85245F205
:101790005530C5F2423005F50B72C5F82C02012018
:1017A00085F8380200202872204681210D2301F09F
:1017B000DFF805F50372204601211F2301F010F820
:1017C000B0BD000070B5D0F8B8520446287A0128A0
:1017D0003AD0002860D1D5E98401C5E98C012046C2
:1017E000012100F099FF1F2811D1D5F80C0245F214
:1017F0005531C4F24231884209D195F819120129B4
:1018000005D895F81A02113810F1110F51D895F832
:10181000191220460522202300F0D6FCD4F8B86225
:10182000022196F818026972B8B32046812101F0AE
:1018300071F8707A02282FD106F503722046012133
:101840001F2300F0CDFF70BD95F8191205F21B2281
:10185000204600F011F9B0F1FF3FC8BF70BD45F25E
:101860005530D4F8B852C4F2423000F18050C5F877
:101870002C02012085F83802002005F50B72287231
:10188000204681210D2301F073F805F503722046EF
:1018900001211F2300F0A4FF70BDD6F81402002818
:1018A000C3D0707A0028C0D12046012101F032F85F
:1018B000BBE705F21B22204600F0DEF8297AB0F1E2
:1018C000FF3F0ADD481E0328E6D36A897AB105F195
:1018D0000C01204600F05EF870BD2046052903D1BA
:1018E000012100F039F870BDFFF7DCFE70BD204625
:1018F000002100F031F870BDD0F8B802002101726B
:1019000070470000B0B50446D0E9AE5000212981EF
:10191000A5F85C120168002088472046012100F0EC
:10192000E9FE2046812100F0E5FE05F50372204620
:1019300001211F2300F054FFB0BD000080B5D0F896
:10194000B8124FF480720A8101F5037201211F233E
:1019500000F046FF80BD0000B0B50446D0F8B85294
:1019600045F25530C5F24230C5F82C02002005F58D
:101970000B7285F838122872204681210D2300F061
:10198000F7FF05F50372204601211F2300F028FF11
:10199000B0BD000080B5D0F8B8328C46D3F8141230
:1019A000D3F834E2914228BF1146AEEB0202C3F8ED
:1019B0003422002283F8382204221A728BB2812149
:1019C000624600F0D5FF80BD82B041F21800C4F23B
:1019D0000200016841F020010160016801F020016E
:1019E00001910199016841F004010160006800F073
:1019F00004000090009802B07047000080B540F2EB
:101A0000945040F20001C2F20000C2F20001002234
:101A100000F08EFD002818BFFEF7E0FB40F2945066
:101A200040F23801C2F20000C2F2000101F0D0F829
:101A3000002818BFFEF7D2FB40F2945040F2DC01C0
:101A4000C2F20000C2F2000101F012F8002818BF33
:101A5000FEF7C4FB40F29450C2F2000001F0CEF851
:101A6000002818BFFEF7BAFB80BD0000FEE70000AB
:101A7000FEE70000704700002DE9F04182B01646F5
:101A8000127804465A2A00F277800D46DFE812F0F9
:101A90005B007400740089007400740074007400AA
:101AA0007400740074007400740074007400740096
:101AB00074007400B6007400740074007400740044
:101AC00074007400D700EB0074007400F000740020
:101AD000740074007400F50074001A01740074003E
:101AE0003A01740079017400740074007400BB0141
:101AF0007400740074007400740074007400740046
:101B00007400740074007400740074007400740035
:101B10007400740074007400740074007400740025
:101B20007400740074007400740074007400740015
:101B30007400740074007400740074007400740005
:101B400074007400DA01D4F8B862D6F814020028E0
:101B500000F0AE8196F85D02052206EBC00100247C
:101B6000013081F83C2281F84042C1B2043918BFEB
:101B7000014686F85D1222E3D4F8B802052390F8F6
:101B80005D12FF2400EBC10282F83C3200230131D8
:101B900082F84032CAB2043A18BF0A4680F85D2281
:101BA0000DE3D4F8B8020021C16001618183816135
:101BB000416190F85C1290F85D3270220273994294
:101BC0004FF00C02C27411D000EBC10292F83C320B
:101BD00092F8407292F8412201310276CAB2043A78
:101BE0008373477618BF0A4680F85C221221418130
:101BF00031790024122998BF4181E0E27078D4F84D
:101C0000B812C00740F03181D4F8BC0205EBC5031F
:101C1000C26902EB8300077930790537874238BF04
:101C200038460028488100F0EC819B001A440B31B3
:101C3000013A0024135C0B540138FBD1BFE2D4F805
:101C4000B802082143F6EA62418113300021C0F650
:101C5000000200BF5318DB794354013911F1080326
:101C6000F8D10024ABE2D4F8B80200244481A6E203
:101C7000D4F8B80200244481A1E2D4F8B862002765
:101C800077613761F760D4F8BC02694643680DF1AB
:101C9000060228469847002800F02881D4F8B802A8
:101CA000022390F85D12002400EBC102013182F89A
:101CB0003C3282F84072CAB2043A18BF0A4680F831
:101CC0005D227CE2D4E9AE60436806F5187106F245
:101CD0005E2228469847002800F01E81D4F8B802FA
:101CE000022390F85D12002400EBC102013182F85A
:101CF0003C3282F84042CAB2043A18BF0A4680F821
:101D00005D225CE2D4F8B872387A002800F01881BD
:101D10004FF400767E81D4E9AE70D7F86812B7F838
:101D20005E32D7F864225943B1F5007F38BF0E46C2
:101D3000D0F810C0B6FBF3F007F10C0883B22846C8
:101D40004146E047B0F1FF3F40F33381B3B2204654
:101D50008121424600F00CFEB7F85E02D7E99923D4
:101D6000B6FBF0F0D7F834120244181AC7E99920EC
:101D7000A1EB0600C7F8340204BF03203872002428
:101D80001DE2D4F8B872387A002800F0EF80D7F856
:101D90006802B7F85E12D7F8642200FB01F6D4F8A7
:101DA000BC02B6F5007F28BF4FF40076D0F814C00F
:101DB000B6FBF1F007F10C0883B228464146E04734
:101DC000B0F1FF3F40F30981B7F85E02D7F8342243
:101DD000B6FBF0F1D7E99935921B0B44691AC7E9B4
:101DE0009931C7F8342200F00E814843B0F5007FE6
:101DF00028BF4FF4007083B220460121424600F014
:101E0000EFFC0024DBE17178D4F8B80289073DD4F7
:101E1000D0F86822D0E998311144994240F2C68046
:101E200090F85D12052300EBC1020024013182F815
:101E30003C3282F84042CAB2043A18BF0A4680F8DF
:101E40005D22BCE1D4F8B802082143F6E262418188
:101E500013300021C0F600025318DB7943540139D6
:101E600011F10803F8D10024A9E1072043F6F2623A
:101E7000488101F112000021C0F6000253189B793D
:101E800043540139CB1DF9D1002498E190F85D123B
:101E9000052300EBC1020024013182F83C3282F8B4
:101EA0004042CAB2043A18BF0A4680F85D2286E171
:101EB000D4F8BC02816828468847002800F0A98031
:101EC000D4F8B802022390F85D12002400EBC1029E
:101ED000013182F83C3282F84042CAB2043A18BF5B
:101EE0000A4680F85D220520307268E100990820DA
:101EF000F073481E010E3174010C7174010AB17443
:101F0000BDF80610F0740220B08208BA000CF0820E
:101F10000C207081002452E1D6F8600200240138C0
:101F2000010E3173010C7173010AF073B6F85E0291
:101F3000B17300BA000C70820820348270813EE1D7
:101F400097F91802002867D497F85D02052207EB7D
:101F5000C0010024013081F83C2281F84042C1B226
:101F6000043918BF014687F85D1228E197F9180275
:101F7000B0F1FF3F6BDDD4F8BC028168284688478A
:101F8000002876D0D4F8B802022390F85D1200241D
:101F900000EBC102013182F83C3282F84042CAB201
:101FA000043A18BF0A4680F85D2208E10024448103
:101FB00005E1D4F8B802042390F85D12002400EB88
:101FC000C102013182F83C3282F84042CAB2043A7E
:101FD00018BF0A4680F85D22F1E0D4F8B802042365
:101FE00090F85D12002400EBC102013182F83C320E
:101FF00082F84042CAB2043A18BF0A4680F85D220D
:10200000DDE00024DBE0204600210024FFF7A4FCF3
:10201000D5E000247481D2E0D4F8BC02816828465F
:10202000884700283FD0D4F8B802022390F85D1208
:10203000002400EBC102013182F83C3282F84042B8
:10204000CAB2043A18BF0A4680F85D22B7E097F892
:102050005D02052207EBC0010024013081F83C221B
:1020600081F84042C1B2043918BF014687F85D12B9
:10207000A5E0D4F8BC02C16828468847B8B3D4F8B4
:10208000B802022390F85D12002400EBC102013176
:1020900082F83C3282F84042CAB2043A18BF0A467B
:1020A00080F85D228BE0D6F8020002BAC7F86422FD
:1020B000B6F807000104D4F8B80209BAD0F86032C3
:1020C0000A449A42C7F8681235D990F85D12052380
:1020D00000EBC1020024013182F83C3282F8404218
:1020E000CAB2043A18BF0A4680F85D2267E0D6F803
:1020F000020002BAC7F86422B6F807000104D4F857
:10210000B80209BAD0F860320A449A42C7F8681295
:102110002DD990F85D12052300EBC1020024013196
:1021200082F83C3282F84042CAB2043A18BF0A46EA
:1021300080F85D2243E0B7F85E32D7F81462594365
:1021400002228E423A723FF4E3AD90F85D1205230D
:1021500000EBC1020024013182F83C3282F8404297
:10216000CAB2043A18BF0A4680F85D2227E0B7F8E1
:102170005E22D7F8143251438B420FD1B1F5007F64
:1021800028BF4FF400710120387207F10C028BB2A6
:102190002046012100F024FB002410E090F85D129D
:1021A000052300EBC1020024013182F83C3282F8A1
:1021B0004042CAB2043A18BF0A4680F85D2260B2B3
:1021C00002B0BDE8F0810000D0F8B80290F85D12CE
:1021D00000EBC10383F83C220022013183F8402246
:1021E000CAB2043A18BF0A4680F85D227047000060
:1021F000502008604FF400710020118070470000EB
:102200000020704700207047002070470020704772
:1022100080B5084640F64431C2F2000101EB42218C
:102220005A02FDF7A1FF002080BD000080B540F6F6
:102230004430C2F2000000EB42205A02FDF794FF46
:10224000002080BD7047000080B5FDF7D3FF80BD42
:1022500070B596B00CAC20462821FDF79EFF0120FA
:102260000C9010904FF4E01000254FF480310226BE
:10227000159020460B95CDE90955CDE90755CDE9D7
:102280000555CDE90355CDE90155CDE90D15CDE94C
:102290001361FFF757F820B1EFF3108072B600BF5B
:1022A000FEE70F20CDE907064FF48060CDE90A056F
:1022B00007A802210995FEF767FF20B1EFF3108010
:1022C00072B600BFFEE7102001900020069001A822
:1022D000FEF7D6FE18B1EFF3108072B6FEE716B027
:1022E00070BD00007047000080B5D0F8B42252687D
:1022F0009047002080BD000080B513460A460021AB
:1023000000F06EFA002080BD80B513460A46002119
:1023100000F02EFB002080BD10B58021044600F0A7
:10232000F9FA2046002100F0F5FA10BD80B505212C
:10233000C0F8941200210022002300F051FA00207E
:1023400080BD000080B513460A460221C0F89412F1
:102350000021C0E9073300F00BFB002080BD000026
:1023600080B50421C0F8941200210022002300F05F
:10237000FFFA002080BD000010B540F22414C2F224
:1023800000040A4602A0214600F09AF8204610BD3B
:102390004D534320436F6E666967000040F2200092
:1023A0001222C2F200000A807047000010B540F20D
:1023B0002414C2F200040A4602A0214600F080F86C
:1023C000204610BD4D534320496E746572666163AB
:1023D0006500000040F234000422C2F200000A80CE
:1023E0007047000010B540F22414C2F200040A46FF
:1023F00002A0214600F064F8204610BD53544D69F8
:1024000063726F656C656374726F6E6963730000ED
:1024100010B540F22414C2F200040A4602A021467C
:1024200000F04EF8204610BD53544D3332204D611C
:1024300073732053746F726167650000B0B54FF21B
:10244000E870C1F6FF70026883684FF01A0CD2186A
:10245000A1F800C02FD0406840F2FC0E6FF00101DF
:102460004FF0370CC2F2000E002300BF140F0CEB2C
:102470001275B2F1204F38BF04F130050EEB0104A4
:10248000023112010E2925716371EFD10EF1100195
:1024900004224FF0370C00230CEB1074B0F1204FE6
:1024A0004FEA107538BF05F1300401F8024F000102
:1024B000013A4B70F0D140F2FC00C2F20000B0BD16
:1024C00010B5A0B303786BB1431E4FF0000C00BFF2
:1024D00093F802E00CF1010CBEF1000F03F10103CF
:1024E000F6D101E04FF0000C5FFA8CFC022303EB05
:1024F0004C03138003220B704A7090F800E0BEF189
:10250000000F08BF10BD013802234FF0000C00BFC0
:10251000DAB242F0010401F802E001F804C090F8D8
:1025200002E00233BEF1000F00F10100F0D110BD56
:10253000002804BF0220704780B5D0F8B432002BC9
:102540001CBF0023C0F8B432002918BFC0F8B01275
:10255000012180F89C12027000F0E4F8002080BD98
:1025600080B5D0F8C002FDF763FF40F200220223DD
:10257000C100C0F20122042838BF22FA01F3D8B208
:1025800080BD000080B5D0F8C002FDF72BFF40F2FF
:1025900000220223C100C0F20122042838BF22FA1F
:1025A00001F3D8B280BD0000B0B5044669B1D4F8DB
:1025B000B40242693AB194F89C02032803D1204640
:1025C0009047002050E00220B0BDD4F894020028CB
:1025D00018BF042804D12046802100F09BF93AE07E
:1025E000022838D1D4E90810814208D9081A83B2E8
:1025F0002062204611461A46FFF786FE13E0E16985
:10260000814217D3B1FBF0F202FB101090B9D4F85D
:10261000980281420ED22046002100220025FFF7B9
:1026200073FEC4F89852204600210022002300F0D7
:10263000D7F810E0D4F8B402C16829B194F89C022C
:10264000032801D1204688472046802100F062F906
:102650002046FFF76BFE94F8A00201284FF000001F
:1026600004BF84F8A002B0BDB0BD0000B0B5044600
:1026700069B1D4F8B40282693AB194F89C02032893
:1026800003D12046904700251AE00220B0BDD4F8BF
:1026900094020025052815D0032811D1D4E958103B
:1026A000814217D9091AC4F86011814238BF08461F
:1026B00083B2204611461A46FFF71EFE0020B0BD29
:1026C0002846B0BD20460021C4F8945200F022F9FB
:1026D0002846B0BDD4F8B402016929B194F89C022F
:1026E000032801D1204688472046FFF739FE002005
:1026F000B0BD000080B5D0F8C002FDF7C9FE40F2C1
:1027000000220223C100C0F20122042838BF22FAAD
:1027100001F3D8B280BD000080B5D0F8C002FDF74B
:10272000D1FE80BD10B5044640F6580045F6004184
:10273000C2F20000C4F200010822022380E80E0069
:102740000021C0F8E842C4F8C002C0E906110162E5
:10275000FEF790FB002818BFFDF740FDD4F8C0023B
:10276000002100221823FDF7FDFDD4F8C0028021CE
:1027700000225823FDF7F6FDD4F8C0028121002283
:102780009823FDF7EFFDD4F8C00201210022D823E1
:10279000FDF7E8FD002010BDD0F8C00201F07F0277
:1027A00002EB820200EBC20000F12A02090658BFC8
:1027B00000F5B5721078704780B59446D0F8C00225
:1027C0001A466346FDF788FE40F200220223C1004C
:1027D000C0F20122042838BF22FA01F3D8B280BD2A
:1027E00080B5D0F8C002FDF7A7FE40F20022022318
:1027F000C100C0F20122042838BF22FA01F3D8B286
:1028000080BD0000F0B581B00021002240230446C5
:1028100000254026FFF7D0FF012720468021002217
:102820004023C4F85871C4F86461FFF7C5FFD4F8B9
:10283000B802A761666284F89C72C4F8945265601D
:10284000C4F8A45228B1D4F8B4020021426820464A
:102850009047002001B0F0BD90F89C12042904BFFD
:1028600090F89D1280F89C120020704780B590F877
:102870009C12032905D1D0F8B412C969002918BFE8
:102880008847002080BD0000024600201174704778
:1028900080B5D0F8C002FEF7A7FB40F20022022369
:1028A000C100C0F20122042838BF22FA01F3D8B2D5
:1028B00080BD0000B0B500F52A750446284600F03A
:1028C0007BF994F8A8020121B4F8AE22C4F894125E
:1028D00000F01F010229C4F8982208D001290CD069
:1028E00089B92046294600F08FF90020B0BD204666
:1028F000294600F05BFB0020B0BD2046294600F0D1
:10290000F3FB0020B0BD00F08001204600F002F88B
:102910000020B0BD80B5D0F8C002FDF727FE40F220
:1029200000220223C100C0F20122042838BF22FA8B
:1029300001F3D8B280BD000080B5D0F8C002FEF728
:1029400071FB40F200220223C100C0F201220428E0
:1029500038BF22FA01F3D8B280BD0000014690F8DA
:102960009C02042281F89D02002081F89C2270477D
:1029700080B5D0F8C002FDF72FFE40F200220223FE
:10298000C100C0F20122042838BF22FA01F3D8B2F4
:1029900080BD000080B5FEF7D9FE002080BD00009C
:1029A00080B5FEF70FFF002080BD0000B0B501210B
:1029B0000446FFF7E7FD002520468121C4F86C514D
:1029C000FFF7E0FD2046E562FEF796FFD4F8B80277
:1029D00018B100F0C3FBC4F8B8520020B0BD00002D
:1029E000014640F2B0000A22C2F200000A8070479D
:1029F000014640F270002022C2F200000A807047B7
:102A0000014640F290002022C2F200000A80704786
:102A1000014640F2BC002022C2F200000A8070474A
:102A2000F0B581B00446007C4026002808BF4FF472
:102A30000076204601210222334601270225FFF7B6
:102A4000BBFE2046812102223346C4F86C71FFF799
:102A5000B3FE4FF41B70E76200F082FBC4F8B802CB
:102A600018B12046FEF74EFF0025284601B0F0BD04
:102A7000002918BFC0F8BC120020704770B582B0A2
:102A80000446D0F8B86208780D46002210F06001C4
:102A9000ADF8062018D0202940F06D806978FF2914
:102AA00026D0FE2967D16988002964D1E9880129E7
:102AB00061D110F080005ED0D4F8BC0280698047FC
:102AC0003060204631464BE068780B2853D8DFE869
:102AD00000F0061C5252525252525252414B94F83C
:102AE0009C02032847D10DF106012046022238E05E
:102AF000698800293FD1E988002908BF10F08000CB
:102B000039D12046FEF71AFF52E029792046FFF717
:102B1000F1FD29792046FFF735FDA888010600F070
:102B20000F0000EB800004EB80004FF0000129D47F
:102B3000C0F85811207C4023002820464FF00101A6
:102B40004FF0020208BF4FF40073FFF735FE04F5A3
:102B5000B67027E094F89C0203280CD1311D204662
:102B60000122FFF7EFFB23E094F89C02032802D137
:102B7000A87870601CE020462946FFF7CDFB0220B4
:102B800002B070BD8161207C4023002820464FF0B8
:102B900081014FF0020208BF4FF40073FFF70CFEF3
:102BA00004F12C000122297902602046FEF79EFDE7
:102BB000002002B070BD00000A7802704A784270AE
:102BC0004A8842808A888280C988C1807047000014
:102BD00000290EBF0220C0F8B41200207047000088
:102BE00080B5D0F8B42232B112689047002818BFDF
:102BF0000120400080BD022080BD000080B5FFF7AD
:102C00009BFE002080BD000070B582B00D460978A3
:102C1000044611F060010AD0402901D0202928D1B2
:102C2000D4F8B402294682682046904729E06878A3
:102C3000092839D8DFE800F005283841386F843892
:102C40004B5D94F89C020138022800F29A80E888D3
:102C5000022840F0CD80D4F8A4020322002808BF47
:102C60000122214641F80C2F20460222FFF76AFB81
:102C700007E020468021FFF74DFE20460021FFF7A8
:102C800049FE002002B070BD94F89C020138022871
:102C900000F2808068880128F3D10020C4F8A402E3
:102CA0002046FFF75DFBECE720468021FFF732FE70
:102CB00020460021FFF72EFEE3E768880128E0D1D7
:102CC0000120C4F8A4022046FFF74AFBD9E7E888B0
:102CD000012868D194F89C02411E022980F091805D
:102CE0000020214641F8080F20460122FFF72AFB69
:102CF000C7E7688840F22015C1B2C2F20005022978
:102D0000287059D320468021FFF704FE2046002179
:102D1000FFF700FEB5E7A88850BBE88840BB68888D
:102D20007F2825D894F89C12032940F0EA80204699
:102D30008021FFF7EFFD20460021FFF7EBFDA0E724
:102D400068884FF0FF3101EB102100220629ADF811
:102D5000062000F20381DFE811F0070072005C003A
:102D6000010101017F008900D4F8B0020268EEE0A1
:102D700020468021FFF7CEFD20460021FFF7CAFD47
:102D80007FE720468021FFF7C5FD20460021FFF7A1
:102D9000C1FD76E720468021FFF7BCFD20460021DB
:102DA000FFF7B8FD6DE720468021FFF7B3FD204611
:102DB0000021FFF7AFFD64E794F89C02032835D0AB
:102DC000022861D1002900F07580032084F89C025C
:102DD00020466160FFF704FF022840F07A80204619
:102DE0008021FFF797FD20460021FFF793FD48E77C
:102DF00020468021FFF78EFD20460021FFF78AFD47
:102E00003FE703284DD1211D20460122FFF79AFA02
:102E100037E7C0B2052800F2A180DFE800F00384A4
:102E2000888C9094D4F8B00242688FE0002945D095
:102E30006068012851D12046FFF792FA21E7217CF2
:102E4000D4F8B40200290CBF816AC16A0DF10600F2
:102E500088470646022014E0207C00287ED1D4F862
:102E6000B402416B0DF10600884774E0207C002815
:102E700074D1D4F8B402016B0DF106008847064600
:102E800007207070012073E020468021FFF742FD8B
:102E900020460021FFF73EFD29782046FFF724FA5F
:102EA000EFE620468021FFF735FD20460021FFF7A1
:102EB00031FDE6E62046FFF753FAE2E6022084F809
:102EC0009C0220466160FFF70FFA2046FFF748FAA0
:102ED000D7E62046FFF744FAD3E6C1B22046FFF713
:102EE00003FA297820466160FFF77AFE022858D15C
:102EF00020468021FFF70EFD20460021FFF70AFD46
:102F0000BFE600F07F052046294684F89E52FFF771
:102F1000BFFC2046FFF724FA002D0CBF0120022041
:102F200084F89C02ADE6D4F8B00282680EE0D4F8D2
:102F3000B002C2680AE0D4F8B002026906E0D4F830
:102F4000B002426902E0D4F8B002826932B1207C5A
:102F50000DF1060190470646012009E02046802138
:102F6000FFF7D8FC204600210026FFF7D3FC002005
:102F700000283FF486AEBDF8060050B1EA8842B1A1
:102F8000904238BF024620463146ADF80620FFF792
:102F9000D9F9E88800287FF474AE2046FFF7E0F9FD
:102FA0006FE62046FFF7DCF96BE60000B0B50A4695
:102FB0000978044611F060010BD0402901D0202986
:102FC0001FD1D4F8B40211468368204698470020E8
:102FD000B0BD50781179F0B1012836D0032863D103
:102FE00094F89C02032834D1508800286ED111F047
:102FF0007F006BD0D088002868D12046FFF78AFC7C
:1030000064E020468021FFF785FC20460021FFF781
:1030100081FC0020B0BD94F89C02032823D0022834
:1030200008BF5FEA41603FD101F07F0000EB800004
:1030300004EB800000F11402090658BF00F5AA72E3
:10304000002010602046114649E094F89C020328B5
:1030500034D0022828D1480626D02046FFF75AFC53
:103060002046802126E001F00F0202EB820211F0DF
:10307000800004EB820214BF9269D2F858219AB101
:1030800001F07F0202EB820204EB820202F11405DE
:10309000002808BF02F5AA7548061CD02046FFF795
:1030A0007BFBC0B1012017E020468021FFF732FCF6
:1030B00020460021FFF72EFC0020B0BD50880028DC
:1030C000A7D1480602D02046FFF74AFA2046FFF76C
:1030D00047F90020B0BD0020286020462946022282
:1030E000FFF730F90020B0BDB0B50D4609780446B1
:1030F00011F0600118BF402912D194F89C020138E8
:10310000022803D8A88810F0FE0F14D02046802192
:10311000FFF700FC20460021FFF7FCFB0020B0BDBC
:103120002029EAD020468021FFF7F4FB2046002129
:10313000FFF7F0FB0AE0D4F8B40229468268204683
:103140009047E988002908BF002801D00020B0BDC1
:103150002046FFF705F90020B0BD000070470000D1
:1031600040F22430C2F2000070470000F0B50C7845
:10317000024691F803E000EB840730F8240047F2A0
:103180007063BEF1030F20EA030307D80020DFE8D5
:103190000EF002070D0A43F4007306E0012005E07B
:1031A00043F4806301E043F4C063002048F28005EB
:1031B000CFF6FF752B433B803B8840F60F763340BC
:1031C00023432B433B800B7B48F2800C002B44D0E5
:1031D0003B8840F60F652B400CF580752B433B80F8
:1031E000B2F850300D8902EB0414234425F0010598
:1031F000A3F80054B2F850204B89224423F0010375
:10320000A2F8083449783A88002902F4804148D06D
:1032100039B1398840F60F7211400CF580421143E4
:1032200039803988490607D5398840F60F72114030
:103230000CF1400211433980398840F63F72114049
:103240000CF120024A40BEF1010F08BF41EA0C0216
:103250003A80398843F60F7242E04D78B2F8503028
:10326000002D4FEA041440D0C98822441A4421F0AA
:103270000101A2F800143988490607D5398840F6BB
:103280000F7211400CF1400211433980398840F629
:103290003F72BEF1010F01EA020122D00CF12002BF
:1032A00062E039B1398840F60F7211400CF5804266
:1032B000114339803988490607D5398840F60F729D
:1032C00011400CF1400211433980398843F60F72E6
:1032D00011400CF5405251403980398840F63F7218
:1032E000114041EA0C013980F0BDCD8816193344F4
:1032F00025F00105A3F80854B2F850200B6906F236
:103300000C413BB13E2B10D803F0010606EB5303F2
:103310009B0217E0535A48F2000623F4F843535235
:10332000535ACFF6FF7633430CE05E094FF0FF357A
:10333000DC0608BF05EB531648F20003CFF6FF7317
:1033400043EA862353523988490407D5398840F621
:103350000F7211400CF5804211433980398843F6D1
:103360000F7211400CF5405251403980F0BD000001
:1033700000207047B0B50C784B78097B024630F8D6
:1033800024004CF2800C4CF2800500294FEA4401E5
:103390003AD0002B00F4804040D040B132F8110008
:1033A00040F60F73184040EA0C0022F8110032F882
:1033B000110043F60F7E400640F63F7009D532F803
:1033C000113040F60F742340ACF57F54234322F8AC
:1033D000113032F8113040F60F7423402B43ACF516
:1033E000804522F8113032F811301840284322F875
:1033F000110032F81100ACF5804300EA0E000343DF
:10340000002022F81130B0BDEBB1400640F63F7EFF
:10341000EFD5ACF57F5540F60F70E4E740B132F8D8
:10342000110040F60F73184040EA0C0022F811001A
:1034300032F81100ACF57F55400640F63F7E43F66A
:103440000F70BCD4C5E7400443F60F7ED1D540F6DB
:103450000F70C8E700207047002070470146012028
:10346000A1F8400000220020A1F84020A1F844204B
:10347000A1F85020704700000146B0F8400044F227
:10348000FF0202400020A1F8402070470020704752
:1034900080B50A7B0AB1002080BD0A784B7830F8ED
:1034A00022C04FEA4202B3B15FEA4C6348F2A00E79
:1034B0000BD530F812C040F60F730CEA030C0EF176
:1034C000200343EA0C0320F81230C9780129E2D026
:1034D00040F63F7110E05FEA4C414BF2800E09D597
:1034E00030F8121040F60F7319400EF5805319434F
:1034F00020F8121043F60F7130F81230194081EAAB
:103500000E0120F81210002080BD000002460B784A
:10351000487832F823C040F63F71002848F2900006
:1035200008BF43F60F71CFF6FF7008BF00F57F604C
:1035300001EA0C014140002022F8231070470000EE
:103540002DE9F04F4B78012B45D18A69D1F810E075
:103550000F7B724588BF7246002F5CD0CF78022F58
:1035600040F0968091F800A00C6A30F82A7040F67E
:103570000F654FEA4A06744507EA050740F2DE8008
:1035800048F2B005CFF6FF75D0352F43A4EB020902
:1035900020F81670C1F8209030F8167048F2B00C80
:1035A0007F0600F12E81012B00F06981002B40F095
:1035B0004183B0F8506000EB0A14002A04F204477B
:1035C00000F01C833E2A00F2298302F0010404EB80
:1035D0005204A4022DE30A7BEAB3CA78012A00F060
:1035E0008980022A40F0A780002B40F06E81B0F85D
:1035F00050600A780F6906441201002F06F2044653
:1036000000F032813E2F00F2528107F0010505EBF8
:103610005707BF0258E1130410D0CB884F6900EB65
:10362000430693B201335B08023F06F57F7600BF85
:1036300037F8025F013B26F8045FF9D1B0F850304B
:103640000F78034403EB071348F2B00CA3F80424EB
:1036500040F63F72CAE08E690A69B31A38BF002388
:1036600088BF16468B61B0F850700B78074448F25B
:10367000B0021B01002E07F20C4700F09D803E2E89
:1036800000F2A28006F0010505EB5606B602A6E0A0
:1036900091F8008040F60F6630F8287048F2B00CC0
:1036A000374048F2B006CFF6FF763743D03720F8E0
:1036B00028700F6AA7EB020BC1F820B030F8287011
:1036C0007F0662D4012B00F0BF80002B40F0BB814D
:1036D000B0F8506000EB0814002A04F2044700F030
:1036E00096813E2A00F2A38102F0010404EB520409
:1036F000A402A7E10F698A69D61B38BF002688BFDC
:103700003A46012B8E6100F09380002B40F010812F
:10371000B0F850700E7807443601002A07F20447CB
:1037200000F0B5803E2A00F2F78002F0010505EBBB
:103730005205AD02FBE00120BDE8F08F48F2B00277
:10374000CFF6FF72303A3A4320F81620B0F85020F6
:1037500000EB0A1348F2B00C1A442304A2F8044404
:103760006FD00A894B6900EB4207A2B201325208BE
:10377000023B07F57F7700BF33F8026F013A27F865
:10378000046FF9D140F63F7230E0012B64D0002B7A
:1037900040F0A681B0F8506000EB0815002A05F251
:1037A0000C4700F03C813E2A00F28D8102F00105B9
:1037B00005EB5205AD0292E1DE5B26F4F846DE53DE
:1037C000DE5B46F400460AE075094FF0FF3CF40664
:1037D00008BF0CEB56154FF4004646EA8526DE532B
:1037E00042F6D07302EB030C43F60F72097830F8FF
:1037F00021301A4082EA0C0220F821200020BDE886
:10380000F08F012B4BD0002B40F06582B0F8506058
:1038100000EB0A14002A04F20C4700F0F7813E2A5C
:1038200000F24D8202F0010404EB5204A40251E2C2
:10383000B0F850700E78074407EB0617A7F8042479
:1038400076E040F63F72D1E7B0F8504000EB081543
:103850002C44A4F80424F6E0B0F8505000EB08160D
:103860003544A5F80C243BE1975B48F2000527F4AA
:10387000F8479753975BCFF6FF752F4324E0B0F8D6
:10388000504000EB0A152C44A4F80424D2E1F55B67
:1038900025F4F845F553F55B45F4004547E0B0F8ED
:1038A000504000EB0A152C44A4F80C2413E27D09C7
:1038B0004FF0FF3CFC0608BF0CEB571548F2000721
:1038C000CFF6FF7747EA85279753012B12D0002BBD
:1038D00069D1B0F850300A780F690344120103F23D
:1038E0000C438FB13E2F52D807F0010606EB570765
:1038F000BF0257E0B0F850200B7802440F6902EB8A
:103900000312A2F80C744EE0D75A27F4F847D752A6
:10391000D75A47F4004745E05509D4064FF0FF3C1D
:1039200008BF0CEB52154FF4004444EA8525F553CB
:1039300048F2B006012B42F6D07710D0D3B9B0F8D8
:1039400050700B7807441B0107F20C47BAB13E2AAE
:103950004CD802F0010505EB5202920251E0B0F89A
:1039600050300D78034403EB051306EB070CA3F866
:103970000C2439E7A7F5E042A2F5756C34E7DA5B71
:1039800022F4F842DA53DA5B42F4004239E07E096D
:103990004FF0FF35FC0608BF05EB57164FF4004704
:1039A00047EA8627D752CA6942F6D073CAB10F7860
:1039B00044F2400530F8272002EA0506AE4248F2FC
:1039C000B00218BF002E7FF40DAF7B0030F81370EB
:1039D00040F60F76374002F11006374320F8137097
:1039E000FEE6A3F5E042A2F5756CFDE655094FF041
:1039F000FF3CD40608BF0CEB52154FF4004242EADC
:103A00008522DA5342F6D07206EB020CECE6F45B48
:103A100024F4F844F453F45B44F4004412E0F55BFE
:103A200025F4F845F553F55B45F4004557E0540996
:103A3000D5064FF0FF3908BF09EB52144FF400458B
:103A400045EA8424F453D1F81490140410D00C895E
:103A500095B200EB440401356F08A9F1020504F5A5
:103A60007F7600BF35F8024F013F26F8044FF9D1A9
:103A700009EB02060024F3454E6184BFABEB020460
:103A80009346BBF1000F0C6212D0012B13D0002B18
:103A900073D1B0F8502000EB0813BBF13E0F03F2D6
:103AA0000C435CD80BF0010707EB5B07BF0263E038
:103AB00040F63F729AE6B0F8502000EB08131A4423
:103AC000A2F80CB459E0D5064FEA521A4FF400455B
:103AD0004FF0FF3908BF09EB521A45EA8A25F55322
:103AE000D1F8149015040FD04D8900EB450695B21E
:103AF00001356F08A9F1020506F57F7635F8024F0A
:103B0000013F26F8044FF9D109EB02060024F345E2
:103B10004E6184BFABEB02049346BBF1000F0C6215
:103B200012D0012B13D0002B4ED1B0F8502000EB57
:103B30000813BBF13E0F03F2044337D80BF0010723
:103B400007EB5B07BF023EE040F63F724EE6B0F87F
:103B5000502000EB08131A44A2F804B434E04FEAF2
:103B60005B174FF0FF355FEACB6408BF05EB5B17CF
:103B70004FF4004545EA8727D7525FEA0B4212D03F
:103B80004A89B31E00EB42071FFA8BF2013252083A
:103B900007F57F7733F8026F013A27F8046FF9D100
:103BA00040F63F7222E640F63F721FE64FEA5B178F
:103BB0004FF0FF355FEACB6408BF05EB5B174FF4AE
:103BC000004545EA8727D7525FEA0B4213D00A899E
:103BD000B31E00EB42071FFA8BF20132520807F5C1
:103BE0007F7700BF33F8026F013A27F8046FF9D1ED
:103BF00040F63F72FAE540F63F72F7E5F45B24F4D5
:103C0000F844F453F45B44F4004412E0F45B24F40D
:103C1000F844F453F45B44F400445BE05409D506E3
:103C20004FF0FF3808BF08EB52144FF4004545EA47
:103C30008424F453D1F8148014040FD00C8995B265
:103C400000EB440401356F08A8F1020604F57F7407
:103C500036F8025F013F24F8045FF9D108EB020651
:103C60000024F1454E6184BFA9EB02049146012B6B
:103C70000C6214D0002B40F08180B0F8502000EB93
:103C80000A13B9F1000F03F20C4310D0B9F13E0F43
:103C900066D809F0010707EB5907BF026DE0B0F8DD
:103CA000502000EB0A131A44A2F80C9466E0D75A8D
:103CB00027F4F847D752D75A47F400475DE0540934
:103CC000D5064FF0FF3808BF08EB52144FF40045FB
:103CD00045EA8424F453D1F81480140410D04C899C
:103CE00095B200EB440401356F08A8F1020604F513
:103CF0007F7400BF36F8025F013F24F8045FF9D1FA
:103D000008EB02060024F1454E6184BFA9EB0204D2
:103D10009146012B0C6213D0002B57D1B0F85020E4
:103D200000EB0A13B9F1000F03F2044310D0B9F10C
:103D30003E0F3DD809F0010707EB5907BF0244E0E9
:103D4000B0F8502000EB0A131A44A2F804943DE0A6
:103D5000D75A27F4F847D752D75A47F4004734E0E8
:103D60004FEA59174FF0FF355FEAC96408BF05EB0A
:103D700059174FF4004545EA8727D7525FEA0942B1
:103D800013D04A891FFA89F300EB420201335B0822
:103D9000B71E02F57F7600BF37F8022F013B26F8E9
:103DA000042F40F63F72F7D120E540F63F721DE543
:103DB0004FEA59174FF0FF355FEAC96408BF05EBBA
:103DC00059174FF4004545EA8727D7525FEA094261
:103DD00013D00A891FFA89F300EB420201335B0812
:103DE000B71E02F57F7600BF37F8022F013B26F899
:103DF000042F40F63F72F7D1F8E440F63F72F5E445
:103E000001460020A1F844004FF43F420020A1F8F1
:103E100040207047002070470020704780B540F672
:103E20005800C2F20000FCF7F3FB80BDB0F844007C
:103E30007047000000EB4200022B00F580620BD3BC
:103E400058080239043A00BF32F804CF013821F88B
:103E500002CFF9D102310432D8071CBF1088087094
:103E60007047000000207047002904BF8021A0F89F
:103E70004C10002070470000002B08BF704700EB7B
:103E80004202581C4008023902F57F7231F8023FA5
:103E9000013822F8043FF9D170470000FEE7000026
:103EA000FCF7B6F9FEF7D4F9FDF78EFDFDF7A6FD98
:103EB000FEE702E008C8121F08C1002AFAD17047C5
:103EC0007047002001E001C1121F002AFBD170479A
:103ED00001020000000000000000010203040607C8
:103EE00008090006000000000000000000000000BB
:103EF000000000000003008083008002021F000019
:103F00000053544D202020202050726F647563743C
:103F1000202020202020202020302E3031020304B9
:103F200005060708090A0B0C0D0E0F101000000003
:103F3000503F00080000002020010000B23E0008B1
:103F4000704000082001002028AE0000C23E00089A
:103F50009D230008D5230008E5230008112400084C
:103F60003D24000879230008AD2300080024F40054
:103F7000120100020000004083042A5700020102DF
:103F80000301000004030904212A0008AD290008E8
:103F90007D2A0008000000000000000095290008AC
:103FA000A12900080000000000000000000000003F
:103FB000012A0008F1290008112A0008E129000857
:103FC00009022000010104C03209040000020806B1
:103FD000500507058102400000070501024000006E
:103FE00009022000010104C0320904000002080691
:103FF00050050705810200020007050102000200CA
:104000000A0600020000004001000000090720002D
:10401000010104C03209040000020806500507052A
:10402000810240000007050102400000052200084F
:10403000F1210008092200080D22000811220008C1
:104040002D22000801220008F93E00081A03000092
:104050000000000000000000000000000000000060
:10406000000000000000010010000000000000003F
:0400000508000131BD
:00000001FF
