:020000040800F2
:1000000018040020D1000008390B0008A10A0008DC
:1000100000000000000000000000000000000000E0
:100020000000000000000000000000003D0B000880
:1000300000000000000000003B0B00083F0B000820
:10004000E3000008E3000008E3000008E300000804
:10005000E3000008E3000008E30000086101000875
:10006000E3000008E3000008E3000008E3000008E4
:10007000E3000008E3000008E3000008E3000008D4
:10008000E3000008E3000008E3000008E3000008C4
:10009000E3000008E3000008E3000008E3000008B4
:1000A000E3000008E3000008E3000008E3000008A4
:1000B000E3000008E3000008E30000080348854669
:1000C00000F03CF800480047E10B0008180400204D
:1000D0000448804704480047FEE7FEE7FEE7FEE7E6
:1000E000FEE7FEE79F0B0008BD00000830B50B4699
:1000F000014600202022012409E00D46D5409D4202
:1001000005D31D469540491B254695404019154687
:10011000521E002DF1DC30BDD2B201E00270401C55
:10012000491EFBD270470022F6E710B513460A4677
:1001300004461946FFF7F0FF204610BD064C012586
:10014000064E05E0E36807CC2B430C3C984710347F
:10015000B442F7D3FFF7B6FF200C0008400C0008AC
:1001600080B50120C00200F01BF880BDB0B5044688
:1001700000F006F9084D2968401A80084B280AD378
:1001800000F0FEF828600120C1028C4203D1410337
:10019000024800F0E5F8B0BD10000020000800485B
:1001A00080B504490A68024202D00860FFF7DEFF0A
:1001B00080BDC04614040140F0B58BB00991644A7B
:1001C00004230521904200D00B461721C906019057
:1001D00040180A21C8410090042800D30093002150
:1001E0000F460C46ABE001230493A3401E40002EB3
:1001F00000D1A1E00794059709984468032502946B
:100200002C40601E0027FA430128039508910692AE
:100210001BD82846059988405040019FBD6805407D
:100220000998C06888402843B8600298000904997A
:100230000840079DA84011464B407D681D4005437E
:100240007D60039D059F029905E0032C059F02999F
:1002500001D1019D21E02846B8405040019DEB6846
:10026000034009988068B8401843E860022C14D114
:100270001C21089801400F208840069A5040079B97
:100280005B08344C1C402B191C6A0440099F3869D8
:100290008840204318627968059F08460A460399FA
:1002A0000840B8400B46BB40069C63402C681C408D
:1002B00004432C600D46280402420899079C3BD059
:1002C00055480168049B19430160006818400A9072
:1002D0000C20089908400F218140069A514023467E
:1002E000AB4315460A9A1C4A9C580C400099814021
:1002F0002143079C99507540184882682A40099903
:100300004968CB02DB173340134383608A02D2175C
:100310003240C3682B401343C3608A03D217324074
:1003200043682B4013434360C903C9173140026837
:100330002A400A4308990260091DBF1C641C0998E1
:1003400006683046E04000D04DE70BB0F0BDC04637
:1003500000100048FCFFFF7F08000140000401403E
:1003600042690B4693430A40110419438161704767
:10037000034618332830002A00D10346196070471D
:100380001A4880687047C04618480178826851183A
:100390008160704780B56D48016810220A43026091
:1003A000032000F005F800F023F8002080BDC046CF
:1003B00070B504467D20C0000C4E3178FFF796FEE4
:1003C000014665480068FFF791FE00F04FFB0125EC
:1003D000032C08D8002806D10025E84321462A46E8
:1003E00000F028F87460284670BDC0460000002068
:1003F00082B009480168012211430160016811407F
:1004000001910199110742680A434260406808401F
:100410000090009802B0704718100240002805DBD9
:100420001F21084001218140014801607047C046FA
:1004300000E100E080B500F0B3FB80BDFEB50446EE
:100440000125002C7FD0414B1A68012002408A42CE
:1004500008D21A680125AA430A431A601A682A407A
:100460008A4270D1019302912168504F02221142B9
:100470000CD04B0704D507231B023D681D433D608C
:100480003B68F025AB43A5681D433D60C90732D0EA
:1004900061684304032907D0022908D001290ED13D
:1004A0000322D243BA5800E03A6B1A420BE0032011
:1004B000C043385801256A06104206D143E00323A1
:1004C000DB43FB58134205463DD038680325A8435B
:1004D00008433860FFF754FF064638680C21014096
:1004E00060688000814206D0FFF74AFF801B1849F0
:1004F0008842F2D927E0019A106801252840029924
:10050000884207D91068A843084310601068284043
:10051000884218D12078400706D5072000023968A4
:100520008143E0680843386000F018F83968090929
:100530000F220A400749895CC84007490860032028
:10054000FFF736FF0025E8B203B0F0BD00200240FF
:10055000881300000E0C00080C000020B0B51349F1
:100560000C68A50803231D401148124A032D1BD017
:10057000022D00D0B0BDDD0323462B40AB4200D09E
:10058000024601252D04AB4200D01046896A0F2592
:10059000294009A2515CFFF7A9FD0146A00C2840A3
:1005A00009A2105C4843B0BD1046B0BD0410024023
:1005B00000127A00006CDC02010203040506070841
:1005C000090A0B0C0D0E0F1002030405060708099B
:1005D0000A0B0C0D0E0F1010F0B58BB00126002881
:1005E00000D139E20126310406910324E103079189
:1005F0007104089109900078C007FC4FFC480590F1
:1006000021D109980078800700D488E079680C200F
:1006100001420AD07968014008292CD178680799ED
:1006200008400121C903884225D1386802210842C7
:10063000099A03D0D068012800D00DE23868F8216B
:100640008843116968E079680C200140042909D0C9
:1006500079680140082923D17868079908400699EC
:1006600088421DD1386808990842CAD00998406864
:100670000028C6D1F0E10998C1683868002921D066
:10068000012108433860FFF77BFE054638680221E8
:1006900008423CD1FFF774FE401B0228F6D9A3E1C3
:1006A00009984268EE48002A1CD0012A06D0396811
:1006B000052A00D085E1B004014339603968069805
:1006C000014383E1012188433860FFF759FE054665
:1006D00038680221084222D0FFF752FE401B022850
:1006E000F6D981E13968059A1140396039680140CD
:1006F0003960FFF745FE054638680899084200D181
:100700007FE7FFF73DFE401B6428F5D96CE13868B0
:10071000F821884309990969C9000143396009989A
:100720000078000724D50998C169786A00290FD09C
:10073000012108437862FFF723FE0546786A02210B
:10074000084215D1FFF71CFE401B0228F6D94BE1E9
:10075000012188437862FFF713FE0546786A02217B
:10076000084205D0FFF70CFE401B0228F6D93BE1FA
:1007700009990878400704941CD40878C00600D46E
:100780008EE0099A516901294CD1786B042101430B
:100790007963786B012101437963FFF7F1FD054629
:1007A000786B022108425ED1FFF7EAFD401B022868
:1007B000F6D919E1029601231E021907F8690022F1
:1007C000A84C084207D1F8690843F861F869084065
:1007D0000A900A981A4603930192009120683042C9
:1007E0000ED1206830432060FFF7CAFD054620681F
:1007F000304205D1FFF7C4FD401B6428F7D9D2E091
:1008000009988168984E002917D00129039A06D0CB
:10081000386A052900D0B4E0042108433862386AF8
:100820001043B3E0786B491D26D1042188437863D7
:10083000786BF821884391691AE0386A03998843F4
:100840003862386A042188433862FFF799FD05460B
:10085000386A0221084200D1A7E0FFF791FD401B52
:10086000B042F5D99FE0786BF821884309998969EE
:10087000C9000143796313E0042108437863786B6E
:10088000012188437863FFF77BFD0546786B0221E1
:10089000084205D0FFF774FD401B0228F6D9A3E0FB
:1008A00009980078800621D4099D6C6A002C00D13B
:1008B000D1E078680C210140082925D1012C00D114
:1008C000CAE07868079B0340F96AAA6A934200D09D
:1008D000C2E00F2211402B6B994200D0BCE0910482
:1008E0000840E96A884200D1B5E0B5E079680C209B
:1008F00001400C2927D1786B08990842D4D0099877
:10090000006A0128D0D0A7E00120020639680892C9
:10091000914339604606FFF733FD0546022C08D1A6
:100920003868304277D0FFF72BFD401B0228F7D9FB
:1009300039E03868304200D18DE0FFF721FD401BDF
:100940000228F6D92FE079680140082904D1786897
:10095000079908408842CED00998016A786B00292F
:1009600048D0069908437863FFF70AFD0546786B7F
:100970000899084298D1FFF703FD401B0228F6D9D9
:1009800032E090433862386A042188433862FFF7C6
:10099000F7FC0546386A0221084206D1FFF7F0FC51
:1009A000401BB042F6D9049E56E001980128049CF1
:1009B000029E099900D0E0E6F869009A9043F86138
:1009C000DBE6059A11403960396801403960FFF76C
:1009D000D7FC054638680899084200D011E6FFF7B1
:1009E000CFFC401B6428F5D9264635E000100240B4
:1009F000FFFFFEFF059908407863FFF7C1FC05463D
:100A0000786B0899084200D14EE7FFF7B9FC401B0C
:100A10000228F5D9E8E7F86A0F218843099A116B93
:100A20000143F9627B20C00379688143D06A08439F
:100A3000916A014379603868089908433860FFF784
:100A40009FFC04463868304205D1FFF799FC001B33
:100A50000228F7D9A7E70026F0B20BB0F0BDC046D8
:100A6000FFFFFBFF0070004088130000421E130EC2
:100A700001200849002B0CD1074B5A600748026837
:100A80000A40032189071143016000209860072173
:100A900019607047FFFFFF0010E000E020ED00E06C
:100AA000FEE70000F0B587B0002406940127F904A2
:100AB0001E4802680A43026002680A4001920199D6
:100AC000B90502680A43026002680A40019201996E
:100AD000790402680A4302600068084001900198A6
:100AE0007D03134E304629462246FFF741FC02950E
:100AF00003970494059402AD30462946FFF75CFB4A
:100B0000F80202901120000403900220049009488A
:100B10002946FFF751FB0725284621462246FFF7C5
:100B200089FC2846FFF77AFC07B0F0BD141002409C
:100B30000008004800140048FEE77047704780B581
:100B4000FFF722FC80BDB0B592B005AC201D30216E
:100B5000FFF7E9FA002504950395029501952020F9
:100B6000059001200D900E952046FFF735FD0028D9
:100B700003D0EFF3108072B6FEE707200190032048
:100B800002900395049501A80121FFF757FC002866
:100B900003D0EFF3108072B6FEE712B0B0BD70471D
:100BA000C200182313408901C9B29940FF229A401C
:100BB000D243002803DB03239843084B05E00F23AF
:100BC0001840083803239843034BC01803681340A8
:100BD0000B4303607047C0461CED00E000E400E0FA
:100BE00080B5FFF7D7FBFFF7AEFFFFF75BFFFEE730
:100BF00002E008C8121F08C1002AFAD170477047E6
:100C0000002001E001C1121F002AFBD17047000043
:100C100000000000000001020304060708090000AC
:100C2000400C00080000002010000000F00B00083D
:100C3000500C00081000002008040000000C000800
:100C400001000000040000000000000000127A0013
:04000005080000BD32
:00000001FF
