:020000040800F2
:1000000090150020A10100085D2500083D2400088E
:100010005925000881030008513A0008000000003B
:100020000000000000000000000000004D35000846
:1000300085030008000000009925000885350008A8
:10004000BB010008BB010008BB010008BB010008A0
:10005000BB010008BB010008BB010008BB01000890
:10006000BB010008BB010008BB010008BB01000880
:10007000BB010008BB010008BB010008BB01000870
:10008000BB010008BB010008BB010008BB01000860
:10009000BB010008BB010008BB010008BB01000850
:1000A000BB010008BB010008BB010008BB01000840
:1000B000BB0100080000000000000000BB010008B8
:1000C000BB010008BB010008BB010008BB01000820
:1000D000BB010008BB010008BB010008BB01000810
:1000E000BB010008BB010008000000000000000088
:1000F0000000000000000000000000000000000000
:10010000000000004D28000800000000BB010008AE
:100110000000000000000000BB010008BB01000857
:10012000BB010008BB010008BB010008BB010008BF
:10013000BB010008000000000000000000000000FB
:10014000BB010008BB010008BB0100080000000063
:10015000BB010008BB010008BB010008BB0100088F
:10016000BB010008BB010008BB0100080000000043
:10017000BB010008BB0100080000000000000000F7
:10018000BB010008BB010008BB010008DFF80CD070
:1001900000F07EF8004800472D6D00089015002003
:1001A0000648804706480047FEE7FEE7FEE7FEE711
:1001B000FEE7FEE7FEE7FEE7FEE7FEE7F5350008AF
:1001C0008D0100082DE9F05F0546002092469B4610
:1001D00088460646814640241BE02846414647465D
:1001E000224600F044F853465A46C01A914110D3B3
:1001F00011461846224600F02BF82D1A67EB01082D
:100200004F4622460120002100F022F817EB00099A
:100210004E41201EA4F10104DFDC484631462A4647
:10022000434600F000B830BCBDE8C09FD2B201E048
:1002300000F8012B491EFBD270470022F6E710B5EB
:1002400013460A4604461946FFF7F0FF204610BD44
:10025000202A04DB203A00FA02F100207047914086
:10026000C2F1200320FA03F3194390407047202A7B
:1002700004DB203A21FA02F00021704721FA02F350
:10028000D040C2F120029140084319467047000057
:10029000064C074D06E0E06840F0010394E80700D3
:1002A00098471034AC42F6D3FFF774FF707800081B
:1002B0009078000870470000014640F28040C2F28A
:1002C000000001F077BB000080B540F28040C2F230
:1002D000000001F081FB043818BF012080BD000040
:1002E00010B500F01DF801281EBF0224204610BDE5
:1002F00040F28040C2F2000001F060FC04460CB104
:10030000204610BD40F28040C2F200004FF4006170
:1003100001F00AFA002818BF0124204610BD000091
:1003200081B001208DF803009DF8030001B07047F3
:1003300080B582B094460A460146009340F2804060
:10034000C2F20000634601F045FD002818BF0120FD
:1003500002B080BD7047000080B582B094460A4666
:100360000146009340F28040C2F20000634601F073
:1003700067FE002818BF012002B080BD7047000052
:10038000FEE700007047000010B540F60004C4F618
:10039000000400BF20464FF4005100F055F94FF41F
:1003A000967000F057F8F5E7002200F001B8000061
:1003B00010B5844640F27444C2F20004607A00280A
:1003C0001CBF012010BD94F809E04FF0000004F8B4
:1003D0000E00637A04EB8303C3F804C0637A2344FA
:1003E0001A72627A02F10103637202F130020A703A
:1003F0004FF03A024A704FF02F028A70C87010BD59
:1004000090F8251002291FD101680A6822F00E0217
:100410000A6001680A6822F001020A60D0E910123D
:1004200002F01C02012303FA02F24A6080F8253030
:10043000002180F82410826B22B180B59047002102
:10044000BDE88040084670470421C1630121084689
:100450007047000070B505466E1C00F005F90446B3
:1004600036B140F20800C2F200000078054401E015
:100470004FF0FF3500F0F8F8001BA842FAD370BD2A
:100480002DE9F04F82B00E68002E00F0D78041F2C7
:100490000002C4F600020727904208BF042700F1BB
:1004A00038424FEAB223042B38BF4FEAB2270097F5
:1004B00000234FF0030E40F2004AC4F2010A002567
:1004C000012400BFA4F10109012202FA09FB16EA86
:1004D0000B0800F0A8804E6806F00306013E012ECE
:1004E00013D80EFA05F6D0F808C02CEA0606CA683A
:1004F000AA4032438260426822EA0B024E68C6F389
:10050000001606FA09F6324342604A6802F0030216
:10051000032A08D00EFA05F2C66826EA02028E689F
:10052000AE403243C2604A6802F00302022A14D18C
:1005300003F01C020F2707FA02FC4FF6FC76C7F601
:10054000FF7606EA590707443E6A26EA0C0C0E6954
:1005500006FA02F242EA0C023A620EFA05F2076863
:1005600027EA02024F6807F00307AF403A430260F0
:100570008A79920757D041F26002C4F2020217460C
:100580003A6842F001023A603A6802F001020192D0
:1005900029F003025244019F4FF60847CFF6FF7738
:1005A000B94652F809C003F00C060F27B7402CEAF1
:1005B000070C009F07FA06F64CEA060742F8097096
:1005C000DAF8082022EA08024F6817F4801F18BFE3
:1005D00042EA0802CAF8082040F20C42C4F20102C2
:1005E0001646326822EA08024F6817F4001F18BF47
:1005F00042EA08023260DAF8042022EA08024F6870
:1006000017F4003F18BF42EA0802CAF80420DAF8DB
:10061000002022EA08024F6817F4803F18BF42EA20
:100620000802CAF800200E6836FA04F203F1040347
:1006300005F1020504F101047FF444AF02B000F0BB
:1006400000B830BCBDE8C08F426902EA01039143A3
:1006500041EA03418161704700F12803002A18BF75
:1006600000F118031960704740F28C50C2F200008C
:100670000068704740F20800C2F20000007840F2C3
:100680008C51C2F200010A681044086070470000F3
:1006900080B5032000F064F80F2000F009F800286E
:1006A0001CBF012080BD00F02FF84FF0000080BD7E
:1006B000B0B5044640F20800C2F2000000780028FD
:1006C00002BF01252846B0BD4FF47A71B1FBF0F0AE
:1006D00040F20401C2F200010968B1FBF0F001F040
:1006E000BFFD4FF001050F2C0CD858B900254FF075
:1006F000FF302146002200F023F840F20C00C2F245
:10070000000004602846B0BD82B041F25800C4F237
:100710000200816841F001018160816801F00101FE
:1007200001910199016841F080510160006800F079
:1007300080500090009802B07047000003F08AB922
:1007400070B514460D46064603F096F92946224632
:1007500001F006FF01463046BDE8704003F094B951
:1007600003F0A4B947F20001C4F200010A6802F4E0
:10077000C062B0F5007F26D1B2F5007F2BD00868AB
:10078000012262F34A20086040F20400C2F2000035
:100790000068322250434DF68362C4F21B32A0FB44
:1007A00002026FEA924000BF4A6900281CBF013074
:1007B00012F48062F8D1486910F4806F1EBF0320E4
:1007C000C0B2704707E0B2F5806F1FBF0868022211
:1007D00062F34A2008600020C0B2704747F2000070
:1007E000C4F20000006800F4C0607047024641F2A5
:1007F0000003C4F20203B2F5003F15D1D3F8900014
:1008000000F44070B0F5407F21D0B0F5007F00F0DB
:100810006B81B0F5807F40F0AB81D3F890004FF44E
:10082000004101EA80307047D86800F0030042F2CE
:10083000004CC0F2F40C032812D0022819D0012871
:100840001CD1186810F0020F1AD1002129E0186895
:1008500080034DF29001C0F2030101EAE07070479D
:100860001868800341F20021C0F27A0101EAE071C8
:1008700017E0186840050CEAE07112E0002110E072
:10088000186810F0080F06BFD3F894000009186824
:100890004FF03C0101EA900047F25441C0F60001DC
:1008A00009580020B2F5007F37DA3F2A4BDC511E91
:1008B0001F2900F21881DFE811F0200093001601D3
:1008C000A3001601160116011601160116011601E4
:1008D0001601160116011601160116011601160160
:1008E0001601160116011601160116011601160150
:1008F0001601160116011601B200D3F8880000F0A7
:100900000300012808BF00F081BB022800F0F4803A
:10091000032818BF00F066BB7FE7B2F5804F30DBDD
:10092000B2F5802F3CDAB2F5804F00F08780B2F547
:10093000004F40F0D880D3F8880010F0804F08BFF7
:1009400000F03CBBD8E0402A00F08880802A00F00C
:100950009880B2F5807F18BF7047D3F8880000F404
:100960004030B0F5003F00F0C780B0F5803F08BFD1
:1009700000F04CBB002808BF00F020BB4FF0000087
:100980007047B2F5007F00F08F80B2F5806F00F005
:100990009880B2F5006F04BF084601F0FFBD7047B4
:1009A00018BFB2F5002F40F09E80D3F88800C0F346
:1009B0008160002800F0A580012800F0AC800228AA
:1009C00040F0B880186810F0007F1CBFD86810F4A1
:1009D000801F00F0CD80D868D3F80CC0DB68A6E09B
:1009E000D3F88800C0F38100012808BF00F00EBBD7
:1009F000022800F08180032818BF00F0DFBA0CE75E
:100A0000D3F88800C0F30110012808BF00F0FEBA37
:100A1000022871D0032818BF00F0D0BAFDE6D3F841
:100A20008800C0F38120012808BF00F0EFBA022837
:100A300062D0032818BF00F0C1BAEEE6D3F88800F0
:100A400000F04050B0F1805F00F08A80B0F1405F6C
:100A500008BF00F0DBBA4FF000007047D3F8880001
:100A600000F44050B0F5005F46D0B0F5805F08BF9D
:100A700000F0CCBA002808BF00F0A0BA4FF0000088
:100A80007047D3F8880000F44040B0F5004F33D0F1
:100A9000B0F5804F08BF00F0B9BA002808BF00F0D9
:100AA0008DBA4FF000007047D3F88800C0F3814042
:100AB000012819D002281FD0032818BF00F07EBAE1
:100AC000ABE6D3F88800C0F3015001280CD002280F
:100AD00012D0032818BF00F071BAD3F890004FF479
:100AE000004101EA80307047D3F8940080074FF44A
:100AF000FA4101EAE0707047186840050CEAE070BE
:100B00007047D3F89800800746F60041C0F2DC2118
:100B100001EAE0707047186810F0006F1CBF186998
:100B200010F4801F24D01869D3F80CC01B69C3F3DC
:100B3000415325E0186810F0020F19D0186810F022
:100B4000080F06BFD3F89400000918684FF03C0165
:100B500001EA900047F25441C0F60001085870477E
:100B6000186810F0006F1CBF186910F0807F01D169
:100B7000002070471869D3F80CC01B69C3F34163A8
:100B8000022202EB4302C0F306204843CCF30211D9
:100B90000131B0FBF1F0B0FBF2F070472DE9F04706
:100BA00082B004466078000741F28807C4F2020769
:100BB0001CD5606C60B1B0F5400F11D0B0F5000FDE
:100BC0004CD157F87C0C40F4803047F87C0C07E09F
:100BD000201D002101F052FD8246BAF1000F07D11D
:100BE0003868616C20F44000084338604FF0000A18
:100BF000A078800701D4554659E057F8300C47F2E9
:100C00000006C4F2000610F0805F0ED157F8300CD9
:100C100040F0805047F8300C57F8300C00F080500E
:100C2000019001984FF0010901E04FF00009306890
:100C300040F480703060FFF717FD0546306810F40F
:100C4000807F06D1FFF710FD401B0228F6D903254F
:100C500024E0BAF1000F04D055461FE04FF0010A1E
:100C6000C6E7B86810F4407011D0A16D88420BD06F
:100C7000B868B96841F48031B960B96821F480314D
:100C8000B96020F44070B860C00740F0BE80B8681A
:100C9000A16D20F440700843B8600025B9F1010F40
:100CA00002BF57F8300C20F0805047F8300C207805
:100CB000C00705D03868216A20F003000843386077
:100CC0002078800705D53868616A20F00C00084359
:100CD00038602078400705D53868A16A20F03000D8
:100CE000084338602078800605D53868E16A20F42A
:100CF0004060084338606078800705D53868E16B4C
:100D000020F44020084338606078400705D53868F3
:100D1000216C20F44010084338602078400605D547
:100D20003868216B20F44050084338602078000672
:100D300005D53868616B20F440400843386060781E
:100D4000C00705D03868A16B20F4403008433860F4
:100D5000A07800071AD53868A16C20F040600843DD
:100D60003860A06CB0F1806F09D0B0F1006F02BFA5
:100D700057F87C0C40F4801047F87C0C06E0201DEE
:100D8000012101F07BFC002818BF0546A078400730
:100D90001AD53868E16C20F0406008433860E06C98
:100DA000B0F1806F09D0B0F1006F02BF57F87C0C32
:100DB00040F4801047F87C0C06E0201D012101F072
:100DC0005DFC002818BF05466078400610D53868DD
:100DD000216D20F0405008433860206DB0F1805FF5
:100DE00006D1201D022101F049FC002818BF05464C
:100DF0006078000605D53868616D20F080400843B2
:100E00003860284602B0BDE8F087FFF72DFC804629
:100E100041F28836032500BFB86810F0020F06D1F2
:100E2000FFF722FCA0EB0800B042F5D936E7BAF193
:100E3000000F55467FF432AF29E700002DE9F0415D
:100E400088460446002C00F0AF8041F20807C4F247
:100E50000207D7F8F80F00F0070040450ED2D7F888
:100E6000F80F20F0070040EA0800C7F8F80FD7F89D
:100E7000F80F00F00700404540F09680207880078A
:100E80000AD5A068396801F0F001884281BF39684D
:100E900021F0F001084338602078C00734D0606842
:100EA000022807D003280BD157F8080C10F0007F58
:100EB0007AD00DE057F8080C10F4003F74D007E02A
:100EC00057F8081C10B148056ED501E088076BD5AE
:100ED0003868616820F0030008433860FFF7C4FBFE
:100EE000064641F2883500BF3868616800F00C00A2
:100EF000B0EB810F08D0FFF7B7FB801BA842F3D9F6
:100F00000320C0B2BDE8F081207880070AD5A06830
:100F1000396801F0F00188423FBF396821F0F001E3
:100F200008433860D7F8F80F00F0070040450DD9A6
:100F3000D7F8F80F20F0070040EA0800C7F8F80FCC
:100F4000D7F8F80F00F0070040452DD12078400772
:100F500005D53868E16820F4E060084338602078FF
:100F6000000706D53868216920F4605040EAC100C6
:100F7000386000F04BF83968C1F3031147F2AC3226
:100F8000C0F60002515C01F01F01C84040F20401AC
:100F9000C2F20001086040F20C00C2F200000068DA
:100FA000BDE8F041FFF784BB0120C0B2BDE8F0818D
:100FB00040F20400C2F200000068704780B5FFF7FD
:100FC000F7FF41F20801C4F202010968C1F30221EE
:100FD00047F2BC32C0F60002515C01F01F01C8406C
:100FE00080BD000080B5FFF7E3FF41F20801C4F2C5
:100FF00002010968C1F3C22147F2BC32C0F6000207
:10100000515C01F01F01C84080BD000080B541F275
:101010000C01C4F2020151F8042C086812F00C0310
:1010200041F2002CC0F27A0C42F2004EC0F2F40EF3
:1010300005D00C2B04BF00F00300012818D151F893
:101040000C0C10F0080F03D1D1F88800000A02E060
:1010500051F80C0C000900F00F0047F25442C0F6A2
:10106000000252F82020002B104618BF00200DE08F
:1010700003F00F00042804BF704680BD082804BF99
:10108000604680BD4FF000004FF000020C2B18BFEF
:1010900080BD086800F00300022803D00328E6465C
:1010A00018BF964608680A680968C1F341610223BF
:1010B00003EB4101C2F3062202FB0EF2C0F3021061
:1010C0000130B2FBF0F0B0FBF1F080BD2DE9F0474C
:1010D00082B00446002C00F07E8241F20407C4F284
:1010E0000207786800F00C08B86800F0030920785F
:1010F000C00641F2000AC4F2020A52D42078C007A6
:1011000012D0B8F1080F06D0B8F10C0F08BFB9F132
:10111000030F40F03081DAF8000010F4003F03D0F4
:101120006068002800F057822078800719D5B8F150
:10113000040F06D0B8F10C0F08BFB9F1020F40F050
:101140002D81DAF8000010F4806F03D0E0680028E9
:1011500000F041823868216920F0F85040EA0160CF
:1011600038602078000740F1BB806169D7F89000B3
:10117000002900F0A28040F00100C7F89000FFF7BE
:1011800073FA0546D7F8900010F0020F40F0A880DF
:10119000FFF76AFA401B0228F4D9032002B0BDE829
:1011A000F087B8F1000F05D0B8F10C0F08BFB9F106
:1011B000010F68D1DAF8000010F0020F03D0A06927
:1011C000002800F00882206ADAF8001011F0080FF9
:1011D00006BFD7F890100909DAF8001001F0F00105
:1011E00088421AD901F0ECFA002840F0F481DAF8CC
:1011F000000040F00800CAF80000DAF80000216A98
:1012000020F0F0000843CAF800003868E16920F4D3
:101210007F4040EA0120386018E0DAF8000040F032
:101220000800CAF80000DAF80000216A20F0F00097
:101230000843CAF800003868E16920F47F4040EABA
:1012400001203860B8F1000F00F08E80FFF7DEFE5D
:101250007968C1F3031147F2AC32C0F60002515C69
:1012600001F01F01C84040F20401C2F20001086011
:1012700040F20C00C2F200000068FFF719FA0028E3
:1012800040F049823AE7A169DAF80000002900F04D
:10129000A08040F00100CAF80000FFF7E5F905461C
:1012A000DAF8000010F0020F40F09981FFF7DCF946
:1012B000411B03200229F3D92DE220F00100C7F8D9
:1012C0009000FFF7D1F90546D7F8900010F0020F13
:1012D00006D0FFF7C9F9411B03200229F4D91AE20D
:1012E0002078400740F1BB80786D10F0805F0BD113
:1012F000786D40F080507865786D00F080500190F6
:1013000001984FF0010901E04FF0000946F2000694
:10131000CFF6FE765AF8060010F4807F14D15AF802
:10132000060040F480704AF80600FFF79DF9054674
:101330005AF8060010F4807F06D1FFF795F9411B9B
:1013400003200229F4D9E6E1A168012907D0D7F8E2
:101350008C00052951D140F00400C7F88C00D7F863
:101360008C0040F0010050E0206A01F029FA0028CA
:1013700040F031816AE76168B1F5803F09D0DAF861
:101380000000B1F5A02F40F05F8140F48020CAF842
:101390000000DAF8000040F480305DE1E168DAF83E
:1013A0000000002900F0318140F48070CAF800008C
:1013B000FFF75AF9054600BFDAF8000010F4806F15
:1013C0007FF4C8AEFFF750F9411B03200229F3D97F
:1013D000A1E120F00100CAF80000FFF745F9054639
:1013E000DAF8000010F0020F3FF488AEFFF73CF986
:1013F000411B03200229F3D98DE120F00100C7F839
:101400008C00D7F88C0020F00400C7F88C00A66888
:10141000FFF72AF905466EB141F28836D7F88C00FD
:1014200010F0020F14D1FFF71FF9411B0320B14246
:10143000F4D970E141F28836D7F88C0010F0020F31
:1014400006D0FFF711F9411B0320B142F4D962E144
:10145000B9F1010F02BF786D20F0805078652078D7
:1014600080062BD5616AD7F8940099B140F001004D
:10147000C7F89400FFF7F8F8054600BFD7F89400C6
:1014800010F0020F1AD1FFF7EFF8411B03200229D9
:10149000F4D940E120F00100C7F89400FFF7E4F828
:1014A000054600BFD7F8940010F0020F06D0FFF7F2
:1014B000DBF8411B03200229F4D92CE1A06A0028A3
:1014C00000F02C81022851D1B868E16A00F00302D3
:1014D0008A4263D1216B6FF00F0202EB011100F021
:1014E00070028A425AD1616B00F4FE42B2EB012FC6
:1014F00054D1A16B00F07842B2EBC16F4ED1E16BD9
:101500000022CFF6E07202EA0151A1F5001100F4C9
:10151000C0028A4242D1216C4FF07E4202EA016150
:1015200001F17E4100F0C060884237D1DAF8000056
:1015300010F0007F40F0F280DAF8000040F0807098
:10154000CAF80000B86840F08070B860FFF78CF807
:101550000446DAF8000010F0007F40F0DF80FFF76B
:1015600083F8011B03200229F3D9D4E0B8F10C0F52
:1015700031D0DAF8000020F08070CAF80000FFF7E0
:1015800073F80446DAF8000010F0007F51D0FFF73E
:101590006BF8011B03200229F4D9BCE0B8F10C0F51
:1015A00019D0DAF8000010F0806F14D1DAF80000DA
:1015B00020F08070CAF80000FFF756F80546DAF808
:1015C000000010F0007F69D0FFF74EF8411B0320A8
:1015D0000229F4D99FE0012002B0BDE8F087DAF8D3
:1015E000000040F00800CAF80000DAF80000216AA4
:1015F00020F0F0000843CAF800003868E16920F4E0
:101600007F4040EA0120386078E520F48070CAF815
:101610000000FFF729F80546DAF8000010F4806FA3
:101620003FF49FADFFF720F8411B03200229F3D9B7
:1016300071E0B8684FF6FC71CFF6EE610840B86013
:10164000002002B0BDE8F08720F48030CAF8000026
:10165000DAF8000020F48020CAF800006668FFF77E
:1016600003F805466EB100BFDAF8000010F4003F41
:101670007FF45AADFEF7F8FF411B03206429F3D92C
:1016800049E0DAF8000010F4003F3FF44DADFEF7FA
:10169000EBFF411B03206429F3D93CE0B86804F157
:1016A0002C064ECE6FF00F0505EB021248F28C05AA
:1016B000C0F29D1528400843104340EA0320E16B27
:1016C0000022CFF6E07202EA0151A1F500110843B1
:1016D00040EAC660216C4FF07E4202EA016101F1EE
:1016E0007E410843B860DAF8000040F08070CAF824
:1016F0000000B86840F08070B860FEF7B5FF04469F
:10170000DAF8000010F0007F08D1FEF7ADFF011BF2
:1017100003200229F4D902B0BDE8F087002002B00E
:10172000BDE8F087FEF7C6BD2DE9F04184B00D4657
:101730000446032084F83400606C40F2FF58C0F285
:101740004008032802D14FF0805013E04DB1B5F5A9
:10175000805F0AD0B5F5006F0AD1204601F034FE53
:1017600008E0204601F002FE04E04FF0805001E066
:101770004FF00060A16B0843A063A06B20B120680C
:10178000C0F83880012522E04FF40020FFF72EF842
:1017900088B3D4E905C7B91CB0FBF1FE231D0ECBFD
:1017A00047F64106C0F27D16B64509D343F68937A0
:1017B000C5F2E657A0FB07076FF0010000EBD75713
:1017C0002068CDE9005C029701F0BEFB002520688F
:1017D0004FF4007101F074F830B12168C1F838801D
:1017E000A16B0843A0630125012084F8340028463A
:1017F00004B0BDE8F081A06B40F00060A063C1E7D9
:1018000070470000426E920F0A70426EC2F383620C
:101810004A7090F8672002F003028A70B0F86620E0
:10182000CA70426E120A0A71426E4A71826E120DBD
:10183000CA80B0F86A2002F00F020A72826EC2F308
:10184000C0324A72826EC2F380328A72826EC2F3F2
:101850004032CA72826EC2F300320A7300224A73A7
:10186000426C012A33D0002A40F09580D0E91A2337
:101870009B0F62F38B030B61C26EC2F3C2620A75E7
:1018800090F86F2002F007024A75C26EC2F342520E
:101890008A75C26EC2F38242CA75C26EC2F3C23288
:1018A0000A760A69013242650A7E436D02F0070238
:1018B000023203FA02F242650A7A02F00F020123B1
:1018C00003FA02F28265520A436D5A430EE0826EB9
:1018D000B0F86E3062F315430B610A694FF4806310
:1018E00003EB82224FF40073C0E91523C2654FF465
:1018F00000720266C26EC2F380324A76C26EC2F3D2
:10190000C6128A76C26E02F07F02CA76026FD20FCA
:101910000A77026FC2F341724A77026FC2F38262A2
:101920008A77026FC2F38352CA77026FC2F34052C2
:1019300081F82020002281F82120B0F8723003F0D5
:10194000010381F82230036FC3F3C03381F82330E1
:10195000036FC3F3803381F82430036FC3F3403344
:1019600081F82530036FC3F3003381F82630036F0D
:10197000C3F3812381F82730036FC3F3012381F878
:101980002830006FC0F3460081F82900012081F85B
:101990002A0010467047016840F2FF52C0F2400230
:1019A0008A63816B41F080518163012280F8342089
:1019B00010467047426C0A60826C4A60C26C8A6052
:1019C000026DCA60426D0A61826D4A61C26D8A61B0
:1019D000006EC8610020704710B582B00446002038
:1019E000019001A9204601F0A5FC00281EBFA16BB3
:1019F0000843A0630198C0F3432002B010BD00006B
:101A000070B50446256B15F008062068416B18BFB9
:101A100011F4004156D1416B11F4807F57D1406BD6
:101A2000002E18BF10F4804071D12068416B11F076
:101A30003A0F6BD0406B10F0020F1EBFA06B40F04E
:101A40000200A0632068406B10F0080F1EBFA06B5F
:101A500040F00800A0632068406B10F0200F1EBF0C
:101A6000A06B40F02000A0632068406B10F0100FC6
:101A70001EBFA06B40F01000A063206840F23A51F6
:101A800081632068C16B21F49D71C163206801F0FE
:101A90003FF8A16B40EA0100A063002E59D128064F
:101AA00034D515F0300F6BD0E06B43F22901C0F64E
:101AB00000018163FEF7A4FC40B3E06BBDE8704019
:101AC00001F0B2BA2046BDE8704001F00FBC4FF4FF
:101AD000807181632068C16B4CF23A129143C163FB
:101AE0002068C16A21F00101C162AEB928060DD596
:101AF000A80609D5206801F00BF828B1A16B0843AE
:101B0000A0632046FFF77CFEA8072CD070BD2046BE
:101B1000BDE8704001F086BC15F0220F09D02068A6
:101B200000F0F6FF28B1A16B0843A0632046FFF741
:101B300067FE206840F23A518163012084F8340046
:101B400000202063A80716D02046BDE8704000F0B2
:101B500073BA012084F83400002020632046BDE8D9
:101B60007040FFF74DBE2068C16A21F00801C162D4
:101B7000012084F834002046BDE8704000F05EBAD1
:101B8000A8070FD0206C42F6E171C0F60001816316
:101B9000FEF736FC002808BF70BD206CBDE8704021
:101BA00001F01EBA0020A063012184F834102063E4
:101BB0002046BDE87040FFF7B5BD000010B50446F3
:101BC000002C04BF012010BD94F8340020B900207F
:101BD0002077204600F07EF8032084F83400204669
:101BE00000F00EF801460120002918BF10BD4FF08B
:101BF0000001A163216384F834004FF0000010BDA0
:101C000070B584B004464FF40020FEF7EFFD0546A2
:101C1000EDB3E80948F65931C0F24F11A0FB0106B7
:101C20006FF0010000EB161120680022CDE90022C0
:101C3000029100210022002301F086F9206841680A
:101C400021F480714160206801F092F920684168B8
:101C500041F4807141603009B5FBF0F042F210119F
:101C6000C0F20101B1FBF0F00130FEF7F3FB2046BA
:101C700001F0E4FA014621B9204601F063FA014679
:101C800069B1012084F83400A26B114304E0012003
:101C900084F834004FF00061A16304B070BD206887
:101CA0004FF4007100F00CFE002802BF002004B0C9
:101CB00070BD216840F2FF52C0F240028A63A16BFE
:101CC00040EA0100A0634FF0010084F8340004B042
:101CD00070BD00002DE9F0419EB0044600201D902B
:101CE000CDE91B00CDE9190002A85C21FEF7A5FA99
:101CF000206842F60001C4F20101884202D01EB001
:101D0000BDE8F0814FF4002002904FF08060149005
:101D100003200390012604960820059007200690D2
:101D20004FF00208CDE907884FF48010099002A80F
:101D3000FEF734FF002818BFFEF726FB41F24C00E7
:101D4000C4F20200416941F480614161416901F4DA
:101D5000806101910199016841F00401016001680D
:101D600001F0040101910199016841F0080101604D
:101D7000006800F00800019001984FF4F850CDE998
:101D80001908CDE91B664FF00C071D9740F60004BB
:101D9000C4F6000419AD20462946FEF771FB4FF04A
:101DA0000400CDE91908CDE91B661D9704F5806094
:101DB0002946FEF765FB4FF031004FF000014FF070
:101DC0000002FEF7BDFC4FF03100FEF7B7FC1EB07D
:101DD000BDE8F0812DE9F04F87B09B4616460D46D1
:101DE0000446FEF741FC804685B194F83400012892
:101DF00012D10020A0630BEB0601E26D914211D9D4
:101E0000A06B40F00070A06301200DE1A06B40F0DA
:101E10000060A063012007E1A06B40F00050A063C8
:101E2000012001E1032184F834102168C862676C45
:101E30004FF0FF3101914FEA4B2102919021039124
:101E40004FF00209CDE904904FF0010ACDF818A037
:101E5000206801A900F0ACFE012F18BF7602BBF18B
:101E6000020F15D3C4F830902068314600F088FD89
:101E7000B0B1216840F2FF52C0F240028A63A16B08
:101E80000843A063012084F8340000212163CBE0E3
:101E9000C4F830A02068314600F08CFD0028E8D15D
:101EA000DDF840A0029E00BF2068416B406B11F43A
:101EB000957F34D1002E18BF10F4004018D005F1E2
:101EC00020074FF0000900BF206801F059F805F81D
:101ED000290005EB8901020A4A70020C8A70000E83
:101EE000C87009F10109B9F1080FEDD1203E3D4656
:101EF000FEF7BAFBA0EB08005045D5D3206840F2AE
:101F0000FF51C0F240018163A06B40F00040A0632C
:101F1000012084F8340000202063032084E0BBF11A
:101F2000020F18D310F480701CBF606C032812D00D
:101F3000206800F0EDFD70B1216840F2FF52C0F260
:101F400040028A63A16B0843A063012084F8340037
:101F50000021216368E02068416B11F0080F2FD148
:101F6000416B11F0020F3AD1416B11F0200F45D1B6
:101F70002068416B002E18BF11F400114DD000F005
:101F8000FFFF2870010A6970010CA970000EE8704B
:101F9000FEF76AFBA0EB08000435043E5045E7D38A
:101FA000206840F2FF51C0F240018163A06B40F015
:101FB0000040A063012084F834000021216333E055
:101FC00040F2FF51C0F240018163A06B40F0080075
:101FD000A063012084F834000021216324E040F252
:101FE000FF51C0F240018163A06B40F00200A0638A
:101FF000012084F834000021216315E040F2FF51F4
:10200000C0F240018163A06B40F02000A06301207A
:1020100084F834000021216306E040F23A518163E4
:10202000012084F834000020C0B207B000F000B8EE
:1020300030BCBDE8C08F0000FEF78CB9FEF79EB93A
:102040002DE9F04F89B01F4615460E460446FEF7AF
:102050000BFB81467EB194F83400012811D1002099
:10206000A0637919E26D914211D9A06B40F0007024
:10207000A0630120EDE0A06B40F00060A0630120B0
:10208000E7E0A06B40F00050A0630120E1E00321F5
:1020900084F834102168C862D4F844804FF0FF31CE
:1020A0000391790204919021CDE905100790012058
:1020B0000890206803A900F07BFDB8F1010F18BF5C
:1020C0006D0240F2FF58C0F24008022F12D32020C8
:1020D00020632068294600F037FD98B12168C1F8D7
:1020E0003880A16B0843A063012084F834000021EC
:1020F0002163AEE0102020632068294600F03EFDF9
:102100000028EBD1CDE90007129FDDF810A002AD49
:102110002068416B406B11F48D7F3DD1BAF1000F07
:1021200018BF10F4804020D006F120084FF0000BBB
:1021300016F82B00029006EB8B014A7840EA022049
:1021400002908A7840EA02400290C97840EA016031
:1021500002902068294600F02BFF0BF1010BBBF128
:10216000080FE5D1AAF1200A4646FEF77DFAA0EB5A
:102170000900B842CCD3206840F2FF51C0F24001C0
:102180008163A06B00990843A063012084F83400A8
:102190000020206303205CE00199022918D310F489
:1021A00080701CBF606C032812D0206800F0B0FC67
:1021B00070B1216840F2FF52C0F240028A63A16B05
:1021C0000843A063012084F834000021216340E02B
:1021D0002068416B11F0080F0FD1416B11F0020F15
:1021E0001AD1416B11F0100F25D140F23A518163A1
:1021F000012084F8340000202BE040F2FF51C0F2AF
:1022000040018163A06B40F00800A063012084F8C6
:102210003400002121631CE040F2FF51C0F2400174
:102220008163A06B40F00200A063012084F83400B9
:10223000002121630DE040F2FF51C0F240018163B3
:10224000A06B40F01000A063012084F8340000214E
:102250002163C0B209B000F000B830BCBDE8C08F47
:1022600001F076B910B504469CB1A06F28B90020E2
:1022700084F87400204600F029F82420A067206824
:10228000016821F001010160204601F05BFA01289C
:1022900001D1012010BD606A00281CBF204601F05A
:1022A000B3F92068416821F4904141602068816859
:1022B00021F02A0181602068016841F0010101607C
:1022C0002046BDE8104001F005BA0000B0B59EB050
:1022D000044600251D95CDE91B55CDE9195502A8E9
:1022E0005C21FDF7AAFF206843F60001C4F201015A
:1022F000884201D01EB0B0BD012002900A9502A80C
:10230000FEF74CFC002818BFFEF73EF841F24C00E7
:10231000C4F20200416941F480414161416901F424
:10232000804101910199016841F00101016000685B
:1023300000F00100019001984FF4C06019904FF037
:1023400002001A904FF000001B904FF003001C9009
:102350004FF007001D9019A94FF09040FEF790F83C
:102360001EB0B0BD2DE9F04782B0994616460D4625
:102370000446A06F20280AD10120002D18BF002E8E
:1023800006D094F87400012806D1022000E0022053
:10239000C0B202B0BDE8F087012084F874004FF0AD
:1023A000000AC4F880A02120A067FEF75DF98046EE
:1023B000A4F85060A4F85260A068B0F5805F07D11F
:1023C0002769002F4FF000060CBF2E462F4601E074
:1023D0002F46002684F874A005E000BFB4F8520030
:1023E0000138A4F85200B4F85200B0B1CDF8009012
:1023F000204680210022434601F0B6FAC0B9206889
:1024000027B117F8011B0185E8E700BF36F8021B6A
:102410006FF35F2101850027E0E7CDF800902046AB
:1024200040210022434601F09FFA18B10320AFE794
:102430000320ADE72020A0670020A9E7FEE7000009
:1024400080B547F28440C0F6000040F27021C2F22D
:102450000001FDF7A9FF40F28851C2F200010870A7
:1024600080BD0000F0B587B00025069541F24C0014
:10247000C4F20200016841F004010160016801F04A
:10248000040101910199016841F080010160016836
:1024900001F0800101910199016841F001010160A1
:1024A000016801F0010101910199016841F0080101
:1024B0000160006800F008000190019840F60004F7
:1024C000C4F600044FF40056012720464FF4005193
:1024D0000122FEF7C1F8CDE90267CDE9045502A952
:1024E0002046FDF7CDFF07B0F0BD000040F2804070
:1024F000C2F2000042F60001C4F2010100224FF4D2
:1025000080434FF0020CC0E90012C0E902221030F3
:1025100080E80C107047000080B540F20450C2F211
:10252000000043F60001C4F2010101604FF4E13103
:1025300041600021C0E9021101610C224162C0E941
:102540000711C0E90521FFF78DFE00281CBFBDE87B
:102550008040FDF719BF80BDFEE70000FEE70000E8
:1025600000F0070000F1040CC31EBCF1070F38BFD8
:10257000002380F00700042828BF04204FF0010C3E
:102580000CFA00F00138084098400CFA03F10139C8
:10259000114008437047000070470000844641F234
:1025A0000C02C4F20202D06F00F440000023B0F528
:1025B000400F04BF4FF66873C0F21F03B0F5400F21
:1025C00002BF4FF66870C0F21F00704720F07F41D5
:1025D00042F20040C0F2F400D9B1B1F5000F28D1A9
:1025E00052F80C1C11F0007F1CBF116811F4803FE1
:1025F00018D01068C0F302100130BCFBF0FC116869
:10260000C1F3062113680020B0EBD36F23D0DA0E9C
:102610002EE052F80C1C11F0006F1CBF516811F431
:10262000803F08D152F80C1C11F4806F08BF184687
:102630007047002070471068C0F302100130BCFBE7
:10264000F0FC5168C1F3062153680020B0EBD36F52
:1026500008D0DA0E0CE01068112210F4003F08BF19
:10266000072205E05068112210F4003F08BF07223E
:1026700001FB0CF0B0FBF2F070470000F0B581B048
:102680000D46044641F20007C4F20207F8682168CB
:1026900010F0030F12D0FA680120002900F08C809E
:1026A00002F003028A4240F08780F8686168C0F354
:1026B00002100130884229D001207DE0032909D091
:1026C000022911D0012952D1386810F0020F11D11E
:1026D000012071E0386810F4003F04BF386810F43E
:1026E000802F07D1012067E0386810F4806F01D196
:1026F000012061E0F868D4E900126FF00F0303EBEA
:10270000021220F0730008431043F860386820F08C
:1027100080603860FDF7A8FF064600BF386810F0FB
:10272000006F06D0FDF7A0FF801B0228F6D903201A
:1027300042E0A0680002E5B148F2FF01CFF6FF11C8
:10274000012D08BF01F1B4613A69114004F114028E
:10275000012D08BF04F1100212684FF0FF3303EBA4
:1027600052021923012D08BF15239A4009E00120C8
:1027700022E0396948F2FF02C0F2FF721140E268BC
:10278000D206104308433861386840F080603860F2
:10279000FDF76AFF054600BF386810F0006F06D1EC
:1027A000FDF762FF401B0228F6D9032004E0A06970
:1027B0003969084338610020C0B201B0F0BD0000A3
:1027C000B0B582B0044641F25805C4F2020528684B
:1027D00010F0805F0FD1286840F080502860286892
:1027E00000F0805001900198FDF7F8FF296821F072
:1027F0008051296001E0FDF7F1FF42F20001C4F2CF
:102800000201B0F5007F06D1812C08D30120A02C55
:1028100088BF02200DE0802C03D9032009E00020AE
:1028200007E0A4F17000B0FA80F04009802C08BFE6
:1028300002200A6822F0070202430A60096801F0D8
:102840000701081A18BF012002B0B0BD40F2804055
:10285000C2F20000FFF7D4B810B586B0044601916B
:102860003720029040200390002004904FF48060B5
:10287000059001A9204600F087FB2046372141F250
:10288000883200F0C7F906B010BD000010B586B060
:10289000044641F0004040F480100190292002904D
:1028A00040200390002004904FF48060059001A91F
:1028B000204600F069FB204600F08CFA06B010BDFF
:1028C00010B586B00446019110200290402003907C
:1028D000002004904FF48060059001A9204600F08C
:1028E00053FB2046102141F2883200F093F906B0E4
:1028F00010BD000010B586B004460191062002907C
:1029000040200390002004904FF48060059001A9BE
:10291000204600F039FB2046062141F2883200F0C3
:1029200079F906B010BD000010B586B0044600204D
:10293000CDE90300CDE901004FF48060059001A9C5
:10294000204600F021FB204600F046F906B010BDFD
:1029500010B586B004464FF4D5700190082002905F
:1029600040200390002004904FF48060059001A95E
:10297000204600F009FB204600F0A4FA06B010BD86
:1029800010B586B0044601911220029040200390B9
:10299000002004904FF48060059001A9204600F0CB
:1029A000F3FA2046122141F2883200F033F906B0E2
:1029B00010BD000010B586B00446019111200290B0
:1029C00040200390002004904FF48060059001A9FE
:1029D000204600F0D9FA2046112141F2883200F059
:1029E00019F906B010BD000010B586B0044601927A
:1029F0000720029040200390002004904FF4806054
:102A0000059001A9204600F0BFFA2046072141F2B7
:102A1000883200F0FFF806B010BD000010B586B097
:102A200004460020019002210291C021CDE903104B
:102A30004FF48060059001A9204600F0A5FA2046D9
:102A400000F098F906B010BD10B586B004460191AB
:102A500009200290C0200390002004904FF4806071
:102A6000059001A9204600F08FFA204600F082F977
:102A700006B010BD10B586B0044600200190332189
:102A800002914021CDE903104FF48060059001A927
:102A9000204600F079FA2046332141F2883200F0D6
:102AA000B9F806B010BD000010B586B0044601911B
:102AB0000D20029040200390002004904FF480608D
:102AC000059001A9204600F05FFA20460D2141F251
:102AD000883200F09FF806B010BD0000B0B586B097
:102AE0000C46054600200190032102914021CDE9CA
:102AF00003104FF48060059001A9284600F044FAC5
:102B000028460321224600F08DF906B0B0BD000032
:102B100010B586B00446002001900C21029140219E
:102B2000CDE903104FF48060059001A9204600F024
:102B30002BFA4EF20012C0F2F55220460C2100F0A2
:102B400069F806B010BD000010B586B004460191CA
:102B50001920029040200390002004904FF48060E0
:102B6000059001A9204600F00FFA2046192141F2F4
:102B7000883200F04FF806B010BD000010B586B0E6
:102B800004460191182002904020039000200490F8
:102B90004FF48060059001A9204600F0F5F9204629
:102BA000182141F2883200F035F806B010BD00005F
:102BB0000A6842624A688262D1E902C3D1E904210B
:102BC00043EA0C031A431143C26A22F0F70211438D
:102BD000C16200207047000040F20401C2F200010F
:102BE000096844F6D352C1F26202A1FB0212510AF3
:102BF00041F288325143C943013104BF4FF00040D4
:102C00007047426B12F0800FF6D0C521816300201F
:102C100070470000B0B50C46054640F20400C2F211
:102C20000000006844F6D351C1F26201A0FB01012B
:102C3000480A5043C04300BF013072D0696B11F0A5
:102C4000450FF9D011F40061F6D1686B10F0040F54
:102C50006BD1686B10F0010F69D1C520A8632846BD
:102C600000F066F9A0421EBF01242046B0BD4FF01F
:102C7000000428464FF0000100F062F94EF208010E
:102C8000CFF6FF5108424AD00028BEBF4FF0007473
:102C90002046B0BD41004ED4810042BF8024204672
:102CA000B0BDC1004AD4010142BF4FF400742046B8
:102CB000B0BD410146D4C10142BF4FF4006420467B
:102CC000B0BD010242D4410242BF4FF4005420463D
:102CD000B0BD81023ED4C10242BF4FF40044204641
:102CE000B0BD41033AD4810342BF4FF48024204653
:102CF000B0BDC10336D4010442BF4FF48014204656
:102D0000B0BD410432D4810442BF4FF48004204658
:102D1000B0BD00074FF4000458BF4FF48034204684
:102D2000B0BD4FF000442046B0BD042400E00124B3
:102D3000AC632046B0BD40242046B0BD4FF4807443
:102D40002046B0BD4FF480642046B0BD4FF480549F
:102D50002046B0BD4FF480442046B0BD4FF400344F
:102D60002046B0BD4FF400242046B0BD4FF40014FF
:102D70002046B0BD40F20401C2F20001096844F6E9
:102D8000D352C1F26202A1FB0212510A41F288320F
:102D90005143C943013113D0426B12F0450FF9D0B2
:102DA00012F40062F6D1416B11F0040F0CD1416BAB
:102DB00011F0010F0AD1C521816300210846704737
:102DC0004FF0004108467047042100E00121816373
:102DD0000846704740F20401C2F20001096844F657
:102DE000D352C1F26202A1FB0212510A41F28832AF
:102DF0005143C943013110D0426B12F0450FF9D055
:102E000012F40062F6D1416B11F004014FF004029C
:102E100008BFC5228263084670474FF0004108464C
:102E20007047000070B514460E46054640F2040097
:102E3000C2F20000006844F6D351C1F26201A0FB67
:102E40000101480A41F288314843C043013004BFC0
:102E50004FF0004070BD696B11F0450FF6D011F4D2
:102E60000061F3D1686B10F0040F1EBF0420A8634B
:102E700070BD686B10F0010F1DD1284600F058F8A6
:102E8000B0421CBF012070BD4FF0C500A8632846AA
:102E90004FF0000100F054F810F4604F0ED04104E0
:102EA00044BF4FF4005070BD00044FF4805058BF31
:102EB0004FF4803070BD0120A86370BD000C2080ED
:102EC000002070BD40F20401C2F20001096844F61E
:102ED000D352C1F26202A1FB0212510A41F28832BE
:102EE0005143C943013118D0426B12F0450FF9D05C
:102EF00012F40062F6D1416B11F0040F11D1416B55
:102F000011F0010F0FD1416B11F0400F1CBF402198
:102F100081634FF00001084670474FF000410846BA
:102F20007047042100E001218163084670470000DA
:102F30000069C0B270470000006800F003007047ED
:102F4000084440697047000080B5D0F804C047F6D7
:102F5000FF6E2CEA0E0C1943029B1943039B194385
:102F6000049B1943114341EA0C014160002080BDDC
:102F700080B5032101600220FDF76CFA002080BDBE
:102F8000D0F880007047000010B50A688260D1E96F
:102F900001C3D1E9032EC16840F6FF74A14343EA9F
:102FA0000C031A4342EA0E021143C160002010BD17
:102FB0000968C0F8801000207047000010B540F28A
:102FC0000004C2F2000401202070FDF77DF9002802
:102FD00002BF207800F0FE002070207810BD0000B5
:102FE00010B5846A206840F23A5181632046FEF7AA
:102FF000F3FC012184F834100021216305380128F5
:1030000005D82068FFF784FDA16B0843A063A06B7F
:1030100020B12046BDE81040FEF7F2BB2046BDE8D7
:103020001040FEF77FBB000010B5846A206840F2B4
:103030003A5181632046FEF7CFFC012184F8341019
:10304000002121630538012805D82068FFF760FDBD
:10305000A16B0843A063A06B20B12046BDE81040DF
:10306000FEF7CEBB2046BDE81040FEF75BBB00007C
:103070002DE9F04389B088460546FDF7F5FA064686
:103080000020CDE9000028680821FFF719FC98BB53
:103090002868296D0904FFF7DFFB68BB4FF0FF309C
:1030A0000390082004903020059002200690002014
:1030B000079001200890286803A9FFF779FD286888
:1030C000FFF7D8FCC0B9002740F22A44E94600BF08
:1030D00029684A6B486B224211D1800205D5084607
:1030E000FFF74EFF49F827000137FDF7BDFA801BB7
:1030F00001304FF00040EBD109B0BDE8F08300078C
:1031000016D4486B10F0020F14D1486B10F0200F4A
:1031100012D140F23A508863019800BAC8F8000012
:10312000009800BAC8F80400002009B0BDE8F08398
:10313000082002E0022000E02020886309B0BDE8FA
:10314000F083000010B590B004460120ADF81200E5
:103150002068FFF7F1FE002802BF4FF0806010B03A
:1031600010BD606C032823D120680421FFF7E8FE1E
:10317000000DE06405A92046FEF744FB00281EBFB1
:103180004FF0805010B010BD2068216D4FEA014211
:103190004FF00003FFF728FC70B994E80F50A469C2
:1031A000CDE900CE0294FFF7CFFE002010B010BD95
:1031B0002068FFF733FC08B110B010BD2068002173
:1031C000FFF7BEFE606720680421FFF7B9FEA06725
:1031D00020680821FFF7B4FEE06720680C21FFF7A4
:1031E000AFFEC4F88000606C0328BDD020680DF1EC
:1031F0001201FFF773FC0028DED1606C0328B3D006
:10320000BDF81210216520680904FFF71DFC002895
:10321000D2D120680021FFF793FE60662068042168
:10322000FFF78EFEA06620680821FFF789FEE066A2
:1032300020680C21FFF784FE206795E7F0B581B088
:103240000446002000902068FFF76EFB08B101B033
:10325000F0BD2068FFF77CFB50B10020A06420681F
:10326000FFF762FB0028F2D1A06C012802D00AE02F
:103270000120A06420680021FFF7EEFA18B14FF09A
:10328000805001B0F0BD00984FF6FE76B04220D8D5
:103290000025CCF210154FF6FF7700BF2068002103
:1032A000FFF7DAFA0028D2D120682946FFF7EEFAB4
:1032B0000028E4D120680021FFF742FE0099013187
:1032C00000910099002801DBB942E7D3C0F3807078
:1032D00000E000200099B14282BF4FF0807001B041
:1032E000F0BD60644FF0000001B0F0BD2DE9F04189
:1032F0000446E56A002D08BFBDE8F081A76A07F122
:1033000020084FF0000600BF2068FFF739FE07F8DD
:10331000260007EB8601020A4A70020C8A70000E32
:10332000C8700136082EEFD1A5F12000C4E90A804B
:10333000BDE8F08170B50C460646002C02BF4FF088
:103340000065284670BD3068316D4FEA0141FFF7D6
:10335000ABFB05460DB1284670BD30680025002145
:10336000FFF7EEFD2060284670BD000010B582B06A
:1033700004460020CDE9000020680021FFF7E0FDB1
:1033800010F0007F1EBF4FF4006002B010BD694610
:103390002046FFF76DFE70B99DF80600C00702BF1A
:1033A0004FF0806002B010BD2068216D4FEA0141EE
:1033B000FFF752FA08B102B010BD20680021FFF7F4
:1033C00099FA02B010BD000010B582B0044600208A
:1033D000CDE9000020680021FFF7B2FD10F0007F6A
:1033E0001EBF4FF4006002B010BD69462046FFF7D3
:1033F0003FFE70B99DF8060040075EBF4FF0806049
:1034000002B010BD2068216D4FEA0141FFF724FA98
:1034100008B102B010BD20680221FFF76BFA02B0BC
:1034200010BD00002DE9F04381B00446D4F824908B
:10343000B9F1000F20D0276A07F1200800266D4659
:1034400017F82600009007EB86014A7840EA022030
:1034500000908A7840EA02400090C97840EA016012
:10346000009020682946FFF7A3FD0136082EE7D11A
:10347000A9F12000C4E9088001B0BDE8F083000094
:1034800010B540F20004C2F2000401202070FCF7E5
:1034900027FF08B1207810BDFFF790FD207020783D
:1034A00010BD000010B588B0144640F20000C2F212
:1034B0000000007810F0010F0DD103290FD8002073
:1034C000DFE801F00A020F166846FCF7F5FE0698E1
:1034D0002060002000E00320C0B208B010BD04202E
:1034E000FAE76846FCF7E8FE079820800020F3E73B
:1034F0006846FCF7E1FE0798400A20600020EBE7F1
:1035000080B5084611461A464FF0FF33FCF710FF0E
:1035100000281CBF012080BDFCF7D6FE0028FBD18F
:10352000002080BDFFF74ABD80B5084611461A4607
:103530004FF0FF33FCF710FF00281CBF012080BDB7
:10354000FCF7C2FE0028FBD1002080BD70470000C0
:10355000B0B501380024B4EB106F1EBF0124204623
:10356000B0BD4EF21005CEF2000568604FF0FF309E
:103570004FF00F0100F088FAAC604FF007002860B0
:103580002046B0BDFDF776B810B596B005A8442129
:10359000FCF753FE00200490CDE90200CDE90000C5
:1035A0004FF40070FDF7DEF810BB012005904FF4DA
:1035B0008031069102210F910324CDE9104014209F
:1035C00012900720CDE91301159105A8FDF77EFDA6
:1035D00070B90F20CDE900040020CDE9020004906D
:1035E00068460421FDF72AFC002804BF16B010BD70
:1035F000FCF7CAFE4EF68850CEF20000016841F496
:10360000700101607047000090F82410C90706D0CF
:1036100001684A68836A22F400321A434A6090F8CB
:103620002410890706D501684A68C36A22F48032EB
:103630001A434A6090F82410490706D501684A6881
:10364000036B22F480221A434A6090F82410090781
:1036500006D501684A68436B22F400421A434A6067
:1036600090F82410C90606D501688A68836B22F495
:1036700080521A438A6090F82410890606D50168A2
:103680008A68C36B22F400521A438A6090F82410AF
:10369000490611D501684A68036C22F480121A4366
:1036A0004A60016CB1F5801F06D101684A68436C1D
:1036B00022F4C0021A434A6090F82410090658BF49
:1036C000704701684A68806C22F4002240EA0200D8
:1036D00048607047B0B582B004460020C4F880004E
:1036E000FCF7C2FF05462068006810F0080F0CD0F8
:1036F0006FF07E40009020464FF4001100222B46D0
:1037000000F032F908B1032018E02068006810F0DA
:10371000040F0CD06FF07E40009020464FF48001E3
:1037200000222B4600F020F908B1032006E02020FB
:10373000A067E0670020206684F87400C0B202B081
:10374000B0BD0000B0B504462068A168D4E90423E8
:1037500011431943E2691143026846F6F313CEF6AA
:10376000FF731A401143016020684168E26821F448
:103770004051114341602068A16941F2880CC4F2B4
:10378000020C40F20212C0F2020248F2000EC4F231
:10379000000E70451CBF236A1943836823F430630D
:1037A00041EA0301816021684FF0100342F20040BA
:1037B000C0F2F40047F6FF75C4F20005A9420FDC21
:1037C00044F20045C4F20005A94216D044F60005B3
:1037D000C4F20005A94222D1DCF80010090913E067
:1037E00071450ED043F60005C4F20105A94216D179
:1037F00002F58062DCF8001006E0DCF800108908B1
:1038000002E0DCF80010890A6FF31F5281F0020118
:1038100001F0030141EA810122FA01F321687145B7
:1038200015D0E16903F01F02B1F5004F20D101214D
:10383000082A00F29380DFE802F005525D9156916C
:1038400091915B00FDF7BAFB002853D14EE003F0E5
:103850001F020121082A00F28180DFE802F0057FC3
:10386000207F197F7F7F1E00FDF7A8FBB8B912E00B
:103870000121082A00F27280DFE802F005545F702F
:10388000587070705D00FDF799FB002855D150E02D
:10389000FDF7BCFB18B9002160E04FF400406268FE
:1038A00002EB42030121984258D31303984255D8A2
:1038B000010E000210EB520041F100010023FCF761
:1038C00081FCA0F540714FF6FF42C0F20F02914219
:1038D00003D82168C860002140E001213EE0FDF7E7
:1038E00081FB38B902E0FDF791FB18B9002135E002
:1038F0004FF4004061684A0802EB4000B0FBF1F071
:10390000A0F110014FF6EF72914209D84FF6F07115
:103910000140C0F3420008432168C86000211DE057
:1039200001211BE0FDF75EFB38B902E0FDF76EFBFD
:1039300018B9002112E04FF40040616800EB51001B
:10394000B0FBF1F0A0F110014FF6EF72914204D8F4
:10395000216880B2C860002100E001210020C4E994
:1039600019000846B0BD00002DE9F04381B098462B
:1039700016460F4604462068C0693840C01BB0FA9E
:1039800080F04009B0423AD1DDF8209009F10105FC
:103990008DB1FCF769FEB9F1000F17D0A0EB08005C
:1039A000484513D82068016811F0040F1CBFC16995
:1039B00011F4006F25D12068C0693840C01BB0FAEF
:1039C00080F04009B042E3D000203CE0206850E89D
:1039D000000F216820F4D07041E80002002AF5D1E0
:1039E000206850E8020F216820F0010041E802023F
:1039F000002AF5D12020A06704F17C001DE0002002
:103A000021E04FF400610162206850E8000F216856
:103A100020F4D07041E80002002AF5D1206850E877
:103A2000020F216820F0010041E80202002AF5D1CE
:103A30002020A067E06704F18000202101600020C1
:103A400084F874000320C0B201B0BDE8F083000028
:103A5000FEE700000028B8BF704700F01F014FF0DC
:103A6000010202FA01F14FEA50104EF20012CEF2BA
:103A7000000242F8201070474EF60C50CEF20000C3
:103A80000068C0F30220704700F1604C00F00F03A3
:103A90004EF61452CEF200021A44B0F1FF3FC8BFF6
:103AA0000CF5644208011070704700004EF60C518E
:103AB000CEF200010A684FF6FF031A4060F30A22B3
:103AC00042F0806040F0FD700860704710B5ADF5C1
:103AD0003E7D40A0D0E901C2D0E903344169DFF85E
:103AE000F4E020911DA91CC1CDE91BEC00F11804E4
:103AF0001ECC0DF1840C8CE81E00018D90F82A007C
:103B00008DF89600ADF8941040F23800C2F2000033
:103B100040F27021C2F20001002201F0ADFEA8B90E
:103B20004FF40070009040F27020C2F2000040F2AA
:103B30007423C2F200030721002200F0F5FF28B928
:103B400028A82FA10A2201F0C7FE20B1FCF71CFC17
:103B50000DF53E7D10BD28A81BA927AB2B2202F036
:103B60004BFA0028F2D127980028EFD028AC204645
:103B700000F0C4FF22A12046012201F0ADFE002882
:103B8000E4D128A802A926AB642202F085F8002817
:103B9000DCD126980028D9D028A800F0AFFFDDE9B5
:103BA00026108142D2D140F60000C4F600004FF446
:103BB00000510022FCF750FD40F20450C2F2000018
:103BC00002A964224FF47A73FEF7CCFB0DF53E7D1B
:103BD00010BD00BF546869732069732053544D337E
:103BE000324C3433315243543620776F726B696EE6
:103BF0006720776974682046617446730D0A000077
:103C000053544D33322E5458540000002DE9F04FD8
:103C100081B01C4615460646306B8F1E00EB1738E8
:103C20003046414603F0B6F84FF0010B00284FF044
:103C3000010131D107F007000BFA00F1C7F3C80208
:103C40004FF4FF794FF0FE0A08F10108B018383040
:103C5000037811EA030718BF0127A74219D04B4088
:103C6000037086F803B0013D15D009EA41031AEA52
:103C7000410F1946ECD101320121B2F5007FE5D3A5
:103C80003046414603F086F8012100220028DBD0AF
:103C900002E0022100E00021C8B201B000F000B84B
:103CA00030BCBDE8C08F000070B504460020E07055
:103CB0004FF0FF306063204603F06CF800281EBF11
:103CC0000421C8B270BD04F2362002F09FFF4AF60C
:103CD000552188421EBF0321C8B270BD04F13805CA
:103CE0002878E92805D0EB2804BF94F83A009028FA
:103CF00016D104F16E0002F069FF20F07F4044F21B
:103D00004616C0F25406B04207D004F18A0002F011
:103D10005DFF06F14C51884202D10021C8B270BD4E
:103D200047F29851C0F60001284603F011F802212D
:103D3000002808BF0121C8B270BD000010F8012B97
:103D4000002A18BF8A42F9D110467047B0B540F238
:103D5000140CC2F2000C0CF104024FF0000E002310
:103D600052F8044C64B10568AC420BD18468156804
:103D7000A54207D1046B5568A54203D111E000BFED
:103D80004FF0010E10320133022BE9D309D112207A
:103D9000BEF1000F18BF0020022908BF0020C0B2EA
:103DA000B0BD00291EBF1020C0B2B0BD0CEB031087
:103DB00081894FF00000B1F5807F08BF1020C0B2AC
:103DC000B0BD00004FF0000C40F21402C2F200023D
:103DD000002300BFD158814208BF42F803C003F15D
:103DE0001003202B08BF7047F4E70000B0B5056D45
:103DF0006C68002C04BF0020B0BD4FEA522141EA9C
:103E0000C35C006842894FEA532160464FF00003CB
:103E1000FCF7D8F905F10801A0420AD3001B01F113
:103E200008024C68002C114604BF0020B0BDA0421F
:103E3000F4D209680844B0BD0239C269023A91421D
:103E40002FBF0020026B408901FB0020704700005B
:103E50002DE9F04F81B08946804609F11A0002F041
:103E6000D5FE20B10026304601B000F041B899F8E7
:103E7000000000F03F000D2110FB01F0A0F10D0447
:103E80000025012647F2444AC0F6000A4FF6FF7BA0
:103E90001AF80500484402F0B9FE074630040FD076
:103EA000FE2C1FD8384602F0E7F9064638F8140011
:103EB00002F0E2F9864217D101343E4603E000BF2A
:103EC00000265F45CFD101350D2DE1D376B199F8AC
:103ED000000010F040001CBF38F81400002805D086
:103EE0000026C0E70026BEE70026BCE70126BAE7A9
:103EF00030BCBDE8C08F00002DE9F047884606467B
:103F0000D6F800A0B8F1000F13D03046414602F0B9
:103F100039FD0746022F3EBF01273846BDE8F0872E
:103F2000781C2FD0DAF81C0087424546C0F0898003
:103F300009E0DAF814502DB1DAF81C00854228BFE8
:103F4000012500E001259AF8000004281FD1504601
:103F5000294602F013FA814609F1010002283EBF0A
:103F60004F463846BDE8F0874FF0010750464946B6
:103F70004FF001024FF00103FFF748FE022860D026
:103F800001281ED14FF0FF373846BDE8F0872C4698
:103F9000DAF81C000134844228BF022401D3022D28
:103FA0000BD33046214602F0EDFC0746781C48D082
:103FB00037B3012F45D0AC42EAD100273846BDE8DF
:103FC000F087B8F1000F0AD0F1796A1C914508D04A
:103FD000022906D1B168691AB161032100E002210A
:103FE000F171022909D0F16908F10102914519D155
:103FF0004A1C002908BF0222F2614F46E0B926E0C0
:10400000504621464FF0FF3202F028FFB8F1000F72
:1040100005D020B950464146224602F01FFF2746F0
:1040200050B914E0002904BF0120F0613046414638
:104030004A4602F087F938B10127012808BF4FF03E
:10404000FF373846BDE8F0870120F0614F46CAF8D7
:104050001470DAE90601023988429CBF0138CAF8B7
:1040600018009AF8040040F001008AF8040038466D
:10407000BDE8F0872DE9F04F83B08A468046DAF834
:1040800000100878D8F80020D468202809D2481CED
:10409000CAF80000002020800620C0B203B000F063
:1040A000FFB84E1C00250FF2E41900BFC0B25C2817
:1040B00018BF2F281AD0FE2D32D8012102F0B6F8F1
:1040C00007467FB37F2F06D848463946FFF736FEAE
:1040D000002840F0AF8024F81570705D01351F286E
:1040E000E4D87019CAF8000004260CE0701900E04A
:1040F000013001785C2918BF2F29F9D0CAF80000D7
:10410000002DC7D0002604EB45006F4230F8021C9A
:104110002E2918BF202907D102380137F6D1B9E777
:104120000620BAE70620B8E70025058008F1400020
:10413000019020210B2202F025FE784201E000BF11
:10414000013534F815102E2918BF2029F8D0002D7C
:1041500018BF46F00306A11E8146B9F1000F1EBF2D
:1041600031F81920A9F101002E2AF5D108210020EB
:104170004FF0000A8B46029002E000BF46F00306B3
:1041800034F8150001352028F8D02E2802D14D45ED
:10419000F4D101E0002850D0DA4539D24D4537D06E
:1041A000802810D30027002102F040F800281FBF0C
:1041B00047F2C431C0F60001084410F8807C46F094
:1041C000020617B906E0074627B133A03946FFF7C4
:1041D000B5FD48B146F003065F2708EB0A0080F8FA
:1041E00040700AF1010ACBE7A7F1410080B219281B
:1041F00003D8029840F0020008E0A7F1610080B205
:104200001928EAD8E037029840F001000290E4E76C
:1042100046F00300BBF10B0F0ED04D4518BF06460C
:104220000298C0B280000B214FF0080A4D454D4660
:10423000A0D902E0062030E7064601990878E52873
:1042400004BF05200870BBF1080F029904BFC8B273
:10425000810001F0030046F00202032808BF164661
:1042600001F00C010C2908BF164616F0020F08D108
:10427000F2B2012808BF42F01006042908BF46F038
:10428000080688F84B60002007E700BF222A3A3C66
:104290003E3F7C7F000000002B2C3B3D5B5D00001F
:1042A00030BCBDE8C08F00002DE9F04788460546C8
:1042B000002740240021402202F064FD8520287060
:1042C000C02085F820004FF001094FF0C10A0126F7
:1042D00025F804A0023400BF300407D0F8B238F843
:1042E0001060002E18BF013701E000BF002628191A
:1042F000314602F023FF023414F01F0FECD1F8B264
:1043000038F8100009F101090028E1D185F823707F
:1043100085F801902435404603F012F801462846FE
:10432000BDE8F04702F00ABF0138012882BF02222F
:10433000D0B2704740F2140CC2F2000C0CEB001229
:104340009389B3F5807F08BF0023002B18BF013B82
:10435000938100224FF6FF710B4204BF00014CF81D
:104360000020D0B270470000F0B581B00C46054681
:104370002E68002100F00AFB20B1042808BF0720A6
:1043800001B0F0BD002700BFA96B304602F002FD6E
:104390000028F2D13178E86B0078042906D140B2C8
:1043A000B0F1FF3F06DC002707E000BFE52818BF9B
:1043B0000028F8D10137A74206D02846012100F095
:1043C000C7F80028E0D0D8E70020D6E72DE9F04F65
:1043D00081B08246DAF800B0002100F0D7FA002858
:1043E00040F0AB809BF8000004283FD1DBF80C00C4
:1043F00002F0A6FF804600BF504600F043F90028B7
:1044000040F09B80DBF8104004F1240002F0FEFB3A
:104410004045F1D194F82360EEB14025002400BF5F
:1044200015F01F0F08BF0235DBF81000284402F01A
:10443000EDFB01F021FF0746DBF80C0030F814001B
:1044400001F01AFF8742D7D101340235013E16F040
:10445000FF0FE5D100E00024DBF80C0030F8140079
:104460000028C9D1002001B000F06EB84FF0FF372E
:10447000CAF84C700AF14008FF264FF0FF0955E0DA
:10448000DAF83C10087800285AD0CA7A02F03F01C6
:104490008AF80610E52803D012070BD50F2909D09A
:1044A000CAF84C70FF265046002100F051F8E8B3DE
:1044B00043E000BF0F2909D19AF84B104906F2D406
:1044C000410619D4F4B2A042ECD11FE0300607D166
:1044D000DAF83C0002F06AFE5FFA89F18142C1D04D
:1044E0009AF84B00C007DBD1DAF83C00414602F0F5
:1044F0002FFC0028D4D1B5E7DAF83010DAF83C20E8
:1045000092F80D90CAF84C1000F0BF04DAF83C1095
:10451000487B5FFA89F28242C4D1DBF80C00FFF7D6
:1045200097FC661E002808BFFF26BCE7DAF83810A3
:10453000584602F02FFC0028A2D001B000F004B8C9
:10454000042001B000F000B830BCBDE8C08F00000E
:104550002DE9F0470F460446A06B002843D025689C
:10456000216B01F1200629784FF40012042908BFBD
:104570004FF08052964236D2B1466FF35F29B9F1BF
:10458000000F08D0266305EB09003830E0630027F0
:10459000F8B2BDE8F0870130A063616BE9B16889CA
:1045A000013810EA562FEDD1204602F0EBF9804693
:1045B000B8F1020F3EBF0227F8B2BDE8F08718F14C
:1045C000010036D0E869804511D2C4F8348028460D
:1045D0004146FFF731FCA063D4E728897109814285
:1045E000D0D30020A0630427F8B2BDE8F087002FE5
:1045F000F7D0616B2046FFF77FFC804608F1010091
:1046000003280ED24FF6F871C0F2FF0101EAC00094
:1046100040F20171C0F2020121FA00F0C0B2BDE81F
:10462000F087E07940F00400E071284602F016FEC1
:1046300018B10127F8B2BDE8F08705F138004FF056
:10464000000A00214FF4007202F09CFB284641460C
:10465000FFF7F2FB6863698981B14FF0000A012717
:10466000EF70284602F0FAFD002891D1686B013006
:1046700068630AF1010A69898A45F1D3A0EB0A004F
:104680006863A2E72DE9F04104462568FF27042668
:104690004FF0FF08A16B002942D0284602F07AFBB8
:1046A0000646002E48D1E16B0878E0B32A78042A48
:1046B00002D185282BD138E0CA7A02F03F01A171DE
:1046C0002E2818BFE52821D002F01F02082A1DD08D
:1046D0000F293CD1410603D4FEB2B04207D015E009
:1046E000216BE26B92F80D80E16400F0BF06E16B94
:1046F000487B5FFA88F2824208D1E86802F06AFBE0
:10470000771E002808BFFF2701E000BFFF27002613
:1047100020460021FFF71CFF0028BBD006460BE017
:10472000300609D11FE0042606E0206BE064204635
:1047300002F08CFA064626B10020A063F0B2BDE874
:10474000F0812869007900F03F00A0710BE0380685
:1047500006D1E06B02F02AFD5FFA88F1814202D0B7
:104760004FF0FF30E0640026F0B2BDE8F0810000B9
:104770002DE9F04794B0054695F84B0010F0A00FD6
:1047800004D00627384614B0BDE8F087D5F800906D
:10479000D9F80C00002600BF30F8161001360029A9
:1047A000FAD199F80000042822D106F10D0048F64C
:1047B0008901C8F68801A0FB0104022000EBD401A6
:1047C0002846FFF7D1FD0746002FDBD1E008296B13
:1047D000A1EB40102038E864A86818B1E8794007D8
:1047E00000F19180D9E90310FFF75EFD0027C9E7CA
:1047F00005F1400A684651460C2202F0B7FA9DF8CE
:104800000B00C0071ED0402085F84B000124E8466D
:10481000D9F80C2050464146234602F05FF828465E
:10482000FFF7D4FD07463FB90134642CF0D34FF0B5
:10483000000708BF0727A5E7042FA3D19DF80B00A9
:1048400085F84B009DF80B0080074FF0010409D557
:1048500006F10B004EF64F41C4F6C461A0FB010106
:1048600004EB910428462146FFF77EFD0746002F02
:104870007FF488AF013C29D0286BA0EB4411284677
:1048800000F084F80746002F7FF47CAF504602F01A
:104890008DFC80460126A96B484602F07BFA07464C
:1048A000002F7FF46FAFE96BD9F80C00E2B24346FA
:1048B00002F056FB89F8036028460021FFF748FE06
:1048C0000746002F7FF45EAF013CE4D1A96B484658
:1048D00002F060FA0746002F7FF454AFE86B002720
:1048E0000021202202F04EFAE86B51460B2202F022
:1048F0003DFAE86B95F84B1001F0180101730120A7
:1049000089F803003EE76869B9F80A102C4654F8A4
:10491000102F12EB4121216040F100006861284610
:1049200001F0F8FC0746002F7FF42CAF696B284696
:104930004FF0FF3201F006FD0746002F7FF422AF53
:104940006846294602F068F90746002F7FF41AAF3F
:10495000D4E90023D9F81000383002F0DFFBD4E9A5
:104960000023D9F81000283002F0D8FBD9F8100045
:10497000E97941F0010180F82110684602F0E2FB7C
:104980000746002F7FF4FEAE2CE700002DE9F04132
:104990000D460446D4F8008098F800104FF4001239
:1049A000042908BF4FF08052E8064FF002003DD1C5
:1049B000AA423BD92563A768032905D3002F02BF6C
:1049C000D8F82C700020E071DFB1B8F80A00460278
:1049D000AE4205D940463946FFF72EFA19E000BF2E
:1049E0002046394601F0CEFF0746781C25D0022F1D
:1049F0001FD3D8F81C0087421BD2AD1BB542EFD2A3
:104A0000E8E7B8F808006909814212D2D8F82C000A
:104A10000027C4E90D7060B100EB55206FF35F25EE
:104A200008EB05013831C4E90E010020C0B2BDE831
:104A3000F0810220C0B2BDE8F0810120C0B2BDE823
:104A4000F081000040F27441C2F200010A5C002AC9
:104A50001CBF002070474FF001020A5401EB800296
:104A6000526812680844007A1047000040F2744C03
:104A7000C2F2000C0CEB80035B681B696044007A97
:104A80001847000010B540F27444C2F2000404EB71
:104A9000800EDEF804E0DEF808C02044007ABDE8AD
:104AA0001040604740F27441C2F2000101EB800205
:104AB000526852680844007A1047000010B540F26E
:104AC0007444C2F2000404EB800EDEF804E0DEF869
:104AD0000CC02044007ABDE810406047002040F23E
:104AE0001401C2F2000100BF0A681AB1103101308E
:104AF0000228F9D3023818BF0120704710B582B0E0
:104B0000044601F0B9F920B901A9204602F0D4FB0E
:104B100008B102B010BDE06AFFF706FC002804BF30
:104B20000020206002B010BD2DE9F04F99B01C4666
:104B300017460E46189018A801F0CCFF002833DB6A
:104B400040F21001C2F2000151F8201000291CBFF0
:104B500000220A70C5B22846FFF774FF10F0010F5B
:104B600025D1400726D417AA28460321FFF77EFF48
:104B700048F2000ACFF6FF7A002801BF179840EAF2
:104B80000A01013810EA010001D0012017904FF608
:104B90000061C0F2FF01002F1CBFA7F50070884222
:104BA0000FD94FF0130B07E04FF00B0B04E04FF061
:104BB000030B01E04FF00A0B5FFA8BF019B000F025
:104BC00057BE781E384202D04FF0130BF4E7DDF8E1
:104BD000889040F2FF1029EA0008B8F1000F15D0C4
:104BE0004FF0010B16AA28460121FFF73FFF0028CE
:104BF000E2D116F0080E4FF03F0C18BF4FF0000C3A
:104C00001698604505D24FF00E0BD5E74FF00E0B0E
:104C1000D2E7A0EB0C001690802802D24FF00E0BCA
:104C2000CAE74FEA59297F0A7107CDF840C009D574
:104C3000802F1BD806F00701042917D00021B1EB03
:104C4000906F13D1802F02D94FF0130BB4E7B00748
:104C500007D506F007010320022918BF16F001014D
:104C60000CD0F00709D14FF0130BA5E71698B0F55B
:104C7000805F15D24FF00E0B9EE70220CDE905E9CB
:104C800006F00201099116990A0B0892179B5A42E5
:104C900011925A1E0E924A0C07921291814660E0C0
:104CA00057B900210827B1EBD04F18BF4027B1EB0F
:104CB000906F18BF4FF48077179A0CEB0203169988
:104CC000B1FBF7F03E4640F2072707EB800003EB0D
:104CD00050231F33524203EA0207B7EB510F80F013
:104CE0000381CDE905E9A7EB0C020892891AB1FB13
:104CF000F6F3A3F110014FF6ED72C7F6FF72914281
:104D0000324640F2F7804FF00E0B55E707B300F044
:104D100030BD4FF002093746129922E00F98002863
:104D2000DDF840C040F0D6834FEA5A074FF0030940
:104D30004FF00E0B0020B0EB5A0F12D13CE740F6BB
:104D4000F570834200F2CA830F98002840F00D8569
:104D50004FEA4A074FF00E0B4FF00209812FBFF4C4
:104D60002BAF0F975FFA89F6032E28D1002FBA4692
:104D7000079A47F2B253C0F600030BD14FF0010A75
:104D8000002633F81670BA4204D34FEA4A0A0136B5
:104D9000062EF6D1B1FBFAF64FF6F671771A4FF6FA
:104DA000FF71C0F6FE718F4200F2A18040F2072130
:104DB00001EB86014FF0000E4FF0200B2BE0002F8F
:104DC000BA46089A47F2A450C0F600000BD14FF043
:104DD000010A002630F81670BA4204D34FEA4A0A94
:104DE0000136062EF6D1B1FBFAF640F6F670864291
:104DF00003D3042000EB460607E006EB4600013033
:104E0000032101EB50064FF0010906F2FF114FF0AC
:104E1000200E4FF0010B0BEB0C073B460C9307EBFE
:104E2000512606EB0E020E9B9E18119B1E40B71AD0
:104E300007EB512348465FFA89F9B9F1030F1E4683
:104E40000D960B9104BF4E0ABB44CCEB0A1C624486
:104E5000129991422BD3CDF828E0A1EB0E02A2EBE0
:104E60000B02921BB2FBFAF3B9F1030F06D13A46DB
:104E70004FF6F577BB4217467FF650AFB9F1020FF8
:104E8000DDF840C016D14FF6F6708342FFF457AFFD
:104E90000F9F27B94FEA4A06412EFFF43AAF4FF071
:104EA00003090999002912997FF45CAF2EE74FF0AE
:104EB0000E0B81E6B9F1030F18BF00274FF0FF3149
:104EC00051FA80F0B0FA80F040091290B9F1010F68
:104ED000CDE9033940F00D8340F6F570834240F28E
:104EE00008834FF00E0B67E64FF00E0B64E64FF0B1
:104EF0000E0B61E6400A02900CF120001190019324
:104F0000D81D530203EBD00101390393B1FBF3F138
:104F100013910F92079701FB0273C00804904FF0A2
:104F2000000B00214FF0000C002200200C90002705
:104F3000012F0E91129316D0BFB9CDF82CC01FFAD5
:104F400082F94846174601F097F9484515D10A9766
:104F50004FF6EB6000F58A7080B2814515D10120D3
:104F6000DDF82CC036E00C9835E00C9810FA82F988
:104F7000C0F3072600210D9137E0060A07F1010969
:104F800000210D91DDF82CC02FE0CDF824B00026D3
:104F900009EB060B0BF1010087B2384601F06CF902
:104FA000B84205D10BF10200000406F10106EFD171
:104FB000701C01460C917F2808D902200D90FF201B
:104FC000FF26DDF82CC0DDE909B90EE0DDF824B0DC
:104FD000DDE90BC00A9AC2F3072602F10109013884
:104FE0000C9018BF01200D90104604F80B0004EB44
:104FF0000B07C0B2614602F0C7F901467E70304629
:1050000002F0C2F984460BF10200404518BF5FEA86
:10501000094103D083460E99129B14E067460BF2B8
:105020000120460A28462146DDF848B05A46334654
:10503000FFF744FD002840F04182B3440E99BC467E
:105040005B464FF0000B0D9F02315FEA09404A4674
:105050007FF46EAFCDF82CC00E91039A5018013832
:10506000B0FBF2F01490012115910AF5FC41069A6B
:105070005143129113990844461CB8F1000F404661
:1050800018BF01200D90049800F2FF104FEA502B3A
:105090004FF4FF79DDF81CA000272046002142468E
:1050A00001F070FEB8F1000F2CD0082E2AD3A6F123
:1050B00008006FEAD0001299814288BF0846414239
:1050C0002046FF22FBF7B2F80027013747454FF093
:1050D000000038BF0120083E474501D2072EF4D812
:1050E000012812D18EB1E15D012209EA4203C9B261
:1050F0001143013E324618BF012210421A46F4D134
:10510000E15502E00D980128ECD0069883455F46F2
:1051100088BF07462846214652463B46FFF7CEFC4D
:10512000002840F0C781BBEB070BBA44B4D1201D67
:105130000D904FF0000A029812904FF0000B4FF0C4
:105140000009002620460021424601F01BFEBBF16B
:10515000000F13AF0CD120466FF0070101F0D6FF0E
:105160000D984FF0FF3101F0D1FF4FF0020B0826F0
:1051700046454FF0000038BF012027D2BAF1000F9A
:1051800024D00BF1010BBAF1010F4FF0FF3188BFB2
:105190005946A01901F0BAFF043646454FF0000009
:1051A00038BF0120AAF10101464503D2BAF1010F2F
:1051B0008A46E6D1B9F1020F0CD80029DDE91123A6
:1051C0000CD157F829A009F1010908E05146B9F1BD
:1051D000020FF2D98A46DDE9112300E08A46BAF1CE
:1051E000000F514618BF01210842C1D106988342E1
:1051F0001E4688BF06462846214617461293334668
:10520000FFF75CFC002840F05D811298801B129033
:105210003744119795D120460021424601F0B2FD56
:1052200083202070812084F8200004F134000221C2
:1052300001F06CFF04F13800049901F067FF82204F
:10524000274607F8400F381D0B9901F05FFF07F163
:105250001400139EB11C0D9001F058FF119707F137
:1052600018000C900E9901F051FF149830440F99DA
:10527000079A00FB01280E46DDF818904E45374688
:1052800088BF4F462846214642463B46FFF716FC5C
:10529000002840F01B81204600214FF4007201F0ED
:1052A00071FDF61BB844E9D104F5FF70129004F1CA
:1052B00078000E9004F168000B9004F164000A90ED
:1052C00004F16000099004F15C00079004F15000C3
:1052D000069004F148000490DDE91301084402300F
:1052E00003904FF0000900200090DDF84080002777
:1052F000204600214FF4007201F044FD204647F2A1
:105300009851C0F600010B2201F030FDDDE91010CC
:1053100001F0FCFE1699049801F0F8FE0698202191
:1053200001F0F4FE0D98029901F0F0FE0C98089936
:1053300001F0ECFE0798019901F0E8FE0998039945
:1053400001F0E4FE01F0C4FB01460A9801F0DEFE24
:105350000B984FF4807101F0F1FE092084F86C0085
:105360000F993846471C4A08B9EB510F1146F8D13E
:1053700084F86D004FF0010A84F86EA0802084F854
:105380006F000E984FF6EB6101F0D8FE12984AF6C6
:10539000552101F0D3FE00270026A6F16A00062859
:1053A00004D80AFA00F010F0430F04D1A05D39468A
:1053B00001F0EAFF07460136B6F5007FEDD14FF068
:1053C000010B2846214642460123FFF777FB0028C0
:1053D0007FF4F2AB204600214FF4007201F0D2FCC2
:1053E00012984AF6552101F0A9FE08F1010A4FF082
:1053F00001080026A05D394601F0C6FF07460136C8
:10540000B6F5007FF6D14FF0010B284621465246F3
:105410000123FFF753FB00287FF4CEAB0AF1010A0A
:1054200008F10108B8F1090FE3D3204600214FF439
:10543000007201F0A7FCB8F10A0F1BD80026A05D8E
:10544000394601F0A1FF07460136B6F5007FF6D1D7
:105450004FF0010B2846214652460123FFF72EFB51
:1054600000287FF4A9AB08F101080AF1010AB8F19C
:105470000B0FE3D30026A019394601F047FE04368E
:10548000B6F5007FF7D34FF0010B28462146524670
:105490000123FFF713FB00287FF48EAB0098014631
:1054A00001310AF101080727084600900229FFF49C
:1054B0001EAF6EE14FF0010BFFF77EBB4FF0010B0B
:1054C000FFF77ABB4FF0010BFFF776BB4FF0010BF4
:1054D000FFF772BB4FF00E0BFFF76EBB039300217B
:1054E000CDF81090B9F1030F4FF00000129018BFE3
:1054F0000F464FF00009204600214FF4007201F0E2
:1055000041FCCEA120460B2201F030FC04F10B003F
:105510004FF4007101F012FE84F80DA004F10E00AA
:105520001FFA8BF101F00AFE012020740498032871
:105530004FF4007108BF002104F1110001F0FEFDDD
:105540001699B9EB114F05D104F1130089B201F09E
:10555000F5FD03E004F1200001F0D8FDF8206075AE
:1055600004F118003F2101F0E9FD04F11A00FF21C8
:1055700001F0E4FD04F11C00109901F0C7FD04984E
:10558000032824D101F0A4FA014604F1430001F0FC
:10559000BDFD04F12400314601F0B8FD04F12C00FA
:1055A000022101F0B3FD04F13000012101F0C6FD3C
:1055B00004F13200062101F0C1FD802084F8400092
:1055C000292084F8420004F14700A4A114E001F06E
:1055D0007FFA014604F1270001F098FD04F116005E
:1055E000B1B201F0ABFD802084F82400292084F8BA
:1055F000260004F12B0094A1132201F0B7FB04F55F
:10560000FF7630464AF6552101F098FD4FF0010B28
:1056100028462146109A0123FFF750FA00287FF40C
:10562000CBAA0C9807EB0009049803284ED10B98DD
:10563000400A0D90109FBA1D284621460123FFF70E
:105640003DFA204600214FF4007201F09BFB45F229
:105650005221C4F26111204601F058FD04F5F270A8
:1056600047F27221C6F2411101F050FD04F5F470C9
:105670000399013901F04AFD04F5F670022101F0A9
:1056800045FD30464AF6552101F058FDFA1D2846E1
:1056900021460123FFF712FA7A1C284621460123EE
:1056A000FFF70CFA20460021424601F06BFB204632
:1056B0006FF0070101F02AFD201D4FF0FF3101F0CE
:1056C00025FD04F108006FF0704110E02046002134
:1056D000424601F057FB6FF00701129800284FF681
:1056E0000060C0F2FF0018BF00F5FC71204601F019
:1056F0000DFDDDF818800D9E4645374688BF4746AC
:10570000284621464A463B46FFF7D8F928BB2046A3
:1057100000214FF4007201F035FBF61BB944EBD1C8
:10572000049803280A9A08BF52464245174688BF84
:1057300047462846214616464A463B46FFF7BEF9ED
:1057400078B9F61BB9443246EFD10498042814D036
:105750000498032813D10C271BE04FF0010BFFF72F
:105760002BBA4FF0010BFFF727BA4FF00E0BFFF7E4
:1057700023BA4FF00E0BFFF71FBA072709E0BDF859
:105780005A0008B1062704E001270498022808BF40
:10579000042705980028109E42D14FF000082046AB
:1057A00000214FF4007201F0EDFA04F5FF704AF6A3
:1057B000552101F0C3FC84F8BE814FF0010B84F841
:1057C000BFB184F8C0B184F8C18184F8C271169861
:1057D000FE2184F8C311304445F25B61C0F21551DB
:1057E000A0FB0112801A02EB50003F2141EAD031A8
:1057F00084F8C411400B84F8C50104F5E370314608
:1058000001F084FC169904F5E57001F07FFC284650
:10581000214600220123FFF751F900287FF4CCA98B
:10582000284600210022FFF721F98346BBF1000F33
:1058300018BF4FF0010BFFF7BFB900BFEBFE904D53
:1058400053444F53352E30004E4F204E414D45208E
:105850002020204641542020202020004E4F204E62
:10586000414D452020202046415433322020200045
:1058700030BCBDE8C08F0000F0B583B01446029084
:10588000CDE90011684601F025F90546002DBEBF9F
:105890000B2003B0F0BD40F21007C2F2000757F82A
:1058A000256026B13046FEF78DFA0020307002994F
:1058B00061B10020087047F82510012C04D101A81F
:1058C00002A9002200F0B4FD03B0F0BD47F8251096
:1058D000002003B0F0BD00002DE9F043ADF5976D59
:1058E00081B017460446CDF8B8146CB107F03F05F7
:1058F0000DF597600DF264412A4600F099FD0646C9
:105900004EB10020206000E0092630460DF5976D6D
:1059100001B0BDE8F083DDF86404CDF8680499A90E
:1059200001AAC0E90312DDF8B8140DF58D6000F08E
:1059300065FF064676B99DF9B304002809DB17F028
:105940003E0118BF01210DF58D60FEF7FFF90646F7
:1059500000E00626EFB215F01C0F0ED0F6B1042EB3
:1059600040F0DC80FFF7BAF8002800F0D6800DF593
:105970008D60FEF7FDFE0646D0E0002EC1D19DF8F9
:105980006E0410F0100F40F01081B90740F1CE8086
:1059900010F0010000F0CA800726B2E79DF86E04FF
:1059A00010F0110F01D00726ABE7780748BF082693
:1059B000002E40F0B88015F0080000F0B48001F02F
:1059C00087F88046DDF864040178042960D12060FE
:1059D000DDF864040069343001F0F8F8A060DDF807
:1059E00064040069383001F0F3F8C4E90401DDF81B
:1059F0006404006990F8210000F00200E0710026C4
:105A0000E661DDF8640400690830414601F07EFB80
:105A1000DDF8640401690E7500690C30414601F03F
:105A200075FBDDF8640401694E7500692021017180
:105A3000DDF8640400693430002101F067FBDDF813
:105A40006404006938300022002301F067FBDDF8B0
:105A50006404006928300022002301F05FFBDDF8B8
:105A600064040069012180F821100DF58D6001F0BA
:105A700069FB0646002E7FF444AFA168002955D08B
:105A80002046002201F0AEFA0646A06801383DE04B
:105A9000DDF8A47407F10E00414601F037FB07F171
:105AA0001600414601F032FB2020F872DDF8A474A4
:105AB000DDF864844046394601F074F8814640467A
:105AC0003946002201F00CFB07F11C00002101F017
:105AD0001DFBDDF864040121C170B9F1000F22D073
