:020000040800F2
:10000000C006002079020008CD19000891180008E8
:10001000C919000835030008FD1A00080000000097
:10002000000000000000000000000000D5190008DA
:100030003903000800000000D1190008D919000890
:10004000930200089302000893020008930200083C
:10005000930200089302000893020008930200082C
:10006000930200089302000893020008930200081C
:10007000930200089302000893020008930200080C
:100080009302000800000000930200089302000899
:1000900093020008930200089302000893020008EC
:1000A00093020008930200089302000893020008DC
:1000B00093020008930200089302000893020008CC
:1000C00093020008930200089302000893020008BC
:1000D00093020008930200089302000893020008AC
:1000E000930200089302000893020008930200089C
:1000F0009302000893020008930200080000000029
:1001000000000000930200080000000093020008B5
:100110009302000800000000930200089302000808
:10012000930200089302000893020008930200085B
:100130009302000800000000000000009302000885
:100140009302000893020008000000000000000075
:10015000000000000000000000000000000000009F
:1001600000000000000000000000000093020008F2
:1001700093020008000000000000000000000000E2
:1001800000000000930200080000000000000000D2
:10019000000000000000000000000000000000005F
:1001A0000000000000000000930200089302000815
:1001B0009302000893020008930200080000000068
:1001C0000000000093020008000000000000000092
:1001D000930200089302000800F002F800F03CF8D7
:1001E0000AA090E8000C82448344AAF10107DA4592
:1001F00001D100F031F8AFF2090EBAE80F0013F0A8
:10020000010F18BFFB1A43F001031847D019000073
:10021000F0190000103A24BF78C878C1FAD8520704
:1002200024BF30C830C144BF04680C607047000070
:100230000023002400250026103A28BF78C1FBD8EF
:10024000520728BF30C148BF0B6070471FB501F08F
:10025000B0FC1FBD10B510BD00F031F81146FFF71E
:10026000F5FF01F04DFC00F04FF803B4FFF7F2FF8B
:1002700003BC00F057F800000948804709480047D0
:10028000FEE7FEE7FEE7FEE7FEE7FEE7FEE7FEE746
:10029000FEE7FEE704480549054A064B70470000A3
:1002A000DD190008D9010008C0000020C0060020A8
:1002B000C0020020C002002070477047704775469A
:1002C00000F02CF8AE4605006946534620F00700C2
:1002D000854618B020B5FFF7DDFFBDE820404FF0A0
:1002E00000064FF000074FF000084FF0000BAC463F
:1002F000ACE8C009ACE8C009ACE8C009ACE8C0098A
:1003000021F007018D46704710B50446AFF3008019
:100310002046BDE81040FFF7A8BF00000048704726
:100320001000002001491820ABBEFEE726000200A5
:1003300070470000FEE7000070470000EFF31080F8
:1003400072B600BFFEE70000B0B5044600F0FEF84C
:10035000054640F20000C2F200004068611C18BF70
:10036000044400BF00F0F2F8401BA042FAD3B0BD35
:100370002DE9F04F84B08E4641F20042C4F60002EF
:10038000DEF8004006219042019008BF0521002CB4
:10039000009100F0D7800198002500F138424FEA23
:1003A000B2230098012700264FF00008052B38BF24
:1003B00018460090CDF808E00EE000BFDEF80040DF
:1003C00008F1010834FA07F106F1020607F1010706
:1003D00005F1040500F0B680A7F1010A012000FA3A
:1003E0000AF314EA0309E9D0DEF804C00CF0030BA9
:1003F000ABF10104012C17D80198744681680322DF
:10040000E468B2409143B4402143816041684FEABF
:10041000480E9943CCF3001303FA0AF30446D04381
:10042000194361600CE000BF0321B140019CC84347
:10043000BBF1030FB64603D1B6464FF0030B23E0E2
:10044000E168029A01409368BBF1020F03FA0EF3D0
:1004500041EA0301E16017D16FF0030101EA5A019B
:10046000214405F01C040F23D1F820C003FA04FB3B
:1004700013692CEA0B0CA34043EA0C03019C0B62AA
:10048000D2F804C00CF0030B21680BFA0EF2014005
:1004900011432160DDF808E01CF4403F8ED041F2AA
:1004A0006000C4F20200016840F2004C41F001011A
:1004B00001600168C4F2010C01F00101039103998C
:1004C0002AF003014FF6084A6144CFF6FF7A05F09F
:1004D0000C030F2051F80A2000FA03F40098A243FD
:1004E00000FA03F31A4341F80A20DCF80810DEF89A
:1004F000042041EA090340F20C40D40258BF21EA2B
:100500000903CCF80830C4F201000168940241EA02
:10051000090358BF21EA09030360DCF804109403BF
:1005200041EA090358BF21EA0903CCF80430DCF89A
:100530000010D20341EA090358BF21EA0903CCF8AD
:1005400000303BE704B0BDE8F08F000040F2BC0093
:10055000C2F200000068704740F2000040F2BC01A7
:10056000C2F20000C2F2000140680A68104408604C
:100570007047000080B5032000F078F8032000F0F9
:1005800009F800281CBF012080BD00F029F80020D8
:1005900080BD000070B540F20006C2F2000671682E
:1005A000E1B1044640F20800C2F200004FF47A7252
:1005B0000068B2FBF1F1B0FBF1F000F0DDFC0F2CB4
:1005C0004FF0010508D838B94FF0FF30214600221E
:1005D000002500F01FF83460284670BD012070BD72
:1005E00082B041F25800C4F20200816841F001017A
:1005F0008160816801F0010101910199016841F078
:1006000080510160006800F080500090009802B0B6
:100610007047000010B54EF60C5CCEF2000CDCF812
:100620000030C3F3022E8EF00704042C28BF0424EC
:10063000BEF103034FF0FF3E0EFA04F438BF00236F
:10064000A14399400EFA03F39A43114300F00F02BD
:10065000043A624409010C3200F16043B0F1FF3FFB
:10066000C8BF03F56442117010BD00004EF60C5176
:10067000CEF200010A684FF6FF031A4060F30A2227
:1006800042F0806040F0FD7008607047B0F5007F78
:1006900042D0002840F0808047F21400C4F20000ED
:1006A00050F8141CC26E01F4C06122F48072B1F5DE
:1006B000806FC2662ED150F8141C012262F34A21C9
:1006C00040F8141C40F20801C2F20001096832220D
:1006D00051434DF68362C4F21B32A1FB0212910C0E
:1006E0000268520511D54A1C0FD0026852050CD57C
:1006F00059B10268520508D5012906D00268520591
:1007000003D50229A1F10401EAD10068400544BFE4
:10071000032070470020704747F21400C4F2000025
:1007200050F8141CC26E01F4C06142F48072B1F53D
:10073000806FC266EED150F8141C012262F34A2188
:1007400040F8141C40F20801C2F20001096832228C
:1007500051434DF68362C4F21B32A1FB0212910C8D
:100760000268520511D54A1C0FD0026852050CD5FB
:1007700059B10268520508D5012906D00268520510
:1007800003D50229A1F10401EAD10068400544BF64
:1007900003207047BEE700BF47F21400C4F2000018
:1007A00050F8141C022262F34A2140F8141C002065
:1007B000704700002DE9F04700286DD042F2000A92
:1007C000C4F2020A0446DAF800000D4600F00F00F9
:1007D00088420CD2DAF8000020F00F002843CAF853
:1007E0000000DAF8000000F00F00A84254D12168A0
:1007F00041F20808C807C4F2020803D1880740F193
:10080000D880BDE0606802283AD0032840D158F86B
:10081000082C920140D5D8F80420D8F8043042F2D0
:10082000004702F00302C3F30313C0F2F4070133DD
:10083000032A04BF41F60037C0F2B707D8F80420F6
:10084000B7FBF3F3D8F80470C2F306225A43C7F398
:100850004163022707EB4303B2FBF3F24BF2004381
:10086000C0F2C4439A4261D9D8F8002012F0F00FC8
:1008700051D089075AD5A168002957D14BE000BF54
:1008800058F8081C89035CBF0120BDE8F08707E029
:1008900058F8081C490503D40120BDE8F08700BFC3
:1008A000D8F8001001F00C0104293FD0D8F800104E
:1008B00001F00C01082939D0D8F8001001F00C0122
:1008C0000C2933D1D8F80410D8F8042042F20043A0
:1008D00001F00301C2F30312C0F2F4030132032951
:1008E00004BF41F60033C0F2B703D8F80410B3FBDD
:1008F000F2F2D8F80430C1F306215143C3F3416248
:10090000022303EB4202B1FBF2F14BF20042C0F2D0
:10091000C44291420AD9D8F80010082262F30711A4
:100920004FF00109C8F8001002E000BF4FF00009C5
:10093000D8F8001021F003010843C8F80000FFF7C1
:1009400005FE064641F28837D8F80000616800F0DD
:100950000C00B0EB810F07D0FFF7F8FD801BB84209
:10096000F2D90320BDE8F0872168880708D4B9F1DF
:10097000000F1ED0D8F8000020F0F00017E000BFF4
:10098000480705D5D8F8000040F4E060C8F800003A
:10099000080706D5D8F80000072262F30D20C8F832
:1009A0000000D8F80000A26820F0F0001043C8F85A
:1009B0000000DAF8000000F00F00A8421BD9DAF8B6
:1009C000000020F00F002843CAF80000FFF7BEFD2A
:1009D000064641F2883700BFDAF8000000F00F0049
:1009E000A84207D0FFF7B2FD801BB842F4D903201C
:1009F000BDE8F0872168480707D5D8F80000E2680D
:100A000020F4E0601043C8F80000080708D5D8F8C3
:100A10000000216920F4605040EAC100C8F80000DD
:100A2000D8F8000042F20041C0F2F40100F00C00DE
:100A3000042808462DD0D8F8000000F00C00082843
:100A400041F60030C0F2B70023D0D8F8002002F001
:100A50000C020C2A1CD1D8F80420D8F8043002F07B
:100A60000302C3F303130133032A08BF0146D8F876
:100A70000400B1FBF3F1D8F80420C0F3062048438A
:100A8000C2F34161022202EB4101B0FBF1F000E050
:100A90000020D8F8001041F6CC32C1F30311C0F6A3
:100AA0000002515C40F2080201F01F0120FA01F13E
:100AB00040F20000C2F200000068C2F200021160C1
:100AC000BDE8F047FFF766BD2DE9F04182B0002890
:100AD00000F006810446007841F20006C007C4F227
:100AE000020655D12078800774D42078000700F1E1
:100AF00097802078400700F1B7802078800600F1C9
:100B00000781E069002840D0B16801F00C010C2990
:100B100040F05681012800F0E380F068216A00F07F
:100B200003028A4240F0DC80626A6FF00F0300F03B
:100B3000F00103EB0212914240F0D280A16A00F46E
:100B4000FE42B2EB012F40F0CB80E16A00F0784228
:100B5000B2EBC16F40F0C480226B0023CFF6E0738C
:100B600003EB025200F4C0016FF31402914240F013
:100B7000B780616B4FF07E4202EB016100F0C06014
:100B800001F07E41884240F0AB800020F1E100BFDF
:100B9000B06800F00C01F06808295BD0032281F0F6
:100BA0000C0122EA00000844B0FA80F0400951D15B
:100BB0006068B0F5803F07D0B0F5A02F40F0D68038
:100BC000306840F480203060306840F4803030601D
:100BD000D7E000BFB068F16800F00C00042869D0CD
:100BE00001F0030180F00C0081F002010844B0FA2A
:100BF00080F040095ED1E1683068002900F0CE80C5
:100C000040F480703060FFF7A1FC05463068400575
:100C100000F1EC80FFF79AFC401B0228F6D920E196
:100C20006169D6F89400002900F08C8040F0010042
:100C3000C6F89400FFF78AFC054600BFD6F894007A
:100C400080073FF556AFFFF781FC401B0228F5D91E
:100C500007E100BF306880037FF544AF606800287B
:100C60007FF440AF3CE000BFB06D10F0805808D179
:100C7000B06D40F08050B065B06D00F080500190D4
:100C8000019847F20007C4F200073868C0052BD46A
:100C9000386840F480703860FFF758FC054600BFA4
:100CA0003868C00520D4FFF751FC401B0228F7D953
:100CB000D7E000BF3068400501D5E06880B17068BA
:100CC000216920F0FE4040EA0160706040F20000BF
:100CD000C2F200000068FFF75DFC00283FF405AF9A
:100CE000012002B0BDE8F081A068012808D00528E5
:100CF00040F09A80D6F8900040F00400C6F89000CA
:100D0000D6F8900040F00100C6F890009AE000BFCD
:100D1000A169D6F89800002970D040F00100C6F80B
:100D20009800FFF713FC0546D6F8980080073FF5BA
:100D3000E8AEFFF70BFC401B02284FF00300F3D98D
:100D400017E100BF20F00100C6F89400FFF7FEFB9A
:100D5000054600BFD6F8940080077FF5CAAEFFF7BE
:100D6000F5FB401B0228F5D97BE000BF3168002865
:100D700021F480313160316821F48021316000F04C
:100D80008F80FFF7E3FB0546306880033FF5AAAE8E
:100D9000FFF7DCFB401B6428F6D962E020F480708A
:100DA0003060FFF7D3FB0546306840057FF59DAE08
:100DB000FFF7CCFB401B02284FF00300F4D9D8E02A
:100DC0003168022821F0807131604FD1FFF7BEFBFE
:100DD000054600BF3068800140F18E80FFF7B6FB0A
:100DE000401B02284FF00300F4D9C2E0706821696B
:100DF00020F0FE4040EA0160706076E620F00100DD
:100E0000C6F89800FFF7A2FB054600BFD6F8980089
:100E100080077FF576AEFFF799FB401B02284FF065
:100E20000300F3D9A5E000BFD6F89010002821F008
:100E30000101C6F89010D6F8901021F00401C6F810
:100E400090103DD0FFF782FB054641F2883700BF86
:100E5000D6F89000800745D4FFF778FB401BB842D6
:100E6000F6D9032002B0BDE8F08100BFF0684FF66C
:100E7000FF7120F00300F060F068CFF6EE610840EB
:100E8000F060FFF763FB0446306880017FF57DAEBC
:100E9000FFF75CFB001B02284FF00300F4D968E069
:100EA000FFF754FB054600BF306880037FF51AAE9C
:100EB000FFF74CFB401B64284FF00300F4D958E0C7
:100EC000FFF744FB054641F2883700BFD6F8900093
:100ED000800707D5FFF73AFB401BB8424FF00300ED
:100EE000F4D946E0B8F1000F7FF407AEB06D20F002
:100EF0008050B06501E600BFF06848F20C01C0F216
:100F00009F1104F1200700EA010C8ECF6FF00F0053
:100F1000D4E90C5400EB02100022CFF6E07241EA53
:100F20000C0102EB055208436FF314024FF07E45AB
:100F300040EA032005EB0465104305F07E4540EAD6
:100F4000C7602843F060306840F080703060F0681F
:100F500040F08070F060FFF7F9FA044630688001D5
:100F60003FF513AEFFF7F2FA001B02284FF0030023
:100F7000F4D902B0BDE8F081411E0020B0EB116F42
:100F80001CBF012070474EF21002CEF200025160E9
:100F90004EF62351CEF20001F0230B700721906032
:100FA0001160704770B590F83C20012A4FF00202A2
:100FB00047D080F83D20026843F2004C54689368A3
:100FC000C4F2010C42F6004E6245C4F2010E01D09B
:100FD000724503D14D6824F470042C434FF68F758D
:100FE000CFF6FF550E682C4042F6FF35C4F20105DE
:100FF0003443AA4254600FDCB2F1804F16D040F265
:101000000046C4F20006B24210D040F60006C4F218
:101010000006B2420AD00EE0724507D044F2000644
:10102000C4F20106B24201D0624504D1896823F0BE
:101030008003194391600121002280F83D1080F85F
:101040003C20104670BD0000002804BF01207047FE
:1010500010B5044690F83D0028B9002084F83C0003
:10106000204600F023F8022084F83D002068211D6E
:1010700000F0BEFC012084F8480084F83E0084F8AB
:101080003F0084F8400084F8410084F8420084F86E
:10109000430084F8440084F8450084F8460084F84E
:1010A000470084F83D00002010BD000081B00068BA
:1010B000B0F1804F02D001B0704700BF41F258003C
:1010C000C4F20200016841F001010160006800F013
:1010D00001000090009801B07047000080B590F8C2
:1010E0003C20012A4FF0020200F0A98080F83D2048
:1010F000D0F800C08822DCF80830CFF6CE721A4053
:10110000CCF808200B686F2B10DD1F22C0F21002F4
:10111000934237DCB3F5005F46DA702B00F0928023
:10112000B3F5805F00F08480D6E000BF2F2B35DD63
:101130004F2B3FDC302B6FD0402B40F0CD80D1F8CF
:1011400004E0C968DCF82030DCF8202022F001023D
:10115000CCF82020DCF8182022F0F00242EA01113D
:1011600023F00A0242EA0E02CCF81810CCF8202034
:10117000DCF808104FF68872CFF6CF721140473175
:1011800054E000BF3F21C0F210018B423ADC202125
:10119000C0F210018B423FD0302139E0E3B3102B75
:1011A0003AD0202B38D097E060D0B3F1101F33D065
:1011B00092E000BF502B6DD0602B40F08D80D1F8B5
:1011C00004E0C968DCF8203023F01003CCF82030AC
:1011D000DCF81830DCF8202023F4704322F0A00261
:1011E00043EA013142EA0E12CCF81810CCF8202064
:1011F000DCF808104FF68872CFF6CF7211406731D5
:1012000014E000BF4021C0F210018B4204D07021D5
:10121000C0F210018B425FD1DCF808104FF68872E3
:10122000CFF6CF721140194341F00701CCF80810F6
:101230000022012180F83D10002180F83C1010466A
:1012400080BD00BFD1E901E3C968DCF8082043EAAA
:101250000E0322F47F4243EA01211143CCF8081027
:10126000DCF8081041F07701E0E700BFD1E901E3C5
:10127000C968DCF8082043EA0E0322F47F4243EAFF
:1012800001211143CCF80810DCF8081041F480412A
:10129000CCE700BFD1F804E0C968DCF82030DCF806
:1012A000202022F00102CCF82020DCF8182022F0C7
:1012B000F00242EA011123F00A0242EA0E02CCF8DF
:1012C0001810CCF82020DCF808104FF68872CFF602
:1012D000CF7211405731A9E70122AAE72DE9F04169
:1012E00090F83C30012B04BF0220BDE8F0814FEAAA
:1012F000B202052A00F28481DFE812F006005000F5
:10130000A200F40046018A0103681A6AA3F180462C
:1013100022F001021A621D6A1A465C6852F818CF60
:101320008F68A6F59636D1F800E025F002054FEA61
:10133000B626072E45EA07050AD80127B74017F059
:10134000E50F1FBFCF6825F00C0527F004073D43CC
:10135000072E0BD8012707FA06F616F0E50F1FBF78
:1013600024F44074D1E9056734433C434FF68C764E
:10137000CFF6FE760CEA060747EA0E075C609F612F
:101380004F6809695F631D629F6947F008079F61A5
:101390009F6927F004079F6177E100BF036843F26C
:1013A00000461A6AC4F2010622F010021A621D6A8F
:1013B0001A465C6852F818EFB3428E68D1F800C044
:1013C00025F0200545EA061505D042F60046C4F290
:1013D0000106B34207D1CE686FF0400725F0C00583
:1013E00007EA06163543A3F18046A6F596364FEA7E
:1013F000B626072E0DD8012707FA06F616F0E50FD8
:101400001FBF24F44064D1E9056744EA860444EA36
:10141000870448F6FF46CFF6FF660EEA060747EA5E
:101420000C275C609F614F6809699F631D629F691B
:1014300047F400679F619F6927F480679F6123E1FC
:10144000036843F200461A6AC4F2010622F480726D
:101450001A621D6A1A465C6852F81CCFB3428E6845
:10146000D1F800E025F4007545EA062505D042F6DE
:101470000046C4F20106B34207D1CE6840F2FF47EE
:10148000360225F44065BE433543A3F18046A6F5F8
:1014900096364FEAB626072E0DD8012707FA06F62C
:1014A00016F0E50F1FBF24F44054D1E9056744EA64
:1014B000061444EA07144FF68C76CFF6FE760CEA53
:1014C000060747EA0E075C60DF614F680969DF6362
:1014D0001D62DF6947F00807DF61DF6927F0040755
:1014E000DF61D2E0036843F200461A6AC4F20106E3
:1014F00022F480521A621D6A1A465C6852F81CCFA8
:10150000B3428E68D1F800E025F4005545EA06356F
:1015100005D042F60046C4F20106B34207D1CE68B8
:1015200044F6FF77360325F44045BE433543A3F127
:101530008046A6F596364FEAB626072E0DD8012727
:1015400007FA06F616F0E50F1FBF24F44044D1E970
:10155000056744EA861444EA871448F6FF46CFF646
:10156000FF660CEA060747EA0E275C60DF614F68FA
:1015700009691F641D62DF6947F40067DF61DF6985
:1015800027F48067DF617FE003681A6AA3F1804770
:1015900022F480321A621A46A7F59637D3F82080D3
:1015A0005D6852F850EFD1F800C08E684FEAB72757
:1015B000072F09D80124BC4014F0E50F1EBF4C6969
:1015C00025F4803545EA042528F4003444EA06442D
:1015D0004FF68C76CFF6FE7603360EEA060747EA1C
:1015E0000C075D601F654F6809699F641C621F6D71
:1015F00047F008071F651F6D27F004071F6544E0CB
:101600000121002280F83C200846BDE8F08100BF9F
:1016100003681A6AA3F1804722F480121A621A46FC
:10162000A7F59637D3F820805D6852F850EFD1F8CF
:1016300000C08E684FEAB727072F09D80124BC40A5
:1016400014F0E50F1EBF4C6925F4802545EA84257A
:1016500028F4001444EA065448F6FF46CFF6FF6625
:1016600006F540760EEA060747EA0C275D601F651F
:101670004F680969DF641C621F6D47F400671F65CE
:101680001F6D27F480671F650902136819431160F5
:101690000021002280F83C200846BDE8F0810000CF
:1016A000002804BF0120704710B5044690F83D00A3
:1016B00028B9002084F83C00204600F023F80220DE
:1016C00084F83D002068211D00F092F9012084F883
:1016D000480084F83E0084F83F0084F8400084F815
:1016E000410084F8420084F8430084F8440084F800
:1016F000450084F8460084F8470084F83D00002047
:1017000010BD00007047000061B10A1F4FEAB2022D
:10171000032A11D8DFE802F00214181C00F13F037D
:1017200018E000BF90F83E20012A1CBF012070473E
:10173000022280F83E202CE000F143030AE000BFC3
:1017400000F1400306E000BF00F1410302E000BFEA
:1017500000F142031B78012B1CBF01207047032AB4
:1017600008D8DFE802F0030B0F1300BF022280F855
:101770003F200EE0022280F843200AE0022280F897
:10178000402006E0022280F8412002E0022280F898
:101790004220026801F01F010120136A00FA01F1E2
:1017A0008B431362136A0B43A2F18041A1F596317A
:1017B0004FEAB1210629136244D8884010F0650F22
:1017C00040D0506C42F6FF31C4F2010140F40040B9
:1017D0008A42506410DCB2F1804F1FD040F20040CA
:1017E000C4F20000824219D040F60000C4F20000AA
:1017F000824213D01FE000BF42F60040C4F2010055
:1018000082420BD044F20000C4F20100824205D0B3
:1018100043F20040C4F2010082420CD190680721DB
:10182000C0F20101014006294FF0000008D0B1F5D7
:10183000803F08BF7047106840F001001060002032
:10184000704700BF42F6FF30C4F201008242C2DDA1
:1018500043F6FF70C4F20100824207DC42F600400A
:10186000C4F201008242D3D1D8E700BF44F20000A5
:10187000C4F201008242D1D044F60000C4F201005B
:10188000824202BF506C40F400405064D3E7000035
:10189000FEE7000082B041F24C00C4F20200016891
:1018A00041F020010160016801F0200101910199DE
:1018B000016841F001010160006800F00100009042
:1018C000009802B07047000010B594B040F270006C
:1018D0000021C2F200004FF08042A9234FF47A7435
:1018E0000E91CDE90C11CDE90911CDE90711CDE932
:1018F0000511CDE90311CDE90111C0E90023C0E9CB
:10190000021401618161FFF79FFB002818BFFEF7F9
:1019100015FD4FF480500B9040F27000C2F20000B1
:101920000BA9FFF7DBFB002818BFFEF707FD40F20D
:101930007000C2F20000FFF7B3FE002818BFFEF7E8
:10194000FDFC40F270000024C2F2000008A90894D7
:101950000A94FFF727FB002818BFFEF7EFFC602072
:10196000CDE901040394059440F27004C2F200042E
:1019700001A920460022FFF7B1FC002818BFFEF79E
:10198000DDFC2068B0F1804F02D014B010BD00BF64
:1019900041F24C00C4F20200016841F00101016013
:1019A0000068022100F001000F900F9801201091B3
:1019B00000210F90CDE9111113900FA94FF0904025
:1019C000FEF7D6FC14B010BDFEE70000FEE70000F5
:1019D0007047000070470000FEF7BEBD4EF688500D
:1019E000CEF20000016841F4700101607047000010
:1019F00080B540F2FF7C0268C4F2000C604521DD36
:101A000040F60003C4F20003984224D043F200439E
:101A1000C4F2010398421ED042F60043C4F201030F
:101A2000984218D043F2FF33C4F2010398421CDC01
:101A3000604529DCB0F1804F3CD040F20043C4F255
:101A4000000335E0B0F1804F05D040F20043C4F20E
:101A500000039842E6D14B6822F070021A4343F229
:101A6000FF33C4F201039842E2DD44F2FF33C4F2D3
:101A70000103984212DC43F20043C4F2010398428E
:101A800018D044F2000311E040F60003C4F2000352
:101A900098420FD042F6004308E000BF44F600032E
:101AA000C4F20103984205D044F20043C4F201039A
:101AB000984203D1CB6822F440721A434B6922F05A
:101AC000800E8A6843EA0E03D1F800C00360C26248
:101AD000A0F18042A2F596324FEAB222072AC0F85E
:101AE00028C007D8012303FA02F212F0E50F1CBF49
:101AF000096901630121416180BD0000FEE700002A
:101B000094B0FEF737FD002400200C94CDE90A4480
:101B1000CDE90844FEF7BAFD012006904FF480306D
:101B20000790022055210D900325CDE91010CDE935
:101B3000120006A8CDE90E55FEF7C6FF20B1EFF35F
:101B4000108072B6FEE700BF0F20CDE9010501A8A5
:101B50000421CDE903440594FEF72CFE20B1EFF3F8
:101B6000108072B6FEE700BFFFF794FEFFF7ACFEF1
:101B700040F27004C2F20004204600210027FFF763
:101B8000C3FD01254FF4FA7607E000BF002E08BF21
:101B900001250A20FEF7D8FB37462068466305EB8F
:101BA000850007EB4006B6F57A7FEFD14FF0FF35A1
:101BB000EFE7F1EE100A4FF6FF71C0F2C03120EAF4
:101BC000010040F04070E1EE100A70470000000094
:101BD000000000000102030406070809001C0008B9
:101BE000000000201000000014020008101C000873
:101BF00010000020B00600003002000800000000C5
:101C000010000000010000000024F40000000000AB
:04000005080001D915
:00000001FF
