:020000040800F2
:10000000780600207902000841100008B10F0008AE
:100010003D100008350300086510000800000000CE
:10002000000000000000000000000000491000086F
:100030003903000800000000451000084D100008BA
:10004000930200089302000893020008930200083C
:10005000930200089302000893020008930200082C
:10006000930200089302000893020008930200081C
:10007000930200089302000893020008930200080C
:100080009302000800000000930200089302000899
:1000900093020008930200089302000893020008EC
:1000A00093020008930200089302000893020008DC
:1000B00093020008930200089302000893020008CC
:1000C00093020008930200089302000893020008BC
:1000D00093020008930200089302000893020008AC
:1000E000930200089302000893020008930200089C
:1000F0009302000893020008930200080000000029
:1001000000000000930200080000000093020008B5
:100110009302000800000000930200089302000808
:10012000930200089302000893020008930200085B
:100130009302000800000000000000009302000885
:100140009302000893020008000000000000000075
:10015000000000000000000000000000000000009F
:1001600000000000000000000000000093020008F2
:1001700093020008000000000000000000000000E2
:1001800000000000930200080000000000000000D2
:10019000000000000000000000000000000000005F
:1001A0000000000000000000930200089302000815
:1001B0009302000893020008930200080000000068
:1001C0000000000093020008000000000000000092
:1001D000930200089302000800F002F800F03CF8D7
:1001E0000AA090E8000C82448344AAF10107DA4592
:1001F00001D100F031F8AFF2090EBAE80F0013F0A8
:10020000010F18BFFB1A43F0010318471C0F000031
:100210003C0F0000103A24BF78C878C1FAD85207C2
:1002200024BF30C830C144BF04680C607047000070
:100230000023002400250026103A28BF78C1FBD8EF
:10024000520728BF30C148BF0B6070471FB500F090
:1002500055FF1FBD10B510BD00F031F81146FFF776
:10026000F5FF00F001FF00F04FF803B4FFF7F2FFD5
:1002700003BC00F057F800000948804709480047D0
:10028000FEE7FEE7FEE7FEE7FEE7FEE7FEE7FEE746
:10029000FEE7FEE704480549054A064B70470000A3
:1002A00051100008D90100087800002078060020CD
:1002B000780200207802002070477047704775462A
:1002C00000F02CF8AE4605006946534620F00700C2
:1002D000854618B020B5FFF7DDFFBDE820404FF0A0
:1002E00000064FF000074FF000084FF0000BAC463F
:1002F000ACE8C009ACE8C009ACE8C009ACE8C0098A
:1003000021F007018D46704710B50446AFF3008019
:100310002046BDE81040FFF7A8BF00000048704726
:100320001000002001491820ABBEFEE726000200A5
:1003300070470000FEE7000070470000B0B50446BB
:1003400000F00AF9054640F20000C2F200004068E1
:10035000611C18BF044400BF00F0FEF8401BA0421F
:10036000FAD3B0BD2DE9F04F84B08E4641F2004281
:10037000C4F60002DEF8004006219042019008BF5A
:100380000521002C009100F0D7800198002500F194
:1003900038424FEAB2230098012700264FF00008A8
:1003A000052B38BF18460090CDF808E00EE000BFDE
:1003B000DEF8004008F1010834FA07F106F1020600
:1003C00007F1010705F1040500F0B680A7F1010A65
:1003D000012000FA0AF314EA0309E9D0DEF804C0A8
:1003E0000CF0030BABF10104012C17D801987446F3
:1003F00081680322E468B2409143B44021438160A4
:1004000041684FEA480E9943CCF3001303FA0AF30C
:100410000446D043194361600CE000BF0321B140A2
:10042000019CC843BBF1030FB64603D1B6464FF05B
:10043000030B23E0E168029A01409368BBF1020FCD
:1004400003FA0EF341EA0301E16017D16FF00301F3
:1004500001EA5A01214405F01C040F23D1F820C001
:1004600003FA04FB13692CEA0B0CA34043EA0C03C8
:10047000019C0B62D2F804C00CF0030B21680BFA4C
:100480000EF2014011432160DDF808E01CF4403F0A
:100490008ED041F26000C4F20200016840F2004CCC
:1004A00041F0010101600168C4F2010C01F0010199
:1004B000039103992AF003014FF6084A6144CFF6ED
:1004C000FF7A05F00C030F2051F80A2000FA03F41C
:1004D0000098A24300FA03F31A4341F80A20DCF81B
:1004E0000810DEF8042041EA090340F20C40D4026F
:1004F00058BF21EA0903CCF80830C4F201000168B2
:10050000940241EA090358BF21EA09030360DCF8B9
:100510000410940341EA090358BF21EA0903CCF807
:100520000430DCF80010D20341EA090358BF21EA85
:100530000903CCF800303BE704B0BDE8F08F0000C1
:100540000069084018BF0120704700001823002AE6
:1005500008BF2823C150704740F27000C2F200006B
:100560000068704740F2000040F27001C2F20000E3
:10057000C2F2000140680A68104408607047000039
:1005800080B5032000F078F8032000F009F8002877
:100590001CBF012080BD00F029F8002080BD0000B4
:1005A00070B540F20006C2F200067168E1B104467F
:1005B00040F20800C2F200004FF47A720068B2FB09
:1005C000F1F1B0FBF1F000F0DDFC0F2C4FF0010574
:1005D00008D838B94FF0FF3021460022002500F03E
:1005E0001FF83460284670BD012070BD82B041F212
:1005F0005800C4F20200816841F001018160816805
:1006000001F0010101910199016841F080510160FF
:10061000006800F080500090009802B07047000021
:1006200010B54EF60C5CCEF2000CDCF80030C3F3D3
:10063000022E8EF00704042C28BF0424BEF103030D
:100640004FF0FF3E0EFA04F438BF0023A143994057
:100650000EFA03F39A43114300F00F02043A624486
:1006600009010C3200F16043B0F1FF3FC8BF03F550
:100670006442117010BD00004EF60C51CEF2000124
:100680000A684FF6FF031A4060F30A2242F08060C6
:1006900040F0FD7008607047B0F5007F42D0002840
:1006A00040F0808047F21400C4F2000050F8141C9F
:1006B000C26E01F4C06122F48072B1F5806FC2662F
:1006C0002ED150F8141C012262F34A2140F8141C68
:1006D00040F20801C2F200010968322251434DF68E
:1006E0008362C4F21B32A1FB0212910C0268520514
:1006F00011D54A1C0FD0026852050CD559B10268B9
:10070000520508D5012906D00268520503D50229F1
:10071000A1F10401EAD10068400544BF03207047FD
:100720000020704747F21400C4F2000050F8141C77
:10073000C26E01F4C06142F48072B1F5806FC2668E
:10074000EED150F8141C012262F34A2140F8141C27
:1007500040F20801C2F200010968322251434DF60D
:100760008362C4F21B32A1FB0212910C0268520593
:1007700011D54A1C0FD0026852050CD559B1026838
:10078000520508D5012906D00268520503D5022971
:10079000A1F10401EAD10068400544BF032070477D
:1007A000BEE700BF47F21400C4F2000050F8141C6A
:1007B000022262F34A2140F8141C00207047000016
:1007C0002DE9F04700286DD042F2000AC4F2020A77
:1007D0000446DAF800000D4600F00F0088420CD203
:1007E000DAF8000020F00F002843CAF80000DAF819
:1007F000000000F00F00A84254D1216841F208081F
:10080000C807C4F2020803D1880740F1D880BDE0D0
:10081000606802283AD0032840D158F8082C920189
:1008200040D5D8F80420D8F8043042F2004702F04E
:100830000302C3F30313C0F2F4070133032A04BF16
:1008400041F60037C0F2B707D8F80420B7FBF3F33E
:10085000D8F80470C2F306225A43C7F34163022753
:1008600007EB4303B2FBF3F24BF20043C0F2C44385
:100870009A4261D9D8F8002012F0F00F51D08907C0
:100880005AD5A168002957D14BE000BF58F8081C81
:1008900089035CBF0120BDE8F08707E058F8081C19
:1008A000490503D40120BDE8F08700BFD8F8001047
:1008B00001F00C0104293FD0D8F8001001F00C0120
:1008C000082939D0D8F8001001F00C010C2933D1D7
:1008D000D8F80410D8F8042042F2004301F00301D4
:1008E000C2F30312C0F2F4030132032904BF41F63C
:1008F0000033C0F2B703D8F80410B3FBF2F2D8F813
:100900000430C1F306215143C3F34162022303EBD8
:100910004202B1FBF2F14BF20042C0F2C4429142FA
:100920000AD9D8F80010082262F307114FF0010924
:10093000C8F8001002E000BF4FF00009D8F800101E
:1009400021F003010843C8F80000FFF705FE064642
:1009500041F28837D8F80000616800F00C00B0EB75
:10096000810F07D0FFF7F8FD801BB842F2D90320B2
:10097000BDE8F0872168880708D4B9F1000F1ED0C0
:10098000D8F8000020F0F00017E000BF480705D5B8
:10099000D8F8000040F4E060C8F80000080706D569
:1009A000D8F80000072262F30D20C8F80000D8F83C
:1009B0000000A26820F0F0001043C8F80000DAF848
:1009C000000000F00F00A8421BD9DAF8000020F068
:1009D0000F002843CAF80000FFF7BEFD064641F2AB
:1009E000883700BFDAF8000000F00F00A84207D0F7
:1009F000FFF7B2FD801BB842F4D90320BDE8F087B1
:100A00002168480707D5D8F80000E26820F4E060C4
:100A10001043C8F80000080708D5D8F8000021697D
:100A200020F4605040EAC100C8F80000D8F8000087
:100A300042F20041C0F2F40100F00C000428084624
:100A40002DD0D8F8000000F00C00082841F6003046
:100A5000C0F2B70023D0D8F8002002F00C020C2A14
:100A60001CD1D8F80420D8F8043002F00302C3F3F4
:100A700003130133032A08BF0146D8F80400B1FB71
:100A8000F3F1D8F80420C0F306204843C2F34161D3
:100A9000022202EB4101B0FBF1F000E00020D8F8A7
:100AA000001041F21612C1F30311C0F60002515CAE
:100AB00040F2080201F01F0120FA01F140F20000AB
:100AC000C2F200000068C2F200021160BDE8F04707
:100AD000FFF766BD2DE9F04182B0002800F00681E5
:100AE0000446007841F20006C007C4F2020655D160
:100AF0002078800774D42078000700F19780207850
:100B0000400700F1B7802078800600F10781E06996
:100B1000002840D0B16801F00C010C2940F056814A
:100B2000012800F0E380F068216A00F003028A42A5
:100B300040F0DC80626A6FF00F0300F0F00103EB1D
:100B40000212914240F0D280A16A00F4FE42B2EB60
:100B5000012F40F0CB80E16A00F07842B2EBC16F28
:100B600040F0C480226B0023CFF6E07303EB025207
:100B700000F4C0016FF31402914240F0B780616B42
:100B80004FF07E4202EB016100F0C06001F07E4157
:100B9000884240F0AB800020F1E100BFB06800F077
:100BA0000C01F06808295BD0032281F00C0122EAD5
:100BB00000000844B0FA80F0400951D16068B0F5F7
:100BC000803F07D0B0F5A02F40F0D680306840F4C9
:100BD00080203060306840F480303060D7E000BF63
:100BE000B068F16800F00C00042869D001F003013E
:100BF00080F00C0081F002010844B0FA80F0400956
:100C00005ED1E1683068002900F0CE8040F4807049
:100C10003060FFF7A1FC05463068400500F1EC802C
:100C2000FFF79AFC401B0228F6D920E16169D6F84B
:100C30009400002900F08C8040F00100C6F8940078
:100C4000FFF78AFC054600BFD6F8940080073FF501
:100C500056AFFFF781FC401B0228F5D907E100BF22
:100C6000306880037FF544AF606800287FF440AFB0
:100C70003CE000BFB06D10F0805808D1B06D40F07E
:100C80008050B065B06D00F080500190019847F23F
:100C90000007C4F200073868C0052BD4386840F458
:100CA00080703860FFF758FC054600BF3868C00503
:100CB00020D4FFF751FC401B0228F7D9D7E000BF32
:100CC0003068400501D5E06880B17068216920F086
:100CD000FE4040EA0160706040F20000C2F2000095
:100CE0000068FFF75DFC00283FF405AF012002B06B
:100CF000BDE8F081A068012808D0052840F09A805E
:100D0000D6F8900040F00400C6F89000D6F89000A5
:100D100040F00100C6F890009AE000BFA169D6F843
:100D20009800002970D040F00100C6F89800FFF745
:100D300013FC0546D6F8980080073FF5E8AEFFF7AC
:100D40000BFC401B02284FF00300F3D917E100BF52
:100D500020F00100C6F89400FFF7FEFB054600BF37
:100D6000D6F8940080077FF5CAAEFFF7F5FB401B6D
:100D70000228F5D97BE000BF3168002821F48031DA
:100D80003160316821F48021316000F08F80FFF7FD
:100D9000E3FB0546306880033FF5AAAEFFF7DCFBB6
:100DA000401B6428F6D962E020F480703060FFF7C1
:100DB000D3FB0546306840057FF59DAEFFF7CCFBC1
:100DC000401B02284FF00300F4D9D8E03168022814
:100DD00021F0807131604FD1FFF7BEFB054600BFA7
:100DE0003068800140F18E80FFF7B6FB401B02287F
:100DF0004FF00300F4D9C2E07068216920F0FE4092
:100E000040EA0160706076E620F00100C6F89800C4
:100E1000FFF7A2FB054600BFD6F8980080077FF5D4
:100E200076AEFFF799FB401B02284FF00300F3D981
:100E3000A5E000BFD6F89010002821F00101C6F807
:100E40009010D6F8901021F00401C6F890103DD013
:100E5000FFF782FB054641F2883700BFD6F89000C5
:100E6000800745D4FFF778FB401BB842F6D9032032
:100E700002B0BDE8F08100BFF0684FF6FF7120F0CE
:100E80000300F060F068CFF6EE610840F060FFF715
:100E900063FB0446306880017FF57DAEFFF75CFBA5
:100EA000001B02284FF00300F4D968E0FFF754FB61
:100EB000054600BF306880037FF51AAEFFF74CFB94
:100EC000401B64284FF00300F4D958E0FFF744FBBF
:100ED000054641F2883700BFD6F89000800707D555
:100EE000FFF73AFB401BB8424FF00300F4D946E04D
:100EF000B8F1000F7FF407AEB06D20F08050B06500
:100F000001E600BFF06848F20C01C0F29F1104F145
:100F1000200700EA010C8ECF6FF00F00D4E90C54CB
:100F200000EB02100022CFF6E07241EA0C0102EB66
:100F3000055208436FF314024FF07E4540EA032048
:100F400005EB0465104305F07E4540EAC760284381
:100F5000F060306840F080703060F06840F0807081
:100F6000F060FFF7F9FA0446306880013FF513AEF0
:100F7000FFF7F2FA001B02284FF00300F4D902B089
:100F8000BDE8F081411E0020B0EB116F1CBF0120B5
:100F900070474EF21002CEF2000251604EF623511D
:100FA000CEF20001F0230B700721906011607047B2
:100FB000FEE70000F0B587B0002641F24C0006962F
:100FC000C4F20200016840F6000441F0040101602F
:100FD0000168C4F6000401F004010191019901685F
:100FE000002241F02001016001684FF4005501F03A
:100FF000200101910199016841F00101016000683F
:101000004FF4005100F00100019001982046FFF7D5
:101010009DFA029502AD012720462946CDE90376C7
:101020000596FFF79FF940F2011002A9C1C14FF0E8
:1010300090402946FFF796F907B0F0BDFEE70000A3
:10104000FEE700007047000070470000FFF78ABA13
:101050004EF68850CEF20000016841F47001016044
:1010600070470000FEE7000094B0FFF789FA002403
:1010700000200C94CDE90A44CDE90844FFF70CFBAD
:10108000012006904FF480300790022055210D90EA
:101090000325CDE91010CDE9120006A8CDE90E55C3
:1010A000FFF718FD20B1EFF3108072B6FEE700BF26
:1010B0000F20CDE9010501A80421CDE903440594E1
:1010C000FFF77EFB20B1EFF3108072B6FEE700BFA2
:1010D000FFF770FF40F60004C4F600044FF09040A4
:1010E0004FF48071FFF72CFA024620464FF400516E
:1010F000FFF72CFA0A20FFF721F9EFE7F1EE100ACB
:101100004FF6FF71C0F2C03120EA010040F040709C
:10111000E1EE100A7047000000000000000001022C
:101120000304060708090000481100080000002019
:1011300010000000140200085811000810000020E0
:1011400068060000300200081000000001000000E6
:081150000024F400000000007F
:04000005080001D915
:00000001FF
