:020000040800F2
:1000000010040020ED010008CB0D00082D0D0008A4
:10001000C90D000859020008550E00080000000034
:10002000000000000000000000000000CF0D0008EC
:100030005B02000800000000CD0D0008D10D000893
:10004000070200080702000807020008070200086C
:10005000070200080702000807020008070200085C
:10006000070200080702000807020008070200084C
:10007000070200080702000807020008070200083C
:10008000070200080702000807020008070200082C
:10009000070200080702000807020008070200081C
:1000A000070200080702000807020008070200080C
:1000B00007020008070200080702000807020008FC
:1000C00007020008070200080702000807020008EC
:1000D00007020008070200080702000807020008DC
:1000E00007020008070200080702000807020008CC
:1000F00007020008070200080702000807020008BC
:1001000007020008070200080702000807020008AB
:10011000070200080702000807020008070200089B
:10012000070200080702000807020008070200088B
:10013000070200080702000807020008070200087B
:10014000070200080702000807020008070200086B
:10015000070200080702000807020008070200085B
:10016000070200080702000807020008070200084B
:10017000070200080702000807020008070200083B
:10018000070200080702000807020008070200082B
:10019000070200080000000007020008070200082C
:1001A000070200080702000807020008070200080B
:1001B00007020008070200080702000807020008FB
:1001C00007020008070200080702000807020008EB
:1001D0000702000807020008DFF80CD000F02AF838
:1001E00000480047590E00081004002006488047C8
:1001F00006480047FEE7FEE7FEE7FEE7FEE7FEE70C
:10020000FEE7FEE7FEE7FEE7450E0008D90100081D
:10021000D2B201E000F8012B491EFBD27047002248
:10022000F6E710B513460A4604461946FFF7F0FFF5
:10023000204610BD064C074D06E0E06840F0010383
:1002400094E8070098471034AC42F6D3FFF7C8FF94
:10025000BC0E0008DC0E0008FEE77047B0B504468F
:1002600000F0E4F805468D48611C406818BF04445E
:1002700000F0DCF8401BA042FAD3B0BD2DE9FC4FE2
:100280005D4A06274FF0000A4FF0010C4FF00309BA
:100290004FF0000B0026904200F138424FEAB223A3
:1002A00008BF0527052B38BF4FEAB22700970A6819
:1002B00032FA06F308BFBDE8FC8F0CFA06F312EA27
:1002C000030E00F092804C6804F00302551E012DCD
:1002D00016D8D0F8088009FA0BF528EA0508CD6889
:1002E00005FA0BF545EA08058560C4F3001505FA23
:1002F00006F8456825EA030343EA0803436001E082
:10030000032A1DD0C56809FA0BF3022A25EA030364
:100310008D6805FA0BF543EA0503C36010D1374C2D
:100320000AF01C020F23934004EA56040444256A91
:1003300025EA03030D6905FA02F21A4322624C68AA
:10034000056804F0030209FA0BF314F4403F02FAC3
:100350000BF225EA030342EA0302026045D0284A71
:100360000AF00C050F2707FA05FC136843F0010398
:100370001360126802F00102019226F00302214C80
:10038000019B214B224452F80380009F28EA0C0C69
:1003900007FA05F545EA0C054FF0010CD550A268A7
:1003A0004B6822EA0E0213F4801F18BF42EA0E02C5
:1003B00013F4001FA260154A156825EA0E0518BF40
:1003C00045EA0E0513F4003F1560626822EA0E024A
:1003D00018BF42EA0E0213F4803F6260226822EAEC
:1003E0000E0218BF42EA0E0222600AF1040A0BF163
:1003F000020B01365BE700BF00140048FCFFFF7FE3
:10040000601002400004014008FCFFFF0C040140A2
:100410000069084018BF0120704700F12803002A36
:1004200018BF00F118031960704700001B4880686E
:10043000704700BF19484168826811448160704765
:1004400080B5032000F072F8032000F007F808B12F
:10045000012080BD00F024F8002080BD70B50F4E53
:1004600004467068B0B14FF47A71B1FBF0F0DE4928
:100470000968B1FBF0F000F045FC01250F2C0AD80B
:1004800048B94FF0FF3021460022002500F022F845
:10049000346000E00125284670BD00BF0000002048
:1004A00082B00B48816841F001018160816801F0F0
:1004B000010101910199016841F0805101600068DA
:1004C00000F080500090009802B000F095B800BF96
:1004D00058100240B0B5144C1A4D00F00F03B0F1A3
:1004E000FF3FA3F104032B4403F10C03C8BF03191E
:1004F0002868C0F30220051DC41E80F00700072DE8
:100500004FF0010538BF0024042828BF042005FA55
:1005100000F00138084005FA04F10F31A040114005
:10052000084300011870B0BD00E400E005494FF633
:10053000FF030A681A4060F30A2203481043086068
:10054000704700BF0CED00E00000FA05284910B329
:100550000A68B0F5007F43D1D1F8800040F4807084
:10056000C1F8800002F4C060B0F5806F3CD108682B
:10057000012262F34A20322208609B4800685043FF
:100580001C4AB0FBF2F0C0434A6918B3013012F4C0
:100590008062F9D11EE00868D1F8802000F4C060C4
:1005A00022F48072B0F5806FC1F880201CD10868F9
:1005B000012262F34A20322208608B4800685043CF
:1005C0000C4AB0FBF2F0C0434A6918B1013012F492
:1005D0008062F9D1486910F4806F05D0032004E0EF
:1005E000022060F34A220A600020C0B2704700BFB8
:1005F0000070004040420F000248016841F4804111
:1006000001607047087000402DE9F04781468A4636
:10061000B9F1000F52D0714F4FF48050395801F0AA
:100620000F0151450AD2395821F00F0141EA0A0160
:100630003950385800F00F0050453FD1D9F800002C
:1006400010F0010F02D14FF0000864E0D9F8041057
:10065000634E03292DD1396811F0007F2ED0F9683F
:10066000FA68FB68FD680224C5F3416501F00301E7
:1006700004EB4505774C032904BF41F60034C0F272
:10068000B704C2F30311C3F306220131B4FBF1F145
:100690005143B1FBF5F1B14208D9B96811F0F00F3F
:1006A00016D0800702D5D9F8080088B14FF00008AD
:1006B00015E03868022905D1800305D40120C0B2B5
:1006C000BDE8F0874005F9D500F092F8B042EDD9C9
:1006D000B86808214FF0800861F30710B860B86867
:1006E000D9F8041020F003000843B860FFF79EFE1D
:1006F000064641F28834B868D9F8041000F00C00BE
:10070000B0EB810F05D0FFF791FE801BA042F2D91C
:100710003AE0D9F80000810706D4B8F1800F17D16C
:10072000B96821F0F00112E0410742BFB96841F415
:10073000E061B960010741BFB968072262F30D218A
:10074000B960B968D9F8082021F0F0011143B96007
:100750004FF48054395901F00F01514518D93859D7
:1007600020F00F0040EA0A003851FFF75FFE06460E
:1007700041F28835385900F00F00504506D0FFF798
:1007800055FE801BA842F5D9032098E7D9F8000050
:10079000410706D5B968D9F80C2021F4E06111436E
:1007A000B960000707D5B868D9F8101020F4605078
:1007B00040EAC100B86000F01BF8B968094AC1F30B
:1007C0000311515C01F01F01C84007490860074848
:1007D0000068BDE8F047FFF741BE00BF00100240CF
:1007E00000B4C404AA0E00080C0000200000002081
:1007F00017490868174A00F00C000428104608BF83
:100800007047086800F00C031348082B1ED00B68D3
:1008100003F00C030C2B1CBF002070474B6803F047
:100820000303032B08BF02464868C0F303100130DE
:10083000B2FBF0F04A68C2F3062249685043022234
:10084000C1F3416102EB4101B0FBF1F0704700BF21
:10085000081002400024F400001BB7002DE9F84303
:100860008146B9F1000F00F0D98199F80000C84E17
:10087000C84FC00722D199F8000080074FD499F8DB
:100880000000000740F1AB80D9F81410D7F89000B1
:10089000002900F0928040F00100C7F89000FFF7B7
:1008A000C5FD0546D7F8900010F0020F40F0978084
:1008B000FFF7BCFD401B0228F4D9E0E0786800F0A7
:1008C0000C01B868082954D000F003000C39033833
:1008D000B1FA81F1B0FA80F04909400908400128D5
:1008E00047D0D9F80440B4F5803F07D03068B4F55C
:1008F000A02F40F0E18040F480203060306840F468
:1009000080303060FFF792FD0546306810F4003FFC
:10091000B1D1FFF78BFD401B6428F6D9AFE07868B2
:1009200000F00C01B86804292ED000F003000C3947
:100930000238B1FA81F1B0FA80F049094009084063
:10094000012821D0D9F80C103068002900F09980D6
:1009500040F480703060FFF769FD0546306810F4A0
:10096000806F40F0A080FFF761FD401B0228F5D9A1
:1009700085E0306810F4003F3FF47DAFD9F8040003
:1009800000287FF478AF49E1306810F4806F04D01C
:10099000D9F80C00002800F041813868D9F810100F
:1009A00020F0FE4040EA01603860D1480068FFF75F
:1009B00055FD002840F0328161E720F00100C7F8C2
:1009C0009000FFF733FD0546D7F8900010F0020FB6
:1009D00005D0FFF72BFD401B0228F5D94FE099F811
:1009E0000000400740F1A580786D10F0805F0BD1CA
:1009F000786D4FF0010840F080507865786D00F018
:100A000080500090009801E04FF00008B94830583D
:100A100010F4807F12D1B748315841F480713150C1
:100A2000FFF704FD0546B348305810F4807F05D128
:100A3000FFF7FCFC401B0228F5D920E0D9F808405C
:100A4000012C07D0D7F88C00052C4ED140F00400C3
:100A5000C7F88C00D7F88C0040F00100C7F88C0074
:100A6000FFF7E4FC054641F28834D7F88C0010F01B
:100A7000020F57D1FFF7DAFC401BA042F5D9032043
:100A8000CDE020F480703060FFF7D0FC0546306880
:100A900010F4806F3FF4F3AEFFF7C8FC411B032056
:100AA0000229F4D9BBE03868D9F8101020F0FE40D4
:100AB00040EA01603860E2E620F48030306030685F
:100AC00020F480203060FFF7B1FC0546002C7FF455
:100AD0001CAF306810F4003F3FF4CDAEFFF7A6FC2A
:100AE000411B03206429F4D999E020F00100C7F8E4
:100AF0008C00D7F88C0020F00400C7F88C00FFF7BA
:100B000095FC0546002CAED141F28834D7F88C0014
:100B100010F0020F06D0FFF789FC411B0320A14211
:100B2000F4D97CE0B8F1010F02BF786D20F080505D
:100B3000786599F8000080062ED5D9F81810D7F8F6
:100B4000940091B140F00100C7F89400FFF76EFCEB
:100B50000546D7F8940010F0020F1DD1FFF766FC90
:100B6000411B03200229F4D959E020F00100C7F805
:100B70009400FFF75BFC0546D7F8940010F0020FD5
:100B80000AD0FFF753FC411B03200229F4D946E0A9
:100B90000010024004100240D9F81C00002800F0A8
:100BA000A480796801F00C010C293CD1012835D0D2
:100BB000B868D9F8201000F003028A422ED1D9F883
:100BC00024106FF00F0202EB011100F0F0028A42D4
:100BD00024D1D9F8281000F4FE42B2EB012F1DD128
:100BE000D9F82C1000F07842B2EBC16F16D1D9F8C9
:100BF0003010434A02EA015100F4C002A1F500118D
:100C00008A420BD1D9F834104FF07E4200F0C06018
:100C100002EA016101F17E41884266D00120C0B242
:100C200001B0BDE8F0833168022821F080713160A5
:100C30000DD1FFF7FBFB0546306810F0007F1CD09C
:100C4000FFF7F4FB411B03200229F5D9E7E7B86859
:100C500020F00300B860B86827490840B860FFF783
:100C6000E5FB0446306810F0007F3ED0FFF7DEFB66
:100C7000011B03200229F5D9D1E709F12005B86845
:100C80006FF00F042ECD04EB02121C4C20400843E1
:100C9000D9F8301010431A4A40EA032002EA015101
:100CA0004FF07E42A1F500110843D9F8341040EA14
:100CB000C56002EA016101F17E410843B860306815
:100CC00040F080703060B86840F08070B860FFF726
:100CD000ADFB0446306810F0007F06D1FFF7A6FB9D
:100CE000011B03200229F5D999E7002097E700BFEF
:100CF000000000200060FEFFFFFFEEFE0C809F0161
:100D00000000E0FF411E0020B0EB116F1CBF01206E
:100D10007047044AF023516003490B70072190602B
:100D20001160704710E000E023ED00E0FEE70000F6
:100D3000F0B587B0002600224FF4005506962048F3
:100D4000016841F004010160016801F004010191B2
:100D50000199016841F020010160016801F0200162
:100D600001910199016841F001010160016801F000
:100D7000010101910199016841F0020101604FF404
:100D80000051006800F00200019001980D4C2046CF
:100D9000FFF743FB029502AD012720462946CDE926
:100DA00003760596FFF76AFA4FF4807002A9C1C175
:100DB000A4F580602946FFF761FA07B0F0BD00BFD7
:100DC0004C10024000080048FEE7FEE770477047FD
:100DD000FFF730BB70B594B006AC142104F10800E5
:100DE000FFF71DFA01A81421FFF719FA00200025CA
:100DF000FFF7ACFB01200326552106904FF480300D
:100E0000079002200D90CDE90E66CDE91010CDE9D6
:100E100012002046FFF722FD18B1EFF3108072B6E2
:100E2000FEE70F200421CDE9010601A8CDE9035515
:100E30000595FFF7E9FB18B1EFF3108072B6FEE7F6
:100E400014B070BD0248016841F470010160704740
:100E500088ED00E0FEE7000010B5FFF7F1FAFFF7BC
:100E6000B9FFFFF765FF084C4FF480712046FFF78C
:100E7000CFFA024604F580604FF40051FFF7CDFA37
:100E80000A20FFF7EBF9EEE70004004802E008C88B
:100E9000121F08C1002AFAD170477047002001E0F4
:100EA00001C1121F002AFBD17047000000000000A2
:100EB000000001020304060708090000E00E000814
:100EC00000000020100000008C0E0008F00E00084A
:100ED00010000020000400009C0E0008000000002C
:100EE0001000000001000000000000000024F400D9
:04000005080001D915
:00000001FF
