:020000040800F2
:10000000C0060020CD010008E51400089113000887
:10001000E114000889020008F9140008000000003B
:10002000000000000000000000000000ED140008C7
:100030008D02000800000000E9140008F114000817
:10004000E7010008E7010008E7010008E7010008F0
:10005000E7010008E7010008E7010008E7010008E0
:10006000E7010008E7010008E7010008E7010008D0
:10007000E7010008E7010008E7010008E7010008C0
:10008000E7010008E7010008E7010008E7010008B0
:10009000E7010008E7010008E7010008E7010008A0
:1000A000E7010008E7010008E7010008E701000890
:1000B000E7010008E7010008E7010008E701000880
:1000C000E7010008E7010008E7010008E701000870
:1000D000E7010008E7010008E7010008E701000860
:1000E000E7010008E7010008E7010008E701000850
:1000F000E7010008E7010008E7010008E701000840
:10010000E7010008E7010008E7010008E70100082F
:10011000E7010008E7010008E7010008E70100081F
:10012000E7010008E7010008E7010008E70100080F
:1001300000F002F800F03AF80AA090E8000C8244BF
:100140008344AAF10107DA4501D100F02FF8AFF29C
:10015000090EBAE80F0013F0010F18BFFB1A43F0A5
:10016000010318476414000084140000103A24BFEF
:1001700078C878C1FAD8520724BF30C830C144BF0C
:1001800004680C607047000000230024002500264E
:10019000103A28BF78C1FBD8520728BF30C148BFEA
:1001A0000B6070471FB51FBD10B510BD00F031F8D2
:1001B0001146FFF7F7FF01F0A1F900F04FF803B483
:1001C000FFF7F2FF03BC00F057F800000948804732
:1001D00009480047FEE7FEE7FEE7FEE7FEE7FEE729
:1001E000FEE7FEE7FEE7FEE704480549054A064B41
:1001F00070470000F514000831010008C00000201D
:10020000C0060020C0020020C002002070477047D6
:100210007047754600F02CF8AE4605006946534617
:1002200020F00700854618B020B5FFF7DDFFBDE8D8
:1002300020404FF000064FF000074FF000084FF04D
:10024000000BAC46ACE8C009ACE8C009ACE8C0099A
:10025000ACE8C00921F007018D46704710B504468F
:10026000AFF300802046BDE81040FFF7A8BF0000B4
:10027000004870471000002001491820ABBEFEE77F
:100280002600020070470000FEE7000070470000F3
:10029000EFF3108072B600BFFEE70000B0B5044671
:1002A00000F012F9054640F20000C2F200000078AA
:1002B000611C18BF044400BF00F006F9401BA042B7
:1002C000FAD3B0BD2DE9F04F83B041F60043C4F23C
:1002D00001030E6806229842019008BF0522002EF5
:1002E000009200F0ED80019840F20C45A0F18043AF
:1002F000A3F584334FEAB32740F200404FF6FF7373
:10030000C4F20105C4F20100009A4FF0000E4FF054
:10031000010CC1F210034FF0000A4FF0000B4FF038
:100320000F08052F38BF3A46009208E00E680AF120
:10033000010A36FA0AF20EF1040E00F0C1800CFA3E
:100340000AF916EA090FF1D04E689E4212DC122E0D
:1003500056D8DFE806F0350B4549555555555555E6
:10036000555555555555554D510000BFD1F80CB058
:1003700046E000BF4FF6FF72C1F2210296420FDC49
:100380000022C1F2110296421AD00022C1F21202DA
:10039000964215D00022C1F22102964210D02FE0E1
:1003A0000022C1F2220296420AD00022C1F231029A
:1003B000964205D00022C1F23202964220D100BFFF
:1003C0008E684EB1012E019A14BFC2F81490C2F883
:1003D00010904FF0080B13E04FF0040B10E000BF3B
:1003E000CF6807F1080B0BE04FF0000B08E000BFEF
:1003F000CF6807F1040B03E0CF6807F10C0B00BFD7
:100400007446BAF1080F28BF203C019F28BF04376B
:100410003E6808FA04F226EA02020BFA04F63243B6
:100420003A60CA79D2067FF581AF41F21807C4F26B
:1004300002073A684FF6084C42F001023A603A6807
:10044000CFF6FF7C02F001020292029A2AF0030228
:10045000024452F80C700EF00C0608FA06F4A7439A
:10046000009C04FA06F6374342F80C70D1F804C039
:100470005FEACC32026854BF22EA090642EA090662
:100480005FEA8C320660426854BF22EA090642EAFB
:1004900009065FEACC224660826854BF22EA090658
:1004A00042EA09065FEA8C2286604FF0010C2A6856
:1004B00054BF22EA090642EA09062E6036E700BF69
:1004C00003B0BDE8F08F000040F2B800C2F20000B7
:1004D0000068704740F2000040F2B801C2F200002C
:1004E000C2F2000100780A681044086070470000FA
:1004F00080B542F20000C4F20200016841F0100130
:100500000160032000F072F8032000F005F800F00D
:1005100027F8002080BD000070B540F20006C2F24E
:10052000000640F208013278C2F200014FF47A73FB
:100530000968B3FBF2F20446B1FBF2F1084600F0A1
:100540001FFB0F2C4FF0010508D838B94FF0FF30D2
:1005500021460022002500F01DF87460284670BD79
:1005600082B041F21800C4F20200016841F00101BA
:100570000160016801F0010101910199416841F0B8
:1005800080514160406800F080500090009802B0B7
:100590007047000010B54EF60C5CCEF2000CDCF893
:1005A0000030C3F3022E8EF00704042C28BF04246D
:1005B000BEF103034FF0FF3E0EFA04F438BF0023F0
:1005C000A14399400EFA03F39A43114300F00F023E
:1005D000043A624409010C3200F16043B0F1FF3F7C
:1005E000C8BF03F56442117010BD00004EF60C51F7
:1005F000CEF200010A684FF6FF031A4060F30A22A8
:1006000042F0806040F0FD70086070472DE9F043D3
:1006100081B0002800F0858042F20008C4F2020890
:100620000446D8F800000D4600F0070088420CD2BE
:10063000D8F8000020F007002843C8F80000D8F8D8
:10064000000000F00700A8426BD1206841F20409C5
:100650008107C4F2020917D5410705D5D9F8001062
:1006600041F4E061C9F80010010705D5D9F8001080
:1006700041F46051C9F80010D9F80010A26821F0C7
:10068000F0011143C9F80010C00741D1D8F80000AB
:1006900000F00700A8420CD9D8F8000020F00700AD
:1006A0002843C8F80000D8F8000000F00700A8426E
:1006B00037D12068410707D5D9F80010E26821F446
:1006C000E0611143C9F80010000708D5D9F800000F
:1006D000216920F4605040EAC100C9F80000D9F84F
:1006E000002002F00C00082841F20020C0F27A003D
:1006F00050D141F2B853C2F38341C0F60003595CB4
:10070000D2033BD440F60010C0F23D00484341E024
:10071000606802280AD001282AD159F8041C8903EC
:1007200008D4012001B0BDE8F08300BF59F8041CD3
:100730008901F6D5D9F8001021F003010843C9F862
:100740000000FFF7C1FE064641F28837D9F80000E5
:10075000616800F00C00B0EB810F97D0FFF7B4FE9A
:10076000801BB842F2D9032001B0BDE8F08300BF7E
:1007700059F8041C8907D4D5DCE700BFD9F800205C
:1007800041F2A653C2F34042C0F600039A5C4843CC
:10079000B0FBF2F0D9F8001041F2A852C1F30311F6
:1007A000C0F60002515C40F2080220FA01F140F26A
:1007B0000400C2F200000068C2F200021160FFF7FC
:1007C000ABFE002001B0BDE8F08300002DE9F04150
:1007D00082B0002868D00446007841F20006C007C5
:1007E000C4F2020625D0706800F00C0004281BD06B
:1007F000706800F00C00082802D17068C00313D4A0
:100800006068002800F06881B0F5A02F00F07C81BE
:10081000B0F5803F00F07C81306820F4803030609B
:10082000306820F4802076E13068800301D560686C
:10083000D0B32078800718D5706810F00C0F07D05F
:10084000706800F00C0008286ED17068C0036BD48B
:100850003068800702D52069012825D13068616998
:1008600020F0F80040EAC1003060207800071FD473
:100870002078400732D4E56995B1706800F00C002B
:10088000082840F08F80012D0ED07068216A00F496
:1008900080328A4208D1616A00F47010884203D124
:1008A000002002B0BDE8F081012002B0BDE8F08177
:1008B000A069002862D00020C4F242200121C0F8C3
:1008C0008014FFF701FE0546706A800700F18C80F6
:1008D000FFF7FAFD401B0228F6D92AE1F06910F073
:1008E000805808D1F06940F08050F061F06900F064
:1008F00080500090009847F20007C4F20007386863
:10090000C00529D4386840F480703860FFF7DCFDFA
:10091000054600BF3868C0051ED4FFF7D5FD401B53
:100920006428F7D905E100BF2069002840F20000E3
:10093000C4F2422000F0828001210160FFF7C4FD73
:10094000054600BF306880073FF588AFFFF7BCFD64
:10095000401B0228F6D9ECE0E068002800F0808017
:10096000052800F09780012800F09880306A20F078
:1009700001003062306A20F0040092E00020C4F2EE
:1009800042200021C0F88014FFF79EFD054600BFFD
:10099000706A80077FF56CAFFFF796FD401B022859
:1009A000F6D9C6E00027C4F2422700203866FFF7D8
:1009B0008BFD022D05460BD13068800140F1BE80D1
:1009C000FFF782FD401B02284FF00300F4D968E7CF
:1009D000306880017FF564AFFFF776FD401B022889
:1009E0004FF00300F4D95CE740F20800C2F20000C7
:1009F000006844F6D351C1F26201A0FB0101480A2C
:100A0000019000BF00BF0198411E002801913FF4F2
:100A10002FAF00BF0198411E002801913FF428AF7D
:100A200000BF0198411E002801913FF421AF00BF93
:100A30000198411E00280191E4D119E700210160CD
:100A4000FFF742FD054600BF306880077FF50DAF18
:100A5000FFF73AFD401B02284FF00300F4D920E7CE
:100A6000306A20F001003062306A20F00400306209
:100A7000FFF72AFD054641F2883700BF306A80073C
:100A800020D5FFF721FD401BB8424FF00300F5D9F8
:100A900007E700BF306A40F004003062306A40F07F
:100AA00001003062FFF710FD054641F2883700BFB4
:100AB000306A800706D4FFF707FD401BB842F7D91C
:100AC00037E000BFB8F1000F7FF4D5AEF06920F039
:100AD0008050F061CFE600BF306820F48030306095
:100AE000306820F480203060FFF7EEFC054600BF40
:100AF000306880037FF59DAEFFF7E6FC401B64285D
:100B00004FF00300F4D9CCE6306840F48020306028
:100B1000306840F480303060FFF7D6FC054600BFF7
:100B2000306880033FF585AEFFF7CEFC401B64289C
:100B3000F6D9032002B0BDE8F08100BF206AB0F50D
:100B4000803F05D17168A26821F4003111437160C2
:100B50007168626A21F474111043084370600120C7
:100B60003866FFF7B1FC0446306880013FF598AE67
:100B7000FFF7AAFC001B02284FF00300F4D990E60F
:100B8000411E0020B0EB116F1CBF012070474EF2D8
:100B90001002CEF2000251604EF62351CEF2000157
:100BA000F0230B70072190601160704710B590F82A
:100BB0003C20012A4FF002023FD080F83D2002681D
:100BC000D2F804E0D2F808C00C682EF0700323437A
:100BD00040F6FF34C4F20004A242536010DCB2F1CC
:100BE000804F1FD040F20043C4F200039A4219D054
:100BF00040F60003C4F200039A4213D017E000BF8E
:100C000040F60043C4F200039A420BD043F2004383
:100C1000C4F201039A4205D042F60043C4F2010334
:100C20009A4204D149682CF0800319439160012154
:100C3000002280F83D1080F83C20104610BD0000D6
:100C4000002804BF0120704710B5044690F83D000D
:100C500028B9002084F83C00204600F085F80220E6
:100C600084F83D00206840F6FF330268C4F20003B8
:100C700043F2004C9842C4F2010C21DCB0F1804FE9
:100C80002CD040F20041C4F20001884226D040F648
:100C90000001C4F20001884220D0984224DCB0F167
:100CA000804F2FD040F20041C4F20001884229D089
:100CB00040F60001C4F20001884223D026E000BFC4
:100CC00040F60041C4F20001884207D0604505D0DB
:100CD00042F60041C4F201018842DED1A16822F04F
:100CE00070020A439842DADD40F60041C4F2000186
:100CF000884207D0604505D042F60041C4F20101A8
:100D0000884203D1216922F440720A43A36922F088
:100D10008001D4F804E0E268194360450160C262D2
:100D2000C0F828E005D042F60041C4F20101884233
:100D300001D16169016301214161002084F84610FD
:100D400084F83E1084F83F1084F8401084F8411075
:100D500084F8421084F8431084F8441084F8451055
:100D600084F83D1010BD000081B0006840F20041E1
:100D7000C4F20001884201D001B0704741F21C006A
:100D8000C4F20200016841F002010160006800F055
:100D900002000090009801B07047000080B590F804
:100DA0003C20012A4FF0020200F0BF8080F83D2075
:100DB000D0F800C04FF67772DCF8083023EA020260
:100DC000CCF808200B683F2B1CDD5F2B20DD602B4F
:100DD00050D0B3F5005F6DD0702B40F0A080D1E90A
:100DE00001E3C968DCF8082043EA0E0322F47F42DD
:100DF00043EA01211143CCF80810DCF8081041F057
:100E000077018AE01F2B29DC63B3102B2AD086E000
:100E1000402B63D0502B40F08280D1F804E0C968A9
:100E2000DCF82030DCF8202022F00102CCF8202071
:100E3000DCF8182022F0F00242EA011123F00A0245
:100E400042EA0E02CCF81810CCF82020DCF808108A
:100E500041F0570121F020015FE000BF202B01D0BD
:100E6000302B5CD1DCF8081021F07001194341F0FF
:100E7000070152E0D1F804E0C968DCF8203023F023
:100E80001003CCF82030DCF81830DCF8202023F4F4
:100E9000704322F0A00243EA013142EA0E12CCF87C
:100EA0001810CCF82020DCF8081041F0670121F080
:100EB000100132E0D1E901E3C968DCF8082043EA17
:100EC0000E0322F47F4243EA01211143CCF80810BB
:100ED000DCF8081041F480411FE000BFD1F804E0C5
:100EE000C968DCF82030DCF8202022F00102CCF8C0
:100EF0002020DCF8182022F0F00242EA011123F051
:100F00000A0242EA0E02CCF81810CCF82020DCF8D5
:100F1000081041F0470121F03001CCF80810012100
:100F2000002280F83D1080F83C20104680BD000073
:100F30002DE9F04190F83C30012B04BF0220BDE8C0
:100F4000F0814FEAB202032A00F21381DFE802F0D7
:100F500002468ED8036843F200461A6AC4F20106BC
:100F600022F001021A621D6A1A465C6852F818EFF4
:100F70008F68D1F800C025F00205B34245EA0705A5
:100F800005D042F60047C4F20107BB4205D1CF6845
:100F900025F00C0527F004073D43B34205D042F687
:100FA0000046C4F20106B34205D1D1E9056724F435
:100FB000407434433C432EF0730747EA0C075C60EF
:100FC0009F614F6809695F631D629F6947F0080769
:100FD0009F619F6927F004079F61C7E0036843F2A0
:100FE00000481A6AC4F2010822F010021A621D6A4F
:100FF0001A465C6852F818EF8F68D1F800C025F0E7
:101000002005434545EA071505D042F60047C4F2DE
:101010000107BB4207D1CF686FF0400625F0C0053D
:1010200006EA07163543434505D042F60046C4F2AA
:101030000106B34207D1D1E9056724F4406444EACC
:10104000860444EA87042EF4E64747EA0C275C60EE
:101050009F614F6809699F631D629F6947F400673C
:101060009F619F6927F480679F617EE0036843F278
:1010700000481A6AC4F2010822F480721A621D6ADA
:101080001A465C6852F81CCF8F68D1F800E025F44E
:101090000075434545EA072505D042F60047C4F2EE
:1010A0000107BB4208D1CF6840F2FF463F0225F45A
:1010B000406527EA06063543434505D042F600461B
:1010C000C4F20106B34207D1D1E9056724F44054C4
:1010D00044EA061444EA07142CF0730747EA0E07A3
:1010E0005C60DF614F680969DF631D62DF6947F09B
:1010F0000807DF61DF6927F00407DF6136E000BF22
:10110000036843F200471A6AC4F2010722F48052CE
:101110001A621A46D3F820C05D6852F81C4FD1F805
:1011200000E08E68BB4205D042F60047C4F20107DA
:10113000BB4204D14F6925F4804545EA87152CF45C
:10114000005747EA063724F4E64646EA0E265D6075
:10115000DE614E6809691E641F62DF6947F400673B
:10116000DF61DF6927F48067DF61090213681943D3
:101170001160002180F83C100846BDE8F0810000B5
:10118000002804BF0120704710B5044690F83D00C8
:1011900028B9002084F83C00204600F085F80220A1
:1011A00084F83D00206840F6FF330268C4F2000373
:1011B00043F2004C9842C4F2010C21DCB0F1804FA4
:1011C0002CD040F20041C4F20001884226D040F603
:1011D0000001C4F20001884220D0984224DCB0F122
:1011E000804F2FD040F20041C4F20001884229D044
:1011F00040F60001C4F20001884223D026E000BF7F
:1012000040F60041C4F20001884207D0604505D095
:1012100042F60041C4F201018842DED1A16822F009
:1012200070020A439842DADD40F60041C4F2000140
:10123000884207D0604505D042F60041C4F2010162
:10124000884203D1216922F440720A43A36922F043
:101250008001D4F804E0E268194360450160C2628D
:10126000C0F828E005D042F60041C4F201018842EE
:1012700001D16169016301214161002084F84610B8
:1012800084F83E1084F83F1084F8401084F8411030
:1012900084F8421084F8431084F8441084F8451010
:1012A00084F83D1010BD00007047000041B10829CE
:1012B00010D0042914BF00F1410200F13F020BE0FD
:1012C00090F83E20012A1CBF01207047022280F8BE
:1012D0003E2013E000F140021278012A1CBF0120D9
:1012E00070470222082907D0042914BF80F8412042
:1012F00080F83F2002E000BF80F84020006801F045
:101300001F010122036A02FA01F123EA01020262CB
:10131000026A114340F6FF32C4F2000290420162B9
:101320000EDCB0F1804F25D040F20041C4F2000144
:1013300088421FD040F60001C4F2000118E000BF4F
:1013400040F60041C4F20001884213D043F200424B
:10135000C4F2010242F600419042C4F2010101D000
:1013600088420ED1436C904243F40043436401D061
:10137000884206D1816801F00701062904BF0020D8
:101380007047016841F001010160002070470000D2
:10139000FEE7000082B041F21800C4F202000168CA
:1013A00041F020010160016801F0200101910199E3
:1013B000016841F010010160006800F01000009029
:1013C000009802B070470000B0B594B040F20045FC
:1013D00040F27000C4F200050021C2F20000472272
:1013E0004FF47A730E91CDE90C110991CDE90711F3
:1013F000CDE90511CDE90311CDE90111C0E9005294
:10140000C0E9021301618161FFF71AFC002818BFCF
:10141000FEF73EFF4FF480500B9040F27000C2F296
:1014200000000BA9FFF7BAFC002818BFFEF730FF39
:1014300040F27000C2F20000FFF7A2FE002818BFC1
:10144000FEF726FF40F270000024C2F2000008A957
:10145000CDE90844FFF7AAFB002818BFFEF718FFE4
:10146000602001904FF4FA70CDE90204059440F237
:101470007004C2F2000401A920460422FFF758FDBF
:10148000002818BFFEF704FF20680021A84212912F
:1014900002D014B0B0BD00BF41F21800C4F2020087
:1014A000016841F010010160006810A900F010000F
:1014B0000F900F988020109002201190139041F20D
:1014C0000000C4F20100FEF7FDFE0420C4F201009A
:1014D000016841F0E06141F44061016014B0B0BDC9
:1014E000FEE70000FEE700007047000070470000C4
:1014F000FEF7F0BF70470000FEE7000090B0FEF777
:10150000F7FF00240120CDE90B44CDE90944069002
:101510000A904FF4E0104FF4803102250F9006A896
:10152000CDE90714CDE90D51FFF750F920B1EFF3E4
:10153000108072B6FEE700BF0F20CDE901054FF421
:101540008060CDE9040401A802210394FFF75EF84E
:1015500020B1EFF3108072B6FEE700BFFFF71AFF6D
:10156000FFF732FF40F27004C2F20004204604216B
:10157000FFF79CFE002001254FF4FA7607E000BF3C
:10158000002E08BF01250A20FEF788FE304621689C
:101590008E6305EB850100EB4106B6F57A7FEFD14E
:1015A0004FF0FF35EFE701020000000000000000EF
:1015B00001020304060708090203040506070809D7
:1015C0000A0B0C0D0E0F1010E8150008000000208B
:1015D000100000006C010008F81500081000002041
:1015E000B0060000880100080100000010000000A3
:0815F0000024F40000000000DB
:0400000508000131BD
:00000001FF
